{
	"data": {
		"bytecode": {
			"linkReferences": {},
			"object": "6080604052348015600e575f5ffd5b506129c48061001c5f395ff3fe608060405234801561000f575f5ffd5b506004361061007b575f3560e01c8063bcdfe0d511610059578063bcdfe0d5146100fd578063e6a594bc1461011b578063f15da72914610137578063f3a01fd2146101535761007b565b8063058187aa1461007f5780635ca94b73146100b1578063b288366b146100cd575b5f5ffd5b610099600480360381019061009491906106a4565b61016f565b6040516100a893929190610703565b60405180910390f35b6100cb60048036038101906100c69190610738565b610233565b005b6100e760048036038101906100e291906106a4565b6102e3565b6040516100f4919061081b565b60405180910390f35b61010561032b565b6040516101129190610894565b60405180910390f35b610135600480360381019061013091906108de565b610368565b005b610151600480360381019061014c91906109c3565b610418565b005b61016d60048036038101906101689190610a0e565b610455565b005b5f5f5f5f5f856040516101829190610ad0565b90815260200160405180910390205f9054906101000a900473ffffffffffffffffffffffffffffffffffffffff1690508073ffffffffffffffffffffffffffffffffffffffff1663ef040bb16040518163ffffffff1660e01b8152600401606060405180830381865afa1580156101fb573d5f5f3e3d5ffd5b505050506040513d601f19601f8201168201806040525081019061021f9190610b10565b809450819550829650505050509193909250565b5f5f846040516102439190610ad0565b90815260200160405180910390205f9054906101000a900473ffffffffffffffffffffffffffffffffffffffff1690508073ffffffffffffffffffffffffffffffffffffffff1663b68cc7998484336040518463ffffffff1660e01b81526004016102b093929190610b60565b5f604051808303815f87803b1580156102c7575f5ffd5b505af11580156102d9573d5f5f3e3d5ffd5b5050505050505050565b6001818051602081018201805184825260208301602085012081835280955050505050505f915054906101000a900473ffffffffffffffffffffffffffffffffffffffff1681565b60606040518060400160405280600581526020017f48656c6c6f000000000000000000000000000000000000000000000000000000815250905090565b5f5f846040516103789190610ad0565b90815260200160405180910390205f9054906101000a900473ffffffffffffffffffffffffffffffffffffffff1690508073ffffffffffffffffffffffffffffffffffffffff1663c543691a8484336040518463ffffffff1660e01b81526004016103e593929190610ba3565b5f604051808303815f87803b1580156103fc575f5ffd5b505af115801561040e573d5f5f3e3d5ffd5b5050505050505050565b7fdb84d7c006c4de68f9c0bd50b8b81ed31f29ebeec325c872d36445c6565d757c8282604051610449929190610c0b565b60405180910390a15050565b5f3383836040516104659061054a565b61047193929190610c2d565b604051809103905ff08015801561048a573d5f5f3e3d5ffd5b509050805f8560405161049d9190610ad0565b90815260200160405180910390205f6101000a81548173ffffffffffffffffffffffffffffffffffffffff021916908373ffffffffffffffffffffffffffffffffffffffff160217905550806001856040516104f99190610ad0565b90815260200160405180910390205f6101000a81548173ffffffffffffffffffffffffffffffffffffffff021916908373ffffffffffffffffffffffffffffffffffffffff16021790555050505050565b611d2580610c6a83390190565b5f604051905090565b5f5ffd5b5f5ffd5b5f5ffd5b5f5ffd5b5f601f19601f8301169050919050565b7f4e487b71000000000000000000000000000000000000000000000000000000005f52604160045260245ffd5b6105b682610570565b810181811067ffffffffffffffff821117156105d5576105d4610580565b5b80604052505050565b5f6105e7610557565b90506105f382826105ad565b919050565b5f67ffffffffffffffff82111561061257610611610580565b5b61061b82610570565b9050602081019050919050565b828183375f83830152505050565b5f610648610643846105f8565b6105de565b9050828152602081018484840111156106645761066361056c565b5b61066f848285610628565b509392505050565b5f82601f83011261068b5761068a610568565b5b813561069b848260208601610636565b91505092915050565b5f602082840312156106b9576106b8610560565b5b5f82013567ffffffffffffffff8111156106d6576106d5610564565b5b6106e284828501610677565b91505092915050565b5f819050919050565b6106fd816106eb565b82525050565b5f6060820190506107165f8301866106f4565b61072360208301856106f4565b61073060408301846106f4565b949350505050565b5f5f5f6060848603121561074f5761074e610560565b5b5f84013567ffffffffffffffff81111561076c5761076b610564565b5b61077886828701610677565b935050602084013567ffffffffffffffff81111561079957610798610564565b5b6107a586828701610677565b925050604084013567ffffffffffffffff8111156107c6576107c5610564565b5b6107d286828701610677565b9150509250925092565b5f73ffffffffffffffffffffffffffffffffffffffff82169050919050565b5f610805826107dc565b9050919050565b610815816107fb565b82525050565b5f60208201905061082e5f83018461080c565b92915050565b5f81519050919050565b5f82825260208201905092915050565b8281835e5f83830152505050565b5f61086682610834565b610870818561083e565b935061088081856020860161084e565b61088981610570565b840191505092915050565b5f6020820190508181035f8301526108ac818461085c565b905092915050565b6108bd816107fb565b81146108c7575f5ffd5b50565b5f813590506108d8816108b4565b92915050565b5f5f5f606084860312156108f5576108f4610560565b5b5f84013567ffffffffffffffff81111561091257610911610564565b5b61091e86828701610677565b935050602084013567ffffffffffffffff81111561093f5761093e610564565b5b61094b86828701610677565b925050604061095c868287016108ca565b9150509250925092565b5f5ffd5b5f5ffd5b5f5f83601f84011261098357610982610568565b5b8235905067ffffffffffffffff8111156109a05761099f610966565b5b6020830191508360018202830111156109bc576109bb61096a565b5b9250929050565b5f5f602083850312156109d9576109d8610560565b5b5f83013567ffffffffffffffff8111156109f6576109f5610564565b5b610a028582860161096e565b92509250509250929050565b5f5f5f60608486031215610a2557610a24610560565b5b5f84013567ffffffffffffffff811115610a4257610a41610564565b5b610a4e86828701610677565b9350506020610a5f868287016108ca565b925050604084013567ffffffffffffffff811115610a8057610a7f610564565b5b610a8c86828701610677565b9150509250925092565b5f81905092915050565b5f610aaa82610834565b610ab48185610a96565b9350610ac481856020860161084e565b80840191505092915050565b5f610adb8284610aa0565b915081905092915050565b610aef816106eb565b8114610af9575f5ffd5b50565b5f81519050610b0a81610ae6565b92915050565b5f5f5f60608486031215610b2757610b26610560565b5b5f610b3486828701610afc565b9350506020610b4586828701610afc565b9250506040610b5686828701610afc565b9150509250925092565b5f6060820190508181035f830152610b78818661085c565b90508181036020830152610b8c818561085c565b9050610b9b604083018461080c565b949350505050565b5f6060820190508181035f830152610bbb818661085c565b9050610bca602083018561080c565b610bd7604083018461080c565b949350505050565b5f610bea838561083e565b9350610bf7838584610628565b610c0083610570565b840190509392505050565b5f6020820190508181035f830152610c24818486610bdf565b90509392505050565b5f606082019050610c405f83018661080c565b610c4d602083018561080c565b8181036040830152610c5f818461085c565b905094935050505056fe608060405234801561000f575f5ffd5b50604051611d25380380611d2583398181016040528101906100319190610418565b5f60048260405161004291906104c8565b90815260200160405180910390205f01819055505f60048260405161006791906104c8565b9081526020016040518091039020600201819055505f60048260405161008d91906104c8565b908152602001604051809103902060010181905550825f5f6101000a81548173ffffffffffffffffffffffffffffffffffffffff021916908373ffffffffffffffffffffffffffffffffffffffff1602179055508160015f6101000a81548173ffffffffffffffffffffffffffffffffffffffff021916908373ffffffffffffffffffffffffffffffffffffffff160217905550806002908161013091906106e4565b50600560405180606001604052808381526020018473ffffffffffffffffffffffffffffffffffffffff16815260200142815250908060018154018082558091505060019003905f5260205f2090600302015f909190919091505f820151815f01908161019d91906106e4565b506020820151816001015f6101000a81548173ffffffffffffffffffffffffffffffffffffffff021916908373ffffffffffffffffffffffffffffffffffffffff1602179055506040820151816002015550505f5f9054906101000a900473ffffffffffffffffffffffffffffffffffffffff1673ffffffffffffffffffffffffffffffffffffffff165f73ffffffffffffffffffffffffffffffffffffffff167e7582b62407f53d49cfc72e7ddab574c06ef3b8aced104b54b7bed4681ee54a60405160405180910390a35050506107b3565b5f604051905090565b5f5ffd5b5f5ffd5b5f73ffffffffffffffffffffffffffffffffffffffff82169050919050565b5f6102ab82610282565b9050919050565b6102bb816102a1565b81146102c5575f5ffd5b50565b5f815190506102d6816102b2565b92915050565b5f5ffd5b5f5ffd5b5f601f19601f8301169050919050565b7f4e487b71000000000000000000000000000000000000000000000000000000005f52604160045260245ffd5b61032a826102e4565b810181811067ffffffffffffffff82111715610349576103486102f4565b5b80604052505050565b5f61035b610271565b90506103678282610321565b919050565b5f67ffffffffffffffff821115610386576103856102f4565b5b61038f826102e4565b9050602081019050919050565b8281835e5f83830152505050565b5f6103bc6103b78461036c565b610352565b9050828152602081018484840111156103d8576103d76102e0565b5b6103e384828561039c565b509392505050565b5f82601f8301126103ff576103fe6102dc565b5b815161040f8482602086016103aa565b91505092915050565b5f5f5f6060848603121561042f5761042e61027a565b5b5f61043c868287016102c8565b935050602061044d868287016102c8565b925050604084015167ffffffffffffffff81111561046e5761046d61027e565b5b61047a868287016103eb565b9150509250925092565b5f81519050919050565b5f81905092915050565b5f6104a282610484565b6104ac818561048e565b93506104bc81856020860161039c565b80840191505092915050565b5f6104d38284610498565b915081905092915050565b7f4e487b71000000000000000000000000000000000000000000000000000000005f52602260045260245ffd5b5f600282049050600182168061052257607f821691505b602082108103610535576105346104de565b5b50919050565b5f819050815f5260205f209050919050565b5f6020601f8301049050919050565b5f82821b905092915050565b5f600883026105977fffffffffffffffffffffffffffffffffffffffffffffffffffffffffffffffff8261055c565b6105a1868361055c565b95508019841693508086168417925050509392505050565b5f819050919050565b5f819050919050565b5f6105e56105e06105db846105b9565b6105c2565b6105b9565b9050919050565b5f819050919050565b6105fe836105cb565b61061261060a826105ec565b848454610568565b825550505050565b5f5f905090565b61062961061a565b6106348184846105f5565b505050565b5b818110156106575761064c5f82610621565b60018101905061063a565b5050565b601f82111561069c5761066d8161053b565b6106768461054d565b81016020851015610685578190505b6106996106918561054d565b830182610639565b50505b505050565b5f82821c905092915050565b5f6106bc5f19846008026106a1565b1980831691505092915050565b5f6106d483836106ad565b9150826002028217905092915050565b6106ed82610484565b67ffffffffffffffff811115610706576107056102f4565b5b610710825461050b565b61071b82828561065b565b5f60209050601f83116001811461074c575f841561073a578287015190505b61074485826106c9565b8655506107ab565b601f19841661075a8661053b565b5f5b828110156107815784890151825560018201915060208501945060208101905061075c565b8683101561079e578489015161079a601f8916826106ad565b8355505b6001600288020188555050505b505050505050565b611565806107c05f395ff3fe608060405234801561000f575f5ffd5b5060043610610091575f3560e01c8063b68cc79911610064578063b68cc7991461011d578063bb56d41214610139578063c543691a14610169578063eacad77414610185578063ef040bb1146101b757610091565b80633018205f146100955780633e11e378146100b35780636118b23c146100cf57806397c38cfc14610101575b5f5ffd5b61009d6101d7565b6040516100aa9190610b70565b60405180910390f35b6100cd60048036038101906100c89190610bc4565b6101fe565b005b6100e960048036038101906100e49190610c35565b61034a565b6040516100f893929190610cdf565b60405180910390f35b61011b60048036038101906101169190610e47565b610424565b005b61013760048036038101906101329190610ebd565b61070d565b005b610153600480360381019061014e9190610f45565b6107ce565b6040516101609190610f8c565b60405180910390f35b610183600480360381019061017e9190610fac565b610881565b005b61019f600480360381019061019a9190610f45565b610a25565b6040516101ae93929190611018565b60405180910390f35b6101bf610a63565b6040516101ce93929190611018565b60405180910390f35b5f5f5f9054906101000a900473ffffffffffffffffffffffffffffffffffffffff16905090565b805f5f9054906101000a900473ffffffffffffffffffffffffffffffffffffffff1673ffffffffffffffffffffffffffffffffffffffff168173ffffffffffffffffffffffffffffffffffffffff161461028d576040517f08c379a000000000000000000000000000000000000000000000000000000000815260040161028490611097565b60405180910390fd5b8273ffffffffffffffffffffffffffffffffffffffff165f5f9054906101000a900473ffffffffffffffffffffffffffffffffffffffff1673ffffffffffffffffffffffffffffffffffffffff167e7582b62407f53d49cfc72e7ddab574c06ef3b8aced104b54b7bed4681ee54a60405160405180910390a3825f5f6101000a81548173ffffffffffffffffffffffffffffffffffffffff021916908373ffffffffffffffffffffffffffffffffffffffff160217905550505050565b60058181548110610359575f80fd5b905f5260205f2090600302015f91509050805f018054610378906110e2565b80601f01602080910402602001604051908101604052809291908181526020018280546103a4906110e2565b80156103ef5780601f106103c6576101008083540402835291602001916103ef565b820191905f5260205f20905b8154815290600101906020018083116103d257829003601f168201915b505050505090806001015f9054906101000a900473ffffffffffffffffffffffffffffffffffffffff16908060020154905083565b60015f9054906101000a900473ffffffffffffffffffffffffffffffffffffffff1673ffffffffffffffffffffffffffffffffffffffff163373ffffffffffffffffffffffffffffffffffffffff16146104b3576040517f08c379a00000000000000000000000000000000000000000000000000000000081526004016104aa9061115c565b60405180910390fd5b61056f6003836040516104c691906111b4565b908152602001604051809103902080546104df906110e2565b80601f016020809104026020016040519081016040528092919081815260200182805461050b906110e2565b80156105565780601f1061052d57610100808354040283529160200191610556565b820191905f5260205f20905b81548152906001019060200180831161053957829003601f168201915b505050505060405180602001604052805f815250610ad9565b156105b257600160046002604051610587919061125c565b90815260200160405180910390206001015f8282546105a6919061129f565b92505081905550610709565b6106606003836040516105c591906111b4565b908152602001604051809103902080546105de906110e2565b80601f016020809104026020016040519081016040528092919081815260200182805461060a906110e2565b80156106555780601f1061062c57610100808354040283529160200191610655565b820191905f5260205f20905b81548152906001019060200180831161063857829003601f168201915b505050505082610ad9565b156106a357600160046002604051610678919061125c565b90815260200160405180910390206002015f828254610697919061129f565b92505081905550610708565b6001600460026040516106b6919061125c565b90815260200160405180910390205f015f8282546106d4919061129f565b925050819055507f9155208b51995e04c988eb045ef59af0f5f785f942cb81688516362b62d8fac060405160405180910390a15b5b5050565b805f5f9054906101000a900473ffffffffffffffffffffffffffffffffffffffff1673ffffffffffffffffffffffffffffffffffffffff168173ffffffffffffffffffffffffffffffffffffffff161461079c576040517f08c379a000000000000000000000000000000000000000000000000000000000815260040161079390611097565b60405180910390fd5b826003856040516107ad91906111b4565b908152602001604051809103902090816107c79190611460565b5050505050565b6003818051602081018201805184825260208301602085012081835280955050505050505f915090508054610802906110e2565b80601f016020809104026020016040519081016040528092919081815260200182805461082e906110e2565b80156108795780601f1061085057610100808354040283529160200191610879565b820191905f5260205f20905b81548152906001019060200180831161085c57829003601f168201915b505050505081565b805f5f9054906101000a900473ffffffffffffffffffffffffffffffffffffffff1673ffffffffffffffffffffffffffffffffffffffff168173ffffffffffffffffffffffffffffffffffffffff1614610910576040517f08c379a000000000000000000000000000000000000000000000000000000000815260040161090790611097565b60405180910390fd5b600560405180606001604052808681526020018573ffffffffffffffffffffffffffffffffffffffff16815260200142815250908060018154018082558091505060019003905f5260205f2090600302015f909190919091505f820151815f01908161097c9190611460565b506020820151816001015f6101000a81548173ffffffffffffffffffffffffffffffffffffffff021916908373ffffffffffffffffffffffffffffffffffffffff16021790555060408201518160020155505083600290816109de9190611460565b508260015f6101000a81548173ffffffffffffffffffffffffffffffffffffffff021916908373ffffffffffffffffffffffffffffffffffffffff16021790555050505050565b6004818051602081018201805184825260208301602085012081835280955050505050505f91509050805f0154908060010154908060020154905083565b5f5f5f60046002604051610a77919061125c565b90815260200160405180910390206002015460046002604051610a9a919061125c565b90815260200160405180910390205f015460046002604051610abc919061125c565b908152602001604051809103902060010154925092509250909192565b5f81604051602001610aeb91906111b4565b6040516020818303038152906040528051906020012083604051602001610b1291906111b4565b6040516020818303038152906040528051906020012014905092915050565b5f73ffffffffffffffffffffffffffffffffffffffff82169050919050565b5f610b5a82610b31565b9050919050565b610b6a81610b50565b82525050565b5f602082019050610b835f830184610b61565b92915050565b5f604051905090565b5f5ffd5b5f5ffd5b610ba381610b50565b8114610bad575f5ffd5b50565b5f81359050610bbe81610b9a565b92915050565b5f5f60408385031215610bda57610bd9610b92565b5b5f610be785828601610bb0565b9250506020610bf885828601610bb0565b9150509250929050565b5f819050919050565b610c1481610c02565b8114610c1e575f5ffd5b50565b5f81359050610c2f81610c0b565b92915050565b5f60208284031215610c4a57610c49610b92565b5b5f610c5784828501610c21565b91505092915050565b5f81519050919050565b5f82825260208201905092915050565b8281835e5f83830152505050565b5f601f19601f8301169050919050565b5f610ca282610c60565b610cac8185610c6a565b9350610cbc818560208601610c7a565b610cc581610c88565b840191505092915050565b610cd981610c02565b82525050565b5f6060820190508181035f830152610cf78186610c98565b9050610d066020830185610b61565b610d136040830184610cd0565b949350505050565b5f5ffd5b5f5ffd5b7f4e487b71000000000000000000000000000000000000000000000000000000005f52604160045260245ffd5b610d5982610c88565b810181811067ffffffffffffffff82111715610d7857610d77610d23565b5b80604052505050565b5f610d8a610b89565b9050610d968282610d50565b919050565b5f67ffffffffffffffff821115610db557610db4610d23565b5b610dbe82610c88565b9050602081019050919050565b828183375f83830152505050565b5f610deb610de684610d9b565b610d81565b905082815260208101848484011115610e0757610e06610d1f565b5b610e12848285610dcb565b509392505050565b5f82601f830112610e2e57610e2d610d1b565b5b8135610e3e848260208601610dd9565b91505092915050565b5f5f60408385031215610e5d57610e5c610b92565b5b5f83013567ffffffffffffffff811115610e7a57610e79610b96565b5b610e8685828601610e1a565b925050602083013567ffffffffffffffff811115610ea757610ea6610b96565b5b610eb385828601610e1a565b9150509250929050565b5f5f5f60608486031215610ed457610ed3610b92565b5b5f84013567ffffffffffffffff811115610ef157610ef0610b96565b5b610efd86828701610e1a565b935050602084013567ffffffffffffffff811115610f1e57610f1d610b96565b5b610f2a86828701610e1a565b9250506040610f3b86828701610bb0565b9150509250925092565b5f60208284031215610f5a57610f59610b92565b5b5f82013567ffffffffffffffff811115610f7757610f76610b96565b5b610f8384828501610e1a565b91505092915050565b5f6020820190508181035f830152610fa48184610c98565b905092915050565b5f5f5f60608486031215610fc357610fc2610b92565b5b5f84013567ffffffffffffffff811115610fe057610fdf610b96565b5b610fec86828701610e1a565b9350506020610ffd86828701610bb0565b925050604061100e86828701610bb0565b9150509250925092565b5f60608201905061102b5f830186610cd0565b6110386020830185610cd0565b6110456040830184610cd0565b949350505050565b7f43616c6c6572206973206e6f7420636f6e74726f6c6c657200000000000000005f82015250565b5f611081601883610c6a565b915061108c8261104d565b602082019050919050565b5f6020820190508181035f8301526110ae81611075565b9050919050565b7f4e487b71000000000000000000000000000000000000000000000000000000005f52602260045260245ffd5b5f60028204905060018216806110f957607f821691505b60208210810361110c5761110b6110b5565b5b50919050565b7f43616c6c6572206973206e6f74206567726573732065646765000000000000005f82015250565b5f611146601983610c6a565b915061115182611112565b602082019050919050565b5f6020820190508181035f8301526111738161113a565b9050919050565b5f81905092915050565b5f61118e82610c60565b611198818561117a565b93506111a8818560208601610c7a565b80840191505092915050565b5f6111bf8284611184565b915081905092915050565b5f819050815f5260205f209050919050565b5f81546111e8816110e2565b6111f2818661117a565b9450600182165f811461120c576001811461122157611253565b60ff1983168652811515820286019350611253565b61122a856111ca565b5f5b8381101561124b5781548189015260018201915060208101905061122c565b838801955050505b50505092915050565b5f61126782846111dc565b915081905092915050565b7f4e487b71000000000000000000000000000000000000000000000000000000005f52601160045260245ffd5b5f6112a982610c02565b91506112b483610c02565b92508282019050808211156112cc576112cb611272565b5b92915050565b5f6020601f8301049050919050565b5f82821b905092915050565b5f6008830261131c7fffffffffffffffffffffffffffffffffffffffffffffffffffffffffffffffff826112e1565b61132686836112e1565b95508019841693508086168417925050509392505050565b5f819050919050565b5f61136161135c61135784610c02565b61133e565b610c02565b9050919050565b5f819050919050565b61137a83611347565b61138e61138682611368565b8484546112ed565b825550505050565b5f5f905090565b6113a5611396565b6113b0818484611371565b505050565b5b818110156113d3576113c85f8261139d565b6001810190506113b6565b5050565b601f821115611418576113e9816111ca565b6113f2846112d2565b81016020851015611401578190505b61141561140d856112d2565b8301826113b5565b50505b505050565b5f82821c905092915050565b5f6114385f198460080261141d565b1980831691505092915050565b5f6114508383611429565b9150826002028217905092915050565b61146982610c60565b67ffffffffffffffff81111561148257611481610d23565b5b61148c82546110e2565b6114978282856113d7565b5f60209050601f8311600181146114c8575f84156114b6578287015190505b6114c08582611445565b865550611527565b601f1984166114d6866111ca565b5f5b828110156114fd578489015182556001820191506020850194506020810190506114d8565b8683101561151a5784890151611516601f891682611429565b8355505b6001600288020188555050505b50505050505056fea264697066735822122095c48f74e15a9a0d6b280b2a606b60f05552063e442096ee5e2678196d46186464736f6c634300081c0033a26469706673582212201799b6b354cfd54f6896ba3c80ec2763aa90f5c832a84acadd227adcbc5a923d64736f6c634300081c0033",
			"opcodes": "PUSH1 0x80 PUSH1 0x40 MSTORE CALLVALUE DUP1 ISZERO PUSH1 0xE JUMPI PUSH0 PUSH0 REVERT JUMPDEST POP PUSH2 0x29C4 DUP1 PUSH2 0x1C PUSH0 CODECOPY PUSH0 RETURN INVALID PUSH1 0x80 PUSH1 0x40 MSTORE CALLVALUE DUP1 ISZERO PUSH2 0xF JUMPI PUSH0 PUSH0 REVERT JUMPDEST POP PUSH1 0x4 CALLDATASIZE LT PUSH2 0x7B JUMPI PUSH0 CALLDATALOAD PUSH1 0xE0 SHR DUP1 PUSH4 0xBCDFE0D5 GT PUSH2 0x59 JUMPI DUP1 PUSH4 0xBCDFE0D5 EQ PUSH2 0xFD JUMPI DUP1 PUSH4 0xE6A594BC EQ PUSH2 0x11B JUMPI DUP1 PUSH4 0xF15DA729 EQ PUSH2 0x137 JUMPI DUP1 PUSH4 0xF3A01FD2 EQ PUSH2 0x153 JUMPI PUSH2 0x7B JUMP JUMPDEST DUP1 PUSH4 0x58187AA EQ PUSH2 0x7F JUMPI DUP1 PUSH4 0x5CA94B73 EQ PUSH2 0xB1 JUMPI DUP1 PUSH4 0xB288366B EQ PUSH2 0xCD JUMPI JUMPDEST PUSH0 PUSH0 REVERT JUMPDEST PUSH2 0x99 PUSH1 0x4 DUP1 CALLDATASIZE SUB DUP2 ADD SWAP1 PUSH2 0x94 SWAP2 SWAP1 PUSH2 0x6A4 JUMP JUMPDEST PUSH2 0x16F JUMP JUMPDEST PUSH1 0x40 MLOAD PUSH2 0xA8 SWAP4 SWAP3 SWAP2 SWAP1 PUSH2 0x703 JUMP JUMPDEST PUSH1 0x40 MLOAD DUP1 SWAP2 SUB SWAP1 RETURN JUMPDEST PUSH2 0xCB PUSH1 0x4 DUP1 CALLDATASIZE SUB DUP2 ADD SWAP1 PUSH2 0xC6 SWAP2 SWAP1 PUSH2 0x738 JUMP JUMPDEST PUSH2 0x233 JUMP JUMPDEST STOP JUMPDEST PUSH2 0xE7 PUSH1 0x4 DUP1 CALLDATASIZE SUB DUP2 ADD SWAP1 PUSH2 0xE2 SWAP2 SWAP1 PUSH2 0x6A4 JUMP JUMPDEST PUSH2 0x2E3 JUMP JUMPDEST PUSH1 0x40 MLOAD PUSH2 0xF4 SWAP2 SWAP1 PUSH2 0x81B JUMP JUMPDEST PUSH1 0x40 MLOAD DUP1 SWAP2 SUB SWAP1 RETURN JUMPDEST PUSH2 0x105 PUSH2 0x32B JUMP JUMPDEST PUSH1 0x40 MLOAD PUSH2 0x112 SWAP2 SWAP1 PUSH2 0x894 JUMP JUMPDEST PUSH1 0x40 MLOAD DUP1 SWAP2 SUB SWAP1 RETURN JUMPDEST PUSH2 0x135 PUSH1 0x4 DUP1 CALLDATASIZE SUB DUP2 ADD SWAP1 PUSH2 0x130 SWAP2 SWAP1 PUSH2 0x8DE JUMP JUMPDEST PUSH2 0x368 JUMP JUMPDEST STOP JUMPDEST PUSH2 0x151 PUSH1 0x4 DUP1 CALLDATASIZE SUB DUP2 ADD SWAP1 PUSH2 0x14C SWAP2 SWAP1 PUSH2 0x9C3 JUMP JUMPDEST PUSH2 0x418 JUMP JUMPDEST STOP JUMPDEST PUSH2 0x16D PUSH1 0x4 DUP1 CALLDATASIZE SUB DUP2 ADD SWAP1 PUSH2 0x168 SWAP2 SWAP1 PUSH2 0xA0E JUMP JUMPDEST PUSH2 0x455 JUMP JUMPDEST STOP JUMPDEST PUSH0 PUSH0 PUSH0 PUSH0 PUSH0 DUP6 PUSH1 0x40 MLOAD PUSH2 0x182 SWAP2 SWAP1 PUSH2 0xAD0 JUMP JUMPDEST SWAP1 DUP2 MSTORE PUSH1 0x20 ADD PUSH1 0x40 MLOAD DUP1 SWAP2 SUB SWAP1 KECCAK256 PUSH0 SWAP1 SLOAD SWAP1 PUSH2 0x100 EXP SWAP1 DIV PUSH20 0xFFFFFFFFFFFFFFFFFFFFFFFFFFFFFFFFFFFFFFFF AND SWAP1 POP DUP1 PUSH20 0xFFFFFFFFFFFFFFFFFFFFFFFFFFFFFFFFFFFFFFFF AND PUSH4 0xEF040BB1 PUSH1 0x40 MLOAD DUP2 PUSH4 0xFFFFFFFF AND PUSH1 0xE0 SHL DUP2 MSTORE PUSH1 0x4 ADD PUSH1 0x60 PUSH1 0x40 MLOAD DUP1 DUP4 SUB DUP2 DUP7 GAS STATICCALL ISZERO DUP1 ISZERO PUSH2 0x1FB JUMPI RETURNDATASIZE PUSH0 PUSH0 RETURNDATACOPY RETURNDATASIZE PUSH0 REVERT JUMPDEST POP POP POP POP PUSH1 0x40 MLOAD RETURNDATASIZE PUSH1 0x1F NOT PUSH1 0x1F DUP3 ADD AND DUP3 ADD DUP1 PUSH1 0x40 MSTORE POP DUP2 ADD SWAP1 PUSH2 0x21F SWAP2 SWAP1 PUSH2 0xB10 JUMP JUMPDEST DUP1 SWAP5 POP DUP2 SWAP6 POP DUP3 SWAP7 POP POP POP POP POP SWAP2 SWAP4 SWAP1 SWAP3 POP JUMP JUMPDEST PUSH0 PUSH0 DUP5 PUSH1 0x40 MLOAD PUSH2 0x243 SWAP2 SWAP1 PUSH2 0xAD0 JUMP JUMPDEST SWAP1 DUP2 MSTORE PUSH1 0x20 ADD PUSH1 0x40 MLOAD DUP1 SWAP2 SUB SWAP1 KECCAK256 PUSH0 SWAP1 SLOAD SWAP1 PUSH2 0x100 EXP SWAP1 DIV PUSH20 0xFFFFFFFFFFFFFFFFFFFFFFFFFFFFFFFFFFFFFFFF AND SWAP1 POP DUP1 PUSH20 0xFFFFFFFFFFFFFFFFFFFFFFFFFFFFFFFFFFFFFFFF AND PUSH4 0xB68CC799 DUP5 DUP5 CALLER PUSH1 0x40 MLOAD DUP5 PUSH4 0xFFFFFFFF AND PUSH1 0xE0 SHL DUP2 MSTORE PUSH1 0x4 ADD PUSH2 0x2B0 SWAP4 SWAP3 SWAP2 SWAP1 PUSH2 0xB60 JUMP JUMPDEST PUSH0 PUSH1 0x40 MLOAD DUP1 DUP4 SUB DUP2 PUSH0 DUP8 DUP1 EXTCODESIZE ISZERO DUP1 ISZERO PUSH2 0x2C7 JUMPI PUSH0 PUSH0 REVERT JUMPDEST POP GAS CALL ISZERO DUP1 ISZERO PUSH2 0x2D9 JUMPI RETURNDATASIZE PUSH0 PUSH0 RETURNDATACOPY RETURNDATASIZE PUSH0 REVERT JUMPDEST POP POP POP POP POP POP POP POP JUMP JUMPDEST PUSH1 0x1 DUP2 DUP1 MLOAD PUSH1 0x20 DUP2 ADD DUP3 ADD DUP1 MLOAD DUP5 DUP3 MSTORE PUSH1 0x20 DUP4 ADD PUSH1 0x20 DUP6 ADD KECCAK256 DUP2 DUP4 MSTORE DUP1 SWAP6 POP POP POP POP POP POP PUSH0 SWAP2 POP SLOAD SWAP1 PUSH2 0x100 EXP SWAP1 DIV PUSH20 0xFFFFFFFFFFFFFFFFFFFFFFFFFFFFFFFFFFFFFFFF AND DUP2 JUMP JUMPDEST PUSH1 0x60 PUSH1 0x40 MLOAD DUP1 PUSH1 0x40 ADD PUSH1 0x40 MSTORE DUP1 PUSH1 0x5 DUP2 MSTORE PUSH1 0x20 ADD PUSH32 0x48656C6C6F000000000000000000000000000000000000000000000000000000 DUP2 MSTORE POP SWAP1 POP SWAP1 JUMP JUMPDEST PUSH0 PUSH0 DUP5 PUSH1 0x40 MLOAD PUSH2 0x378 SWAP2 SWAP1 PUSH2 0xAD0 JUMP JUMPDEST SWAP1 DUP2 MSTORE PUSH1 0x20 ADD PUSH1 0x40 MLOAD DUP1 SWAP2 SUB SWAP1 KECCAK256 PUSH0 SWAP1 SLOAD SWAP1 PUSH2 0x100 EXP SWAP1 DIV PUSH20 0xFFFFFFFFFFFFFFFFFFFFFFFFFFFFFFFFFFFFFFFF AND SWAP1 POP DUP1 PUSH20 0xFFFFFFFFFFFFFFFFFFFFFFFFFFFFFFFFFFFFFFFF AND PUSH4 0xC543691A DUP5 DUP5 CALLER PUSH1 0x40 MLOAD DUP5 PUSH4 0xFFFFFFFF AND PUSH1 0xE0 SHL DUP2 MSTORE PUSH1 0x4 ADD PUSH2 0x3E5 SWAP4 SWAP3 SWAP2 SWAP1 PUSH2 0xBA3 JUMP JUMPDEST PUSH0 PUSH1 0x40 MLOAD DUP1 DUP4 SUB DUP2 PUSH0 DUP8 DUP1 EXTCODESIZE ISZERO DUP1 ISZERO PUSH2 0x3FC JUMPI PUSH0 PUSH0 REVERT JUMPDEST POP GAS CALL ISZERO DUP1 ISZERO PUSH2 0x40E JUMPI RETURNDATASIZE PUSH0 PUSH0 RETURNDATACOPY RETURNDATASIZE PUSH0 REVERT JUMPDEST POP POP POP POP POP POP POP POP JUMP JUMPDEST PUSH32 0xDB84D7C006C4DE68F9C0BD50B8B81ED31F29EBEEC325C872D36445C6565D757C DUP3 DUP3 PUSH1 0x40 MLOAD PUSH2 0x449 SWAP3 SWAP2 SWAP1 PUSH2 0xC0B JUMP JUMPDEST PUSH1 0x40 MLOAD DUP1 SWAP2 SUB SWAP1 LOG1 POP POP JUMP JUMPDEST PUSH0 CALLER DUP4 DUP4 PUSH1 0x40 MLOAD PUSH2 0x465 SWAP1 PUSH2 0x54A JUMP JUMPDEST PUSH2 0x471 SWAP4 SWAP3 SWAP2 SWAP1 PUSH2 0xC2D JUMP JUMPDEST PUSH1 0x40 MLOAD DUP1 SWAP2 SUB SWAP1 PUSH0 CREATE DUP1 ISZERO DUP1 ISZERO PUSH2 0x48A JUMPI RETURNDATASIZE PUSH0 PUSH0 RETURNDATACOPY RETURNDATASIZE PUSH0 REVERT JUMPDEST POP SWAP1 POP DUP1 PUSH0 DUP6 PUSH1 0x40 MLOAD PUSH2 0x49D SWAP2 SWAP1 PUSH2 0xAD0 JUMP JUMPDEST SWAP1 DUP2 MSTORE PUSH1 0x20 ADD PUSH1 0x40 MLOAD DUP1 SWAP2 SUB SWAP1 KECCAK256 PUSH0 PUSH2 0x100 EXP DUP2 SLOAD DUP2 PUSH20 0xFFFFFFFFFFFFFFFFFFFFFFFFFFFFFFFFFFFFFFFF MUL NOT AND SWAP1 DUP4 PUSH20 0xFFFFFFFFFFFFFFFFFFFFFFFFFFFFFFFFFFFFFFFF AND MUL OR SWAP1 SSTORE POP DUP1 PUSH1 0x1 DUP6 PUSH1 0x40 MLOAD PUSH2 0x4F9 SWAP2 SWAP1 PUSH2 0xAD0 JUMP JUMPDEST SWAP1 DUP2 MSTORE PUSH1 0x20 ADD PUSH1 0x40 MLOAD DUP1 SWAP2 SUB SWAP1 KECCAK256 PUSH0 PUSH2 0x100 EXP DUP2 SLOAD DUP2 PUSH20 0xFFFFFFFFFFFFFFFFFFFFFFFFFFFFFFFFFFFFFFFF MUL NOT AND SWAP1 DUP4 PUSH20 0xFFFFFFFFFFFFFFFFFFFFFFFFFFFFFFFFFFFFFFFF AND MUL OR SWAP1 SSTORE POP POP POP POP POP JUMP JUMPDEST PUSH2 0x1D25 DUP1 PUSH2 0xC6A DUP4 CODECOPY ADD SWAP1 JUMP JUMPDEST PUSH0 PUSH1 0x40 MLOAD SWAP1 POP SWAP1 JUMP JUMPDEST PUSH0 PUSH0 REVERT JUMPDEST PUSH0 PUSH0 REVERT JUMPDEST PUSH0 PUSH0 REVERT JUMPDEST PUSH0 PUSH0 REVERT JUMPDEST PUSH0 PUSH1 0x1F NOT PUSH1 0x1F DUP4 ADD AND SWAP1 POP SWAP2 SWAP1 POP JUMP JUMPDEST PUSH32 0x4E487B7100000000000000000000000000000000000000000000000000000000 PUSH0 MSTORE PUSH1 0x41 PUSH1 0x4 MSTORE PUSH1 0x24 PUSH0 REVERT JUMPDEST PUSH2 0x5B6 DUP3 PUSH2 0x570 JUMP JUMPDEST DUP2 ADD DUP2 DUP2 LT PUSH8 0xFFFFFFFFFFFFFFFF DUP3 GT OR ISZERO PUSH2 0x5D5 JUMPI PUSH2 0x5D4 PUSH2 0x580 JUMP JUMPDEST JUMPDEST DUP1 PUSH1 0x40 MSTORE POP POP POP JUMP JUMPDEST PUSH0 PUSH2 0x5E7 PUSH2 0x557 JUMP JUMPDEST SWAP1 POP PUSH2 0x5F3 DUP3 DUP3 PUSH2 0x5AD JUMP JUMPDEST SWAP2 SWAP1 POP JUMP JUMPDEST PUSH0 PUSH8 0xFFFFFFFFFFFFFFFF DUP3 GT ISZERO PUSH2 0x612 JUMPI PUSH2 0x611 PUSH2 0x580 JUMP JUMPDEST JUMPDEST PUSH2 0x61B DUP3 PUSH2 0x570 JUMP JUMPDEST SWAP1 POP PUSH1 0x20 DUP2 ADD SWAP1 POP SWAP2 SWAP1 POP JUMP JUMPDEST DUP3 DUP2 DUP4 CALLDATACOPY PUSH0 DUP4 DUP4 ADD MSTORE POP POP POP JUMP JUMPDEST PUSH0 PUSH2 0x648 PUSH2 0x643 DUP5 PUSH2 0x5F8 JUMP JUMPDEST PUSH2 0x5DE JUMP JUMPDEST SWAP1 POP DUP3 DUP2 MSTORE PUSH1 0x20 DUP2 ADD DUP5 DUP5 DUP5 ADD GT ISZERO PUSH2 0x664 JUMPI PUSH2 0x663 PUSH2 0x56C JUMP JUMPDEST JUMPDEST PUSH2 0x66F DUP5 DUP3 DUP6 PUSH2 0x628 JUMP JUMPDEST POP SWAP4 SWAP3 POP POP POP JUMP JUMPDEST PUSH0 DUP3 PUSH1 0x1F DUP4 ADD SLT PUSH2 0x68B JUMPI PUSH2 0x68A PUSH2 0x568 JUMP JUMPDEST JUMPDEST DUP2 CALLDATALOAD PUSH2 0x69B DUP5 DUP3 PUSH1 0x20 DUP7 ADD PUSH2 0x636 JUMP JUMPDEST SWAP2 POP POP SWAP3 SWAP2 POP POP JUMP JUMPDEST PUSH0 PUSH1 0x20 DUP3 DUP5 SUB SLT ISZERO PUSH2 0x6B9 JUMPI PUSH2 0x6B8 PUSH2 0x560 JUMP JUMPDEST JUMPDEST PUSH0 DUP3 ADD CALLDATALOAD PUSH8 0xFFFFFFFFFFFFFFFF DUP2 GT ISZERO PUSH2 0x6D6 JUMPI PUSH2 0x6D5 PUSH2 0x564 JUMP JUMPDEST JUMPDEST PUSH2 0x6E2 DUP5 DUP3 DUP6 ADD PUSH2 0x677 JUMP JUMPDEST SWAP2 POP POP SWAP3 SWAP2 POP POP JUMP JUMPDEST PUSH0 DUP2 SWAP1 POP SWAP2 SWAP1 POP JUMP JUMPDEST PUSH2 0x6FD DUP2 PUSH2 0x6EB JUMP JUMPDEST DUP3 MSTORE POP POP JUMP JUMPDEST PUSH0 PUSH1 0x60 DUP3 ADD SWAP1 POP PUSH2 0x716 PUSH0 DUP4 ADD DUP7 PUSH2 0x6F4 JUMP JUMPDEST PUSH2 0x723 PUSH1 0x20 DUP4 ADD DUP6 PUSH2 0x6F4 JUMP JUMPDEST PUSH2 0x730 PUSH1 0x40 DUP4 ADD DUP5 PUSH2 0x6F4 JUMP JUMPDEST SWAP5 SWAP4 POP POP POP POP JUMP JUMPDEST PUSH0 PUSH0 PUSH0 PUSH1 0x60 DUP5 DUP7 SUB SLT ISZERO PUSH2 0x74F JUMPI PUSH2 0x74E PUSH2 0x560 JUMP JUMPDEST JUMPDEST PUSH0 DUP5 ADD CALLDATALOAD PUSH8 0xFFFFFFFFFFFFFFFF DUP2 GT ISZERO PUSH2 0x76C JUMPI PUSH2 0x76B PUSH2 0x564 JUMP JUMPDEST JUMPDEST PUSH2 0x778 DUP7 DUP3 DUP8 ADD PUSH2 0x677 JUMP JUMPDEST SWAP4 POP POP PUSH1 0x20 DUP5 ADD CALLDATALOAD PUSH8 0xFFFFFFFFFFFFFFFF DUP2 GT ISZERO PUSH2 0x799 JUMPI PUSH2 0x798 PUSH2 0x564 JUMP JUMPDEST JUMPDEST PUSH2 0x7A5 DUP7 DUP3 DUP8 ADD PUSH2 0x677 JUMP JUMPDEST SWAP3 POP POP PUSH1 0x40 DUP5 ADD CALLDATALOAD PUSH8 0xFFFFFFFFFFFFFFFF DUP2 GT ISZERO PUSH2 0x7C6 JUMPI PUSH2 0x7C5 PUSH2 0x564 JUMP JUMPDEST JUMPDEST PUSH2 0x7D2 DUP7 DUP3 DUP8 ADD PUSH2 0x677 JUMP JUMPDEST SWAP2 POP POP SWAP3 POP SWAP3 POP SWAP3 JUMP JUMPDEST PUSH0 PUSH20 0xFFFFFFFFFFFFFFFFFFFFFFFFFFFFFFFFFFFFFFFF DUP3 AND SWAP1 POP SWAP2 SWAP1 POP JUMP JUMPDEST PUSH0 PUSH2 0x805 DUP3 PUSH2 0x7DC JUMP JUMPDEST SWAP1 POP SWAP2 SWAP1 POP JUMP JUMPDEST PUSH2 0x815 DUP2 PUSH2 0x7FB JUMP JUMPDEST DUP3 MSTORE POP POP JUMP JUMPDEST PUSH0 PUSH1 0x20 DUP3 ADD SWAP1 POP PUSH2 0x82E PUSH0 DUP4 ADD DUP5 PUSH2 0x80C JUMP JUMPDEST SWAP3 SWAP2 POP POP JUMP JUMPDEST PUSH0 DUP2 MLOAD SWAP1 POP SWAP2 SWAP1 POP JUMP JUMPDEST PUSH0 DUP3 DUP3 MSTORE PUSH1 0x20 DUP3 ADD SWAP1 POP SWAP3 SWAP2 POP POP JUMP JUMPDEST DUP3 DUP2 DUP4 MCOPY PUSH0 DUP4 DUP4 ADD MSTORE POP POP POP JUMP JUMPDEST PUSH0 PUSH2 0x866 DUP3 PUSH2 0x834 JUMP JUMPDEST PUSH2 0x870 DUP2 DUP6 PUSH2 0x83E JUMP JUMPDEST SWAP4 POP PUSH2 0x880 DUP2 DUP6 PUSH1 0x20 DUP7 ADD PUSH2 0x84E JUMP JUMPDEST PUSH2 0x889 DUP2 PUSH2 0x570 JUMP JUMPDEST DUP5 ADD SWAP2 POP POP SWAP3 SWAP2 POP POP JUMP JUMPDEST PUSH0 PUSH1 0x20 DUP3 ADD SWAP1 POP DUP2 DUP2 SUB PUSH0 DUP4 ADD MSTORE PUSH2 0x8AC DUP2 DUP5 PUSH2 0x85C JUMP JUMPDEST SWAP1 POP SWAP3 SWAP2 POP POP JUMP JUMPDEST PUSH2 0x8BD DUP2 PUSH2 0x7FB JUMP JUMPDEST DUP2 EQ PUSH2 0x8C7 JUMPI PUSH0 PUSH0 REVERT JUMPDEST POP JUMP JUMPDEST PUSH0 DUP2 CALLDATALOAD SWAP1 POP PUSH2 0x8D8 DUP2 PUSH2 0x8B4 JUMP JUMPDEST SWAP3 SWAP2 POP POP JUMP JUMPDEST PUSH0 PUSH0 PUSH0 PUSH1 0x60 DUP5 DUP7 SUB SLT ISZERO PUSH2 0x8F5 JUMPI PUSH2 0x8F4 PUSH2 0x560 JUMP JUMPDEST JUMPDEST PUSH0 DUP5 ADD CALLDATALOAD PUSH8 0xFFFFFFFFFFFFFFFF DUP2 GT ISZERO PUSH2 0x912 JUMPI PUSH2 0x911 PUSH2 0x564 JUMP JUMPDEST JUMPDEST PUSH2 0x91E DUP7 DUP3 DUP8 ADD PUSH2 0x677 JUMP JUMPDEST SWAP4 POP POP PUSH1 0x20 DUP5 ADD CALLDATALOAD PUSH8 0xFFFFFFFFFFFFFFFF DUP2 GT ISZERO PUSH2 0x93F JUMPI PUSH2 0x93E PUSH2 0x564 JUMP JUMPDEST JUMPDEST PUSH2 0x94B DUP7 DUP3 DUP8 ADD PUSH2 0x677 JUMP JUMPDEST SWAP3 POP POP PUSH1 0x40 PUSH2 0x95C DUP7 DUP3 DUP8 ADD PUSH2 0x8CA JUMP JUMPDEST SWAP2 POP POP SWAP3 POP SWAP3 POP SWAP3 JUMP JUMPDEST PUSH0 PUSH0 REVERT JUMPDEST PUSH0 PUSH0 REVERT JUMPDEST PUSH0 PUSH0 DUP4 PUSH1 0x1F DUP5 ADD SLT PUSH2 0x983 JUMPI PUSH2 0x982 PUSH2 0x568 JUMP JUMPDEST JUMPDEST DUP3 CALLDATALOAD SWAP1 POP PUSH8 0xFFFFFFFFFFFFFFFF DUP2 GT ISZERO PUSH2 0x9A0 JUMPI PUSH2 0x99F PUSH2 0x966 JUMP JUMPDEST JUMPDEST PUSH1 0x20 DUP4 ADD SWAP2 POP DUP4 PUSH1 0x1 DUP3 MUL DUP4 ADD GT ISZERO PUSH2 0x9BC JUMPI PUSH2 0x9BB PUSH2 0x96A JUMP JUMPDEST JUMPDEST SWAP3 POP SWAP3 SWAP1 POP JUMP JUMPDEST PUSH0 PUSH0 PUSH1 0x20 DUP4 DUP6 SUB SLT ISZERO PUSH2 0x9D9 JUMPI PUSH2 0x9D8 PUSH2 0x560 JUMP JUMPDEST JUMPDEST PUSH0 DUP4 ADD CALLDATALOAD PUSH8 0xFFFFFFFFFFFFFFFF DUP2 GT ISZERO PUSH2 0x9F6 JUMPI PUSH2 0x9F5 PUSH2 0x564 JUMP JUMPDEST JUMPDEST PUSH2 0xA02 DUP6 DUP3 DUP7 ADD PUSH2 0x96E JUMP JUMPDEST SWAP3 POP SWAP3 POP POP SWAP3 POP SWAP3 SWAP1 POP JUMP JUMPDEST PUSH0 PUSH0 PUSH0 PUSH1 0x60 DUP5 DUP7 SUB SLT ISZERO PUSH2 0xA25 JUMPI PUSH2 0xA24 PUSH2 0x560 JUMP JUMPDEST JUMPDEST PUSH0 DUP5 ADD CALLDATALOAD PUSH8 0xFFFFFFFFFFFFFFFF DUP2 GT ISZERO PUSH2 0xA42 JUMPI PUSH2 0xA41 PUSH2 0x564 JUMP JUMPDEST JUMPDEST PUSH2 0xA4E DUP7 DUP3 DUP8 ADD PUSH2 0x677 JUMP JUMPDEST SWAP4 POP POP PUSH1 0x20 PUSH2 0xA5F DUP7 DUP3 DUP8 ADD PUSH2 0x8CA JUMP JUMPDEST SWAP3 POP POP PUSH1 0x40 DUP5 ADD CALLDATALOAD PUSH8 0xFFFFFFFFFFFFFFFF DUP2 GT ISZERO PUSH2 0xA80 JUMPI PUSH2 0xA7F PUSH2 0x564 JUMP JUMPDEST JUMPDEST PUSH2 0xA8C DUP7 DUP3 DUP8 ADD PUSH2 0x677 JUMP JUMPDEST SWAP2 POP POP SWAP3 POP SWAP3 POP SWAP3 JUMP JUMPDEST PUSH0 DUP2 SWAP1 POP SWAP3 SWAP2 POP POP JUMP JUMPDEST PUSH0 PUSH2 0xAAA DUP3 PUSH2 0x834 JUMP JUMPDEST PUSH2 0xAB4 DUP2 DUP6 PUSH2 0xA96 JUMP JUMPDEST SWAP4 POP PUSH2 0xAC4 DUP2 DUP6 PUSH1 0x20 DUP7 ADD PUSH2 0x84E JUMP JUMPDEST DUP1 DUP5 ADD SWAP2 POP POP SWAP3 SWAP2 POP POP JUMP JUMPDEST PUSH0 PUSH2 0xADB DUP3 DUP5 PUSH2 0xAA0 JUMP JUMPDEST SWAP2 POP DUP2 SWAP1 POP SWAP3 SWAP2 POP POP JUMP JUMPDEST PUSH2 0xAEF DUP2 PUSH2 0x6EB JUMP JUMPDEST DUP2 EQ PUSH2 0xAF9 JUMPI PUSH0 PUSH0 REVERT JUMPDEST POP JUMP JUMPDEST PUSH0 DUP2 MLOAD SWAP1 POP PUSH2 0xB0A DUP2 PUSH2 0xAE6 JUMP JUMPDEST SWAP3 SWAP2 POP POP JUMP JUMPDEST PUSH0 PUSH0 PUSH0 PUSH1 0x60 DUP5 DUP7 SUB SLT ISZERO PUSH2 0xB27 JUMPI PUSH2 0xB26 PUSH2 0x560 JUMP JUMPDEST JUMPDEST PUSH0 PUSH2 0xB34 DUP7 DUP3 DUP8 ADD PUSH2 0xAFC JUMP JUMPDEST SWAP4 POP POP PUSH1 0x20 PUSH2 0xB45 DUP7 DUP3 DUP8 ADD PUSH2 0xAFC JUMP JUMPDEST SWAP3 POP POP PUSH1 0x40 PUSH2 0xB56 DUP7 DUP3 DUP8 ADD PUSH2 0xAFC JUMP JUMPDEST SWAP2 POP POP SWAP3 POP SWAP3 POP SWAP3 JUMP JUMPDEST PUSH0 PUSH1 0x60 DUP3 ADD SWAP1 POP DUP2 DUP2 SUB PUSH0 DUP4 ADD MSTORE PUSH2 0xB78 DUP2 DUP7 PUSH2 0x85C JUMP JUMPDEST SWAP1 POP DUP2 DUP2 SUB PUSH1 0x20 DUP4 ADD MSTORE PUSH2 0xB8C DUP2 DUP6 PUSH2 0x85C JUMP JUMPDEST SWAP1 POP PUSH2 0xB9B PUSH1 0x40 DUP4 ADD DUP5 PUSH2 0x80C JUMP JUMPDEST SWAP5 SWAP4 POP POP POP POP JUMP JUMPDEST PUSH0 PUSH1 0x60 DUP3 ADD SWAP1 POP DUP2 DUP2 SUB PUSH0 DUP4 ADD MSTORE PUSH2 0xBBB DUP2 DUP7 PUSH2 0x85C JUMP JUMPDEST SWAP1 POP PUSH2 0xBCA PUSH1 0x20 DUP4 ADD DUP6 PUSH2 0x80C JUMP JUMPDEST PUSH2 0xBD7 PUSH1 0x40 DUP4 ADD DUP5 PUSH2 0x80C JUMP JUMPDEST SWAP5 SWAP4 POP POP POP POP JUMP JUMPDEST PUSH0 PUSH2 0xBEA DUP4 DUP6 PUSH2 0x83E JUMP JUMPDEST SWAP4 POP PUSH2 0xBF7 DUP4 DUP6 DUP5 PUSH2 0x628 JUMP JUMPDEST PUSH2 0xC00 DUP4 PUSH2 0x570 JUMP JUMPDEST DUP5 ADD SWAP1 POP SWAP4 SWAP3 POP POP POP JUMP JUMPDEST PUSH0 PUSH1 0x20 DUP3 ADD SWAP1 POP DUP2 DUP2 SUB PUSH0 DUP4 ADD MSTORE PUSH2 0xC24 DUP2 DUP5 DUP7 PUSH2 0xBDF JUMP JUMPDEST SWAP1 POP SWAP4 SWAP3 POP POP POP JUMP JUMPDEST PUSH0 PUSH1 0x60 DUP3 ADD SWAP1 POP PUSH2 0xC40 PUSH0 DUP4 ADD DUP7 PUSH2 0x80C JUMP JUMPDEST PUSH2 0xC4D PUSH1 0x20 DUP4 ADD DUP6 PUSH2 0x80C JUMP JUMPDEST DUP2 DUP2 SUB PUSH1 0x40 DUP4 ADD MSTORE PUSH2 0xC5F DUP2 DUP5 PUSH2 0x85C JUMP JUMPDEST SWAP1 POP SWAP5 SWAP4 POP POP POP POP JUMP INVALID PUSH1 0x80 PUSH1 0x40 MSTORE CALLVALUE DUP1 ISZERO PUSH2 0xF JUMPI PUSH0 PUSH0 REVERT JUMPDEST POP PUSH1 0x40 MLOAD PUSH2 0x1D25 CODESIZE SUB DUP1 PUSH2 0x1D25 DUP4 CODECOPY DUP2 DUP2 ADD PUSH1 0x40 MSTORE DUP2 ADD SWAP1 PUSH2 0x31 SWAP2 SWAP1 PUSH2 0x418 JUMP JUMPDEST PUSH0 PUSH1 0x4 DUP3 PUSH1 0x40 MLOAD PUSH2 0x42 SWAP2 SWAP1 PUSH2 0x4C8 JUMP JUMPDEST SWAP1 DUP2 MSTORE PUSH1 0x20 ADD PUSH1 0x40 MLOAD DUP1 SWAP2 SUB SWAP1 KECCAK256 PUSH0 ADD DUP2 SWAP1 SSTORE POP PUSH0 PUSH1 0x4 DUP3 PUSH1 0x40 MLOAD PUSH2 0x67 SWAP2 SWAP1 PUSH2 0x4C8 JUMP JUMPDEST SWAP1 DUP2 MSTORE PUSH1 0x20 ADD PUSH1 0x40 MLOAD DUP1 SWAP2 SUB SWAP1 KECCAK256 PUSH1 0x2 ADD DUP2 SWAP1 SSTORE POP PUSH0 PUSH1 0x4 DUP3 PUSH1 0x40 MLOAD PUSH2 0x8D SWAP2 SWAP1 PUSH2 0x4C8 JUMP JUMPDEST SWAP1 DUP2 MSTORE PUSH1 0x20 ADD PUSH1 0x40 MLOAD DUP1 SWAP2 SUB SWAP1 KECCAK256 PUSH1 0x1 ADD DUP2 SWAP1 SSTORE POP DUP3 PUSH0 PUSH0 PUSH2 0x100 EXP DUP2 SLOAD DUP2 PUSH20 0xFFFFFFFFFFFFFFFFFFFFFFFFFFFFFFFFFFFFFFFF MUL NOT AND SWAP1 DUP4 PUSH20 0xFFFFFFFFFFFFFFFFFFFFFFFFFFFFFFFFFFFFFFFF AND MUL OR SWAP1 SSTORE POP DUP2 PUSH1 0x1 PUSH0 PUSH2 0x100 EXP DUP2 SLOAD DUP2 PUSH20 0xFFFFFFFFFFFFFFFFFFFFFFFFFFFFFFFFFFFFFFFF MUL NOT AND SWAP1 DUP4 PUSH20 0xFFFFFFFFFFFFFFFFFFFFFFFFFFFFFFFFFFFFFFFF AND MUL OR SWAP1 SSTORE POP DUP1 PUSH1 0x2 SWAP1 DUP2 PUSH2 0x130 SWAP2 SWAP1 PUSH2 0x6E4 JUMP JUMPDEST POP PUSH1 0x5 PUSH1 0x40 MLOAD DUP1 PUSH1 0x60 ADD PUSH1 0x40 MSTORE DUP1 DUP4 DUP2 MSTORE PUSH1 0x20 ADD DUP5 PUSH20 0xFFFFFFFFFFFFFFFFFFFFFFFFFFFFFFFFFFFFFFFF AND DUP2 MSTORE PUSH1 0x20 ADD TIMESTAMP DUP2 MSTORE POP SWAP1 DUP1 PUSH1 0x1 DUP2 SLOAD ADD DUP1 DUP3 SSTORE DUP1 SWAP2 POP POP PUSH1 0x1 SWAP1 SUB SWAP1 PUSH0 MSTORE PUSH1 0x20 PUSH0 KECCAK256 SWAP1 PUSH1 0x3 MUL ADD PUSH0 SWAP1 SWAP2 SWAP1 SWAP2 SWAP1 SWAP2 POP PUSH0 DUP3 ADD MLOAD DUP2 PUSH0 ADD SWAP1 DUP2 PUSH2 0x19D SWAP2 SWAP1 PUSH2 0x6E4 JUMP JUMPDEST POP PUSH1 0x20 DUP3 ADD MLOAD DUP2 PUSH1 0x1 ADD PUSH0 PUSH2 0x100 EXP DUP2 SLOAD DUP2 PUSH20 0xFFFFFFFFFFFFFFFFFFFFFFFFFFFFFFFFFFFFFFFF MUL NOT AND SWAP1 DUP4 PUSH20 0xFFFFFFFFFFFFFFFFFFFFFFFFFFFFFFFFFFFFFFFF AND MUL OR SWAP1 SSTORE POP PUSH1 0x40 DUP3 ADD MLOAD DUP2 PUSH1 0x2 ADD SSTORE POP POP PUSH0 PUSH0 SWAP1 SLOAD SWAP1 PUSH2 0x100 EXP SWAP1 DIV PUSH20 0xFFFFFFFFFFFFFFFFFFFFFFFFFFFFFFFFFFFFFFFF AND PUSH20 0xFFFFFFFFFFFFFFFFFFFFFFFFFFFFFFFFFFFFFFFF AND PUSH0 PUSH20 0xFFFFFFFFFFFFFFFFFFFFFFFFFFFFFFFFFFFFFFFF AND PUSH31 0x7582B62407F53D49CFC72E7DDAB574C06EF3B8ACED104B54B7BED4681EE54A PUSH1 0x40 MLOAD PUSH1 0x40 MLOAD DUP1 SWAP2 SUB SWAP1 LOG3 POP POP POP PUSH2 0x7B3 JUMP JUMPDEST PUSH0 PUSH1 0x40 MLOAD SWAP1 POP SWAP1 JUMP JUMPDEST PUSH0 PUSH0 REVERT JUMPDEST PUSH0 PUSH0 REVERT JUMPDEST PUSH0 PUSH20 0xFFFFFFFFFFFFFFFFFFFFFFFFFFFFFFFFFFFFFFFF DUP3 AND SWAP1 POP SWAP2 SWAP1 POP JUMP JUMPDEST PUSH0 PUSH2 0x2AB DUP3 PUSH2 0x282 JUMP JUMPDEST SWAP1 POP SWAP2 SWAP1 POP JUMP JUMPDEST PUSH2 0x2BB DUP2 PUSH2 0x2A1 JUMP JUMPDEST DUP2 EQ PUSH2 0x2C5 JUMPI PUSH0 PUSH0 REVERT JUMPDEST POP JUMP JUMPDEST PUSH0 DUP2 MLOAD SWAP1 POP PUSH2 0x2D6 DUP2 PUSH2 0x2B2 JUMP JUMPDEST SWAP3 SWAP2 POP POP JUMP JUMPDEST PUSH0 PUSH0 REVERT JUMPDEST PUSH0 PUSH0 REVERT JUMPDEST PUSH0 PUSH1 0x1F NOT PUSH1 0x1F DUP4 ADD AND SWAP1 POP SWAP2 SWAP1 POP JUMP JUMPDEST PUSH32 0x4E487B7100000000000000000000000000000000000000000000000000000000 PUSH0 MSTORE PUSH1 0x41 PUSH1 0x4 MSTORE PUSH1 0x24 PUSH0 REVERT JUMPDEST PUSH2 0x32A DUP3 PUSH2 0x2E4 JUMP JUMPDEST DUP2 ADD DUP2 DUP2 LT PUSH8 0xFFFFFFFFFFFFFFFF DUP3 GT OR ISZERO PUSH2 0x349 JUMPI PUSH2 0x348 PUSH2 0x2F4 JUMP JUMPDEST JUMPDEST DUP1 PUSH1 0x40 MSTORE POP POP POP JUMP JUMPDEST PUSH0 PUSH2 0x35B PUSH2 0x271 JUMP JUMPDEST SWAP1 POP PUSH2 0x367 DUP3 DUP3 PUSH2 0x321 JUMP JUMPDEST SWAP2 SWAP1 POP JUMP JUMPDEST PUSH0 PUSH8 0xFFFFFFFFFFFFFFFF DUP3 GT ISZERO PUSH2 0x386 JUMPI PUSH2 0x385 PUSH2 0x2F4 JUMP JUMPDEST JUMPDEST PUSH2 0x38F DUP3 PUSH2 0x2E4 JUMP JUMPDEST SWAP1 POP PUSH1 0x20 DUP2 ADD SWAP1 POP SWAP2 SWAP1 POP JUMP JUMPDEST DUP3 DUP2 DUP4 MCOPY PUSH0 DUP4 DUP4 ADD MSTORE POP POP POP JUMP JUMPDEST PUSH0 PUSH2 0x3BC PUSH2 0x3B7 DUP5 PUSH2 0x36C JUMP JUMPDEST PUSH2 0x352 JUMP JUMPDEST SWAP1 POP DUP3 DUP2 MSTORE PUSH1 0x20 DUP2 ADD DUP5 DUP5 DUP5 ADD GT ISZERO PUSH2 0x3D8 JUMPI PUSH2 0x3D7 PUSH2 0x2E0 JUMP JUMPDEST JUMPDEST PUSH2 0x3E3 DUP5 DUP3 DUP6 PUSH2 0x39C JUMP JUMPDEST POP SWAP4 SWAP3 POP POP POP JUMP JUMPDEST PUSH0 DUP3 PUSH1 0x1F DUP4 ADD SLT PUSH2 0x3FF JUMPI PUSH2 0x3FE PUSH2 0x2DC JUMP JUMPDEST JUMPDEST DUP2 MLOAD PUSH2 0x40F DUP5 DUP3 PUSH1 0x20 DUP7 ADD PUSH2 0x3AA JUMP JUMPDEST SWAP2 POP POP SWAP3 SWAP2 POP POP JUMP JUMPDEST PUSH0 PUSH0 PUSH0 PUSH1 0x60 DUP5 DUP7 SUB SLT ISZERO PUSH2 0x42F JUMPI PUSH2 0x42E PUSH2 0x27A JUMP JUMPDEST JUMPDEST PUSH0 PUSH2 0x43C DUP7 DUP3 DUP8 ADD PUSH2 0x2C8 JUMP JUMPDEST SWAP4 POP POP PUSH1 0x20 PUSH2 0x44D DUP7 DUP3 DUP8 ADD PUSH2 0x2C8 JUMP JUMPDEST SWAP3 POP POP PUSH1 0x40 DUP5 ADD MLOAD PUSH8 0xFFFFFFFFFFFFFFFF DUP2 GT ISZERO PUSH2 0x46E JUMPI PUSH2 0x46D PUSH2 0x27E JUMP JUMPDEST JUMPDEST PUSH2 0x47A DUP7 DUP3 DUP8 ADD PUSH2 0x3EB JUMP JUMPDEST SWAP2 POP POP SWAP3 POP SWAP3 POP SWAP3 JUMP JUMPDEST PUSH0 DUP2 MLOAD SWAP1 POP SWAP2 SWAP1 POP JUMP JUMPDEST PUSH0 DUP2 SWAP1 POP SWAP3 SWAP2 POP POP JUMP JUMPDEST PUSH0 PUSH2 0x4A2 DUP3 PUSH2 0x484 JUMP JUMPDEST PUSH2 0x4AC DUP2 DUP6 PUSH2 0x48E JUMP JUMPDEST SWAP4 POP PUSH2 0x4BC DUP2 DUP6 PUSH1 0x20 DUP7 ADD PUSH2 0x39C JUMP JUMPDEST DUP1 DUP5 ADD SWAP2 POP POP SWAP3 SWAP2 POP POP JUMP JUMPDEST PUSH0 PUSH2 0x4D3 DUP3 DUP5 PUSH2 0x498 JUMP JUMPDEST SWAP2 POP DUP2 SWAP1 POP SWAP3 SWAP2 POP POP JUMP JUMPDEST PUSH32 0x4E487B7100000000000000000000000000000000000000000000000000000000 PUSH0 MSTORE PUSH1 0x22 PUSH1 0x4 MSTORE PUSH1 0x24 PUSH0 REVERT JUMPDEST PUSH0 PUSH1 0x2 DUP3 DIV SWAP1 POP PUSH1 0x1 DUP3 AND DUP1 PUSH2 0x522 JUMPI PUSH1 0x7F DUP3 AND SWAP2 POP JUMPDEST PUSH1 0x20 DUP3 LT DUP2 SUB PUSH2 0x535 JUMPI PUSH2 0x534 PUSH2 0x4DE JUMP JUMPDEST JUMPDEST POP SWAP2 SWAP1 POP JUMP JUMPDEST PUSH0 DUP2 SWAP1 POP DUP2 PUSH0 MSTORE PUSH1 0x20 PUSH0 KECCAK256 SWAP1 POP SWAP2 SWAP1 POP JUMP JUMPDEST PUSH0 PUSH1 0x20 PUSH1 0x1F DUP4 ADD DIV SWAP1 POP SWAP2 SWAP1 POP JUMP JUMPDEST PUSH0 DUP3 DUP3 SHL SWAP1 POP SWAP3 SWAP2 POP POP JUMP JUMPDEST PUSH0 PUSH1 0x8 DUP4 MUL PUSH2 0x597 PUSH32 0xFFFFFFFFFFFFFFFFFFFFFFFFFFFFFFFFFFFFFFFFFFFFFFFFFFFFFFFFFFFFFFFF DUP3 PUSH2 0x55C JUMP JUMPDEST PUSH2 0x5A1 DUP7 DUP4 PUSH2 0x55C JUMP JUMPDEST SWAP6 POP DUP1 NOT DUP5 AND SWAP4 POP DUP1 DUP7 AND DUP5 OR SWAP3 POP POP POP SWAP4 SWAP3 POP POP POP JUMP JUMPDEST PUSH0 DUP2 SWAP1 POP SWAP2 SWAP1 POP JUMP JUMPDEST PUSH0 DUP2 SWAP1 POP SWAP2 SWAP1 POP JUMP JUMPDEST PUSH0 PUSH2 0x5E5 PUSH2 0x5E0 PUSH2 0x5DB DUP5 PUSH2 0x5B9 JUMP JUMPDEST PUSH2 0x5C2 JUMP JUMPDEST PUSH2 0x5B9 JUMP JUMPDEST SWAP1 POP SWAP2 SWAP1 POP JUMP JUMPDEST PUSH0 DUP2 SWAP1 POP SWAP2 SWAP1 POP JUMP JUMPDEST PUSH2 0x5FE DUP4 PUSH2 0x5CB JUMP JUMPDEST PUSH2 0x612 PUSH2 0x60A DUP3 PUSH2 0x5EC JUMP JUMPDEST DUP5 DUP5 SLOAD PUSH2 0x568 JUMP JUMPDEST DUP3 SSTORE POP POP POP POP JUMP JUMPDEST PUSH0 PUSH0 SWAP1 POP SWAP1 JUMP JUMPDEST PUSH2 0x629 PUSH2 0x61A JUMP JUMPDEST PUSH2 0x634 DUP2 DUP5 DUP5 PUSH2 0x5F5 JUMP JUMPDEST POP POP POP JUMP JUMPDEST JUMPDEST DUP2 DUP2 LT ISZERO PUSH2 0x657 JUMPI PUSH2 0x64C PUSH0 DUP3 PUSH2 0x621 JUMP JUMPDEST PUSH1 0x1 DUP2 ADD SWAP1 POP PUSH2 0x63A JUMP JUMPDEST POP POP JUMP JUMPDEST PUSH1 0x1F DUP3 GT ISZERO PUSH2 0x69C JUMPI PUSH2 0x66D DUP2 PUSH2 0x53B JUMP JUMPDEST PUSH2 0x676 DUP5 PUSH2 0x54D JUMP JUMPDEST DUP2 ADD PUSH1 0x20 DUP6 LT ISZERO PUSH2 0x685 JUMPI DUP2 SWAP1 POP JUMPDEST PUSH2 0x699 PUSH2 0x691 DUP6 PUSH2 0x54D JUMP JUMPDEST DUP4 ADD DUP3 PUSH2 0x639 JUMP JUMPDEST POP POP JUMPDEST POP POP POP JUMP JUMPDEST PUSH0 DUP3 DUP3 SHR SWAP1 POP SWAP3 SWAP2 POP POP JUMP JUMPDEST PUSH0 PUSH2 0x6BC PUSH0 NOT DUP5 PUSH1 0x8 MUL PUSH2 0x6A1 JUMP JUMPDEST NOT DUP1 DUP4 AND SWAP2 POP POP SWAP3 SWAP2 POP POP JUMP JUMPDEST PUSH0 PUSH2 0x6D4 DUP4 DUP4 PUSH2 0x6AD JUMP JUMPDEST SWAP2 POP DUP3 PUSH1 0x2 MUL DUP3 OR SWAP1 POP SWAP3 SWAP2 POP POP JUMP JUMPDEST PUSH2 0x6ED DUP3 PUSH2 0x484 JUMP JUMPDEST PUSH8 0xFFFFFFFFFFFFFFFF DUP2 GT ISZERO PUSH2 0x706 JUMPI PUSH2 0x705 PUSH2 0x2F4 JUMP JUMPDEST JUMPDEST PUSH2 0x710 DUP3 SLOAD PUSH2 0x50B JUMP JUMPDEST PUSH2 0x71B DUP3 DUP3 DUP6 PUSH2 0x65B JUMP JUMPDEST PUSH0 PUSH1 0x20 SWAP1 POP PUSH1 0x1F DUP4 GT PUSH1 0x1 DUP2 EQ PUSH2 0x74C JUMPI PUSH0 DUP5 ISZERO PUSH2 0x73A JUMPI DUP3 DUP8 ADD MLOAD SWAP1 POP JUMPDEST PUSH2 0x744 DUP6 DUP3 PUSH2 0x6C9 JUMP JUMPDEST DUP7 SSTORE POP PUSH2 0x7AB JUMP JUMPDEST PUSH1 0x1F NOT DUP5 AND PUSH2 0x75A DUP7 PUSH2 0x53B JUMP JUMPDEST PUSH0 JUMPDEST DUP3 DUP2 LT ISZERO PUSH2 0x781 JUMPI DUP5 DUP10 ADD MLOAD DUP3 SSTORE PUSH1 0x1 DUP3 ADD SWAP2 POP PUSH1 0x20 DUP6 ADD SWAP5 POP PUSH1 0x20 DUP2 ADD SWAP1 POP PUSH2 0x75C JUMP JUMPDEST DUP7 DUP4 LT ISZERO PUSH2 0x79E JUMPI DUP5 DUP10 ADD MLOAD PUSH2 0x79A PUSH1 0x1F DUP10 AND DUP3 PUSH2 0x6AD JUMP JUMPDEST DUP4 SSTORE POP JUMPDEST PUSH1 0x1 PUSH1 0x2 DUP9 MUL ADD DUP9 SSTORE POP POP POP JUMPDEST POP POP POP POP POP POP JUMP JUMPDEST PUSH2 0x1565 DUP1 PUSH2 0x7C0 PUSH0 CODECOPY PUSH0 RETURN INVALID PUSH1 0x80 PUSH1 0x40 MSTORE CALLVALUE DUP1 ISZERO PUSH2 0xF JUMPI PUSH0 PUSH0 REVERT JUMPDEST POP PUSH1 0x4 CALLDATASIZE LT PUSH2 0x91 JUMPI PUSH0 CALLDATALOAD PUSH1 0xE0 SHR DUP1 PUSH4 0xB68CC799 GT PUSH2 0x64 JUMPI DUP1 PUSH4 0xB68CC799 EQ PUSH2 0x11D JUMPI DUP1 PUSH4 0xBB56D412 EQ PUSH2 0x139 JUMPI DUP1 PUSH4 0xC543691A EQ PUSH2 0x169 JUMPI DUP1 PUSH4 0xEACAD774 EQ PUSH2 0x185 JUMPI DUP1 PUSH4 0xEF040BB1 EQ PUSH2 0x1B7 JUMPI PUSH2 0x91 JUMP JUMPDEST DUP1 PUSH4 0x3018205F EQ PUSH2 0x95 JUMPI DUP1 PUSH4 0x3E11E378 EQ PUSH2 0xB3 JUMPI DUP1 PUSH4 0x6118B23C EQ PUSH2 0xCF JUMPI DUP1 PUSH4 0x97C38CFC EQ PUSH2 0x101 JUMPI JUMPDEST PUSH0 PUSH0 REVERT JUMPDEST PUSH2 0x9D PUSH2 0x1D7 JUMP JUMPDEST PUSH1 0x40 MLOAD PUSH2 0xAA SWAP2 SWAP1 PUSH2 0xB70 JUMP JUMPDEST PUSH1 0x40 MLOAD DUP1 SWAP2 SUB SWAP1 RETURN JUMPDEST PUSH2 0xCD PUSH1 0x4 DUP1 CALLDATASIZE SUB DUP2 ADD SWAP1 PUSH2 0xC8 SWAP2 SWAP1 PUSH2 0xBC4 JUMP JUMPDEST PUSH2 0x1FE JUMP JUMPDEST STOP JUMPDEST PUSH2 0xE9 PUSH1 0x4 DUP1 CALLDATASIZE SUB DUP2 ADD SWAP1 PUSH2 0xE4 SWAP2 SWAP1 PUSH2 0xC35 JUMP JUMPDEST PUSH2 0x34A JUMP JUMPDEST PUSH1 0x40 MLOAD PUSH2 0xF8 SWAP4 SWAP3 SWAP2 SWAP1 PUSH2 0xCDF JUMP JUMPDEST PUSH1 0x40 MLOAD DUP1 SWAP2 SUB SWAP1 RETURN JUMPDEST PUSH2 0x11B PUSH1 0x4 DUP1 CALLDATASIZE SUB DUP2 ADD SWAP1 PUSH2 0x116 SWAP2 SWAP1 PUSH2 0xE47 JUMP JUMPDEST PUSH2 0x424 JUMP JUMPDEST STOP JUMPDEST PUSH2 0x137 PUSH1 0x4 DUP1 CALLDATASIZE SUB DUP2 ADD SWAP1 PUSH2 0x132 SWAP2 SWAP1 PUSH2 0xEBD JUMP JUMPDEST PUSH2 0x70D JUMP JUMPDEST STOP JUMPDEST PUSH2 0x153 PUSH1 0x4 DUP1 CALLDATASIZE SUB DUP2 ADD SWAP1 PUSH2 0x14E SWAP2 SWAP1 PUSH2 0xF45 JUMP JUMPDEST PUSH2 0x7CE JUMP JUMPDEST PUSH1 0x40 MLOAD PUSH2 0x160 SWAP2 SWAP1 PUSH2 0xF8C JUMP JUMPDEST PUSH1 0x40 MLOAD DUP1 SWAP2 SUB SWAP1 RETURN JUMPDEST PUSH2 0x183 PUSH1 0x4 DUP1 CALLDATASIZE SUB DUP2 ADD SWAP1 PUSH2 0x17E SWAP2 SWAP1 PUSH2 0xFAC JUMP JUMPDEST PUSH2 0x881 JUMP JUMPDEST STOP JUMPDEST PUSH2 0x19F PUSH1 0x4 DUP1 CALLDATASIZE SUB DUP2 ADD SWAP1 PUSH2 0x19A SWAP2 SWAP1 PUSH2 0xF45 JUMP JUMPDEST PUSH2 0xA25 JUMP JUMPDEST PUSH1 0x40 MLOAD PUSH2 0x1AE SWAP4 SWAP3 SWAP2 SWAP1 PUSH2 0x1018 JUMP JUMPDEST PUSH1 0x40 MLOAD DUP1 SWAP2 SUB SWAP1 RETURN JUMPDEST PUSH2 0x1BF PUSH2 0xA63 JUMP JUMPDEST PUSH1 0x40 MLOAD PUSH2 0x1CE SWAP4 SWAP3 SWAP2 SWAP1 PUSH2 0x1018 JUMP JUMPDEST PUSH1 0x40 MLOAD DUP1 SWAP2 SUB SWAP1 RETURN JUMPDEST PUSH0 PUSH0 PUSH0 SWAP1 SLOAD SWAP1 PUSH2 0x100 EXP SWAP1 DIV PUSH20 0xFFFFFFFFFFFFFFFFFFFFFFFFFFFFFFFFFFFFFFFF AND SWAP1 POP SWAP1 JUMP JUMPDEST DUP1 PUSH0 PUSH0 SWAP1 SLOAD SWAP1 PUSH2 0x100 EXP SWAP1 DIV PUSH20 0xFFFFFFFFFFFFFFFFFFFFFFFFFFFFFFFFFFFFFFFF AND PUSH20 0xFFFFFFFFFFFFFFFFFFFFFFFFFFFFFFFFFFFFFFFF AND DUP2 PUSH20 0xFFFFFFFFFFFFFFFFFFFFFFFFFFFFFFFFFFFFFFFF AND EQ PUSH2 0x28D JUMPI PUSH1 0x40 MLOAD PUSH32 0x8C379A000000000000000000000000000000000000000000000000000000000 DUP2 MSTORE PUSH1 0x4 ADD PUSH2 0x284 SWAP1 PUSH2 0x1097 JUMP JUMPDEST PUSH1 0x40 MLOAD DUP1 SWAP2 SUB SWAP1 REVERT JUMPDEST DUP3 PUSH20 0xFFFFFFFFFFFFFFFFFFFFFFFFFFFFFFFFFFFFFFFF AND PUSH0 PUSH0 SWAP1 SLOAD SWAP1 PUSH2 0x100 EXP SWAP1 DIV PUSH20 0xFFFFFFFFFFFFFFFFFFFFFFFFFFFFFFFFFFFFFFFF AND PUSH20 0xFFFFFFFFFFFFFFFFFFFFFFFFFFFFFFFFFFFFFFFF AND PUSH31 0x7582B62407F53D49CFC72E7DDAB574C06EF3B8ACED104B54B7BED4681EE54A PUSH1 0x40 MLOAD PUSH1 0x40 MLOAD DUP1 SWAP2 SUB SWAP1 LOG3 DUP3 PUSH0 PUSH0 PUSH2 0x100 EXP DUP2 SLOAD DUP2 PUSH20 0xFFFFFFFFFFFFFFFFFFFFFFFFFFFFFFFFFFFFFFFF MUL NOT AND SWAP1 DUP4 PUSH20 0xFFFFFFFFFFFFFFFFFFFFFFFFFFFFFFFFFFFFFFFF AND MUL OR SWAP1 SSTORE POP POP POP POP JUMP JUMPDEST PUSH1 0x5 DUP2 DUP2 SLOAD DUP2 LT PUSH2 0x359 JUMPI PUSH0 DUP1 REVERT JUMPDEST SWAP1 PUSH0 MSTORE PUSH1 0x20 PUSH0 KECCAK256 SWAP1 PUSH1 0x3 MUL ADD PUSH0 SWAP2 POP SWAP1 POP DUP1 PUSH0 ADD DUP1 SLOAD PUSH2 0x378 SWAP1 PUSH2 0x10E2 JUMP JUMPDEST DUP1 PUSH1 0x1F ADD PUSH1 0x20 DUP1 SWAP2 DIV MUL PUSH1 0x20 ADD PUSH1 0x40 MLOAD SWAP1 DUP2 ADD PUSH1 0x40 MSTORE DUP1 SWAP3 SWAP2 SWAP1 DUP2 DUP2 MSTORE PUSH1 0x20 ADD DUP3 DUP1 SLOAD PUSH2 0x3A4 SWAP1 PUSH2 0x10E2 JUMP JUMPDEST DUP1 ISZERO PUSH2 0x3EF JUMPI DUP1 PUSH1 0x1F LT PUSH2 0x3C6 JUMPI PUSH2 0x100 DUP1 DUP4 SLOAD DIV MUL DUP4 MSTORE SWAP2 PUSH1 0x20 ADD SWAP2 PUSH2 0x3EF JUMP JUMPDEST DUP3 ADD SWAP2 SWAP1 PUSH0 MSTORE PUSH1 0x20 PUSH0 KECCAK256 SWAP1 JUMPDEST DUP2 SLOAD DUP2 MSTORE SWAP1 PUSH1 0x1 ADD SWAP1 PUSH1 0x20 ADD DUP1 DUP4 GT PUSH2 0x3D2 JUMPI DUP3 SWAP1 SUB PUSH1 0x1F AND DUP3 ADD SWAP2 JUMPDEST POP POP POP POP POP SWAP1 DUP1 PUSH1 0x1 ADD PUSH0 SWAP1 SLOAD SWAP1 PUSH2 0x100 EXP SWAP1 DIV PUSH20 0xFFFFFFFFFFFFFFFFFFFFFFFFFFFFFFFFFFFFFFFF AND SWAP1 DUP1 PUSH1 0x2 ADD SLOAD SWAP1 POP DUP4 JUMP JUMPDEST PUSH1 0x1 PUSH0 SWAP1 SLOAD SWAP1 PUSH2 0x100 EXP SWAP1 DIV PUSH20 0xFFFFFFFFFFFFFFFFFFFFFFFFFFFFFFFFFFFFFFFF AND PUSH20 0xFFFFFFFFFFFFFFFFFFFFFFFFFFFFFFFFFFFFFFFF AND CALLER PUSH20 0xFFFFFFFFFFFFFFFFFFFFFFFFFFFFFFFFFFFFFFFF AND EQ PUSH2 0x4B3 JUMPI PUSH1 0x40 MLOAD PUSH32 0x8C379A000000000000000000000000000000000000000000000000000000000 DUP2 MSTORE PUSH1 0x4 ADD PUSH2 0x4AA SWAP1 PUSH2 0x115C JUMP JUMPDEST PUSH1 0x40 MLOAD DUP1 SWAP2 SUB SWAP1 REVERT JUMPDEST PUSH2 0x56F PUSH1 0x3 DUP4 PUSH1 0x40 MLOAD PUSH2 0x4C6 SWAP2 SWAP1 PUSH2 0x11B4 JUMP JUMPDEST SWAP1 DUP2 MSTORE PUSH1 0x20 ADD PUSH1 0x40 MLOAD DUP1 SWAP2 SUB SWAP1 KECCAK256 DUP1 SLOAD PUSH2 0x4DF SWAP1 PUSH2 0x10E2 JUMP JUMPDEST DUP1 PUSH1 0x1F ADD PUSH1 0x20 DUP1 SWAP2 DIV MUL PUSH1 0x20 ADD PUSH1 0x40 MLOAD SWAP1 DUP2 ADD PUSH1 0x40 MSTORE DUP1 SWAP3 SWAP2 SWAP1 DUP2 DUP2 MSTORE PUSH1 0x20 ADD DUP3 DUP1 SLOAD PUSH2 0x50B SWAP1 PUSH2 0x10E2 JUMP JUMPDEST DUP1 ISZERO PUSH2 0x556 JUMPI DUP1 PUSH1 0x1F LT PUSH2 0x52D JUMPI PUSH2 0x100 DUP1 DUP4 SLOAD DIV MUL DUP4 MSTORE SWAP2 PUSH1 0x20 ADD SWAP2 PUSH2 0x556 JUMP JUMPDEST DUP3 ADD SWAP2 SWAP1 PUSH0 MSTORE PUSH1 0x20 PUSH0 KECCAK256 SWAP1 JUMPDEST DUP2 SLOAD DUP2 MSTORE SWAP1 PUSH1 0x1 ADD SWAP1 PUSH1 0x20 ADD DUP1 DUP4 GT PUSH2 0x539 JUMPI DUP3 SWAP1 SUB PUSH1 0x1F AND DUP3 ADD SWAP2 JUMPDEST POP POP POP POP POP PUSH1 0x40 MLOAD DUP1 PUSH1 0x20 ADD PUSH1 0x40 MSTORE DUP1 PUSH0 DUP2 MSTORE POP PUSH2 0xAD9 JUMP JUMPDEST ISZERO PUSH2 0x5B2 JUMPI PUSH1 0x1 PUSH1 0x4 PUSH1 0x2 PUSH1 0x40 MLOAD PUSH2 0x587 SWAP2 SWAP1 PUSH2 0x125C JUMP JUMPDEST SWAP1 DUP2 MSTORE PUSH1 0x20 ADD PUSH1 0x40 MLOAD DUP1 SWAP2 SUB SWAP1 KECCAK256 PUSH1 0x1 ADD PUSH0 DUP3 DUP3 SLOAD PUSH2 0x5A6 SWAP2 SWAP1 PUSH2 0x129F JUMP JUMPDEST SWAP3 POP POP DUP2 SWAP1 SSTORE POP PUSH2 0x709 JUMP JUMPDEST PUSH2 0x660 PUSH1 0x3 DUP4 PUSH1 0x40 MLOAD PUSH2 0x5C5 SWAP2 SWAP1 PUSH2 0x11B4 JUMP JUMPDEST SWAP1 DUP2 MSTORE PUSH1 0x20 ADD PUSH1 0x40 MLOAD DUP1 SWAP2 SUB SWAP1 KECCAK256 DUP1 SLOAD PUSH2 0x5DE SWAP1 PUSH2 0x10E2 JUMP JUMPDEST DUP1 PUSH1 0x1F ADD PUSH1 0x20 DUP1 SWAP2 DIV MUL PUSH1 0x20 ADD PUSH1 0x40 MLOAD SWAP1 DUP2 ADD PUSH1 0x40 MSTORE DUP1 SWAP3 SWAP2 SWAP1 DUP2 DUP2 MSTORE PUSH1 0x20 ADD DUP3 DUP1 SLOAD PUSH2 0x60A SWAP1 PUSH2 0x10E2 JUMP JUMPDEST DUP1 ISZERO PUSH2 0x655 JUMPI DUP1 PUSH1 0x1F LT PUSH2 0x62C JUMPI PUSH2 0x100 DUP1 DUP4 SLOAD DIV MUL DUP4 MSTORE SWAP2 PUSH1 0x20 ADD SWAP2 PUSH2 0x655 JUMP JUMPDEST DUP3 ADD SWAP2 SWAP1 PUSH0 MSTORE PUSH1 0x20 PUSH0 KECCAK256 SWAP1 JUMPDEST DUP2 SLOAD DUP2 MSTORE SWAP1 PUSH1 0x1 ADD SWAP1 PUSH1 0x20 ADD DUP1 DUP4 GT PUSH2 0x638 JUMPI DUP3 SWAP1 SUB PUSH1 0x1F AND DUP3 ADD SWAP2 JUMPDEST POP POP POP POP POP DUP3 PUSH2 0xAD9 JUMP JUMPDEST ISZERO PUSH2 0x6A3 JUMPI PUSH1 0x1 PUSH1 0x4 PUSH1 0x2 PUSH1 0x40 MLOAD PUSH2 0x678 SWAP2 SWAP1 PUSH2 0x125C JUMP JUMPDEST SWAP1 DUP2 MSTORE PUSH1 0x20 ADD PUSH1 0x40 MLOAD DUP1 SWAP2 SUB SWAP1 KECCAK256 PUSH1 0x2 ADD PUSH0 DUP3 DUP3 SLOAD PUSH2 0x697 SWAP2 SWAP1 PUSH2 0x129F JUMP JUMPDEST SWAP3 POP POP DUP2 SWAP1 SSTORE POP PUSH2 0x708 JUMP JUMPDEST PUSH1 0x1 PUSH1 0x4 PUSH1 0x2 PUSH1 0x40 MLOAD PUSH2 0x6B6 SWAP2 SWAP1 PUSH2 0x125C JUMP JUMPDEST SWAP1 DUP2 MSTORE PUSH1 0x20 ADD PUSH1 0x40 MLOAD DUP1 SWAP2 SUB SWAP1 KECCAK256 PUSH0 ADD PUSH0 DUP3 DUP3 SLOAD PUSH2 0x6D4 SWAP2 SWAP1 PUSH2 0x129F JUMP JUMPDEST SWAP3 POP POP DUP2 SWAP1 SSTORE POP PUSH32 0x9155208B51995E04C988EB045EF59AF0F5F785F942CB81688516362B62D8FAC0 PUSH1 0x40 MLOAD PUSH1 0x40 MLOAD DUP1 SWAP2 SUB SWAP1 LOG1 JUMPDEST JUMPDEST POP POP JUMP JUMPDEST DUP1 PUSH0 PUSH0 SWAP1 SLOAD SWAP1 PUSH2 0x100 EXP SWAP1 DIV PUSH20 0xFFFFFFFFFFFFFFFFFFFFFFFFFFFFFFFFFFFFFFFF AND PUSH20 0xFFFFFFFFFFFFFFFFFFFFFFFFFFFFFFFFFFFFFFFF AND DUP2 PUSH20 0xFFFFFFFFFFFFFFFFFFFFFFFFFFFFFFFFFFFFFFFF AND EQ PUSH2 0x79C JUMPI PUSH1 0x40 MLOAD PUSH32 0x8C379A000000000000000000000000000000000000000000000000000000000 DUP2 MSTORE PUSH1 0x4 ADD PUSH2 0x793 SWAP1 PUSH2 0x1097 JUMP JUMPDEST PUSH1 0x40 MLOAD DUP1 SWAP2 SUB SWAP1 REVERT JUMPDEST DUP3 PUSH1 0x3 DUP6 PUSH1 0x40 MLOAD PUSH2 0x7AD SWAP2 SWAP1 PUSH2 0x11B4 JUMP JUMPDEST SWAP1 DUP2 MSTORE PUSH1 0x20 ADD PUSH1 0x40 MLOAD DUP1 SWAP2 SUB SWAP1 KECCAK256 SWAP1 DUP2 PUSH2 0x7C7 SWAP2 SWAP1 PUSH2 0x1460 JUMP JUMPDEST POP POP POP POP POP JUMP JUMPDEST PUSH1 0x3 DUP2 DUP1 MLOAD PUSH1 0x20 DUP2 ADD DUP3 ADD DUP1 MLOAD DUP5 DUP3 MSTORE PUSH1 0x20 DUP4 ADD PUSH1 0x20 DUP6 ADD KECCAK256 DUP2 DUP4 MSTORE DUP1 SWAP6 POP POP POP POP POP POP PUSH0 SWAP2 POP SWAP1 POP DUP1 SLOAD PUSH2 0x802 SWAP1 PUSH2 0x10E2 JUMP JUMPDEST DUP1 PUSH1 0x1F ADD PUSH1 0x20 DUP1 SWAP2 DIV MUL PUSH1 0x20 ADD PUSH1 0x40 MLOAD SWAP1 DUP2 ADD PUSH1 0x40 MSTORE DUP1 SWAP3 SWAP2 SWAP1 DUP2 DUP2 MSTORE PUSH1 0x20 ADD DUP3 DUP1 SLOAD PUSH2 0x82E SWAP1 PUSH2 0x10E2 JUMP JUMPDEST DUP1 ISZERO PUSH2 0x879 JUMPI DUP1 PUSH1 0x1F LT PUSH2 0x850 JUMPI PUSH2 0x100 DUP1 DUP4 SLOAD DIV MUL DUP4 MSTORE SWAP2 PUSH1 0x20 ADD SWAP2 PUSH2 0x879 JUMP JUMPDEST DUP3 ADD SWAP2 SWAP1 PUSH0 MSTORE PUSH1 0x20 PUSH0 KECCAK256 SWAP1 JUMPDEST DUP2 SLOAD DUP2 MSTORE SWAP1 PUSH1 0x1 ADD SWAP1 PUSH1 0x20 ADD DUP1 DUP4 GT PUSH2 0x85C JUMPI DUP3 SWAP1 SUB PUSH1 0x1F AND DUP3 ADD SWAP2 JUMPDEST POP POP POP POP POP DUP2 JUMP JUMPDEST DUP1 PUSH0 PUSH0 SWAP1 SLOAD SWAP1 PUSH2 0x100 EXP SWAP1 DIV PUSH20 0xFFFFFFFFFFFFFFFFFFFFFFFFFFFFFFFFFFFFFFFF AND PUSH20 0xFFFFFFFFFFFFFFFFFFFFFFFFFFFFFFFFFFFFFFFF AND DUP2 PUSH20 0xFFFFFFFFFFFFFFFFFFFFFFFFFFFFFFFFFFFFFFFF AND EQ PUSH2 0x910 JUMPI PUSH1 0x40 MLOAD PUSH32 0x8C379A000000000000000000000000000000000000000000000000000000000 DUP2 MSTORE PUSH1 0x4 ADD PUSH2 0x907 SWAP1 PUSH2 0x1097 JUMP JUMPDEST PUSH1 0x40 MLOAD DUP1 SWAP2 SUB SWAP1 REVERT JUMPDEST PUSH1 0x5 PUSH1 0x40 MLOAD DUP1 PUSH1 0x60 ADD PUSH1 0x40 MSTORE DUP1 DUP7 DUP2 MSTORE PUSH1 0x20 ADD DUP6 PUSH20 0xFFFFFFFFFFFFFFFFFFFFFFFFFFFFFFFFFFFFFFFF AND DUP2 MSTORE PUSH1 0x20 ADD TIMESTAMP DUP2 MSTORE POP SWAP1 DUP1 PUSH1 0x1 DUP2 SLOAD ADD DUP1 DUP3 SSTORE DUP1 SWAP2 POP POP PUSH1 0x1 SWAP1 SUB SWAP1 PUSH0 MSTORE PUSH1 0x20 PUSH0 KECCAK256 SWAP1 PUSH1 0x3 MUL ADD PUSH0 SWAP1 SWAP2 SWAP1 SWAP2 SWAP1 SWAP2 POP PUSH0 DUP3 ADD MLOAD DUP2 PUSH0 ADD SWAP1 DUP2 PUSH2 0x97C SWAP2 SWAP1 PUSH2 0x1460 JUMP JUMPDEST POP PUSH1 0x20 DUP3 ADD MLOAD DUP2 PUSH1 0x1 ADD PUSH0 PUSH2 0x100 EXP DUP2 SLOAD DUP2 PUSH20 0xFFFFFFFFFFFFFFFFFFFFFFFFFFFFFFFFFFFFFFFF MUL NOT AND SWAP1 DUP4 PUSH20 0xFFFFFFFFFFFFFFFFFFFFFFFFFFFFFFFFFFFFFFFF AND MUL OR SWAP1 SSTORE POP PUSH1 0x40 DUP3 ADD MLOAD DUP2 PUSH1 0x2 ADD SSTORE POP POP DUP4 PUSH1 0x2 SWAP1 DUP2 PUSH2 0x9DE SWAP2 SWAP1 PUSH2 0x1460 JUMP JUMPDEST POP DUP3 PUSH1 0x1 PUSH0 PUSH2 0x100 EXP DUP2 SLOAD DUP2 PUSH20 0xFFFFFFFFFFFFFFFFFFFFFFFFFFFFFFFFFFFFFFFF MUL NOT AND SWAP1 DUP4 PUSH20 0xFFFFFFFFFFFFFFFFFFFFFFFFFFFFFFFFFFFFFFFF AND MUL OR SWAP1 SSTORE POP POP POP POP POP JUMP JUMPDEST PUSH1 0x4 DUP2 DUP1 MLOAD PUSH1 0x20 DUP2 ADD DUP3 ADD DUP1 MLOAD DUP5 DUP3 MSTORE PUSH1 0x20 DUP4 ADD PUSH1 0x20 DUP6 ADD KECCAK256 DUP2 DUP4 MSTORE DUP1 SWAP6 POP POP POP POP POP POP PUSH0 SWAP2 POP SWAP1 POP DUP1 PUSH0 ADD SLOAD SWAP1 DUP1 PUSH1 0x1 ADD SLOAD SWAP1 DUP1 PUSH1 0x2 ADD SLOAD SWAP1 POP DUP4 JUMP JUMPDEST PUSH0 PUSH0 PUSH0 PUSH1 0x4 PUSH1 0x2 PUSH1 0x40 MLOAD PUSH2 0xA77 SWAP2 SWAP1 PUSH2 0x125C JUMP JUMPDEST SWAP1 DUP2 MSTORE PUSH1 0x20 ADD PUSH1 0x40 MLOAD DUP1 SWAP2 SUB SWAP1 KECCAK256 PUSH1 0x2 ADD SLOAD PUSH1 0x4 PUSH1 0x2 PUSH1 0x40 MLOAD PUSH2 0xA9A SWAP2 SWAP1 PUSH2 0x125C JUMP JUMPDEST SWAP1 DUP2 MSTORE PUSH1 0x20 ADD PUSH1 0x40 MLOAD DUP1 SWAP2 SUB SWAP1 KECCAK256 PUSH0 ADD SLOAD PUSH1 0x4 PUSH1 0x2 PUSH1 0x40 MLOAD PUSH2 0xABC SWAP2 SWAP1 PUSH2 0x125C JUMP JUMPDEST SWAP1 DUP2 MSTORE PUSH1 0x20 ADD PUSH1 0x40 MLOAD DUP1 SWAP2 SUB SWAP1 KECCAK256 PUSH1 0x1 ADD SLOAD SWAP3 POP SWAP3 POP SWAP3 POP SWAP1 SWAP2 SWAP3 JUMP JUMPDEST PUSH0 DUP2 PUSH1 0x40 MLOAD PUSH1 0x20 ADD PUSH2 0xAEB SWAP2 SWAP1 PUSH2 0x11B4 JUMP JUMPDEST PUSH1 0x40 MLOAD PUSH1 0x20 DUP2 DUP4 SUB SUB DUP2 MSTORE SWAP1 PUSH1 0x40 MSTORE DUP1 MLOAD SWAP1 PUSH1 0x20 ADD KECCAK256 DUP4 PUSH1 0x40 MLOAD PUSH1 0x20 ADD PUSH2 0xB12 SWAP2 SWAP1 PUSH2 0x11B4 JUMP JUMPDEST PUSH1 0x40 MLOAD PUSH1 0x20 DUP2 DUP4 SUB SUB DUP2 MSTORE SWAP1 PUSH1 0x40 MSTORE DUP1 MLOAD SWAP1 PUSH1 0x20 ADD KECCAK256 EQ SWAP1 POP SWAP3 SWAP2 POP POP JUMP JUMPDEST PUSH0 PUSH20 0xFFFFFFFFFFFFFFFFFFFFFFFFFFFFFFFFFFFFFFFF DUP3 AND SWAP1 POP SWAP2 SWAP1 POP JUMP JUMPDEST PUSH0 PUSH2 0xB5A DUP3 PUSH2 0xB31 JUMP JUMPDEST SWAP1 POP SWAP2 SWAP1 POP JUMP JUMPDEST PUSH2 0xB6A DUP2 PUSH2 0xB50 JUMP JUMPDEST DUP3 MSTORE POP POP JUMP JUMPDEST PUSH0 PUSH1 0x20 DUP3 ADD SWAP1 POP PUSH2 0xB83 PUSH0 DUP4 ADD DUP5 PUSH2 0xB61 JUMP JUMPDEST SWAP3 SWAP2 POP POP JUMP JUMPDEST PUSH0 PUSH1 0x40 MLOAD SWAP1 POP SWAP1 JUMP JUMPDEST PUSH0 PUSH0 REVERT JUMPDEST PUSH0 PUSH0 REVERT JUMPDEST PUSH2 0xBA3 DUP2 PUSH2 0xB50 JUMP JUMPDEST DUP2 EQ PUSH2 0xBAD JUMPI PUSH0 PUSH0 REVERT JUMPDEST POP JUMP JUMPDEST PUSH0 DUP2 CALLDATALOAD SWAP1 POP PUSH2 0xBBE DUP2 PUSH2 0xB9A JUMP JUMPDEST SWAP3 SWAP2 POP POP JUMP JUMPDEST PUSH0 PUSH0 PUSH1 0x40 DUP4 DUP6 SUB SLT ISZERO PUSH2 0xBDA JUMPI PUSH2 0xBD9 PUSH2 0xB92 JUMP JUMPDEST JUMPDEST PUSH0 PUSH2 0xBE7 DUP6 DUP3 DUP7 ADD PUSH2 0xBB0 JUMP JUMPDEST SWAP3 POP POP PUSH1 0x20 PUSH2 0xBF8 DUP6 DUP3 DUP7 ADD PUSH2 0xBB0 JUMP JUMPDEST SWAP2 POP POP SWAP3 POP SWAP3 SWAP1 POP JUMP JUMPDEST PUSH0 DUP2 SWAP1 POP SWAP2 SWAP1 POP JUMP JUMPDEST PUSH2 0xC14 DUP2 PUSH2 0xC02 JUMP JUMPDEST DUP2 EQ PUSH2 0xC1E JUMPI PUSH0 PUSH0 REVERT JUMPDEST POP JUMP JUMPDEST PUSH0 DUP2 CALLDATALOAD SWAP1 POP PUSH2 0xC2F DUP2 PUSH2 0xC0B JUMP JUMPDEST SWAP3 SWAP2 POP POP JUMP JUMPDEST PUSH0 PUSH1 0x20 DUP3 DUP5 SUB SLT ISZERO PUSH2 0xC4A JUMPI PUSH2 0xC49 PUSH2 0xB92 JUMP JUMPDEST JUMPDEST PUSH0 PUSH2 0xC57 DUP5 DUP3 DUP6 ADD PUSH2 0xC21 JUMP JUMPDEST SWAP2 POP POP SWAP3 SWAP2 POP POP JUMP JUMPDEST PUSH0 DUP2 MLOAD SWAP1 POP SWAP2 SWAP1 POP JUMP JUMPDEST PUSH0 DUP3 DUP3 MSTORE PUSH1 0x20 DUP3 ADD SWAP1 POP SWAP3 SWAP2 POP POP JUMP JUMPDEST DUP3 DUP2 DUP4 MCOPY PUSH0 DUP4 DUP4 ADD MSTORE POP POP POP JUMP JUMPDEST PUSH0 PUSH1 0x1F NOT PUSH1 0x1F DUP4 ADD AND SWAP1 POP SWAP2 SWAP1 POP JUMP JUMPDEST PUSH0 PUSH2 0xCA2 DUP3 PUSH2 0xC60 JUMP JUMPDEST PUSH2 0xCAC DUP2 DUP6 PUSH2 0xC6A JUMP JUMPDEST SWAP4 POP PUSH2 0xCBC DUP2 DUP6 PUSH1 0x20 DUP7 ADD PUSH2 0xC7A JUMP JUMPDEST PUSH2 0xCC5 DUP2 PUSH2 0xC88 JUMP JUMPDEST DUP5 ADD SWAP2 POP POP SWAP3 SWAP2 POP POP JUMP JUMPDEST PUSH2 0xCD9 DUP2 PUSH2 0xC02 JUMP JUMPDEST DUP3 MSTORE POP POP JUMP JUMPDEST PUSH0 PUSH1 0x60 DUP3 ADD SWAP1 POP DUP2 DUP2 SUB PUSH0 DUP4 ADD MSTORE PUSH2 0xCF7 DUP2 DUP7 PUSH2 0xC98 JUMP JUMPDEST SWAP1 POP PUSH2 0xD06 PUSH1 0x20 DUP4 ADD DUP6 PUSH2 0xB61 JUMP JUMPDEST PUSH2 0xD13 PUSH1 0x40 DUP4 ADD DUP5 PUSH2 0xCD0 JUMP JUMPDEST SWAP5 SWAP4 POP POP POP POP JUMP JUMPDEST PUSH0 PUSH0 REVERT JUMPDEST PUSH0 PUSH0 REVERT JUMPDEST PUSH32 0x4E487B7100000000000000000000000000000000000000000000000000000000 PUSH0 MSTORE PUSH1 0x41 PUSH1 0x4 MSTORE PUSH1 0x24 PUSH0 REVERT JUMPDEST PUSH2 0xD59 DUP3 PUSH2 0xC88 JUMP JUMPDEST DUP2 ADD DUP2 DUP2 LT PUSH8 0xFFFFFFFFFFFFFFFF DUP3 GT OR ISZERO PUSH2 0xD78 JUMPI PUSH2 0xD77 PUSH2 0xD23 JUMP JUMPDEST JUMPDEST DUP1 PUSH1 0x40 MSTORE POP POP POP JUMP JUMPDEST PUSH0 PUSH2 0xD8A PUSH2 0xB89 JUMP JUMPDEST SWAP1 POP PUSH2 0xD96 DUP3 DUP3 PUSH2 0xD50 JUMP JUMPDEST SWAP2 SWAP1 POP JUMP JUMPDEST PUSH0 PUSH8 0xFFFFFFFFFFFFFFFF DUP3 GT ISZERO PUSH2 0xDB5 JUMPI PUSH2 0xDB4 PUSH2 0xD23 JUMP JUMPDEST JUMPDEST PUSH2 0xDBE DUP3 PUSH2 0xC88 JUMP JUMPDEST SWAP1 POP PUSH1 0x20 DUP2 ADD SWAP1 POP SWAP2 SWAP1 POP JUMP JUMPDEST DUP3 DUP2 DUP4 CALLDATACOPY PUSH0 DUP4 DUP4 ADD MSTORE POP POP POP JUMP JUMPDEST PUSH0 PUSH2 0xDEB PUSH2 0xDE6 DUP5 PUSH2 0xD9B JUMP JUMPDEST PUSH2 0xD81 JUMP JUMPDEST SWAP1 POP DUP3 DUP2 MSTORE PUSH1 0x20 DUP2 ADD DUP5 DUP5 DUP5 ADD GT ISZERO PUSH2 0xE07 JUMPI PUSH2 0xE06 PUSH2 0xD1F JUMP JUMPDEST JUMPDEST PUSH2 0xE12 DUP5 DUP3 DUP6 PUSH2 0xDCB JUMP JUMPDEST POP SWAP4 SWAP3 POP POP POP JUMP JUMPDEST PUSH0 DUP3 PUSH1 0x1F DUP4 ADD SLT PUSH2 0xE2E JUMPI PUSH2 0xE2D PUSH2 0xD1B JUMP JUMPDEST JUMPDEST DUP2 CALLDATALOAD PUSH2 0xE3E DUP5 DUP3 PUSH1 0x20 DUP7 ADD PUSH2 0xDD9 JUMP JUMPDEST SWAP2 POP POP SWAP3 SWAP2 POP POP JUMP JUMPDEST PUSH0 PUSH0 PUSH1 0x40 DUP4 DUP6 SUB SLT ISZERO PUSH2 0xE5D JUMPI PUSH2 0xE5C PUSH2 0xB92 JUMP JUMPDEST JUMPDEST PUSH0 DUP4 ADD CALLDATALOAD PUSH8 0xFFFFFFFFFFFFFFFF DUP2 GT ISZERO PUSH2 0xE7A JUMPI PUSH2 0xE79 PUSH2 0xB96 JUMP JUMPDEST JUMPDEST PUSH2 0xE86 DUP6 DUP3 DUP7 ADD PUSH2 0xE1A JUMP JUMPDEST SWAP3 POP POP PUSH1 0x20 DUP4 ADD CALLDATALOAD PUSH8 0xFFFFFFFFFFFFFFFF DUP2 GT ISZERO PUSH2 0xEA7 JUMPI PUSH2 0xEA6 PUSH2 0xB96 JUMP JUMPDEST JUMPDEST PUSH2 0xEB3 DUP6 DUP3 DUP7 ADD PUSH2 0xE1A JUMP JUMPDEST SWAP2 POP POP SWAP3 POP SWAP3 SWAP1 POP JUMP JUMPDEST PUSH0 PUSH0 PUSH0 PUSH1 0x60 DUP5 DUP7 SUB SLT ISZERO PUSH2 0xED4 JUMPI PUSH2 0xED3 PUSH2 0xB92 JUMP JUMPDEST JUMPDEST PUSH0 DUP5 ADD CALLDATALOAD PUSH8 0xFFFFFFFFFFFFFFFF DUP2 GT ISZERO PUSH2 0xEF1 JUMPI PUSH2 0xEF0 PUSH2 0xB96 JUMP JUMPDEST JUMPDEST PUSH2 0xEFD DUP7 DUP3 DUP8 ADD PUSH2 0xE1A JUMP JUMPDEST SWAP4 POP POP PUSH1 0x20 DUP5 ADD CALLDATALOAD PUSH8 0xFFFFFFFFFFFFFFFF DUP2 GT ISZERO PUSH2 0xF1E JUMPI PUSH2 0xF1D PUSH2 0xB96 JUMP JUMPDEST JUMPDEST PUSH2 0xF2A DUP7 DUP3 DUP8 ADD PUSH2 0xE1A JUMP JUMPDEST SWAP3 POP POP PUSH1 0x40 PUSH2 0xF3B DUP7 DUP3 DUP8 ADD PUSH2 0xBB0 JUMP JUMPDEST SWAP2 POP POP SWAP3 POP SWAP3 POP SWAP3 JUMP JUMPDEST PUSH0 PUSH1 0x20 DUP3 DUP5 SUB SLT ISZERO PUSH2 0xF5A JUMPI PUSH2 0xF59 PUSH2 0xB92 JUMP JUMPDEST JUMPDEST PUSH0 DUP3 ADD CALLDATALOAD PUSH8 0xFFFFFFFFFFFFFFFF DUP2 GT ISZERO PUSH2 0xF77 JUMPI PUSH2 0xF76 PUSH2 0xB96 JUMP JUMPDEST JUMPDEST PUSH2 0xF83 DUP5 DUP3 DUP6 ADD PUSH2 0xE1A JUMP JUMPDEST SWAP2 POP POP SWAP3 SWAP2 POP POP JUMP JUMPDEST PUSH0 PUSH1 0x20 DUP3 ADD SWAP1 POP DUP2 DUP2 SUB PUSH0 DUP4 ADD MSTORE PUSH2 0xFA4 DUP2 DUP5 PUSH2 0xC98 JUMP JUMPDEST SWAP1 POP SWAP3 SWAP2 POP POP JUMP JUMPDEST PUSH0 PUSH0 PUSH0 PUSH1 0x60 DUP5 DUP7 SUB SLT ISZERO PUSH2 0xFC3 JUMPI PUSH2 0xFC2 PUSH2 0xB92 JUMP JUMPDEST JUMPDEST PUSH0 DUP5 ADD CALLDATALOAD PUSH8 0xFFFFFFFFFFFFFFFF DUP2 GT ISZERO PUSH2 0xFE0 JUMPI PUSH2 0xFDF PUSH2 0xB96 JUMP JUMPDEST JUMPDEST PUSH2 0xFEC DUP7 DUP3 DUP8 ADD PUSH2 0xE1A JUMP JUMPDEST SWAP4 POP POP PUSH1 0x20 PUSH2 0xFFD DUP7 DUP3 DUP8 ADD PUSH2 0xBB0 JUMP JUMPDEST SWAP3 POP POP PUSH1 0x40 PUSH2 0x100E DUP7 DUP3 DUP8 ADD PUSH2 0xBB0 JUMP JUMPDEST SWAP2 POP POP SWAP3 POP SWAP3 POP SWAP3 JUMP JUMPDEST PUSH0 PUSH1 0x60 DUP3 ADD SWAP1 POP PUSH2 0x102B PUSH0 DUP4 ADD DUP7 PUSH2 0xCD0 JUMP JUMPDEST PUSH2 0x1038 PUSH1 0x20 DUP4 ADD DUP6 PUSH2 0xCD0 JUMP JUMPDEST PUSH2 0x1045 PUSH1 0x40 DUP4 ADD DUP5 PUSH2 0xCD0 JUMP JUMPDEST SWAP5 SWAP4 POP POP POP POP JUMP JUMPDEST PUSH32 0x43616C6C6572206973206E6F7420636F6E74726F6C6C65720000000000000000 PUSH0 DUP3 ADD MSTORE POP JUMP JUMPDEST PUSH0 PUSH2 0x1081 PUSH1 0x18 DUP4 PUSH2 0xC6A JUMP JUMPDEST SWAP2 POP PUSH2 0x108C DUP3 PUSH2 0x104D JUMP JUMPDEST PUSH1 0x20 DUP3 ADD SWAP1 POP SWAP2 SWAP1 POP JUMP JUMPDEST PUSH0 PUSH1 0x20 DUP3 ADD SWAP1 POP DUP2 DUP2 SUB PUSH0 DUP4 ADD MSTORE PUSH2 0x10AE DUP2 PUSH2 0x1075 JUMP JUMPDEST SWAP1 POP SWAP2 SWAP1 POP JUMP JUMPDEST PUSH32 0x4E487B7100000000000000000000000000000000000000000000000000000000 PUSH0 MSTORE PUSH1 0x22 PUSH1 0x4 MSTORE PUSH1 0x24 PUSH0 REVERT JUMPDEST PUSH0 PUSH1 0x2 DUP3 DIV SWAP1 POP PUSH1 0x1 DUP3 AND DUP1 PUSH2 0x10F9 JUMPI PUSH1 0x7F DUP3 AND SWAP2 POP JUMPDEST PUSH1 0x20 DUP3 LT DUP2 SUB PUSH2 0x110C JUMPI PUSH2 0x110B PUSH2 0x10B5 JUMP JUMPDEST JUMPDEST POP SWAP2 SWAP1 POP JUMP JUMPDEST PUSH32 0x43616C6C6572206973206E6F7420656772657373206564676500000000000000 PUSH0 DUP3 ADD MSTORE POP JUMP JUMPDEST PUSH0 PUSH2 0x1146 PUSH1 0x19 DUP4 PUSH2 0xC6A JUMP JUMPDEST SWAP2 POP PUSH2 0x1151 DUP3 PUSH2 0x1112 JUMP JUMPDEST PUSH1 0x20 DUP3 ADD SWAP1 POP SWAP2 SWAP1 POP JUMP JUMPDEST PUSH0 PUSH1 0x20 DUP3 ADD SWAP1 POP DUP2 DUP2 SUB PUSH0 DUP4 ADD MSTORE PUSH2 0x1173 DUP2 PUSH2 0x113A JUMP JUMPDEST SWAP1 POP SWAP2 SWAP1 POP JUMP JUMPDEST PUSH0 DUP2 SWAP1 POP SWAP3 SWAP2 POP POP JUMP JUMPDEST PUSH0 PUSH2 0x118E DUP3 PUSH2 0xC60 JUMP JUMPDEST PUSH2 0x1198 DUP2 DUP6 PUSH2 0x117A JUMP JUMPDEST SWAP4 POP PUSH2 0x11A8 DUP2 DUP6 PUSH1 0x20 DUP7 ADD PUSH2 0xC7A JUMP JUMPDEST DUP1 DUP5 ADD SWAP2 POP POP SWAP3 SWAP2 POP POP JUMP JUMPDEST PUSH0 PUSH2 0x11BF DUP3 DUP5 PUSH2 0x1184 JUMP JUMPDEST SWAP2 POP DUP2 SWAP1 POP SWAP3 SWAP2 POP POP JUMP JUMPDEST PUSH0 DUP2 SWAP1 POP DUP2 PUSH0 MSTORE PUSH1 0x20 PUSH0 KECCAK256 SWAP1 POP SWAP2 SWAP1 POP JUMP JUMPDEST PUSH0 DUP2 SLOAD PUSH2 0x11E8 DUP2 PUSH2 0x10E2 JUMP JUMPDEST PUSH2 0x11F2 DUP2 DUP7 PUSH2 0x117A JUMP JUMPDEST SWAP5 POP PUSH1 0x1 DUP3 AND PUSH0 DUP2 EQ PUSH2 0x120C JUMPI PUSH1 0x1 DUP2 EQ PUSH2 0x1221 JUMPI PUSH2 0x1253 JUMP JUMPDEST PUSH1 0xFF NOT DUP4 AND DUP7 MSTORE DUP2 ISZERO ISZERO DUP3 MUL DUP7 ADD SWAP4 POP PUSH2 0x1253 JUMP JUMPDEST PUSH2 0x122A DUP6 PUSH2 0x11CA JUMP JUMPDEST PUSH0 JUMPDEST DUP4 DUP2 LT ISZERO PUSH2 0x124B JUMPI DUP2 SLOAD DUP2 DUP10 ADD MSTORE PUSH1 0x1 DUP3 ADD SWAP2 POP PUSH1 0x20 DUP2 ADD SWAP1 POP PUSH2 0x122C JUMP JUMPDEST DUP4 DUP9 ADD SWAP6 POP POP POP JUMPDEST POP POP POP SWAP3 SWAP2 POP POP JUMP JUMPDEST PUSH0 PUSH2 0x1267 DUP3 DUP5 PUSH2 0x11DC JUMP JUMPDEST SWAP2 POP DUP2 SWAP1 POP SWAP3 SWAP2 POP POP JUMP JUMPDEST PUSH32 0x4E487B7100000000000000000000000000000000000000000000000000000000 PUSH0 MSTORE PUSH1 0x11 PUSH1 0x4 MSTORE PUSH1 0x24 PUSH0 REVERT JUMPDEST PUSH0 PUSH2 0x12A9 DUP3 PUSH2 0xC02 JUMP JUMPDEST SWAP2 POP PUSH2 0x12B4 DUP4 PUSH2 0xC02 JUMP JUMPDEST SWAP3 POP DUP3 DUP3 ADD SWAP1 POP DUP1 DUP3 GT ISZERO PUSH2 0x12CC JUMPI PUSH2 0x12CB PUSH2 0x1272 JUMP JUMPDEST JUMPDEST SWAP3 SWAP2 POP POP JUMP JUMPDEST PUSH0 PUSH1 0x20 PUSH1 0x1F DUP4 ADD DIV SWAP1 POP SWAP2 SWAP1 POP JUMP JUMPDEST PUSH0 DUP3 DUP3 SHL SWAP1 POP SWAP3 SWAP2 POP POP JUMP JUMPDEST PUSH0 PUSH1 0x8 DUP4 MUL PUSH2 0x131C PUSH32 0xFFFFFFFFFFFFFFFFFFFFFFFFFFFFFFFFFFFFFFFFFFFFFFFFFFFFFFFFFFFFFFFF DUP3 PUSH2 0x12E1 JUMP JUMPDEST PUSH2 0x1326 DUP7 DUP4 PUSH2 0x12E1 JUMP JUMPDEST SWAP6 POP DUP1 NOT DUP5 AND SWAP4 POP DUP1 DUP7 AND DUP5 OR SWAP3 POP POP POP SWAP4 SWAP3 POP POP POP JUMP JUMPDEST PUSH0 DUP2 SWAP1 POP SWAP2 SWAP1 POP JUMP JUMPDEST PUSH0 PUSH2 0x1361 PUSH2 0x135C PUSH2 0x1357 DUP5 PUSH2 0xC02 JUMP JUMPDEST PUSH2 0x133E JUMP JUMPDEST PUSH2 0xC02 JUMP JUMPDEST SWAP1 POP SWAP2 SWAP1 POP JUMP JUMPDEST PUSH0 DUP2 SWAP1 POP SWAP2 SWAP1 POP JUMP JUMPDEST PUSH2 0x137A DUP4 PUSH2 0x1347 JUMP JUMPDEST PUSH2 0x138E PUSH2 0x1386 DUP3 PUSH2 0x1368 JUMP JUMPDEST DUP5 DUP5 SLOAD PUSH2 0x12ED JUMP JUMPDEST DUP3 SSTORE POP POP POP POP JUMP JUMPDEST PUSH0 PUSH0 SWAP1 POP SWAP1 JUMP JUMPDEST PUSH2 0x13A5 PUSH2 0x1396 JUMP JUMPDEST PUSH2 0x13B0 DUP2 DUP5 DUP5 PUSH2 0x1371 JUMP JUMPDEST POP POP POP JUMP JUMPDEST JUMPDEST DUP2 DUP2 LT ISZERO PUSH2 0x13D3 JUMPI PUSH2 0x13C8 PUSH0 DUP3 PUSH2 0x139D JUMP JUMPDEST PUSH1 0x1 DUP2 ADD SWAP1 POP PUSH2 0x13B6 JUMP JUMPDEST POP POP JUMP JUMPDEST PUSH1 0x1F DUP3 GT ISZERO PUSH2 0x1418 JUMPI PUSH2 0x13E9 DUP2 PUSH2 0x11CA JUMP JUMPDEST PUSH2 0x13F2 DUP5 PUSH2 0x12D2 JUMP JUMPDEST DUP2 ADD PUSH1 0x20 DUP6 LT ISZERO PUSH2 0x1401 JUMPI DUP2 SWAP1 POP JUMPDEST PUSH2 0x1415 PUSH2 0x140D DUP6 PUSH2 0x12D2 JUMP JUMPDEST DUP4 ADD DUP3 PUSH2 0x13B5 JUMP JUMPDEST POP POP JUMPDEST POP POP POP JUMP JUMPDEST PUSH0 DUP3 DUP3 SHR SWAP1 POP SWAP3 SWAP2 POP POP JUMP JUMPDEST PUSH0 PUSH2 0x1438 PUSH0 NOT DUP5 PUSH1 0x8 MUL PUSH2 0x141D JUMP JUMPDEST NOT DUP1 DUP4 AND SWAP2 POP POP SWAP3 SWAP2 POP POP JUMP JUMPDEST PUSH0 PUSH2 0x1450 DUP4 DUP4 PUSH2 0x1429 JUMP JUMPDEST SWAP2 POP DUP3 PUSH1 0x2 MUL DUP3 OR SWAP1 POP SWAP3 SWAP2 POP POP JUMP JUMPDEST PUSH2 0x1469 DUP3 PUSH2 0xC60 JUMP JUMPDEST PUSH8 0xFFFFFFFFFFFFFFFF DUP2 GT ISZERO PUSH2 0x1482 JUMPI PUSH2 0x1481 PUSH2 0xD23 JUMP JUMPDEST JUMPDEST PUSH2 0x148C DUP3 SLOAD PUSH2 0x10E2 JUMP JUMPDEST PUSH2 0x1497 DUP3 DUP3 DUP6 PUSH2 0x13D7 JUMP JUMPDEST PUSH0 PUSH1 0x20 SWAP1 POP PUSH1 0x1F DUP4 GT PUSH1 0x1 DUP2 EQ PUSH2 0x14C8 JUMPI PUSH0 DUP5 ISZERO PUSH2 0x14B6 JUMPI DUP3 DUP8 ADD MLOAD SWAP1 POP JUMPDEST PUSH2 0x14C0 DUP6 DUP3 PUSH2 0x1445 JUMP JUMPDEST DUP7 SSTORE POP PUSH2 0x1527 JUMP JUMPDEST PUSH1 0x1F NOT DUP5 AND PUSH2 0x14D6 DUP7 PUSH2 0x11CA JUMP JUMPDEST PUSH0 JUMPDEST DUP3 DUP2 LT ISZERO PUSH2 0x14FD JUMPI DUP5 DUP10 ADD MLOAD DUP3 SSTORE PUSH1 0x1 DUP3 ADD SWAP2 POP PUSH1 0x20 DUP6 ADD SWAP5 POP PUSH1 0x20 DUP2 ADD SWAP1 POP PUSH2 0x14D8 JUMP JUMPDEST DUP7 DUP4 LT ISZERO PUSH2 0x151A JUMPI DUP5 DUP10 ADD MLOAD PUSH2 0x1516 PUSH1 0x1F DUP10 AND DUP3 PUSH2 0x1429 JUMP JUMPDEST DUP4 SSTORE POP JUMPDEST PUSH1 0x1 PUSH1 0x2 DUP9 MUL ADD DUP9 SSTORE POP POP POP JUMPDEST POP POP POP POP POP POP JUMP INVALID LOG2 PUSH5 0x6970667358 0x22 SLT KECCAK256 SWAP6 0xC4 DUP16 PUSH21 0xE15A9A0D6B280B2A606B60F05552063E442096EE5E 0x26 PUSH25 0x196D46186464736F6C634300081C0033A26469706673582212 KECCAK256 OR SWAP10 0xB6 0xB3 SLOAD 0xCF 0xD5 0x4F PUSH9 0x96BA3C80EC2763AA90 CREATE2 0xC8 ORIGIN 0xA8 BLOBBASEFEE 0xCA 0xDD 0x22 PUSH27 0xDCBC5A923D64736F6C634300081C00330000000000000000000000 "
		},
		"gasEstimates": {
			"creation": {
				"codeDepositCost": "2138400",
				"executionCost": "2278",
				"totalCost": "2140678"
			},
			"external": {
				"Hello()": "infinite",
				"echo(string)": "infinite",
				"flowAddr(string)": "infinite",
				"getFlowCompliance(string)": "infinite",
				"newFlow(string,address,string)": "infinite",
				"setFlowProbeHash(string,string,string)": "infinite",
				"setRouteId(string,string,address)": "infinite"
			}
		},
		"methodIdentifiers": {
			"Hello()": "bcdfe0d5",
			"echo(string)": "f15da729",
			"flowAddr(string)": "b288366b",
			"getFlowCompliance(string)": "058187aa",
			"newFlow(string,address,string)": "f3a01fd2",
			"setFlowProbeHash(string,string,string)": "5ca94b73",
			"setRouteId(string,string,address)": "e6a594bc"
		}
	},
	"abi": [
		{
			"anonymous": false,
			"inputs": [
				{
					"indexed": false,
					"internalType": "string",
					"name": "message",
					"type": "string"
				}
			],
			"name": "Echo",
			"type": "event"
		},
		{
			"inputs": [],
			"name": "Hello",
			"outputs": [
				{
					"internalType": "string",
					"name": "",
					"type": "string"
				}
			],
			"stateMutability": "pure",
			"type": "function"
		},
		{
			"inputs": [
				{
					"internalType": "string",
					"name": "message",
					"type": "string"
				}
			],
			"name": "echo",
			"outputs": [],
			"stateMutability": "nonpayable",
			"type": "function"
		},
		{
			"inputs": [
				{
					"internalType": "string",
					"name": "",
					"type": "string"
				}
			],
			"name": "flowAddr",
			"outputs": [
				{
					"internalType": "address",
					"name": "",
					"type": "address"
				}
			],
			"stateMutability": "view",
			"type": "function"
		},
		{
			"inputs": [
				{
					"internalType": "string",
					"name": "flowId",
					"type": "string"
				}
			],
			"name": "getFlowCompliance",
			"outputs": [
				{
					"internalType": "uint256",
					"name": "success",
					"type": "uint256"
				},
				{
					"internalType": "uint256",
					"name": "fail",
					"type": "uint256"
				},
				{
					"internalType": "uint256",
					"name": "nil",
					"type": "uint256"
				}
			],
			"stateMutability": "view",
			"type": "function"
		},
		{
			"inputs": [
				{
					"internalType": "string",
					"name": "flowId",
					"type": "string"
				},
				{
					"internalType": "address",
					"name": "egress_edgeAddr",
					"type": "address"
				},
				{
					"internalType": "string",
					"name": "routeId",
					"type": "string"
				}
			],
			"name": "newFlow",
			"outputs": [],
			"stateMutability": "nonpayable",
			"type": "function"
		},
		{
			"inputs": [
				{
					"internalType": "string",
					"name": "flowId",
					"type": "string"
				},
				{
					"internalType": "string",
					"name": "id_x",
					"type": "string"
				},
				{
					"internalType": "string",
					"name": "hash",
					"type": "string"
				}
			],
			"name": "setFlowProbeHash",
			"outputs": [],
			"stateMutability": "nonpayable",
			"type": "function"
		},
		{
			"inputs": [
				{
					"internalType": "string",
					"name": "flowId",
					"type": "string"
				},
				{
					"internalType": "string",
					"name": "newRouteID",
					"type": "string"
				},
				{
					"internalType": "address",
					"name": "newEgressEdge",
					"type": "address"
				}
			],
			"name": "setRouteId",
			"outputs": [],
			"stateMutability": "nonpayable",
			"type": "function"
		}
	]
}