{
	"Demo.sol": {
		"Demo": {
			"abi": [
				{
					"anonymous": false,
					"inputs": [
						{
							"indexed": false,
							"internalType": "string",
							"name": "message",
							"type": "string"
						}
					],
					"name": "Echo",
					"type": "event"
				},
				{
					"inputs": [],
					"name": "Hello",
					"outputs": [
						{
							"internalType": "string",
							"name": "",
							"type": "string"
						}
					],
					"stateMutability": "pure",
					"type": "function"
				},
				{
					"inputs": [
						{
							"internalType": "string",
							"name": "message",
							"type": "string"
						}
					],
					"name": "echo",
					"outputs": [],
					"stateMutability": "nonpayable",
					"type": "function"
				}
			],
			"devdoc": {
				"kind": "dev",
				"methods": {},
				"version": 1
			},
			"evm": {
				"assembly": "    /* \"Demo.sol\":62:293  contract Demo {... */\n  mstore(0x40, 0x80)\n  callvalue\n  dup1\n  iszero\n  tag_1\n  jumpi\n  revert(0x00, 0x00)\ntag_1:\n  pop\n  dataSize(sub_0)\n  dup1\n  dataOffset(sub_0)\n  0x00\n  codecopy\n  0x00\n  return\nstop\n\nsub_0: assembly {\n        /* \"Demo.sol\":62:293  contract Demo {... */\n      mstore(0x40, 0x80)\n      callvalue\n      dup1\n      iszero\n      tag_1\n      jumpi\n      revert(0x00, 0x00)\n    tag_1:\n      pop\n      jumpi(tag_2, lt(calldatasize, 0x04))\n      shr(0xe0, calldataload(0x00))\n      dup1\n      0xbcdfe0d5\n      eq\n      tag_3\n      jumpi\n      dup1\n      0xf15da729\n      eq\n      tag_4\n      jumpi\n    tag_2:\n      revert(0x00, 0x00)\n        /* \"Demo.sol\":82:165  function Hello() public pure returns (string memory){... */\n    tag_3:\n      tag_5\n      tag_6\n      jump\t// in\n    tag_5:\n      mload(0x40)\n      tag_7\n      swap2\n      swap1\n      tag_8\n      jump\t// in\n    tag_7:\n      mload(0x40)\n      dup1\n      swap2\n      sub\n      swap1\n      return\n        /* \"Demo.sol\":208:291  function echo(string calldata message) external {... */\n    tag_4:\n      tag_9\n      0x04\n      dup1\n      calldatasize\n      sub\n      dup2\n      add\n      swap1\n      tag_10\n      swap2\n      swap1\n      tag_11\n      jump\t// in\n    tag_10:\n      tag_12\n      jump\t// in\n    tag_9:\n      stop\n        /* \"Demo.sol\":82:165  function Hello() public pure returns (string memory){... */\n    tag_6:\n        /* \"Demo.sol\":120:133  string memory */\n      0x60\n        /* \"Demo.sol\":144:158  return \"Hello\" */\n      mload(0x40)\n      dup1\n      0x40\n      add\n      0x40\n      mstore\n      dup1\n      0x05\n      dup2\n      mstore\n      0x20\n      add\n      0x48656c6c6f000000000000000000000000000000000000000000000000000000\n      dup2\n      mstore\n      pop\n      swap1\n      pop\n        /* \"Demo.sol\":82:165  function Hello() public pure returns (string memory){... */\n      swap1\n      jump\t// out\n        /* \"Demo.sol\":208:291  function echo(string calldata message) external {... */\n    tag_12:\n        /* \"Demo.sol\":271:284  Echo(message) */\n      0xdb84d7c006c4de68f9c0bd50b8b81ed31f29ebeec325c872d36445c6565d757c\n        /* \"Demo.sol\":276:283  message */\n      dup3\n      dup3\n        /* \"Demo.sol\":271:284  Echo(message) */\n      mload(0x40)\n      tag_15\n      swap3\n      swap2\n      swap1\n      tag_16\n      jump\t// in\n    tag_15:\n      mload(0x40)\n      dup1\n      swap2\n      sub\n      swap1\n      log1\n        /* \"Demo.sol\":208:291  function echo(string calldata message) external {... */\n      pop\n      pop\n      jump\t// out\n        /* \"#utility.yul\":7:106   */\n    tag_17:\n        /* \"#utility.yul\":59:65   */\n      0x00\n        /* \"#utility.yul\":93:98   */\n      dup2\n        /* \"#utility.yul\":87:99   */\n      mload\n        /* \"#utility.yul\":77:99   */\n      swap1\n      pop\n        /* \"#utility.yul\":7:106   */\n      swap2\n      swap1\n      pop\n      jump\t// out\n        /* \"#utility.yul\":112:281   */\n    tag_18:\n        /* \"#utility.yul\":196:207   */\n      0x00\n        /* \"#utility.yul\":230:236   */\n      dup3\n        /* \"#utility.yul\":225:228   */\n      dup3\n        /* \"#utility.yul\":218:237   */\n      mstore\n        /* \"#utility.yul\":270:274   */\n      0x20\n        /* \"#utility.yul\":265:268   */\n      dup3\n        /* \"#utility.yul\":261:275   */\n      add\n        /* \"#utility.yul\":246:275   */\n      swap1\n      pop\n        /* \"#utility.yul\":112:281   */\n      swap3\n      swap2\n      pop\n      pop\n      jump\t// out\n        /* \"#utility.yul\":287:426   */\n    tag_19:\n        /* \"#utility.yul\":376:382   */\n      dup3\n        /* \"#utility.yul\":371:374   */\n      dup2\n        /* \"#utility.yul\":366:369   */\n      dup4\n        /* \"#utility.yul\":360:383   */\n      mcopy\n        /* \"#utility.yul\":417:418   */\n      0x00\n        /* \"#utility.yul\":408:414   */\n      dup4\n        /* \"#utility.yul\":403:406   */\n      dup4\n        /* \"#utility.yul\":399:415   */\n      add\n        /* \"#utility.yul\":392:419   */\n      mstore\n        /* \"#utility.yul\":287:426   */\n      pop\n      pop\n      pop\n      jump\t// out\n        /* \"#utility.yul\":432:534   */\n    tag_20:\n        /* \"#utility.yul\":473:479   */\n      0x00\n        /* \"#utility.yul\":524:526   */\n      0x1f\n        /* \"#utility.yul\":520:527   */\n      not\n        /* \"#utility.yul\":515:517   */\n      0x1f\n        /* \"#utility.yul\":508:513   */\n      dup4\n        /* \"#utility.yul\":504:518   */\n      add\n        /* \"#utility.yul\":500:528   */\n      and\n        /* \"#utility.yul\":490:528   */\n      swap1\n      pop\n        /* \"#utility.yul\":432:534   */\n      swap2\n      swap1\n      pop\n      jump\t// out\n        /* \"#utility.yul\":540:917   */\n    tag_21:\n        /* \"#utility.yul\":628:631   */\n      0x00\n        /* \"#utility.yul\":656:695   */\n      tag_37\n        /* \"#utility.yul\":689:694   */\n      dup3\n        /* \"#utility.yul\":656:695   */\n      tag_17\n      jump\t// in\n    tag_37:\n        /* \"#utility.yul\":711:782   */\n      tag_38\n        /* \"#utility.yul\":775:781   */\n      dup2\n        /* \"#utility.yul\":770:773   */\n      dup6\n        /* \"#utility.yul\":711:782   */\n      tag_18\n      jump\t// in\n    tag_38:\n        /* \"#utility.yul\":704:782   */\n      swap4\n      pop\n        /* \"#utility.yul\":791:856   */\n      tag_39\n        /* \"#utility.yul\":849:855   */\n      dup2\n        /* \"#utility.yul\":844:847   */\n      dup6\n        /* \"#utility.yul\":837:841   */\n      0x20\n        /* \"#utility.yul\":830:835   */\n      dup7\n        /* \"#utility.yul\":826:842   */\n      add\n        /* \"#utility.yul\":791:856   */\n      tag_19\n      jump\t// in\n    tag_39:\n        /* \"#utility.yul\":881:910   */\n      tag_40\n        /* \"#utility.yul\":903:909   */\n      dup2\n        /* \"#utility.yul\":881:910   */\n      tag_20\n      jump\t// in\n    tag_40:\n        /* \"#utility.yul\":876:879   */\n      dup5\n        /* \"#utility.yul\":872:911   */\n      add\n        /* \"#utility.yul\":865:911   */\n      swap2\n      pop\n        /* \"#utility.yul\":632:917   */\n      pop\n        /* \"#utility.yul\":540:917   */\n      swap3\n      swap2\n      pop\n      pop\n      jump\t// out\n        /* \"#utility.yul\":923:1236   */\n    tag_8:\n        /* \"#utility.yul\":1036:1040   */\n      0x00\n        /* \"#utility.yul\":1074:1076   */\n      0x20\n        /* \"#utility.yul\":1063:1072   */\n      dup3\n        /* \"#utility.yul\":1059:1077   */\n      add\n        /* \"#utility.yul\":1051:1077   */\n      swap1\n      pop\n        /* \"#utility.yul\":1123:1132   */\n      dup2\n        /* \"#utility.yul\":1117:1121   */\n      dup2\n        /* \"#utility.yul\":1113:1133   */\n      sub\n        /* \"#utility.yul\":1109:1110   */\n      0x00\n        /* \"#utility.yul\":1098:1107   */\n      dup4\n        /* \"#utility.yul\":1094:1111   */\n      add\n        /* \"#utility.yul\":1087:1134   */\n      mstore\n        /* \"#utility.yul\":1151:1229   */\n      tag_42\n        /* \"#utility.yul\":1224:1228   */\n      dup2\n        /* \"#utility.yul\":1215:1221   */\n      dup5\n        /* \"#utility.yul\":1151:1229   */\n      tag_21\n      jump\t// in\n    tag_42:\n        /* \"#utility.yul\":1143:1229   */\n      swap1\n      pop\n        /* \"#utility.yul\":923:1236   */\n      swap3\n      swap2\n      pop\n      pop\n      jump\t// out\n        /* \"#utility.yul\":1323:1440   */\n    tag_23:\n        /* \"#utility.yul\":1432:1433   */\n      0x00\n        /* \"#utility.yul\":1429:1430   */\n      0x00\n        /* \"#utility.yul\":1422:1434   */\n      revert\n        /* \"#utility.yul\":1446:1563   */\n    tag_24:\n        /* \"#utility.yul\":1555:1556   */\n      0x00\n        /* \"#utility.yul\":1552:1553   */\n      0x00\n        /* \"#utility.yul\":1545:1557   */\n      revert\n        /* \"#utility.yul\":1569:1686   */\n    tag_25:\n        /* \"#utility.yul\":1678:1679   */\n      0x00\n        /* \"#utility.yul\":1675:1676   */\n      0x00\n        /* \"#utility.yul\":1668:1680   */\n      revert\n        /* \"#utility.yul\":1692:1809   */\n    tag_26:\n        /* \"#utility.yul\":1801:1802   */\n      0x00\n        /* \"#utility.yul\":1798:1799   */\n      0x00\n        /* \"#utility.yul\":1791:1803   */\n      revert\n        /* \"#utility.yul\":1815:1932   */\n    tag_27:\n        /* \"#utility.yul\":1924:1925   */\n      0x00\n        /* \"#utility.yul\":1921:1922   */\n      0x00\n        /* \"#utility.yul\":1914:1926   */\n      revert\n        /* \"#utility.yul\":1952:2505   */\n    tag_28:\n        /* \"#utility.yul\":2010:2018   */\n      0x00\n        /* \"#utility.yul\":2020:2026   */\n      0x00\n        /* \"#utility.yul\":2070:2073   */\n      dup4\n        /* \"#utility.yul\":2063:2067   */\n      0x1f\n        /* \"#utility.yul\":2055:2061   */\n      dup5\n        /* \"#utility.yul\":2051:2068   */\n      add\n        /* \"#utility.yul\":2047:2074   */\n      slt\n        /* \"#utility.yul\":2037:2159   */\n      tag_50\n      jumpi\n        /* \"#utility.yul\":2078:2157   */\n      tag_51\n      tag_25\n      jump\t// in\n    tag_51:\n        /* \"#utility.yul\":2037:2159   */\n    tag_50:\n        /* \"#utility.yul\":2191:2197   */\n      dup3\n        /* \"#utility.yul\":2178:2198   */\n      calldataload\n        /* \"#utility.yul\":2168:2198   */\n      swap1\n      pop\n        /* \"#utility.yul\":2221:2239   */\n      0xffffffffffffffff\n        /* \"#utility.yul\":2213:2219   */\n      dup2\n        /* \"#utility.yul\":2210:2240   */\n      gt\n        /* \"#utility.yul\":2207:2324   */\n      iszero\n      tag_52\n      jumpi\n        /* \"#utility.yul\":2243:2322   */\n      tag_53\n      tag_26\n      jump\t// in\n    tag_53:\n        /* \"#utility.yul\":2207:2324   */\n    tag_52:\n        /* \"#utility.yul\":2357:2361   */\n      0x20\n        /* \"#utility.yul\":2349:2355   */\n      dup4\n        /* \"#utility.yul\":2345:2362   */\n      add\n        /* \"#utility.yul\":2333:2362   */\n      swap2\n      pop\n        /* \"#utility.yul\":2411:2414   */\n      dup4\n        /* \"#utility.yul\":2403:2407   */\n      0x01\n        /* \"#utility.yul\":2395:2401   */\n      dup3\n        /* \"#utility.yul\":2391:2408   */\n      mul\n        /* \"#utility.yul\":2381:2389   */\n      dup4\n        /* \"#utility.yul\":2377:2409   */\n      add\n        /* \"#utility.yul\":2374:2415   */\n      gt\n        /* \"#utility.yul\":2371:2499   */\n      iszero\n      tag_54\n      jumpi\n        /* \"#utility.yul\":2418:2497   */\n      tag_55\n      tag_27\n      jump\t// in\n    tag_55:\n        /* \"#utility.yul\":2371:2499   */\n    tag_54:\n        /* \"#utility.yul\":1952:2505   */\n      swap3\n      pop\n      swap3\n      swap1\n      pop\n      jump\t// out\n        /* \"#utility.yul\":2511:3040   */\n    tag_11:\n        /* \"#utility.yul\":2582:2588   */\n      0x00\n        /* \"#utility.yul\":2590:2596   */\n      0x00\n        /* \"#utility.yul\":2639:2641   */\n      0x20\n        /* \"#utility.yul\":2627:2636   */\n      dup4\n        /* \"#utility.yul\":2618:2625   */\n      dup6\n        /* \"#utility.yul\":2614:2637   */\n      sub\n        /* \"#utility.yul\":2610:2642   */\n      slt\n        /* \"#utility.yul\":2607:2726   */\n      iszero\n      tag_57\n      jumpi\n        /* \"#utility.yul\":2645:2724   */\n      tag_58\n      tag_23\n      jump\t// in\n    tag_58:\n        /* \"#utility.yul\":2607:2726   */\n    tag_57:\n        /* \"#utility.yul\":2793:2794   */\n      0x00\n        /* \"#utility.yul\":2782:2791   */\n      dup4\n        /* \"#utility.yul\":2778:2795   */\n      add\n        /* \"#utility.yul\":2765:2796   */\n      calldataload\n        /* \"#utility.yul\":2823:2841   */\n      0xffffffffffffffff\n        /* \"#utility.yul\":2815:2821   */\n      dup2\n        /* \"#utility.yul\":2812:2842   */\n      gt\n        /* \"#utility.yul\":2809:2926   */\n      iszero\n      tag_59\n      jumpi\n        /* \"#utility.yul\":2845:2924   */\n      tag_60\n      tag_24\n      jump\t// in\n    tag_60:\n        /* \"#utility.yul\":2809:2926   */\n    tag_59:\n        /* \"#utility.yul\":2958:3023   */\n      tag_61\n        /* \"#utility.yul\":3015:3022   */\n      dup6\n        /* \"#utility.yul\":3006:3012   */\n      dup3\n        /* \"#utility.yul\":2995:3004   */\n      dup7\n        /* \"#utility.yul\":2991:3013   */\n      add\n        /* \"#utility.yul\":2958:3023   */\n      tag_28\n      jump\t// in\n    tag_61:\n        /* \"#utility.yul\":2940:3023   */\n      swap3\n      pop\n      swap3\n      pop\n        /* \"#utility.yul\":2736:3033   */\n      pop\n        /* \"#utility.yul\":2511:3040   */\n      swap3\n      pop\n      swap3\n      swap1\n      pop\n      jump\t// out\n        /* \"#utility.yul\":3046:3194   */\n    tag_29:\n        /* \"#utility.yul\":3144:3150   */\n      dup3\n        /* \"#utility.yul\":3139:3142   */\n      dup2\n        /* \"#utility.yul\":3134:3137   */\n      dup4\n        /* \"#utility.yul\":3121:3151   */\n      calldatacopy\n        /* \"#utility.yul\":3185:3186   */\n      0x00\n        /* \"#utility.yul\":3176:3182   */\n      dup4\n        /* \"#utility.yul\":3171:3174   */\n      dup4\n        /* \"#utility.yul\":3167:3183   */\n      add\n        /* \"#utility.yul\":3160:3187   */\n      mstore\n        /* \"#utility.yul\":3046:3194   */\n      pop\n      pop\n      pop\n      jump\t// out\n        /* \"#utility.yul\":3224:3541   */\n    tag_30:\n        /* \"#utility.yul\":3322:3325   */\n      0x00\n        /* \"#utility.yul\":3343:3414   */\n      tag_64\n        /* \"#utility.yul\":3407:3413   */\n      dup4\n        /* \"#utility.yul\":3402:3405   */\n      dup6\n        /* \"#utility.yul\":3343:3414   */\n      tag_18\n      jump\t// in\n    tag_64:\n        /* \"#utility.yul\":3336:3414   */\n      swap4\n      pop\n        /* \"#utility.yul\":3424:3480   */\n      tag_65\n        /* \"#utility.yul\":3473:3479   */\n      dup4\n        /* \"#utility.yul\":3468:3471   */\n      dup6\n        /* \"#utility.yul\":3461:3466   */\n      dup5\n        /* \"#utility.yul\":3424:3480   */\n      tag_29\n      jump\t// in\n    tag_65:\n        /* \"#utility.yul\":3505:3534   */\n      tag_66\n        /* \"#utility.yul\":3527:3533   */\n      dup4\n        /* \"#utility.yul\":3505:3534   */\n      tag_20\n      jump\t// in\n    tag_66:\n        /* \"#utility.yul\":3500:3503   */\n      dup5\n        /* \"#utility.yul\":3496:3535   */\n      add\n        /* \"#utility.yul\":3489:3535   */\n      swap1\n      pop\n        /* \"#utility.yul\":3224:3541   */\n      swap4\n      swap3\n      pop\n      pop\n      pop\n      jump\t// out\n        /* \"#utility.yul\":3547:3880   */\n    tag_16:\n        /* \"#utility.yul\":3670:3674   */\n      0x00\n        /* \"#utility.yul\":3708:3710   */\n      0x20\n        /* \"#utility.yul\":3697:3706   */\n      dup3\n        /* \"#utility.yul\":3693:3711   */\n      add\n        /* \"#utility.yul\":3685:3711   */\n      swap1\n      pop\n        /* \"#utility.yul\":3757:3766   */\n      dup2\n        /* \"#utility.yul\":3751:3755   */\n      dup2\n        /* \"#utility.yul\":3747:3767   */\n      sub\n        /* \"#utility.yul\":3743:3744   */\n      0x00\n        /* \"#utility.yul\":3732:3741   */\n      dup4\n        /* \"#utility.yul\":3728:3745   */\n      add\n        /* \"#utility.yul\":3721:3768   */\n      mstore\n        /* \"#utility.yul\":3785:3873   */\n      tag_68\n        /* \"#utility.yul\":3868:3872   */\n      dup2\n        /* \"#utility.yul\":3859:3865   */\n      dup5\n        /* \"#utility.yul\":3851:3857   */\n      dup7\n        /* \"#utility.yul\":3785:3873   */\n      tag_30\n      jump\t// in\n    tag_68:\n        /* \"#utility.yul\":3777:3873   */\n      swap1\n      pop\n        /* \"#utility.yul\":3547:3880   */\n      swap4\n      swap3\n      pop\n      pop\n      pop\n      jump\t// out\n\n    auxdata: 0xa26469706673582212207642ac529f0ea2da6b72a024a1829403d67e7036236e61aca73185fa1384607464736f6c634300081c0033\n}\n",
				"bytecode": {
					"linkReferences": {},
					"object": "6080604052348015600e575f5ffd5b506102c28061001c5f395ff3fe608060405234801561000f575f5ffd5b5060043610610034575f3560e01c8063bcdfe0d514610038578063f15da72914610056575b5f5ffd5b610040610072565b60405161004d919061015c565b60405180910390f35b610070600480360381019061006b91906101e5565b6100af565b005b60606040518060400160405280600581526020017f48656c6c6f000000000000000000000000000000000000000000000000000000815250905090565b7fdb84d7c006c4de68f9c0bd50b8b81ed31f29ebeec325c872d36445c6565d757c82826040516100e092919061026a565b60405180910390a15050565b5f81519050919050565b5f82825260208201905092915050565b8281835e5f83830152505050565b5f601f19601f8301169050919050565b5f61012e826100ec565b61013881856100f6565b9350610148818560208601610106565b61015181610114565b840191505092915050565b5f6020820190508181035f8301526101748184610124565b905092915050565b5f5ffd5b5f5ffd5b5f5ffd5b5f5ffd5b5f5ffd5b5f5f83601f8401126101a5576101a4610184565b5b8235905067ffffffffffffffff8111156101c2576101c1610188565b5b6020830191508360018202830111156101de576101dd61018c565b5b9250929050565b5f5f602083850312156101fb576101fa61017c565b5b5f83013567ffffffffffffffff81111561021857610217610180565b5b61022485828601610190565b92509250509250929050565b828183375f83830152505050565b5f61024983856100f6565b9350610256838584610230565b61025f83610114565b840190509392505050565b5f6020820190508181035f83015261028381848661023e565b9050939250505056fea26469706673582212207642ac529f0ea2da6b72a024a1829403d67e7036236e61aca73185fa1384607464736f6c634300081c0033",
					"opcodes": "PUSH1 0x80 PUSH1 0x40 MSTORE CALLVALUE DUP1 ISZERO PUSH1 0xE JUMPI PUSH0 PUSH0 REVERT JUMPDEST POP PUSH2 0x2C2 DUP1 PUSH2 0x1C PUSH0 CODECOPY PUSH0 RETURN INVALID PUSH1 0x80 PUSH1 0x40 MSTORE CALLVALUE DUP1 ISZERO PUSH2 0xF JUMPI PUSH0 PUSH0 REVERT JUMPDEST POP PUSH1 0x4 CALLDATASIZE LT PUSH2 0x34 JUMPI PUSH0 CALLDATALOAD PUSH1 0xE0 SHR DUP1 PUSH4 0xBCDFE0D5 EQ PUSH2 0x38 JUMPI DUP1 PUSH4 0xF15DA729 EQ PUSH2 0x56 JUMPI JUMPDEST PUSH0 PUSH0 REVERT JUMPDEST PUSH2 0x40 PUSH2 0x72 JUMP JUMPDEST PUSH1 0x40 MLOAD PUSH2 0x4D SWAP2 SWAP1 PUSH2 0x15C JUMP JUMPDEST PUSH1 0x40 MLOAD DUP1 SWAP2 SUB SWAP1 RETURN JUMPDEST PUSH2 0x70 PUSH1 0x4 DUP1 CALLDATASIZE SUB DUP2 ADD SWAP1 PUSH2 0x6B SWAP2 SWAP1 PUSH2 0x1E5 JUMP JUMPDEST PUSH2 0xAF JUMP JUMPDEST STOP JUMPDEST PUSH1 0x60 PUSH1 0x40 MLOAD DUP1 PUSH1 0x40 ADD PUSH1 0x40 MSTORE DUP1 PUSH1 0x5 DUP2 MSTORE PUSH1 0x20 ADD PUSH32 0x48656C6C6F000000000000000000000000000000000000000000000000000000 DUP2 MSTORE POP SWAP1 POP SWAP1 JUMP JUMPDEST PUSH32 0xDB84D7C006C4DE68F9C0BD50B8B81ED31F29EBEEC325C872D36445C6565D757C DUP3 DUP3 PUSH1 0x40 MLOAD PUSH2 0xE0 SWAP3 SWAP2 SWAP1 PUSH2 0x26A JUMP JUMPDEST PUSH1 0x40 MLOAD DUP1 SWAP2 SUB SWAP1 LOG1 POP POP JUMP JUMPDEST PUSH0 DUP2 MLOAD SWAP1 POP SWAP2 SWAP1 POP JUMP JUMPDEST PUSH0 DUP3 DUP3 MSTORE PUSH1 0x20 DUP3 ADD SWAP1 POP SWAP3 SWAP2 POP POP JUMP JUMPDEST DUP3 DUP2 DUP4 MCOPY PUSH0 DUP4 DUP4 ADD MSTORE POP POP POP JUMP JUMPDEST PUSH0 PUSH1 0x1F NOT PUSH1 0x1F DUP4 ADD AND SWAP1 POP SWAP2 SWAP1 POP JUMP JUMPDEST PUSH0 PUSH2 0x12E DUP3 PUSH2 0xEC JUMP JUMPDEST PUSH2 0x138 DUP2 DUP6 PUSH2 0xF6 JUMP JUMPDEST SWAP4 POP PUSH2 0x148 DUP2 DUP6 PUSH1 0x20 DUP7 ADD PUSH2 0x106 JUMP JUMPDEST PUSH2 0x151 DUP2 PUSH2 0x114 JUMP JUMPDEST DUP5 ADD SWAP2 POP POP SWAP3 SWAP2 POP POP JUMP JUMPDEST PUSH0 PUSH1 0x20 DUP3 ADD SWAP1 POP DUP2 DUP2 SUB PUSH0 DUP4 ADD MSTORE PUSH2 0x174 DUP2 DUP5 PUSH2 0x124 JUMP JUMPDEST SWAP1 POP SWAP3 SWAP2 POP POP JUMP JUMPDEST PUSH0 PUSH0 REVERT JUMPDEST PUSH0 PUSH0 REVERT JUMPDEST PUSH0 PUSH0 REVERT JUMPDEST PUSH0 PUSH0 REVERT JUMPDEST PUSH0 PUSH0 REVERT JUMPDEST PUSH0 PUSH0 DUP4 PUSH1 0x1F DUP5 ADD SLT PUSH2 0x1A5 JUMPI PUSH2 0x1A4 PUSH2 0x184 JUMP JUMPDEST JUMPDEST DUP3 CALLDATALOAD SWAP1 POP PUSH8 0xFFFFFFFFFFFFFFFF DUP2 GT ISZERO PUSH2 0x1C2 JUMPI PUSH2 0x1C1 PUSH2 0x188 JUMP JUMPDEST JUMPDEST PUSH1 0x20 DUP4 ADD SWAP2 POP DUP4 PUSH1 0x1 DUP3 MUL DUP4 ADD GT ISZERO PUSH2 0x1DE JUMPI PUSH2 0x1DD PUSH2 0x18C JUMP JUMPDEST JUMPDEST SWAP3 POP SWAP3 SWAP1 POP JUMP JUMPDEST PUSH0 PUSH0 PUSH1 0x20 DUP4 DUP6 SUB SLT ISZERO PUSH2 0x1FB JUMPI PUSH2 0x1FA PUSH2 0x17C JUMP JUMPDEST JUMPDEST PUSH0 DUP4 ADD CALLDATALOAD PUSH8 0xFFFFFFFFFFFFFFFF DUP2 GT ISZERO PUSH2 0x218 JUMPI PUSH2 0x217 PUSH2 0x180 JUMP JUMPDEST JUMPDEST PUSH2 0x224 DUP6 DUP3 DUP7 ADD PUSH2 0x190 JUMP JUMPDEST SWAP3 POP SWAP3 POP POP SWAP3 POP SWAP3 SWAP1 POP JUMP JUMPDEST DUP3 DUP2 DUP4 CALLDATACOPY PUSH0 DUP4 DUP4 ADD MSTORE POP POP POP JUMP JUMPDEST PUSH0 PUSH2 0x249 DUP4 DUP6 PUSH2 0xF6 JUMP JUMPDEST SWAP4 POP PUSH2 0x256 DUP4 DUP6 DUP5 PUSH2 0x230 JUMP JUMPDEST PUSH2 0x25F DUP4 PUSH2 0x114 JUMP JUMPDEST DUP5 ADD SWAP1 POP SWAP4 SWAP3 POP POP POP JUMP JUMPDEST PUSH0 PUSH1 0x20 DUP3 ADD SWAP1 POP DUP2 DUP2 SUB PUSH0 DUP4 ADD MSTORE PUSH2 0x283 DUP2 DUP5 DUP7 PUSH2 0x23E JUMP JUMPDEST SWAP1 POP SWAP4 SWAP3 POP POP POP JUMP INVALID LOG2 PUSH5 0x6970667358 0x22 SLT KECCAK256 PUSH23 0x42AC529F0EA2DA6B72A024A1829403D67E7036236E61AC 0xA7 BALANCE DUP6 STATICCALL SGT DUP5 PUSH1 0x74 PUSH5 0x736F6C6343 STOP ADDMOD SHR STOP CALLER "
				},
				"gasEstimates": {
					"creation": {
						"codeDepositCost": "141200",
						"executionCost": "188",
						"totalCost": "141388"
					},
					"external": {
						"Hello()": "infinite",
						"echo(string)": "infinite"
					}
				},
				"methodIdentifiers": {
					"Hello()": "bcdfe0d5",
					"echo(string)": "f15da729"
				}
			},
			"storageLayout": {
				"storage": [],
				"types": null
			},
			"userdoc": {
				"kind": "user",
				"methods": {},
				"version": 1
			}
		}
	}
}