{
	"PoT.sol": {
		"ProofOfTransit": {
			"abi": [
				{
					"inputs": [
						{
							"internalType": "address",
							"name": "controllerAddr",
							"type": "address"
						},
						{
							"internalType": "address",
							"name": "egress_edgeAddr",
							"type": "address"
						},
						{
							"internalType": "string",
							"name": "routeId",
							"type": "string"
						}
					],
					"stateMutability": "nonpayable",
					"type": "constructor"
				},
				{
					"anonymous": false,
					"inputs": [
						{
							"indexed": true,
							"internalType": "address",
							"name": "oldController",
							"type": "address"
						},
						{
							"indexed": true,
							"internalType": "address",
							"name": "newController",
							"type": "address"
						}
					],
					"name": "ControllerSet",
					"type": "event"
				},
				{
					"anonymous": false,
					"inputs": [],
					"name": "ProbeFail",
					"type": "event"
				},
				{
					"inputs": [
						{
							"internalType": "address",
							"name": "newController",
							"type": "address"
						},
						{
							"internalType": "address",
							"name": "senderAddr",
							"type": "address"
						}
					],
					"name": "changeController",
					"outputs": [],
					"stateMutability": "nonpayable",
					"type": "function"
				},
				{
					"inputs": [
						{
							"internalType": "string",
							"name": "newRouteId",
							"type": "string"
						},
						{
							"internalType": "address",
							"name": "newEgressEdge",
							"type": "address"
						},
						{
							"internalType": "address",
							"name": "senderAddr",
							"type": "address"
						}
					],
					"name": "changeRouteIdAndEgressEdge",
					"outputs": [],
					"stateMutability": "nonpayable",
					"type": "function"
				},
				{
					"inputs": [],
					"name": "getCompliance",
					"outputs": [
						{
							"internalType": "uint256",
							"name": "",
							"type": "uint256"
						},
						{
							"internalType": "uint256",
							"name": "",
							"type": "uint256"
						},
						{
							"internalType": "uint256",
							"name": "",
							"type": "uint256"
						}
					],
					"stateMutability": "view",
					"type": "function"
				},
				{
					"inputs": [],
					"name": "getController",
					"outputs": [
						{
							"internalType": "address",
							"name": "",
							"type": "address"
						}
					],
					"stateMutability": "view",
					"type": "function"
				},
				{
					"inputs": [
						{
							"internalType": "string",
							"name": "id_x",
							"type": "string"
						},
						{
							"internalType": "string",
							"name": "sig",
							"type": "string"
						}
					],
					"name": "logProbe",
					"outputs": [],
					"stateMutability": "nonpayable",
					"type": "function"
				},
				{
					"inputs": [
						{
							"internalType": "string",
							"name": "",
							"type": "string"
						}
					],
					"name": "probHash",
					"outputs": [
						{
							"internalType": "string",
							"name": "",
							"type": "string"
						}
					],
					"stateMutability": "view",
					"type": "function"
				},
				{
					"inputs": [
						{
							"internalType": "uint256",
							"name": "",
							"type": "uint256"
						}
					],
					"name": "routeIdHistory",
					"outputs": [
						{
							"internalType": "string",
							"name": "route_id",
							"type": "string"
						},
						{
							"internalType": "address",
							"name": "egress_edge",
							"type": "address"
						},
						{
							"internalType": "uint256",
							"name": "last_timestamp",
							"type": "uint256"
						}
					],
					"stateMutability": "view",
					"type": "function"
				},
				{
					"inputs": [
						{
							"internalType": "string",
							"name": "",
							"type": "string"
						}
					],
					"name": "route_id_audit",
					"outputs": [
						{
							"internalType": "uint256",
							"name": "probeFailAmount",
							"type": "uint256"
						},
						{
							"internalType": "uint256",
							"name": "probeNullAmount",
							"type": "uint256"
						},
						{
							"internalType": "uint256",
							"name": "probeSuccessAmount",
							"type": "uint256"
						}
					],
					"stateMutability": "view",
					"type": "function"
				},
				{
					"inputs": [
						{
							"internalType": "string",
							"name": "id_x",
							"type": "string"
						},
						{
							"internalType": "string",
							"name": "hash",
							"type": "string"
						},
						{
							"internalType": "address",
							"name": "senderAddr",
							"type": "address"
						}
					],
					"name": "setProbeHash",
					"outputs": [],
					"stateMutability": "nonpayable",
					"type": "function"
				}
			],
			"devdoc": {
				"kind": "dev",
				"methods": {},
				"version": 1
			},
			"evm": {
				"assembly": "    /* \"PoT.sol\":70:3226  contract ProofOfTransit{... */\n  mstore(0x40, 0x80)\n    /* \"PoT.sol\":978:1499  constructor(address controllerAddr, address egress_edgeAddr,string memory routeId) {... */\n  callvalue\n  dup1\n  iszero\n  tag_1\n  jumpi\n  revert(0x00, 0x00)\ntag_1:\n  pop\n  mload(0x40)\n  sub(codesize, bytecodeSize)\n  dup1\n  bytecodeSize\n  dup4\n  codecopy\n  dup2\n  dup2\n  add\n  0x40\n  mstore\n  dup2\n  add\n  swap1\n  tag_2\n  swap2\n  swap1\n  tag_3\n  jump\t// in\ntag_2:\n    /* \"PoT.sol\":1122:1123  0 */\n  0x00\n    /* \"PoT.sol\":1080:1094  route_id_audit */\n  0x04\n    /* \"PoT.sol\":1095:1102  routeId */\n  dup3\n    /* \"PoT.sol\":1080:1103  route_id_audit[routeId] */\n  mload(0x40)\n  tag_6\n  swap2\n  swap1\n  tag_7\n  jump\t// in\ntag_6:\n  swap1\n  dup2\n  mstore\n  0x20\n  add\n  mload(0x40)\n  dup1\n  swap2\n  sub\n  swap1\n  keccak256\n    /* \"PoT.sol\":1080:1119  route_id_audit[routeId].probeFailAmount */\n  0x00\n  add\n    /* \"PoT.sol\":1080:1123  route_id_audit[routeId].probeFailAmount = 0 */\n  dup2\n  swap1\n  sstore\n  pop\n    /* \"PoT.sol\":1178:1179  0 */\n  0x00\n    /* \"PoT.sol\":1133:1147  route_id_audit */\n  0x04\n    /* \"PoT.sol\":1148:1155  routeId */\n  dup3\n    /* \"PoT.sol\":1133:1156  route_id_audit[routeId] */\n  mload(0x40)\n  tag_8\n  swap2\n  swap1\n  tag_7\n  jump\t// in\ntag_8:\n  swap1\n  dup2\n  mstore\n  0x20\n  add\n  mload(0x40)\n  dup1\n  swap2\n  sub\n  swap1\n  keccak256\n    /* \"PoT.sol\":1133:1175  route_id_audit[routeId].probeSuccessAmount */\n  0x02\n  add\n    /* \"PoT.sol\":1133:1179  route_id_audit[routeId].probeSuccessAmount = 0 */\n  dup2\n  swap1\n  sstore\n  pop\n    /* \"PoT.sol\":1231:1232  0 */\n  0x00\n    /* \"PoT.sol\":1189:1203  route_id_audit */\n  0x04\n    /* \"PoT.sol\":1204:1211  routeId */\n  dup3\n    /* \"PoT.sol\":1189:1212  route_id_audit[routeId] */\n  mload(0x40)\n  tag_9\n  swap2\n  swap1\n  tag_7\n  jump\t// in\ntag_9:\n  swap1\n  dup2\n  mstore\n  0x20\n  add\n  mload(0x40)\n  dup1\n  swap2\n  sub\n  swap1\n  keccak256\n    /* \"PoT.sol\":1189:1228  route_id_audit[routeId].probeNullAmount */\n  0x01\n  add\n    /* \"PoT.sol\":1189:1232  route_id_audit[routeId].probeNullAmount = 0 */\n  dup2\n  swap1\n  sstore\n  pop\n    /* \"PoT.sol\":1256:1270  controllerAddr */\n  dup3\n    /* \"PoT.sol\":1243:1253  controller */\n  0x00\n  0x00\n    /* \"PoT.sol\":1243:1270  controller = controllerAddr */\n  0x0100\n  exp\n  dup2\n  sload\n  dup2\n  0xffffffffffffffffffffffffffffffffffffffff\n  mul\n  not\n  and\n  swap1\n  dup4\n  0xffffffffffffffffffffffffffffffffffffffff\n  and\n  mul\n  or\n  swap1\n  sstore\n  pop\n    /* \"PoT.sol\":1294:1309  egress_edgeAddr */\n  dup2\n    /* \"PoT.sol\":1280:1291  egress_edge */\n  0x01\n  0x00\n    /* \"PoT.sol\":1280:1309  egress_edge = egress_edgeAddr */\n  0x0100\n  exp\n  dup2\n  sload\n  dup2\n  0xffffffffffffffffffffffffffffffffffffffff\n  mul\n  not\n  and\n  swap1\n  dup4\n  0xffffffffffffffffffffffffffffffffffffffff\n  and\n  mul\n  or\n  swap1\n  sstore\n  pop\n    /* \"PoT.sol\":1337:1344  routeId */\n  dup1\n    /* \"PoT.sol\":1319:1334  current_routeID */\n  0x02\n    /* \"PoT.sol\":1319:1344  current_routeID = routeId */\n  swap1\n  dup2\n  tag_10\n  swap2\n  swap1\n  tag_11\n  jump\t// in\ntag_10:\n  pop\n    /* \"PoT.sol\":1354:1368  routeIdHistory */\n  0x05\n    /* \"PoT.sol\":1374:1430  pastRouteConfig(routeId,egress_edgeAddr,block.timestamp) */\n  mload(0x40)\n  dup1\n  0x60\n  add\n  0x40\n  mstore\n  dup1\n    /* \"PoT.sol\":1390:1397  routeId */\n  dup4\n    /* \"PoT.sol\":1374:1430  pastRouteConfig(routeId,egress_edgeAddr,block.timestamp) */\n  dup2\n  mstore\n  0x20\n  add\n    /* \"PoT.sol\":1398:1413  egress_edgeAddr */\n  dup5\n    /* \"PoT.sol\":1374:1430  pastRouteConfig(routeId,egress_edgeAddr,block.timestamp) */\n  0xffffffffffffffffffffffffffffffffffffffff\n  and\n  dup2\n  mstore\n  0x20\n  add\n    /* \"PoT.sol\":1414:1429  block.timestamp */\n  timestamp\n    /* \"PoT.sol\":1374:1430  pastRouteConfig(routeId,egress_edgeAddr,block.timestamp) */\n  dup2\n  mstore\n  pop\n    /* \"PoT.sol\":1354:1431  routeIdHistory.push(pastRouteConfig(routeId,egress_edgeAddr,block.timestamp)) */\n  swap1\n  dup1\n  0x01\n  dup2\n  sload\n  add\n  dup1\n  dup3\n  sstore\n  dup1\n  swap2\n  pop\n  pop\n  0x01\n  swap1\n  sub\n  swap1\n  0x00\n  mstore\n  keccak256(0x00, 0x20)\n  swap1\n  0x03\n  mul\n  add\n  0x00\n  swap1\n  swap2\n  swap1\n  swap2\n  swap1\n  swap2\n  pop\n  0x00\n  dup3\n  add\n  mload\n  dup2\n  0x00\n  add\n  swap1\n  dup2\n  tag_13\n  swap2\n  swap1\n  tag_11\n  jump\t// in\ntag_13:\n  pop\n  0x20\n  dup3\n  add\n  mload\n  dup2\n  0x01\n  add\n  exp(0x0100, 0x00)\n  dup2\n  sload\n  dup2\n  0xffffffffffffffffffffffffffffffffffffffff\n  mul\n  not\n  and\n  swap1\n  dup4\n  0xffffffffffffffffffffffffffffffffffffffff\n  and\n  mul\n  or\n  swap1\n  sstore\n  pop\n  0x40\n  dup3\n  add\n  mload\n  dup2\n  0x02\n  add\n  sstore\n  pop\n  pop\n    /* \"PoT.sol\":1481:1491  controller */\n  0x00\n  0x00\n  swap1\n  sload\n  swap1\n  0x0100\n  exp\n  swap1\n  div\n  0xffffffffffffffffffffffffffffffffffffffff\n  and\n    /* \"PoT.sol\":1455:1492  ControllerSet(address(0), controller) */\n  0xffffffffffffffffffffffffffffffffffffffff\n  and\n    /* \"PoT.sol\":1477:1478  0 */\n  0x00\n    /* \"PoT.sol\":1455:1492  ControllerSet(address(0), controller) */\n  0xffffffffffffffffffffffffffffffffffffffff\n  and\n  0x7582b62407f53d49cfc72e7ddab574c06ef3b8aced104b54b7bed4681ee54a\n  mload(0x40)\n  mload(0x40)\n  dup1\n  swap2\n  sub\n  swap1\n  log3\n    /* \"PoT.sol\":978:1499  constructor(address controllerAddr, address egress_edgeAddr,string memory routeId) {... */\n  pop\n  pop\n  pop\n    /* \"PoT.sol\":70:3226  contract ProofOfTransit{... */\n  jump(tag_14)\n    /* \"#utility.yul\":7:82   */\ntag_15:\n    /* \"#utility.yul\":40:46   */\n  0x00\n    /* \"#utility.yul\":73:75   */\n  0x40\n    /* \"#utility.yul\":67:76   */\n  mload\n    /* \"#utility.yul\":57:76   */\n  swap1\n  pop\n    /* \"#utility.yul\":7:82   */\n  swap1\n  jump\t// out\n    /* \"#utility.yul\":88:205   */\ntag_16:\n    /* \"#utility.yul\":197:198   */\n  0x00\n    /* \"#utility.yul\":194:195   */\n  0x00\n    /* \"#utility.yul\":187:199   */\n  revert\n    /* \"#utility.yul\":211:328   */\ntag_17:\n    /* \"#utility.yul\":320:321   */\n  0x00\n    /* \"#utility.yul\":317:318   */\n  0x00\n    /* \"#utility.yul\":310:322   */\n  revert\n    /* \"#utility.yul\":334:460   */\ntag_18:\n    /* \"#utility.yul\":371:378   */\n  0x00\n    /* \"#utility.yul\":411:453   */\n  0xffffffffffffffffffffffffffffffffffffffff\n    /* \"#utility.yul\":404:409   */\n  dup3\n    /* \"#utility.yul\":400:454   */\n  and\n    /* \"#utility.yul\":389:454   */\n  swap1\n  pop\n    /* \"#utility.yul\":334:460   */\n  swap2\n  swap1\n  pop\n  jump\t// out\n    /* \"#utility.yul\":466:562   */\ntag_19:\n    /* \"#utility.yul\":503:510   */\n  0x00\n    /* \"#utility.yul\":532:556   */\n  tag_59\n    /* \"#utility.yul\":550:555   */\n  dup3\n    /* \"#utility.yul\":532:556   */\n  tag_18\n  jump\t// in\ntag_59:\n    /* \"#utility.yul\":521:556   */\n  swap1\n  pop\n    /* \"#utility.yul\":466:562   */\n  swap2\n  swap1\n  pop\n  jump\t// out\n    /* \"#utility.yul\":568:690   */\ntag_20:\n    /* \"#utility.yul\":641:665   */\n  tag_61\n    /* \"#utility.yul\":659:664   */\n  dup2\n    /* \"#utility.yul\":641:665   */\n  tag_19\n  jump\t// in\ntag_61:\n    /* \"#utility.yul\":634:639   */\n  dup2\n    /* \"#utility.yul\":631:666   */\n  eq\n    /* \"#utility.yul\":621:684   */\n  tag_62\n  jumpi\n    /* \"#utility.yul\":680:681   */\n  0x00\n    /* \"#utility.yul\":677:678   */\n  0x00\n    /* \"#utility.yul\":670:682   */\n  revert\n    /* \"#utility.yul\":621:684   */\ntag_62:\n    /* \"#utility.yul\":568:690   */\n  pop\n  jump\t// out\n    /* \"#utility.yul\":696:839   */\ntag_21:\n    /* \"#utility.yul\":753:758   */\n  0x00\n    /* \"#utility.yul\":784:790   */\n  dup2\n    /* \"#utility.yul\":778:791   */\n  mload\n    /* \"#utility.yul\":769:791   */\n  swap1\n  pop\n    /* \"#utility.yul\":800:833   */\n  tag_64\n    /* \"#utility.yul\":827:832   */\n  dup2\n    /* \"#utility.yul\":800:833   */\n  tag_20\n  jump\t// in\ntag_64:\n    /* \"#utility.yul\":696:839   */\n  swap3\n  swap2\n  pop\n  pop\n  jump\t// out\n    /* \"#utility.yul\":845:962   */\ntag_22:\n    /* \"#utility.yul\":954:955   */\n  0x00\n    /* \"#utility.yul\":951:952   */\n  0x00\n    /* \"#utility.yul\":944:956   */\n  revert\n    /* \"#utility.yul\":968:1085   */\ntag_23:\n    /* \"#utility.yul\":1077:1078   */\n  0x00\n    /* \"#utility.yul\":1074:1075   */\n  0x00\n    /* \"#utility.yul\":1067:1079   */\n  revert\n    /* \"#utility.yul\":1091:1193   */\ntag_24:\n    /* \"#utility.yul\":1132:1138   */\n  0x00\n    /* \"#utility.yul\":1183:1185   */\n  0x1f\n    /* \"#utility.yul\":1179:1186   */\n  not\n    /* \"#utility.yul\":1174:1176   */\n  0x1f\n    /* \"#utility.yul\":1167:1172   */\n  dup4\n    /* \"#utility.yul\":1163:1177   */\n  add\n    /* \"#utility.yul\":1159:1187   */\n  and\n    /* \"#utility.yul\":1149:1187   */\n  swap1\n  pop\n    /* \"#utility.yul\":1091:1193   */\n  swap2\n  swap1\n  pop\n  jump\t// out\n    /* \"#utility.yul\":1199:1379   */\ntag_25:\n    /* \"#utility.yul\":1247:1324   */\n  0x4e487b7100000000000000000000000000000000000000000000000000000000\n    /* \"#utility.yul\":1244:1245   */\n  0x00\n    /* \"#utility.yul\":1237:1325   */\n  mstore\n    /* \"#utility.yul\":1344:1348   */\n  0x41\n    /* \"#utility.yul\":1341:1342   */\n  0x04\n    /* \"#utility.yul\":1334:1349   */\n  mstore\n    /* \"#utility.yul\":1368:1372   */\n  0x24\n    /* \"#utility.yul\":1365:1366   */\n  0x00\n    /* \"#utility.yul\":1358:1373   */\n  revert\n    /* \"#utility.yul\":1385:1666   */\ntag_26:\n    /* \"#utility.yul\":1468:1495   */\n  tag_70\n    /* \"#utility.yul\":1490:1494   */\n  dup3\n    /* \"#utility.yul\":1468:1495   */\n  tag_24\n  jump\t// in\ntag_70:\n    /* \"#utility.yul\":1460:1466   */\n  dup2\n    /* \"#utility.yul\":1456:1496   */\n  add\n    /* \"#utility.yul\":1598:1604   */\n  dup2\n    /* \"#utility.yul\":1586:1596   */\n  dup2\n    /* \"#utility.yul\":1583:1605   */\n  lt\n    /* \"#utility.yul\":1562:1580   */\n  0xffffffffffffffff\n    /* \"#utility.yul\":1550:1560   */\n  dup3\n    /* \"#utility.yul\":1547:1581   */\n  gt\n    /* \"#utility.yul\":1544:1606   */\n  or\n    /* \"#utility.yul\":1541:1629   */\n  iszero\n  tag_71\n  jumpi\n    /* \"#utility.yul\":1609:1627   */\n  tag_72\n  tag_25\n  jump\t// in\ntag_72:\n    /* \"#utility.yul\":1541:1629   */\ntag_71:\n    /* \"#utility.yul\":1649:1659   */\n  dup1\n    /* \"#utility.yul\":1645:1647   */\n  0x40\n    /* \"#utility.yul\":1638:1660   */\n  mstore\n    /* \"#utility.yul\":1428:1666   */\n  pop\n    /* \"#utility.yul\":1385:1666   */\n  pop\n  pop\n  jump\t// out\n    /* \"#utility.yul\":1672:1801   */\ntag_27:\n    /* \"#utility.yul\":1706:1712   */\n  0x00\n    /* \"#utility.yul\":1733:1753   */\n  tag_74\n  tag_15\n  jump\t// in\ntag_74:\n    /* \"#utility.yul\":1723:1753   */\n  swap1\n  pop\n    /* \"#utility.yul\":1762:1795   */\n  tag_75\n    /* \"#utility.yul\":1790:1794   */\n  dup3\n    /* \"#utility.yul\":1782:1788   */\n  dup3\n    /* \"#utility.yul\":1762:1795   */\n  tag_26\n  jump\t// in\ntag_75:\n    /* \"#utility.yul\":1672:1801   */\n  swap2\n  swap1\n  pop\n  jump\t// out\n    /* \"#utility.yul\":1807:2115   */\ntag_28:\n    /* \"#utility.yul\":1869:1873   */\n  0x00\n    /* \"#utility.yul\":1959:1977   */\n  0xffffffffffffffff\n    /* \"#utility.yul\":1951:1957   */\n  dup3\n    /* \"#utility.yul\":1948:1978   */\n  gt\n    /* \"#utility.yul\":1945:2001   */\n  iszero\n  tag_77\n  jumpi\n    /* \"#utility.yul\":1981:1999   */\n  tag_78\n  tag_25\n  jump\t// in\ntag_78:\n    /* \"#utility.yul\":1945:2001   */\ntag_77:\n    /* \"#utility.yul\":2019:2048   */\n  tag_79\n    /* \"#utility.yul\":2041:2047   */\n  dup3\n    /* \"#utility.yul\":2019:2048   */\n  tag_24\n  jump\t// in\ntag_79:\n    /* \"#utility.yul\":2011:2048   */\n  swap1\n  pop\n    /* \"#utility.yul\":2103:2107   */\n  0x20\n    /* \"#utility.yul\":2097:2101   */\n  dup2\n    /* \"#utility.yul\":2093:2108   */\n  add\n    /* \"#utility.yul\":2085:2108   */\n  swap1\n  pop\n    /* \"#utility.yul\":1807:2115   */\n  swap2\n  swap1\n  pop\n  jump\t// out\n    /* \"#utility.yul\":2121:2260   */\ntag_29:\n    /* \"#utility.yul\":2210:2216   */\n  dup3\n    /* \"#utility.yul\":2205:2208   */\n  dup2\n    /* \"#utility.yul\":2200:2203   */\n  dup4\n    /* \"#utility.yul\":2194:2217   */\n  mcopy\n    /* \"#utility.yul\":2251:2252   */\n  0x00\n    /* \"#utility.yul\":2242:2248   */\n  dup4\n    /* \"#utility.yul\":2237:2240   */\n  dup4\n    /* \"#utility.yul\":2233:2249   */\n  add\n    /* \"#utility.yul\":2226:2253   */\n  mstore\n    /* \"#utility.yul\":2121:2260   */\n  pop\n  pop\n  pop\n  jump\t// out\n    /* \"#utility.yul\":2266:2700   */\ntag_30:\n    /* \"#utility.yul\":2355:2360   */\n  0x00\n    /* \"#utility.yul\":2380:2446   */\n  tag_82\n    /* \"#utility.yul\":2396:2445   */\n  tag_83\n    /* \"#utility.yul\":2438:2444   */\n  dup5\n    /* \"#utility.yul\":2396:2445   */\n  tag_28\n  jump\t// in\ntag_83:\n    /* \"#utility.yul\":2380:2446   */\n  tag_27\n  jump\t// in\ntag_82:\n    /* \"#utility.yul\":2371:2446   */\n  swap1\n  pop\n    /* \"#utility.yul\":2469:2475   */\n  dup3\n    /* \"#utility.yul\":2462:2467   */\n  dup2\n    /* \"#utility.yul\":2455:2476   */\n  mstore\n    /* \"#utility.yul\":2507:2511   */\n  0x20\n    /* \"#utility.yul\":2500:2505   */\n  dup2\n    /* \"#utility.yul\":2496:2512   */\n  add\n    /* \"#utility.yul\":2545:2548   */\n  dup5\n    /* \"#utility.yul\":2536:2542   */\n  dup5\n    /* \"#utility.yul\":2531:2534   */\n  dup5\n    /* \"#utility.yul\":2527:2543   */\n  add\n    /* \"#utility.yul\":2524:2549   */\n  gt\n    /* \"#utility.yul\":2521:2633   */\n  iszero\n  tag_84\n  jumpi\n    /* \"#utility.yul\":2552:2631   */\n  tag_85\n  tag_23\n  jump\t// in\ntag_85:\n    /* \"#utility.yul\":2521:2633   */\ntag_84:\n    /* \"#utility.yul\":2642:2694   */\n  tag_86\n    /* \"#utility.yul\":2687:2693   */\n  dup5\n    /* \"#utility.yul\":2682:2685   */\n  dup3\n    /* \"#utility.yul\":2677:2680   */\n  dup6\n    /* \"#utility.yul\":2642:2694   */\n  tag_29\n  jump\t// in\ntag_86:\n    /* \"#utility.yul\":2361:2700   */\n  pop\n    /* \"#utility.yul\":2266:2700   */\n  swap4\n  swap3\n  pop\n  pop\n  pop\n  jump\t// out\n    /* \"#utility.yul\":2720:3075   */\ntag_31:\n    /* \"#utility.yul\":2787:2792   */\n  0x00\n    /* \"#utility.yul\":2836:2839   */\n  dup3\n    /* \"#utility.yul\":2829:2833   */\n  0x1f\n    /* \"#utility.yul\":2821:2827   */\n  dup4\n    /* \"#utility.yul\":2817:2834   */\n  add\n    /* \"#utility.yul\":2813:2840   */\n  slt\n    /* \"#utility.yul\":2803:2925   */\n  tag_88\n  jumpi\n    /* \"#utility.yul\":2844:2923   */\n  tag_89\n  tag_22\n  jump\t// in\ntag_89:\n    /* \"#utility.yul\":2803:2925   */\ntag_88:\n    /* \"#utility.yul\":2954:2960   */\n  dup2\n    /* \"#utility.yul\":2948:2961   */\n  mload\n    /* \"#utility.yul\":2979:3069   */\n  tag_90\n    /* \"#utility.yul\":3065:3068   */\n  dup5\n    /* \"#utility.yul\":3057:3063   */\n  dup3\n    /* \"#utility.yul\":3050:3054   */\n  0x20\n    /* \"#utility.yul\":3042:3048   */\n  dup7\n    /* \"#utility.yul\":3038:3055   */\n  add\n    /* \"#utility.yul\":2979:3069   */\n  tag_30\n  jump\t// in\ntag_90:\n    /* \"#utility.yul\":2970:3069   */\n  swap2\n  pop\n    /* \"#utility.yul\":2793:3075   */\n  pop\n    /* \"#utility.yul\":2720:3075   */\n  swap3\n  swap2\n  pop\n  pop\n  jump\t// out\n    /* \"#utility.yul\":3081:3917   */\ntag_3:\n    /* \"#utility.yul\":3179:3185   */\n  0x00\n    /* \"#utility.yul\":3187:3193   */\n  0x00\n    /* \"#utility.yul\":3195:3201   */\n  0x00\n    /* \"#utility.yul\":3244:3246   */\n  0x60\n    /* \"#utility.yul\":3232:3241   */\n  dup5\n    /* \"#utility.yul\":3223:3230   */\n  dup7\n    /* \"#utility.yul\":3219:3242   */\n  sub\n    /* \"#utility.yul\":3215:3247   */\n  slt\n    /* \"#utility.yul\":3212:3331   */\n  iszero\n  tag_92\n  jumpi\n    /* \"#utility.yul\":3250:3329   */\n  tag_93\n  tag_16\n  jump\t// in\ntag_93:\n    /* \"#utility.yul\":3212:3331   */\ntag_92:\n    /* \"#utility.yul\":3370:3371   */\n  0x00\n    /* \"#utility.yul\":3395:3459   */\n  tag_94\n    /* \"#utility.yul\":3451:3458   */\n  dup7\n    /* \"#utility.yul\":3442:3448   */\n  dup3\n    /* \"#utility.yul\":3431:3440   */\n  dup8\n    /* \"#utility.yul\":3427:3449   */\n  add\n    /* \"#utility.yul\":3395:3459   */\n  tag_21\n  jump\t// in\ntag_94:\n    /* \"#utility.yul\":3385:3459   */\n  swap4\n  pop\n    /* \"#utility.yul\":3341:3469   */\n  pop\n    /* \"#utility.yul\":3508:3510   */\n  0x20\n    /* \"#utility.yul\":3534:3598   */\n  tag_95\n    /* \"#utility.yul\":3590:3597   */\n  dup7\n    /* \"#utility.yul\":3581:3587   */\n  dup3\n    /* \"#utility.yul\":3570:3579   */\n  dup8\n    /* \"#utility.yul\":3566:3588   */\n  add\n    /* \"#utility.yul\":3534:3598   */\n  tag_21\n  jump\t// in\ntag_95:\n    /* \"#utility.yul\":3524:3598   */\n  swap3\n  pop\n    /* \"#utility.yul\":3479:3608   */\n  pop\n    /* \"#utility.yul\":3668:3670   */\n  0x40\n    /* \"#utility.yul\":3657:3666   */\n  dup5\n    /* \"#utility.yul\":3653:3671   */\n  add\n    /* \"#utility.yul\":3647:3672   */\n  mload\n    /* \"#utility.yul\":3699:3717   */\n  0xffffffffffffffff\n    /* \"#utility.yul\":3691:3697   */\n  dup2\n    /* \"#utility.yul\":3688:3718   */\n  gt\n    /* \"#utility.yul\":3685:3802   */\n  iszero\n  tag_96\n  jumpi\n    /* \"#utility.yul\":3721:3800   */\n  tag_97\n  tag_17\n  jump\t// in\ntag_97:\n    /* \"#utility.yul\":3685:3802   */\ntag_96:\n    /* \"#utility.yul\":3826:3900   */\n  tag_98\n    /* \"#utility.yul\":3892:3899   */\n  dup7\n    /* \"#utility.yul\":3883:3889   */\n  dup3\n    /* \"#utility.yul\":3872:3881   */\n  dup8\n    /* \"#utility.yul\":3868:3890   */\n  add\n    /* \"#utility.yul\":3826:3900   */\n  tag_31\n  jump\t// in\ntag_98:\n    /* \"#utility.yul\":3816:3900   */\n  swap2\n  pop\n    /* \"#utility.yul\":3618:3910   */\n  pop\n    /* \"#utility.yul\":3081:3917   */\n  swap3\n  pop\n  swap3\n  pop\n  swap3\n  jump\t// out\n    /* \"#utility.yul\":3923:4022   */\ntag_32:\n    /* \"#utility.yul\":3975:3981   */\n  0x00\n    /* \"#utility.yul\":4009:4014   */\n  dup2\n    /* \"#utility.yul\":4003:4015   */\n  mload\n    /* \"#utility.yul\":3993:4015   */\n  swap1\n  pop\n    /* \"#utility.yul\":3923:4022   */\n  swap2\n  swap1\n  pop\n  jump\t// out\n    /* \"#utility.yul\":4028:4176   */\ntag_33:\n    /* \"#utility.yul\":4130:4141   */\n  0x00\n    /* \"#utility.yul\":4167:4170   */\n  dup2\n    /* \"#utility.yul\":4152:4170   */\n  swap1\n  pop\n    /* \"#utility.yul\":4028:4176   */\n  swap3\n  swap2\n  pop\n  pop\n  jump\t// out\n    /* \"#utility.yul\":4182:4572   */\ntag_34:\n    /* \"#utility.yul\":4288:4291   */\n  0x00\n    /* \"#utility.yul\":4316:4355   */\n  tag_102\n    /* \"#utility.yul\":4349:4354   */\n  dup3\n    /* \"#utility.yul\":4316:4355   */\n  tag_32\n  jump\t// in\ntag_102:\n    /* \"#utility.yul\":4371:4460   */\n  tag_103\n    /* \"#utility.yul\":4453:4459   */\n  dup2\n    /* \"#utility.yul\":4448:4451   */\n  dup6\n    /* \"#utility.yul\":4371:4460   */\n  tag_33\n  jump\t// in\ntag_103:\n    /* \"#utility.yul\":4364:4460   */\n  swap4\n  pop\n    /* \"#utility.yul\":4469:4534   */\n  tag_104\n    /* \"#utility.yul\":4527:4533   */\n  dup2\n    /* \"#utility.yul\":4522:4525   */\n  dup6\n    /* \"#utility.yul\":4515:4519   */\n  0x20\n    /* \"#utility.yul\":4508:4513   */\n  dup7\n    /* \"#utility.yul\":4504:4520   */\n  add\n    /* \"#utility.yul\":4469:4534   */\n  tag_29\n  jump\t// in\ntag_104:\n    /* \"#utility.yul\":4559:4565   */\n  dup1\n    /* \"#utility.yul\":4554:4557   */\n  dup5\n    /* \"#utility.yul\":4550:4566   */\n  add\n    /* \"#utility.yul\":4543:4566   */\n  swap2\n  pop\n    /* \"#utility.yul\":4292:4572   */\n  pop\n    /* \"#utility.yul\":4182:4572   */\n  swap3\n  swap2\n  pop\n  pop\n  jump\t// out\n    /* \"#utility.yul\":4578:4853   */\ntag_7:\n    /* \"#utility.yul\":4710:4713   */\n  0x00\n    /* \"#utility.yul\":4732:4827   */\n  tag_106\n    /* \"#utility.yul\":4823:4826   */\n  dup3\n    /* \"#utility.yul\":4814:4820   */\n  dup5\n    /* \"#utility.yul\":4732:4827   */\n  tag_34\n  jump\t// in\ntag_106:\n    /* \"#utility.yul\":4725:4827   */\n  swap2\n  pop\n    /* \"#utility.yul\":4844:4847   */\n  dup2\n    /* \"#utility.yul\":4837:4847   */\n  swap1\n  pop\n    /* \"#utility.yul\":4578:4853   */\n  swap3\n  swap2\n  pop\n  pop\n  jump\t// out\n    /* \"#utility.yul\":4859:5039   */\ntag_35:\n    /* \"#utility.yul\":4907:4984   */\n  0x4e487b7100000000000000000000000000000000000000000000000000000000\n    /* \"#utility.yul\":4904:4905   */\n  0x00\n    /* \"#utility.yul\":4897:4985   */\n  mstore\n    /* \"#utility.yul\":5004:5008   */\n  0x22\n    /* \"#utility.yul\":5001:5002   */\n  0x04\n    /* \"#utility.yul\":4994:5009   */\n  mstore\n    /* \"#utility.yul\":5028:5032   */\n  0x24\n    /* \"#utility.yul\":5025:5026   */\n  0x00\n    /* \"#utility.yul\":5018:5033   */\n  revert\n    /* \"#utility.yul\":5045:5365   */\ntag_36:\n    /* \"#utility.yul\":5089:5095   */\n  0x00\n    /* \"#utility.yul\":5126:5127   */\n  0x02\n    /* \"#utility.yul\":5120:5124   */\n  dup3\n    /* \"#utility.yul\":5116:5128   */\n  div\n    /* \"#utility.yul\":5106:5128   */\n  swap1\n  pop\n    /* \"#utility.yul\":5173:5174   */\n  0x01\n    /* \"#utility.yul\":5167:5171   */\n  dup3\n    /* \"#utility.yul\":5163:5175   */\n  and\n    /* \"#utility.yul\":5194:5212   */\n  dup1\n    /* \"#utility.yul\":5184:5265   */\n  tag_109\n  jumpi\n    /* \"#utility.yul\":5250:5254   */\n  0x7f\n    /* \"#utility.yul\":5242:5248   */\n  dup3\n    /* \"#utility.yul\":5238:5255   */\n  and\n    /* \"#utility.yul\":5228:5255   */\n  swap2\n  pop\n    /* \"#utility.yul\":5184:5265   */\ntag_109:\n    /* \"#utility.yul\":5312:5314   */\n  0x20\n    /* \"#utility.yul\":5304:5310   */\n  dup3\n    /* \"#utility.yul\":5301:5315   */\n  lt\n    /* \"#utility.yul\":5281:5299   */\n  dup2\n    /* \"#utility.yul\":5278:5316   */\n  sub\n    /* \"#utility.yul\":5275:5359   */\n  tag_110\n  jumpi\n    /* \"#utility.yul\":5331:5349   */\n  tag_111\n  tag_35\n  jump\t// in\ntag_111:\n    /* \"#utility.yul\":5275:5359   */\ntag_110:\n    /* \"#utility.yul\":5096:5365   */\n  pop\n    /* \"#utility.yul\":5045:5365   */\n  swap2\n  swap1\n  pop\n  jump\t// out\n    /* \"#utility.yul\":5371:5512   */\ntag_37:\n    /* \"#utility.yul\":5420:5424   */\n  0x00\n    /* \"#utility.yul\":5443:5446   */\n  dup2\n    /* \"#utility.yul\":5435:5446   */\n  swap1\n  pop\n    /* \"#utility.yul\":5466:5469   */\n  dup2\n    /* \"#utility.yul\":5463:5464   */\n  0x00\n    /* \"#utility.yul\":5456:5470   */\n  mstore\n    /* \"#utility.yul\":5500:5504   */\n  0x20\n    /* \"#utility.yul\":5497:5498   */\n  0x00\n    /* \"#utility.yul\":5487:5505   */\n  keccak256\n    /* \"#utility.yul\":5479:5505   */\n  swap1\n  pop\n    /* \"#utility.yul\":5371:5512   */\n  swap2\n  swap1\n  pop\n  jump\t// out\n    /* \"#utility.yul\":5518:5611   */\ntag_38:\n    /* \"#utility.yul\":5555:5561   */\n  0x00\n    /* \"#utility.yul\":5602:5604   */\n  0x20\n    /* \"#utility.yul\":5597:5599   */\n  0x1f\n    /* \"#utility.yul\":5590:5595   */\n  dup4\n    /* \"#utility.yul\":5586:5600   */\n  add\n    /* \"#utility.yul\":5582:5605   */\n  div\n    /* \"#utility.yul\":5572:5605   */\n  swap1\n  pop\n    /* \"#utility.yul\":5518:5611   */\n  swap2\n  swap1\n  pop\n  jump\t// out\n    /* \"#utility.yul\":5617:5724   */\ntag_39:\n    /* \"#utility.yul\":5661:5669   */\n  0x00\n    /* \"#utility.yul\":5711:5716   */\n  dup3\n    /* \"#utility.yul\":5705:5709   */\n  dup3\n    /* \"#utility.yul\":5701:5717   */\n  shl\n    /* \"#utility.yul\":5680:5717   */\n  swap1\n  pop\n    /* \"#utility.yul\":5617:5724   */\n  swap3\n  swap2\n  pop\n  pop\n  jump\t// out\n    /* \"#utility.yul\":5730:6123   */\ntag_40:\n    /* \"#utility.yul\":5799:5805   */\n  0x00\n    /* \"#utility.yul\":5849:5850   */\n  0x08\n    /* \"#utility.yul\":5837:5847   */\n  dup4\n    /* \"#utility.yul\":5833:5851   */\n  mul\n    /* \"#utility.yul\":5872:5969   */\n  tag_116\n    /* \"#utility.yul\":5902:5968   */\n  0xffffffffffffffffffffffffffffffffffffffffffffffffffffffffffffffff\n    /* \"#utility.yul\":5891:5900   */\n  dup3\n    /* \"#utility.yul\":5872:5969   */\n  tag_39\n  jump\t// in\ntag_116:\n    /* \"#utility.yul\":5990:6029   */\n  tag_117\n    /* \"#utility.yul\":6020:6028   */\n  dup7\n    /* \"#utility.yul\":6009:6018   */\n  dup4\n    /* \"#utility.yul\":5990:6029   */\n  tag_39\n  jump\t// in\ntag_117:\n    /* \"#utility.yul\":5978:6029   */\n  swap6\n  pop\n    /* \"#utility.yul\":6062:6066   */\n  dup1\n    /* \"#utility.yul\":6058:6067   */\n  not\n    /* \"#utility.yul\":6051:6056   */\n  dup5\n    /* \"#utility.yul\":6047:6068   */\n  and\n    /* \"#utility.yul\":6038:6068   */\n  swap4\n  pop\n    /* \"#utility.yul\":6111:6115   */\n  dup1\n    /* \"#utility.yul\":6101:6109   */\n  dup7\n    /* \"#utility.yul\":6097:6116   */\n  and\n    /* \"#utility.yul\":6090:6095   */\n  dup5\n    /* \"#utility.yul\":6087:6117   */\n  or\n    /* \"#utility.yul\":6077:6117   */\n  swap3\n  pop\n    /* \"#utility.yul\":5806:6123   */\n  pop\n  pop\n    /* \"#utility.yul\":5730:6123   */\n  swap4\n  swap3\n  pop\n  pop\n  pop\n  jump\t// out\n    /* \"#utility.yul\":6129:6206   */\ntag_41:\n    /* \"#utility.yul\":6166:6173   */\n  0x00\n    /* \"#utility.yul\":6195:6200   */\n  dup2\n    /* \"#utility.yul\":6184:6200   */\n  swap1\n  pop\n    /* \"#utility.yul\":6129:6206   */\n  swap2\n  swap1\n  pop\n  jump\t// out\n    /* \"#utility.yul\":6212:6272   */\ntag_42:\n    /* \"#utility.yul\":6240:6243   */\n  0x00\n    /* \"#utility.yul\":6261:6266   */\n  dup2\n    /* \"#utility.yul\":6254:6266   */\n  swap1\n  pop\n    /* \"#utility.yul\":6212:6272   */\n  swap2\n  swap1\n  pop\n  jump\t// out\n    /* \"#utility.yul\":6278:6420   */\ntag_43:\n    /* \"#utility.yul\":6328:6337   */\n  0x00\n    /* \"#utility.yul\":6361:6414   */\n  tag_121\n    /* \"#utility.yul\":6379:6413   */\n  tag_122\n    /* \"#utility.yul\":6388:6412   */\n  tag_123\n    /* \"#utility.yul\":6406:6411   */\n  dup5\n    /* \"#utility.yul\":6388:6412   */\n  tag_41\n  jump\t// in\ntag_123:\n    /* \"#utility.yul\":6379:6413   */\n  tag_42\n  jump\t// in\ntag_122:\n    /* \"#utility.yul\":6361:6414   */\n  tag_41\n  jump\t// in\ntag_121:\n    /* \"#utility.yul\":6348:6414   */\n  swap1\n  pop\n    /* \"#utility.yul\":6278:6420   */\n  swap2\n  swap1\n  pop\n  jump\t// out\n    /* \"#utility.yul\":6426:6501   */\ntag_44:\n    /* \"#utility.yul\":6469:6472   */\n  0x00\n    /* \"#utility.yul\":6490:6495   */\n  dup2\n    /* \"#utility.yul\":6483:6495   */\n  swap1\n  pop\n    /* \"#utility.yul\":6426:6501   */\n  swap2\n  swap1\n  pop\n  jump\t// out\n    /* \"#utility.yul\":6507:6776   */\ntag_45:\n    /* \"#utility.yul\":6617:6656   */\n  tag_126\n    /* \"#utility.yul\":6648:6655   */\n  dup4\n    /* \"#utility.yul\":6617:6656   */\n  tag_43\n  jump\t// in\ntag_126:\n    /* \"#utility.yul\":6678:6769   */\n  tag_127\n    /* \"#utility.yul\":6727:6768   */\n  tag_128\n    /* \"#utility.yul\":6751:6767   */\n  dup3\n    /* \"#utility.yul\":6727:6768   */\n  tag_44\n  jump\t// in\ntag_128:\n    /* \"#utility.yul\":6719:6725   */\n  dup5\n    /* \"#utility.yul\":6712:6716   */\n  dup5\n    /* \"#utility.yul\":6706:6717   */\n  sload\n    /* \"#utility.yul\":6678:6769   */\n  tag_40\n  jump\t// in\ntag_127:\n    /* \"#utility.yul\":6672:6676   */\n  dup3\n    /* \"#utility.yul\":6665:6770   */\n  sstore\n    /* \"#utility.yul\":6583:6776   */\n  pop\n    /* \"#utility.yul\":6507:6776   */\n  pop\n  pop\n  pop\n  jump\t// out\n    /* \"#utility.yul\":6782:6855   */\ntag_46:\n    /* \"#utility.yul\":6827:6830   */\n  0x00\n    /* \"#utility.yul\":6848:6849   */\n  0x00\n    /* \"#utility.yul\":6841:6849   */\n  swap1\n  pop\n    /* \"#utility.yul\":6782:6855   */\n  swap1\n  jump\t// out\n    /* \"#utility.yul\":6861:7050   */\ntag_47:\n    /* \"#utility.yul\":6938:6970   */\n  tag_131\n  tag_46\n  jump\t// in\ntag_131:\n    /* \"#utility.yul\":6979:7044   */\n  tag_132\n    /* \"#utility.yul\":7037:7043   */\n  dup2\n    /* \"#utility.yul\":7029:7035   */\n  dup5\n    /* \"#utility.yul\":7023:7027   */\n  dup5\n    /* \"#utility.yul\":6979:7044   */\n  tag_45\n  jump\t// in\ntag_132:\n    /* \"#utility.yul\":6914:7050   */\n  pop\n    /* \"#utility.yul\":6861:7050   */\n  pop\n  pop\n  jump\t// out\n    /* \"#utility.yul\":7056:7242   */\ntag_48:\n    /* \"#utility.yul\":7116:7236   */\ntag_134:\n    /* \"#utility.yul\":7133:7136   */\n  dup2\n    /* \"#utility.yul\":7126:7131   */\n  dup2\n    /* \"#utility.yul\":7123:7137   */\n  lt\n    /* \"#utility.yul\":7116:7236   */\n  iszero\n  tag_136\n  jumpi\n    /* \"#utility.yul\":7187:7226   */\n  tag_137\n    /* \"#utility.yul\":7224:7225   */\n  0x00\n    /* \"#utility.yul\":7217:7222   */\n  dup3\n    /* \"#utility.yul\":7187:7226   */\n  tag_47\n  jump\t// in\ntag_137:\n    /* \"#utility.yul\":7160:7161   */\n  0x01\n    /* \"#utility.yul\":7153:7158   */\n  dup2\n    /* \"#utility.yul\":7149:7162   */\n  add\n    /* \"#utility.yul\":7140:7162   */\n  swap1\n  pop\n    /* \"#utility.yul\":7116:7236   */\n  jump(tag_134)\ntag_136:\n    /* \"#utility.yul\":7056:7242   */\n  pop\n  pop\n  jump\t// out\n    /* \"#utility.yul\":7248:7791   */\ntag_49:\n    /* \"#utility.yul\":7349:7351   */\n  0x1f\n    /* \"#utility.yul\":7344:7347   */\n  dup3\n    /* \"#utility.yul\":7341:7352   */\n  gt\n    /* \"#utility.yul\":7338:7784   */\n  iszero\n  tag_139\n  jumpi\n    /* \"#utility.yul\":7383:7421   */\n  tag_140\n    /* \"#utility.yul\":7415:7420   */\n  dup2\n    /* \"#utility.yul\":7383:7421   */\n  tag_37\n  jump\t// in\ntag_140:\n    /* \"#utility.yul\":7467:7496   */\n  tag_141\n    /* \"#utility.yul\":7485:7495   */\n  dup5\n    /* \"#utility.yul\":7467:7496   */\n  tag_38\n  jump\t// in\ntag_141:\n    /* \"#utility.yul\":7457:7465   */\n  dup2\n    /* \"#utility.yul\":7453:7497   */\n  add\n    /* \"#utility.yul\":7650:7652   */\n  0x20\n    /* \"#utility.yul\":7638:7648   */\n  dup6\n    /* \"#utility.yul\":7635:7653   */\n  lt\n    /* \"#utility.yul\":7632:7681   */\n  iszero\n  tag_142\n  jumpi\n    /* \"#utility.yul\":7671:7679   */\n  dup2\n    /* \"#utility.yul\":7656:7679   */\n  swap1\n  pop\n    /* \"#utility.yul\":7632:7681   */\ntag_142:\n    /* \"#utility.yul\":7694:7774   */\n  tag_143\n    /* \"#utility.yul\":7750:7772   */\n  tag_144\n    /* \"#utility.yul\":7768:7771   */\n  dup6\n    /* \"#utility.yul\":7750:7772   */\n  tag_38\n  jump\t// in\ntag_144:\n    /* \"#utility.yul\":7740:7748   */\n  dup4\n    /* \"#utility.yul\":7736:7773   */\n  add\n    /* \"#utility.yul\":7723:7734   */\n  dup3\n    /* \"#utility.yul\":7694:7774   */\n  tag_48\n  jump\t// in\ntag_143:\n    /* \"#utility.yul\":7353:7784   */\n  pop\n  pop\n    /* \"#utility.yul\":7338:7784   */\ntag_139:\n    /* \"#utility.yul\":7248:7791   */\n  pop\n  pop\n  pop\n  jump\t// out\n    /* \"#utility.yul\":7797:7914   */\ntag_50:\n    /* \"#utility.yul\":7851:7859   */\n  0x00\n    /* \"#utility.yul\":7901:7906   */\n  dup3\n    /* \"#utility.yul\":7895:7899   */\n  dup3\n    /* \"#utility.yul\":7891:7907   */\n  shr\n    /* \"#utility.yul\":7870:7907   */\n  swap1\n  pop\n    /* \"#utility.yul\":7797:7914   */\n  swap3\n  swap2\n  pop\n  pop\n  jump\t// out\n    /* \"#utility.yul\":7920:8089   */\ntag_51:\n    /* \"#utility.yul\":7964:7970   */\n  0x00\n    /* \"#utility.yul\":7997:8048   */\n  tag_147\n    /* \"#utility.yul\":8045:8046   */\n  0x00\n    /* \"#utility.yul\":8041:8047   */\n  not\n    /* \"#utility.yul\":8033:8038   */\n  dup5\n    /* \"#utility.yul\":8030:8031   */\n  0x08\n    /* \"#utility.yul\":8026:8039   */\n  mul\n    /* \"#utility.yul\":7997:8048   */\n  tag_50\n  jump\t// in\ntag_147:\n    /* \"#utility.yul\":7993:8049   */\n  not\n    /* \"#utility.yul\":8078:8082   */\n  dup1\n    /* \"#utility.yul\":8072:8076   */\n  dup4\n    /* \"#utility.yul\":8068:8083   */\n  and\n    /* \"#utility.yul\":8058:8083   */\n  swap2\n  pop\n    /* \"#utility.yul\":7971:8089   */\n  pop\n    /* \"#utility.yul\":7920:8089   */\n  swap3\n  swap2\n  pop\n  pop\n  jump\t// out\n    /* \"#utility.yul\":8094:8389   */\ntag_52:\n    /* \"#utility.yul\":8170:8174   */\n  0x00\n    /* \"#utility.yul\":8316:8345   */\n  tag_149\n    /* \"#utility.yul\":8341:8344   */\n  dup4\n    /* \"#utility.yul\":8335:8339   */\n  dup4\n    /* \"#utility.yul\":8316:8345   */\n  tag_51\n  jump\t// in\ntag_149:\n    /* \"#utility.yul\":8308:8345   */\n  swap2\n  pop\n    /* \"#utility.yul\":8378:8381   */\n  dup3\n    /* \"#utility.yul\":8375:8376   */\n  0x02\n    /* \"#utility.yul\":8371:8382   */\n  mul\n    /* \"#utility.yul\":8365:8369   */\n  dup3\n    /* \"#utility.yul\":8362:8383   */\n  or\n    /* \"#utility.yul\":8354:8383   */\n  swap1\n  pop\n    /* \"#utility.yul\":8094:8389   */\n  swap3\n  swap2\n  pop\n  pop\n  jump\t// out\n    /* \"#utility.yul\":8394:9789   */\ntag_11:\n    /* \"#utility.yul\":8511:8548   */\n  tag_151\n    /* \"#utility.yul\":8544:8547   */\n  dup3\n    /* \"#utility.yul\":8511:8548   */\n  tag_32\n  jump\t// in\ntag_151:\n    /* \"#utility.yul\":8613:8631   */\n  0xffffffffffffffff\n    /* \"#utility.yul\":8605:8611   */\n  dup2\n    /* \"#utility.yul\":8602:8632   */\n  gt\n    /* \"#utility.yul\":8599:8655   */\n  iszero\n  tag_152\n  jumpi\n    /* \"#utility.yul\":8635:8653   */\n  tag_153\n  tag_25\n  jump\t// in\ntag_153:\n    /* \"#utility.yul\":8599:8655   */\ntag_152:\n    /* \"#utility.yul\":8679:8717   */\n  tag_154\n    /* \"#utility.yul\":8711:8715   */\n  dup3\n    /* \"#utility.yul\":8705:8716   */\n  sload\n    /* \"#utility.yul\":8679:8717   */\n  tag_36\n  jump\t// in\ntag_154:\n    /* \"#utility.yul\":8764:8831   */\n  tag_155\n    /* \"#utility.yul\":8824:8830   */\n  dup3\n    /* \"#utility.yul\":8816:8822   */\n  dup3\n    /* \"#utility.yul\":8810:8814   */\n  dup6\n    /* \"#utility.yul\":8764:8831   */\n  tag_49\n  jump\t// in\ntag_155:\n    /* \"#utility.yul\":8858:8859   */\n  0x00\n    /* \"#utility.yul\":8882:8886   */\n  0x20\n    /* \"#utility.yul\":8869:8886   */\n  swap1\n  pop\n    /* \"#utility.yul\":8914:8916   */\n  0x1f\n    /* \"#utility.yul\":8906:8912   */\n  dup4\n    /* \"#utility.yul\":8903:8917   */\n  gt\n    /* \"#utility.yul\":8931:8932   */\n  0x01\n    /* \"#utility.yul\":8926:9544   */\n  dup2\n  eq\n  tag_157\n  jumpi\n    /* \"#utility.yul\":9588:9589   */\n  0x00\n    /* \"#utility.yul\":9605:9611   */\n  dup5\n    /* \"#utility.yul\":9602:9679   */\n  iszero\n  tag_158\n  jumpi\n    /* \"#utility.yul\":9654:9663   */\n  dup3\n    /* \"#utility.yul\":9649:9652   */\n  dup8\n    /* \"#utility.yul\":9645:9664   */\n  add\n    /* \"#utility.yul\":9639:9665   */\n  mload\n    /* \"#utility.yul\":9630:9665   */\n  swap1\n  pop\n    /* \"#utility.yul\":9602:9679   */\ntag_158:\n    /* \"#utility.yul\":9705:9772   */\n  tag_159\n    /* \"#utility.yul\":9765:9771   */\n  dup6\n    /* \"#utility.yul\":9758:9763   */\n  dup3\n    /* \"#utility.yul\":9705:9772   */\n  tag_52\n  jump\t// in\ntag_159:\n    /* \"#utility.yul\":9699:9703   */\n  dup7\n    /* \"#utility.yul\":9692:9773   */\n  sstore\n    /* \"#utility.yul\":9561:9783   */\n  pop\n    /* \"#utility.yul\":8896:9783   */\n  jump(tag_156)\n    /* \"#utility.yul\":8926:9544   */\ntag_157:\n    /* \"#utility.yul\":8978:8982   */\n  0x1f\n    /* \"#utility.yul\":8974:8983   */\n  not\n    /* \"#utility.yul\":8966:8972   */\n  dup5\n    /* \"#utility.yul\":8962:8984   */\n  and\n    /* \"#utility.yul\":9012:9049   */\n  tag_160\n    /* \"#utility.yul\":9044:9048   */\n  dup7\n    /* \"#utility.yul\":9012:9049   */\n  tag_37\n  jump\t// in\ntag_160:\n    /* \"#utility.yul\":9071:9072   */\n  0x00\n    /* \"#utility.yul\":9085:9293   */\ntag_161:\n    /* \"#utility.yul\":9099:9106   */\n  dup3\n    /* \"#utility.yul\":9096:9097   */\n  dup2\n    /* \"#utility.yul\":9093:9107   */\n  lt\n    /* \"#utility.yul\":9085:9293   */\n  iszero\n  tag_163\n  jumpi\n    /* \"#utility.yul\":9178:9187   */\n  dup5\n    /* \"#utility.yul\":9173:9176   */\n  dup10\n    /* \"#utility.yul\":9169:9188   */\n  add\n    /* \"#utility.yul\":9163:9189   */\n  mload\n    /* \"#utility.yul\":9155:9161   */\n  dup3\n    /* \"#utility.yul\":9148:9190   */\n  sstore\n    /* \"#utility.yul\":9229:9230   */\n  0x01\n    /* \"#utility.yul\":9221:9227   */\n  dup3\n    /* \"#utility.yul\":9217:9231   */\n  add\n    /* \"#utility.yul\":9207:9231   */\n  swap2\n  pop\n    /* \"#utility.yul\":9276:9278   */\n  0x20\n    /* \"#utility.yul\":9265:9274   */\n  dup6\n    /* \"#utility.yul\":9261:9279   */\n  add\n    /* \"#utility.yul\":9248:9279   */\n  swap5\n  pop\n    /* \"#utility.yul\":9122:9126   */\n  0x20\n    /* \"#utility.yul\":9119:9120   */\n  dup2\n    /* \"#utility.yul\":9115:9127   */\n  add\n    /* \"#utility.yul\":9110:9127   */\n  swap1\n  pop\n    /* \"#utility.yul\":9085:9293   */\n  jump(tag_161)\ntag_163:\n    /* \"#utility.yul\":9321:9327   */\n  dup7\n    /* \"#utility.yul\":9312:9319   */\n  dup4\n    /* \"#utility.yul\":9309:9328   */\n  lt\n    /* \"#utility.yul\":9306:9485   */\n  iszero\n  tag_164\n  jumpi\n    /* \"#utility.yul\":9379:9388   */\n  dup5\n    /* \"#utility.yul\":9374:9377   */\n  dup10\n    /* \"#utility.yul\":9370:9389   */\n  add\n    /* \"#utility.yul\":9364:9390   */\n  mload\n    /* \"#utility.yul\":9422:9470   */\n  tag_165\n    /* \"#utility.yul\":9464:9468   */\n  0x1f\n    /* \"#utility.yul\":9456:9462   */\n  dup10\n    /* \"#utility.yul\":9452:9469   */\n  and\n    /* \"#utility.yul\":9441:9450   */\n  dup3\n    /* \"#utility.yul\":9422:9470   */\n  tag_51\n  jump\t// in\ntag_165:\n    /* \"#utility.yul\":9414:9420   */\n  dup4\n    /* \"#utility.yul\":9407:9471   */\n  sstore\n    /* \"#utility.yul\":9329:9485   */\n  pop\n    /* \"#utility.yul\":9306:9485   */\ntag_164:\n    /* \"#utility.yul\":9531:9532   */\n  0x01\n    /* \"#utility.yul\":9527:9528   */\n  0x02\n    /* \"#utility.yul\":9519:9525   */\n  dup9\n    /* \"#utility.yul\":9515:9529   */\n  mul\n    /* \"#utility.yul\":9511:9533   */\n  add\n    /* \"#utility.yul\":9505:9509   */\n  dup9\n    /* \"#utility.yul\":9498:9534   */\n  sstore\n    /* \"#utility.yul\":8933:9544   */\n  pop\n  pop\n  pop\n    /* \"#utility.yul\":8896:9783   */\ntag_156:\n  pop\n    /* \"#utility.yul\":8486:9789   */\n  pop\n  pop\n  pop\n    /* \"#utility.yul\":8394:9789   */\n  pop\n  pop\n  jump\t// out\n    /* \"PoT.sol\":70:3226  contract ProofOfTransit{... */\ntag_14:\n  dataSize(sub_0)\n  dup1\n  dataOffset(sub_0)\n  0x00\n  codecopy\n  0x00\n  return\nstop\n\nsub_0: assembly {\n        /* \"PoT.sol\":70:3226  contract ProofOfTransit{... */\n      mstore(0x40, 0x80)\n      callvalue\n      dup1\n      iszero\n      tag_1\n      jumpi\n      revert(0x00, 0x00)\n    tag_1:\n      pop\n      jumpi(tag_2, lt(calldatasize, 0x04))\n      shr(0xe0, calldataload(0x00))\n      dup1\n      0xb68cc799\n      gt\n      tag_12\n      jumpi\n      dup1\n      0xb68cc799\n      eq\n      tag_7\n      jumpi\n      dup1\n      0xbb56d412\n      eq\n      tag_8\n      jumpi\n      dup1\n      0xc543691a\n      eq\n      tag_9\n      jumpi\n      dup1\n      0xeacad774\n      eq\n      tag_10\n      jumpi\n      dup1\n      0xef040bb1\n      eq\n      tag_11\n      jumpi\n      jump(tag_2)\n    tag_12:\n      dup1\n      0x3018205f\n      eq\n      tag_3\n      jumpi\n      dup1\n      0x3e11e378\n      eq\n      tag_4\n      jumpi\n      dup1\n      0x6118b23c\n      eq\n      tag_5\n      jumpi\n      dup1\n      0x97c38cfc\n      eq\n      tag_6\n      jumpi\n    tag_2:\n      revert(0x00, 0x00)\n        /* \"PoT.sol\":2047:2138  function getController() external view returns (address) {... */\n    tag_3:\n      tag_13\n      tag_14\n      jump\t// in\n    tag_13:\n      mload(0x40)\n      tag_15\n      swap2\n      swap1\n      tag_16\n      jump\t// in\n    tag_15:\n      mload(0x40)\n      dup1\n      swap2\n      sub\n      swap1\n      return\n        /* \"PoT.sol\":1530:1729  function changeController(address newController, address senderAddr) public isController(senderAddr) {... */\n    tag_4:\n      tag_17\n      0x04\n      dup1\n      calldatasize\n      sub\n      dup2\n      add\n      swap1\n      tag_18\n      swap2\n      swap1\n      tag_19\n      jump\t// in\n    tag_18:\n      tag_20\n      jump\t// in\n    tag_17:\n      stop\n        /* \"PoT.sol\":581:620  pastRouteConfig[] public routeIdHistory */\n    tag_5:\n      tag_21\n      0x04\n      dup1\n      calldatasize\n      sub\n      dup2\n      add\n      swap1\n      tag_22\n      swap2\n      swap1\n      tag_23\n      jump\t// in\n    tag_22:\n      tag_24\n      jump\t// in\n    tag_21:\n      mload(0x40)\n      tag_25\n      swap4\n      swap3\n      swap2\n      swap1\n      tag_26\n      jump\t// in\n    tag_25:\n      mload(0x40)\n      dup1\n      swap2\n      sub\n      swap1\n      return\n        /* \"PoT.sol\":2326:2771  function logProbe(string memory id_x,string memory sig) public isEgressEdge{... */\n    tag_6:\n      tag_27\n      0x04\n      dup1\n      calldatasize\n      sub\n      dup2\n      add\n      swap1\n      tag_28\n      swap2\n      swap1\n      tag_29\n      jump\t// in\n    tag_28:\n      tag_30\n      jump\t// in\n    tag_27:\n      stop\n        /* \"PoT.sol\":2144:2296  function setProbeHash(string memory id_x, string memory hash, address senderAddr) public isController(senderAddr) {... */\n    tag_7:\n      tag_31\n      0x04\n      dup1\n      calldatasize\n      sub\n      dup2\n      add\n      swap1\n      tag_32\n      swap2\n      swap1\n      tag_33\n      jump\t// in\n    tag_32:\n      tag_34\n      jump\t// in\n    tag_31:\n      stop\n        /* \"PoT.sol\":230:271  mapping(string => string) public probHash */\n    tag_8:\n      tag_35\n      0x04\n      dup1\n      calldatasize\n      sub\n      dup2\n      add\n      swap1\n      tag_36\n      swap2\n      swap1\n      tag_37\n      jump\t// in\n    tag_36:\n      tag_38\n      jump\t// in\n    tag_35:\n      mload(0x40)\n      tag_39\n      swap2\n      swap1\n      tag_40\n      jump\t// in\n    tag_39:\n      mload(0x40)\n      dup1\n      swap2\n      sub\n      swap1\n      return\n        /* \"PoT.sol\":1735:2041  function changeRouteIdAndEgressEdge(string memory newRouteId,address newEgressEdge, address senderAddr) public isController(senderAddr) {... */\n    tag_9:\n      tag_41\n      0x04\n      dup1\n      calldatasize\n      sub\n      dup2\n      add\n      swap1\n      tag_42\n      swap2\n      swap1\n      tag_43\n      jump\t// in\n    tag_42:\n      tag_44\n      jump\t// in\n    tag_41:\n      stop\n        /* \"PoT.sol\":277:330  mapping(string => logStructure) public route_id_audit */\n    tag_10:\n      tag_45\n      0x04\n      dup1\n      calldatasize\n      sub\n      dup2\n      add\n      swap1\n      tag_46\n      swap2\n      swap1\n      tag_37\n      jump\t// in\n    tag_46:\n      tag_47\n      jump\t// in\n    tag_45:\n      mload(0x40)\n      tag_48\n      swap4\n      swap3\n      swap2\n      swap1\n      tag_49\n      jump\t// in\n    tag_48:\n      mload(0x40)\n      dup1\n      swap2\n      sub\n      swap1\n      return\n        /* \"PoT.sol\":2777:3011  function getCompliance() public view returns (uint,uint,uint) {... */\n    tag_11:\n      tag_50\n      tag_51\n      jump\t// in\n    tag_50:\n      mload(0x40)\n      tag_52\n      swap4\n      swap3\n      swap2\n      swap1\n      tag_49\n      jump\t// in\n    tag_52:\n      mload(0x40)\n      dup1\n      swap2\n      sub\n      swap1\n      return\n        /* \"PoT.sol\":2047:2138  function getController() external view returns (address) {... */\n    tag_14:\n        /* \"PoT.sol\":2095:2102  address */\n      0x00\n        /* \"PoT.sol\":2121:2131  controller */\n      0x00\n      0x00\n      swap1\n      sload\n      swap1\n      0x0100\n      exp\n      swap1\n      div\n      0xffffffffffffffffffffffffffffffffffffffff\n      and\n        /* \"PoT.sol\":2114:2131  return controller */\n      swap1\n      pop\n        /* \"PoT.sol\":2047:2138  function getController() external view returns (address) {... */\n      swap1\n      jump\t// out\n        /* \"PoT.sol\":1530:1729  function changeController(address newController, address senderAddr) public isController(senderAddr) {... */\n    tag_20:\n        /* \"PoT.sol\":1619:1629  senderAddr */\n      dup1\n        /* \"PoT.sol\":789:799  controller */\n      0x00\n      0x00\n      swap1\n      sload\n      swap1\n      0x0100\n      exp\n      swap1\n      div\n      0xffffffffffffffffffffffffffffffffffffffff\n      and\n        /* \"PoT.sol\":775:799  senderAddr == controller */\n      0xffffffffffffffffffffffffffffffffffffffff\n      and\n        /* \"PoT.sol\":775:785  senderAddr */\n      dup2\n        /* \"PoT.sol\":775:799  senderAddr == controller */\n      0xffffffffffffffffffffffffffffffffffffffff\n      and\n      eq\n        /* \"PoT.sol\":767:828  require(senderAddr == controller, \"Caller is not controller\") */\n      tag_55\n      jumpi\n      mload(0x40)\n      0x08c379a000000000000000000000000000000000000000000000000000000000\n      dup2\n      mstore\n      0x04\n      add\n      tag_56\n      swap1\n      tag_57\n      jump\t// in\n    tag_56:\n      mload(0x40)\n      dup1\n      swap2\n      sub\n      swap1\n      revert\n    tag_55:\n        /* \"PoT.sol\":1672:1685  newController */\n      dup3\n        /* \"PoT.sol\":1646:1686  ControllerSet(controller, newController) */\n      0xffffffffffffffffffffffffffffffffffffffff\n      and\n        /* \"PoT.sol\":1660:1670  controller */\n      0x00\n      0x00\n      swap1\n      sload\n      swap1\n      0x0100\n      exp\n      swap1\n      div\n      0xffffffffffffffffffffffffffffffffffffffff\n      and\n        /* \"PoT.sol\":1646:1686  ControllerSet(controller, newController) */\n      0xffffffffffffffffffffffffffffffffffffffff\n      and\n      0x7582b62407f53d49cfc72e7ddab574c06ef3b8aced104b54b7bed4681ee54a\n      mload(0x40)\n      mload(0x40)\n      dup1\n      swap2\n      sub\n      swap1\n      log3\n        /* \"PoT.sol\":1709:1722  newController */\n      dup3\n        /* \"PoT.sol\":1696:1706  controller */\n      0x00\n      0x00\n        /* \"PoT.sol\":1696:1722  controller = newController */\n      0x0100\n      exp\n      dup2\n      sload\n      dup2\n      0xffffffffffffffffffffffffffffffffffffffff\n      mul\n      not\n      and\n      swap1\n      dup4\n      0xffffffffffffffffffffffffffffffffffffffff\n      and\n      mul\n      or\n      swap1\n      sstore\n      pop\n        /* \"PoT.sol\":1530:1729  function changeController(address newController, address senderAddr) public isController(senderAddr) {... */\n      pop\n      pop\n      pop\n      jump\t// out\n        /* \"PoT.sol\":581:620  pastRouteConfig[] public routeIdHistory */\n    tag_24:\n      0x05\n      dup2\n      dup2\n      sload\n      dup2\n      lt\n      tag_59\n      jumpi\n      0x00\n      dup1\n      revert\n    tag_59:\n      swap1\n      0x00\n      mstore\n      keccak256(0x00, 0x20)\n      swap1\n      0x03\n      mul\n      add\n      0x00\n      swap2\n      pop\n      swap1\n      pop\n      dup1\n      0x00\n      add\n      dup1\n      sload\n      tag_61\n      swap1\n      tag_62\n      jump\t// in\n    tag_61:\n      dup1\n      0x1f\n      add\n      0x20\n      dup1\n      swap2\n      div\n      mul\n      0x20\n      add\n      mload(0x40)\n      swap1\n      dup2\n      add\n      0x40\n      mstore\n      dup1\n      swap3\n      swap2\n      swap1\n      dup2\n      dup2\n      mstore\n      0x20\n      add\n      dup3\n      dup1\n      sload\n      tag_63\n      swap1\n      tag_62\n      jump\t// in\n    tag_63:\n      dup1\n      iszero\n      tag_64\n      jumpi\n      dup1\n      0x1f\n      lt\n      tag_65\n      jumpi\n      0x0100\n      dup1\n      dup4\n      sload\n      div\n      mul\n      dup4\n      mstore\n      swap2\n      0x20\n      add\n      swap2\n      jump(tag_64)\n    tag_65:\n      dup3\n      add\n      swap2\n      swap1\n      0x00\n      mstore\n      keccak256(0x00, 0x20)\n      swap1\n    tag_66:\n      dup2\n      sload\n      dup2\n      mstore\n      swap1\n      0x01\n      add\n      swap1\n      0x20\n      add\n      dup1\n      dup4\n      gt\n      tag_66\n      jumpi\n      dup3\n      swap1\n      sub\n      0x1f\n      and\n      dup3\n      add\n      swap2\n    tag_64:\n      pop\n      pop\n      pop\n      pop\n      pop\n      swap1\n      dup1\n      0x01\n      add\n      0x00\n      swap1\n      sload\n      swap1\n      0x0100\n      exp\n      swap1\n      div\n      0xffffffffffffffffffffffffffffffffffffffff\n      and\n      swap1\n      dup1\n      0x02\n      add\n      sload\n      swap1\n      pop\n      dup4\n      jump\t// out\n        /* \"PoT.sol\":2326:2771  function logProbe(string memory id_x,string memory sig) public isEgressEdge{... */\n    tag_30:\n        /* \"PoT.sol\":908:919  egress_edge */\n      0x01\n      0x00\n      swap1\n      sload\n      swap1\n      0x0100\n      exp\n      swap1\n      div\n      0xffffffffffffffffffffffffffffffffffffffff\n      and\n        /* \"PoT.sol\":894:919  msg.sender == egress_edge */\n      0xffffffffffffffffffffffffffffffffffffffff\n      and\n        /* \"PoT.sol\":894:904  msg.sender */\n      caller\n        /* \"PoT.sol\":894:919  msg.sender == egress_edge */\n      0xffffffffffffffffffffffffffffffffffffffff\n      and\n      eq\n        /* \"PoT.sol\":886:949  require(msg.sender == egress_edge, \"Caller is not egress edge\") */\n      tag_68\n      jumpi\n      mload(0x40)\n      0x08c379a000000000000000000000000000000000000000000000000000000000\n      dup2\n      mstore\n      0x04\n      add\n      tag_69\n      swap1\n      tag_70\n      jump\t// in\n    tag_69:\n      mload(0x40)\n      dup1\n      swap2\n      sub\n      swap1\n      revert\n    tag_68:\n        /* \"PoT.sol\":2415:2448  compareStrings(probHash[id_x],\"\") */\n      tag_72\n        /* \"PoT.sol\":2430:2438  probHash */\n      0x03\n        /* \"PoT.sol\":2439:2443  id_x */\n      dup4\n        /* \"PoT.sol\":2430:2444  probHash[id_x] */\n      mload(0x40)\n      tag_73\n      swap2\n      swap1\n      tag_74\n      jump\t// in\n    tag_73:\n      swap1\n      dup2\n      mstore\n      0x20\n      add\n      mload(0x40)\n      dup1\n      swap2\n      sub\n      swap1\n      keccak256\n        /* \"PoT.sol\":2415:2448  compareStrings(probHash[id_x],\"\") */\n      dup1\n      sload\n      tag_75\n      swap1\n      tag_62\n      jump\t// in\n    tag_75:\n      dup1\n      0x1f\n      add\n      0x20\n      dup1\n      swap2\n      div\n      mul\n      0x20\n      add\n      mload(0x40)\n      swap1\n      dup2\n      add\n      0x40\n      mstore\n      dup1\n      swap3\n      swap2\n      swap1\n      dup2\n      dup2\n      mstore\n      0x20\n      add\n      dup3\n      dup1\n      sload\n      tag_76\n      swap1\n      tag_62\n      jump\t// in\n    tag_76:\n      dup1\n      iszero\n      tag_77\n      jumpi\n      dup1\n      0x1f\n      lt\n      tag_78\n      jumpi\n      0x0100\n      dup1\n      dup4\n      sload\n      div\n      mul\n      dup4\n      mstore\n      swap2\n      0x20\n      add\n      swap2\n      jump(tag_77)\n    tag_78:\n      dup3\n      add\n      swap2\n      swap1\n      0x00\n      mstore\n      keccak256(0x00, 0x20)\n      swap1\n    tag_79:\n      dup2\n      sload\n      dup2\n      mstore\n      swap1\n      0x01\n      add\n      swap1\n      0x20\n      add\n      dup1\n      dup4\n      gt\n      tag_79\n      jumpi\n      dup3\n      swap1\n      sub\n      0x1f\n      and\n      dup3\n      add\n      swap2\n    tag_77:\n      pop\n      pop\n      pop\n      pop\n      pop\n      mload(0x40)\n      dup1\n      0x20\n      add\n      0x40\n      mstore\n      dup1\n      0x00\n      dup2\n      mstore\n      pop\n        /* \"PoT.sol\":2415:2429  compareStrings */\n      tag_80\n        /* \"PoT.sol\":2415:2448  compareStrings(probHash[id_x],\"\") */\n      jump\t// in\n    tag_72:\n        /* \"PoT.sol\":2411:2765  if (compareStrings(probHash[id_x],\"\")) {... */\n      iszero\n      tag_81\n      jumpi\n        /* \"PoT.sol\":2515:2516  1 */\n      0x01\n        /* \"PoT.sol\":2464:2478  route_id_audit */\n      0x04\n        /* \"PoT.sol\":2479:2494  current_routeID */\n      0x02\n        /* \"PoT.sol\":2464:2495  route_id_audit[current_routeID] */\n      mload(0x40)\n      tag_82\n      swap2\n      swap1\n      tag_83\n      jump\t// in\n    tag_82:\n      swap1\n      dup2\n      mstore\n      0x20\n      add\n      mload(0x40)\n      dup1\n      swap2\n      sub\n      swap1\n      keccak256\n        /* \"PoT.sol\":2464:2511  route_id_audit[current_routeID].probeNullAmount */\n      0x01\n      add\n      0x00\n        /* \"PoT.sol\":2464:2516  route_id_audit[current_routeID].probeNullAmount += 1 */\n      dup3\n      dup3\n      sload\n      tag_84\n      swap2\n      swap1\n      tag_85\n      jump\t// in\n    tag_84:\n      swap3\n      pop\n      pop\n      dup2\n      swap1\n      sstore\n      pop\n        /* \"PoT.sol\":2411:2765  if (compareStrings(probHash[id_x],\"\")) {... */\n      jump(tag_86)\n    tag_81:\n        /* \"PoT.sol\":2537:2571  compareStrings(probHash[id_x],sig) */\n      tag_87\n        /* \"PoT.sol\":2552:2560  probHash */\n      0x03\n        /* \"PoT.sol\":2561:2565  id_x */\n      dup4\n        /* \"PoT.sol\":2552:2566  probHash[id_x] */\n      mload(0x40)\n      tag_88\n      swap2\n      swap1\n      tag_74\n      jump\t// in\n    tag_88:\n      swap1\n      dup2\n      mstore\n      0x20\n      add\n      mload(0x40)\n      dup1\n      swap2\n      sub\n      swap1\n      keccak256\n        /* \"PoT.sol\":2537:2571  compareStrings(probHash[id_x],sig) */\n      dup1\n      sload\n      tag_89\n      swap1\n      tag_62\n      jump\t// in\n    tag_89:\n      dup1\n      0x1f\n      add\n      0x20\n      dup1\n      swap2\n      div\n      mul\n      0x20\n      add\n      mload(0x40)\n      swap1\n      dup2\n      add\n      0x40\n      mstore\n      dup1\n      swap3\n      swap2\n      swap1\n      dup2\n      dup2\n      mstore\n      0x20\n      add\n      dup3\n      dup1\n      sload\n      tag_90\n      swap1\n      tag_62\n      jump\t// in\n    tag_90:\n      dup1\n      iszero\n      tag_91\n      jumpi\n      dup1\n      0x1f\n      lt\n      tag_92\n      jumpi\n      0x0100\n      dup1\n      dup4\n      sload\n      div\n      mul\n      dup4\n      mstore\n      swap2\n      0x20\n      add\n      swap2\n      jump(tag_91)\n    tag_92:\n      dup3\n      add\n      swap2\n      swap1\n      0x00\n      mstore\n      keccak256(0x00, 0x20)\n      swap1\n    tag_93:\n      dup2\n      sload\n      dup2\n      mstore\n      swap1\n      0x01\n      add\n      swap1\n      0x20\n      add\n      dup1\n      dup4\n      gt\n      tag_93\n      jumpi\n      dup3\n      swap1\n      sub\n      0x1f\n      and\n      dup3\n      add\n      swap2\n    tag_91:\n      pop\n      pop\n      pop\n      pop\n      pop\n        /* \"PoT.sol\":2567:2570  sig */\n      dup3\n        /* \"PoT.sol\":2537:2551  compareStrings */\n      tag_80\n        /* \"PoT.sol\":2537:2571  compareStrings(probHash[id_x],sig) */\n      jump\t// in\n    tag_87:\n        /* \"PoT.sol\":2533:2765  if (compareStrings(probHash[id_x],sig)){... */\n      iszero\n      tag_94\n      jumpi\n        /* \"PoT.sol\":2640:2641  1 */\n      0x01\n        /* \"PoT.sol\":2586:2600  route_id_audit */\n      0x04\n        /* \"PoT.sol\":2601:2616  current_routeID */\n      0x02\n        /* \"PoT.sol\":2586:2617  route_id_audit[current_routeID] */\n      mload(0x40)\n      tag_95\n      swap2\n      swap1\n      tag_83\n      jump\t// in\n    tag_95:\n      swap1\n      dup2\n      mstore\n      0x20\n      add\n      mload(0x40)\n      dup1\n      swap2\n      sub\n      swap1\n      keccak256\n        /* \"PoT.sol\":2586:2636  route_id_audit[current_routeID].probeSuccessAmount */\n      0x02\n      add\n      0x00\n        /* \"PoT.sol\":2586:2641  route_id_audit[current_routeID].probeSuccessAmount += 1 */\n      dup3\n      dup3\n      sload\n      tag_96\n      swap2\n      swap1\n      tag_85\n      jump\t// in\n    tag_96:\n      swap3\n      pop\n      pop\n      dup2\n      swap1\n      sstore\n      pop\n        /* \"PoT.sol\":2533:2765  if (compareStrings(probHash[id_x],sig)){... */\n      jump(tag_97)\n    tag_94:\n        /* \"PoT.sol\":2723:2724  1 */\n      0x01\n        /* \"PoT.sol\":2672:2686  route_id_audit */\n      0x04\n        /* \"PoT.sol\":2687:2702  current_routeID */\n      0x02\n        /* \"PoT.sol\":2672:2703  route_id_audit[current_routeID] */\n      mload(0x40)\n      tag_98\n      swap2\n      swap1\n      tag_83\n      jump\t// in\n    tag_98:\n      swap1\n      dup2\n      mstore\n      0x20\n      add\n      mload(0x40)\n      dup1\n      swap2\n      sub\n      swap1\n      keccak256\n        /* \"PoT.sol\":2672:2719  route_id_audit[current_routeID].probeFailAmount */\n      0x00\n      add\n      0x00\n        /* \"PoT.sol\":2672:2724  route_id_audit[current_routeID].probeFailAmount += 1 */\n      dup3\n      dup3\n      sload\n      tag_99\n      swap2\n      swap1\n      tag_85\n      jump\t// in\n    tag_99:\n      swap3\n      pop\n      pop\n      dup2\n      swap1\n      sstore\n      pop\n        /* \"PoT.sol\":2743:2754  ProbeFail() */\n      0x9155208b51995e04c988eb045ef59af0f5f785f942cb81688516362b62d8fac0\n      mload(0x40)\n      mload(0x40)\n      dup1\n      swap2\n      sub\n      swap1\n      log1\n        /* \"PoT.sol\":2533:2765  if (compareStrings(probHash[id_x],sig)){... */\n    tag_97:\n        /* \"PoT.sol\":2411:2765  if (compareStrings(probHash[id_x],\"\")) {... */\n    tag_86:\n        /* \"PoT.sol\":2326:2771  function logProbe(string memory id_x,string memory sig) public isEgressEdge{... */\n      pop\n      pop\n      jump\t// out\n        /* \"PoT.sol\":2144:2296  function setProbeHash(string memory id_x, string memory hash, address senderAddr) public isController(senderAddr) {... */\n    tag_34:\n        /* \"PoT.sol\":2246:2256  senderAddr */\n      dup1\n        /* \"PoT.sol\":789:799  controller */\n      0x00\n      0x00\n      swap1\n      sload\n      swap1\n      0x0100\n      exp\n      swap1\n      div\n      0xffffffffffffffffffffffffffffffffffffffff\n      and\n        /* \"PoT.sol\":775:799  senderAddr == controller */\n      0xffffffffffffffffffffffffffffffffffffffff\n      and\n        /* \"PoT.sol\":775:785  senderAddr */\n      dup2\n        /* \"PoT.sol\":775:799  senderAddr == controller */\n      0xffffffffffffffffffffffffffffffffffffffff\n      and\n      eq\n        /* \"PoT.sol\":767:828  require(senderAddr == controller, \"Caller is not controller\") */\n      tag_101\n      jumpi\n      mload(0x40)\n      0x08c379a000000000000000000000000000000000000000000000000000000000\n      dup2\n      mstore\n      0x04\n      add\n      tag_102\n      swap1\n      tag_57\n      jump\t// in\n    tag_102:\n      mload(0x40)\n      dup1\n      swap2\n      sub\n      swap1\n      revert\n    tag_101:\n        /* \"PoT.sol\":2285:2289  hash */\n      dup3\n        /* \"PoT.sol\":2268:2276  probHash */\n      0x03\n        /* \"PoT.sol\":2277:2281  id_x */\n      dup6\n        /* \"PoT.sol\":2268:2282  probHash[id_x] */\n      mload(0x40)\n      tag_104\n      swap2\n      swap1\n      tag_74\n      jump\t// in\n    tag_104:\n      swap1\n      dup2\n      mstore\n      0x20\n      add\n      mload(0x40)\n      dup1\n      swap2\n      sub\n      swap1\n      keccak256\n        /* \"PoT.sol\":2268:2289  probHash[id_x] = hash */\n      swap1\n      dup2\n      tag_105\n      swap2\n      swap1\n      tag_106\n      jump\t// in\n    tag_105:\n      pop\n        /* \"PoT.sol\":2144:2296  function setProbeHash(string memory id_x, string memory hash, address senderAddr) public isController(senderAddr) {... */\n      pop\n      pop\n      pop\n      pop\n      jump\t// out\n        /* \"PoT.sol\":230:271  mapping(string => string) public probHash */\n    tag_38:\n      0x03\n      dup2\n      dup1\n      mload\n      0x20\n      dup2\n      add\n      dup3\n      add\n      dup1\n      mload\n      dup5\n      dup3\n      mstore\n      0x20\n      dup4\n      add\n      0x20\n      dup6\n      add\n      keccak256\n      dup2\n      dup4\n      mstore\n      dup1\n      swap6\n      pop\n      pop\n      pop\n      pop\n      pop\n      pop\n      0x00\n      swap2\n      pop\n      swap1\n      pop\n      dup1\n      sload\n      tag_107\n      swap1\n      tag_62\n      jump\t// in\n    tag_107:\n      dup1\n      0x1f\n      add\n      0x20\n      dup1\n      swap2\n      div\n      mul\n      0x20\n      add\n      mload(0x40)\n      swap1\n      dup2\n      add\n      0x40\n      mstore\n      dup1\n      swap3\n      swap2\n      swap1\n      dup2\n      dup2\n      mstore\n      0x20\n      add\n      dup3\n      dup1\n      sload\n      tag_108\n      swap1\n      tag_62\n      jump\t// in\n    tag_108:\n      dup1\n      iszero\n      tag_109\n      jumpi\n      dup1\n      0x1f\n      lt\n      tag_110\n      jumpi\n      0x0100\n      dup1\n      dup4\n      sload\n      div\n      mul\n      dup4\n      mstore\n      swap2\n      0x20\n      add\n      swap2\n      jump(tag_109)\n    tag_110:\n      dup3\n      add\n      swap2\n      swap1\n      0x00\n      mstore\n      keccak256(0x00, 0x20)\n      swap1\n    tag_111:\n      dup2\n      sload\n      dup2\n      mstore\n      swap1\n      0x01\n      add\n      swap1\n      0x20\n      add\n      dup1\n      dup4\n      gt\n      tag_111\n      jumpi\n      dup3\n      swap1\n      sub\n      0x1f\n      and\n      dup3\n      add\n      swap2\n    tag_109:\n      pop\n      pop\n      pop\n      pop\n      pop\n      dup2\n      jump\t// out\n        /* \"PoT.sol\":1735:2041  function changeRouteIdAndEgressEdge(string memory newRouteId,address newEgressEdge, address senderAddr) public isController(senderAddr) {... */\n    tag_44:\n        /* \"PoT.sol\":1859:1869  senderAddr */\n      dup1\n        /* \"PoT.sol\":789:799  controller */\n      0x00\n      0x00\n      swap1\n      sload\n      swap1\n      0x0100\n      exp\n      swap1\n      div\n      0xffffffffffffffffffffffffffffffffffffffff\n      and\n        /* \"PoT.sol\":775:799  senderAddr == controller */\n      0xffffffffffffffffffffffffffffffffffffffff\n      and\n        /* \"PoT.sol\":775:785  senderAddr */\n      dup2\n        /* \"PoT.sol\":775:799  senderAddr == controller */\n      0xffffffffffffffffffffffffffffffffffffffff\n      and\n      eq\n        /* \"PoT.sol\":767:828  require(senderAddr == controller, \"Caller is not controller\") */\n      tag_113\n      jumpi\n      mload(0x40)\n      0x08c379a000000000000000000000000000000000000000000000000000000000\n      dup2\n      mstore\n      0x04\n      add\n      tag_114\n      swap1\n      tag_57\n      jump\t// in\n    tag_114:\n      mload(0x40)\n      dup1\n      swap2\n      sub\n      swap1\n      revert\n    tag_113:\n        /* \"PoT.sol\":1881:1895  routeIdHistory */\n      0x05\n        /* \"PoT.sol\":1901:1958  pastRouteConfig(newRouteId,newEgressEdge,block.timestamp) */\n      mload(0x40)\n      dup1\n      0x60\n      add\n      0x40\n      mstore\n      dup1\n        /* \"PoT.sol\":1917:1927  newRouteId */\n      dup7\n        /* \"PoT.sol\":1901:1958  pastRouteConfig(newRouteId,newEgressEdge,block.timestamp) */\n      dup2\n      mstore\n      0x20\n      add\n        /* \"PoT.sol\":1928:1941  newEgressEdge */\n      dup6\n        /* \"PoT.sol\":1901:1958  pastRouteConfig(newRouteId,newEgressEdge,block.timestamp) */\n      0xffffffffffffffffffffffffffffffffffffffff\n      and\n      dup2\n      mstore\n      0x20\n      add\n        /* \"PoT.sol\":1942:1957  block.timestamp */\n      timestamp\n        /* \"PoT.sol\":1901:1958  pastRouteConfig(newRouteId,newEgressEdge,block.timestamp) */\n      dup2\n      mstore\n      pop\n        /* \"PoT.sol\":1881:1959  routeIdHistory.push(pastRouteConfig(newRouteId,newEgressEdge,block.timestamp)) */\n      swap1\n      dup1\n      0x01\n      dup2\n      sload\n      add\n      dup1\n      dup3\n      sstore\n      dup1\n      swap2\n      pop\n      pop\n      0x01\n      swap1\n      sub\n      swap1\n      0x00\n      mstore\n      keccak256(0x00, 0x20)\n      swap1\n      0x03\n      mul\n      add\n      0x00\n      swap1\n      swap2\n      swap1\n      swap2\n      swap1\n      swap2\n      pop\n      0x00\n      dup3\n      add\n      mload\n      dup2\n      0x00\n      add\n      swap1\n      dup2\n      tag_117\n      swap2\n      swap1\n      tag_106\n      jump\t// in\n    tag_117:\n      pop\n      0x20\n      dup3\n      add\n      mload\n      dup2\n      0x01\n      add\n      exp(0x0100, 0x00)\n      dup2\n      sload\n      dup2\n      0xffffffffffffffffffffffffffffffffffffffff\n      mul\n      not\n      and\n      swap1\n      dup4\n      0xffffffffffffffffffffffffffffffffffffffff\n      and\n      mul\n      or\n      swap1\n      sstore\n      pop\n      0x40\n      dup3\n      add\n      mload\n      dup2\n      0x02\n      add\n      sstore\n      pop\n      pop\n        /* \"PoT.sol\":1987:1997  newRouteId */\n      dup4\n        /* \"PoT.sol\":1969:1984  current_routeID */\n      0x02\n        /* \"PoT.sol\":1969:1997  current_routeID = newRouteId */\n      swap1\n      dup2\n      tag_118\n      swap2\n      swap1\n      tag_106\n      jump\t// in\n    tag_118:\n      pop\n        /* \"PoT.sol\":2021:2034  newEgressEdge */\n      dup3\n        /* \"PoT.sol\":2007:2018  egress_edge */\n      0x01\n      0x00\n        /* \"PoT.sol\":2007:2034  egress_edge = newEgressEdge */\n      0x0100\n      exp\n      dup2\n      sload\n      dup2\n      0xffffffffffffffffffffffffffffffffffffffff\n      mul\n      not\n      and\n      swap1\n      dup4\n      0xffffffffffffffffffffffffffffffffffffffff\n      and\n      mul\n      or\n      swap1\n      sstore\n      pop\n        /* \"PoT.sol\":1735:2041  function changeRouteIdAndEgressEdge(string memory newRouteId,address newEgressEdge, address senderAddr) public isController(senderAddr) {... */\n      pop\n      pop\n      pop\n      pop\n      jump\t// out\n        /* \"PoT.sol\":277:330  mapping(string => logStructure) public route_id_audit */\n    tag_47:\n      0x04\n      dup2\n      dup1\n      mload\n      0x20\n      dup2\n      add\n      dup3\n      add\n      dup1\n      mload\n      dup5\n      dup3\n      mstore\n      0x20\n      dup4\n      add\n      0x20\n      dup6\n      add\n      keccak256\n      dup2\n      dup4\n      mstore\n      dup1\n      swap6\n      pop\n      pop\n      pop\n      pop\n      pop\n      pop\n      0x00\n      swap2\n      pop\n      swap1\n      pop\n      dup1\n      0x00\n      add\n      sload\n      swap1\n      dup1\n      0x01\n      add\n      sload\n      swap1\n      dup1\n      0x02\n      add\n      sload\n      swap1\n      pop\n      dup4\n      jump\t// out\n        /* \"PoT.sol\":2777:3011  function getCompliance() public view returns (uint,uint,uint) {... */\n    tag_51:\n        /* \"PoT.sol\":2823:2827  uint */\n      0x00\n        /* \"PoT.sol\":2828:2832  uint */\n      0x00\n        /* \"PoT.sol\":2833:2837  uint */\n      0x00\n        /* \"PoT.sol\":2857:2871  route_id_audit */\n      0x04\n        /* \"PoT.sol\":2872:2887  current_routeID */\n      0x02\n        /* \"PoT.sol\":2857:2888  route_id_audit[current_routeID] */\n      mload(0x40)\n      tag_120\n      swap2\n      swap1\n      tag_83\n      jump\t// in\n    tag_120:\n      swap1\n      dup2\n      mstore\n      0x20\n      add\n      mload(0x40)\n      dup1\n      swap2\n      sub\n      swap1\n      keccak256\n        /* \"PoT.sol\":2857:2907  route_id_audit[current_routeID].probeSuccessAmount */\n      0x02\n      add\n      sload\n        /* \"PoT.sol\":2908:2922  route_id_audit */\n      0x04\n        /* \"PoT.sol\":2923:2938  current_routeID */\n      0x02\n        /* \"PoT.sol\":2908:2939  route_id_audit[current_routeID] */\n      mload(0x40)\n      tag_121\n      swap2\n      swap1\n      tag_83\n      jump\t// in\n    tag_121:\n      swap1\n      dup2\n      mstore\n      0x20\n      add\n      mload(0x40)\n      dup1\n      swap2\n      sub\n      swap1\n      keccak256\n        /* \"PoT.sol\":2908:2955  route_id_audit[current_routeID].probeFailAmount */\n      0x00\n      add\n      sload\n        /* \"PoT.sol\":2956:2970  route_id_audit */\n      0x04\n        /* \"PoT.sol\":2971:2986  current_routeID */\n      0x02\n        /* \"PoT.sol\":2956:2987  route_id_audit[current_routeID] */\n      mload(0x40)\n      tag_122\n      swap2\n      swap1\n      tag_83\n      jump\t// in\n    tag_122:\n      swap1\n      dup2\n      mstore\n      0x20\n      add\n      mload(0x40)\n      dup1\n      swap2\n      sub\n      swap1\n      keccak256\n        /* \"PoT.sol\":2956:3003  route_id_audit[current_routeID].probeNullAmount */\n      0x01\n      add\n      sload\n        /* \"PoT.sol\":2849:3004  return (route_id_audit[current_routeID].probeSuccessAmount,route_id_audit[current_routeID].probeFailAmount,route_id_audit[current_routeID].probeNullAmount) */\n      swap3\n      pop\n      swap3\n      pop\n      swap3\n      pop\n        /* \"PoT.sol\":2777:3011  function getCompliance() public view returns (uint,uint,uint) {... */\n      swap1\n      swap2\n      swap3\n      jump\t// out\n        /* \"PoT.sol\":3042:3223  function compareStrings(string memory a, string memory b) internal pure returns (bool) {... */\n    tag_80:\n        /* \"PoT.sol\":3123:3127  bool */\n      0x00\n        /* \"PoT.sol\":3211:3212  b */\n      dup2\n        /* \"PoT.sol\":3193:3214  abi.encodePacked((b)) */\n      add(0x20, mload(0x40))\n      tag_124\n      swap2\n      swap1\n      tag_74\n      jump\t// in\n    tag_124:\n      mload(0x40)\n      0x20\n      dup2\n      dup4\n      sub\n      sub\n      dup2\n      mstore\n      swap1\n      0x40\n      mstore\n        /* \"PoT.sol\":3183:3215  keccak256(abi.encodePacked((b))) */\n      dup1\n      mload\n      swap1\n      0x20\n      add\n      keccak256\n        /* \"PoT.sol\":3175:3176  a */\n      dup4\n        /* \"PoT.sol\":3157:3178  abi.encodePacked((a)) */\n      add(0x20, mload(0x40))\n      tag_125\n      swap2\n      swap1\n      tag_74\n      jump\t// in\n    tag_125:\n      mload(0x40)\n      0x20\n      dup2\n      dup4\n      sub\n      sub\n      dup2\n      mstore\n      swap1\n      0x40\n      mstore\n        /* \"PoT.sol\":3147:3179  keccak256(abi.encodePacked((a))) */\n      dup1\n      mload\n      swap1\n      0x20\n      add\n      keccak256\n        /* \"PoT.sol\":3147:3215  keccak256(abi.encodePacked((a))) == keccak256(abi.encodePacked((b))) */\n      eq\n        /* \"PoT.sol\":3139:3216  return (keccak256(abi.encodePacked((a))) == keccak256(abi.encodePacked((b)))) */\n      swap1\n      pop\n        /* \"PoT.sol\":3042:3223  function compareStrings(string memory a, string memory b) internal pure returns (bool) {... */\n      swap3\n      swap2\n      pop\n      pop\n      jump\t// out\n        /* \"#utility.yul\":7:133   */\n    tag_126:\n        /* \"#utility.yul\":44:51   */\n      0x00\n        /* \"#utility.yul\":84:126   */\n      0xffffffffffffffffffffffffffffffffffffffff\n        /* \"#utility.yul\":77:82   */\n      dup3\n        /* \"#utility.yul\":73:127   */\n      and\n        /* \"#utility.yul\":62:127   */\n      swap1\n      pop\n        /* \"#utility.yul\":7:133   */\n      swap2\n      swap1\n      pop\n      jump\t// out\n        /* \"#utility.yul\":139:235   */\n    tag_127:\n        /* \"#utility.yul\":176:183   */\n      0x00\n        /* \"#utility.yul\":205:229   */\n      tag_179\n        /* \"#utility.yul\":223:228   */\n      dup3\n        /* \"#utility.yul\":205:229   */\n      tag_126\n      jump\t// in\n    tag_179:\n        /* \"#utility.yul\":194:229   */\n      swap1\n      pop\n        /* \"#utility.yul\":139:235   */\n      swap2\n      swap1\n      pop\n      jump\t// out\n        /* \"#utility.yul\":241:359   */\n    tag_128:\n        /* \"#utility.yul\":328:352   */\n      tag_181\n        /* \"#utility.yul\":346:351   */\n      dup2\n        /* \"#utility.yul\":328:352   */\n      tag_127\n      jump\t// in\n    tag_181:\n        /* \"#utility.yul\":323:326   */\n      dup3\n        /* \"#utility.yul\":316:353   */\n      mstore\n        /* \"#utility.yul\":241:359   */\n      pop\n      pop\n      jump\t// out\n        /* \"#utility.yul\":365:587   */\n    tag_16:\n        /* \"#utility.yul\":458:462   */\n      0x00\n        /* \"#utility.yul\":496:498   */\n      0x20\n        /* \"#utility.yul\":485:494   */\n      dup3\n        /* \"#utility.yul\":481:499   */\n      add\n        /* \"#utility.yul\":473:499   */\n      swap1\n      pop\n        /* \"#utility.yul\":509:580   */\n      tag_183\n        /* \"#utility.yul\":577:578   */\n      0x00\n        /* \"#utility.yul\":566:575   */\n      dup4\n        /* \"#utility.yul\":562:579   */\n      add\n        /* \"#utility.yul\":553:559   */\n      dup5\n        /* \"#utility.yul\":509:580   */\n      tag_128\n      jump\t// in\n    tag_183:\n        /* \"#utility.yul\":365:587   */\n      swap3\n      swap2\n      pop\n      pop\n      jump\t// out\n        /* \"#utility.yul\":593:668   */\n    tag_129:\n        /* \"#utility.yul\":626:632   */\n      0x00\n        /* \"#utility.yul\":659:661   */\n      0x40\n        /* \"#utility.yul\":653:662   */\n      mload\n        /* \"#utility.yul\":643:662   */\n      swap1\n      pop\n        /* \"#utility.yul\":593:668   */\n      swap1\n      jump\t// out\n        /* \"#utility.yul\":674:791   */\n    tag_130:\n        /* \"#utility.yul\":783:784   */\n      0x00\n        /* \"#utility.yul\":780:781   */\n      0x00\n        /* \"#utility.yul\":773:785   */\n      revert\n        /* \"#utility.yul\":797:914   */\n    tag_131:\n        /* \"#utility.yul\":906:907   */\n      0x00\n        /* \"#utility.yul\":903:904   */\n      0x00\n        /* \"#utility.yul\":896:908   */\n      revert\n        /* \"#utility.yul\":920:1042   */\n    tag_132:\n        /* \"#utility.yul\":993:1017   */\n      tag_188\n        /* \"#utility.yul\":1011:1016   */\n      dup2\n        /* \"#utility.yul\":993:1017   */\n      tag_127\n      jump\t// in\n    tag_188:\n        /* \"#utility.yul\":986:991   */\n      dup2\n        /* \"#utility.yul\":983:1018   */\n      eq\n        /* \"#utility.yul\":973:1036   */\n      tag_189\n      jumpi\n        /* \"#utility.yul\":1032:1033   */\n      0x00\n        /* \"#utility.yul\":1029:1030   */\n      0x00\n        /* \"#utility.yul\":1022:1034   */\n      revert\n        /* \"#utility.yul\":973:1036   */\n    tag_189:\n        /* \"#utility.yul\":920:1042   */\n      pop\n      jump\t// out\n        /* \"#utility.yul\":1048:1187   */\n    tag_133:\n        /* \"#utility.yul\":1094:1099   */\n      0x00\n        /* \"#utility.yul\":1132:1138   */\n      dup2\n        /* \"#utility.yul\":1119:1139   */\n      calldataload\n        /* \"#utility.yul\":1110:1139   */\n      swap1\n      pop\n        /* \"#utility.yul\":1148:1181   */\n      tag_191\n        /* \"#utility.yul\":1175:1180   */\n      dup2\n        /* \"#utility.yul\":1148:1181   */\n      tag_132\n      jump\t// in\n    tag_191:\n        /* \"#utility.yul\":1048:1187   */\n      swap3\n      swap2\n      pop\n      pop\n      jump\t// out\n        /* \"#utility.yul\":1193:1667   */\n    tag_19:\n        /* \"#utility.yul\":1261:1267   */\n      0x00\n        /* \"#utility.yul\":1269:1275   */\n      0x00\n        /* \"#utility.yul\":1318:1320   */\n      0x40\n        /* \"#utility.yul\":1306:1315   */\n      dup4\n        /* \"#utility.yul\":1297:1304   */\n      dup6\n        /* \"#utility.yul\":1293:1316   */\n      sub\n        /* \"#utility.yul\":1289:1321   */\n      slt\n        /* \"#utility.yul\":1286:1405   */\n      iszero\n      tag_193\n      jumpi\n        /* \"#utility.yul\":1324:1403   */\n      tag_194\n      tag_130\n      jump\t// in\n    tag_194:\n        /* \"#utility.yul\":1286:1405   */\n    tag_193:\n        /* \"#utility.yul\":1444:1445   */\n      0x00\n        /* \"#utility.yul\":1469:1522   */\n      tag_195\n        /* \"#utility.yul\":1514:1521   */\n      dup6\n        /* \"#utility.yul\":1505:1511   */\n      dup3\n        /* \"#utility.yul\":1494:1503   */\n      dup7\n        /* \"#utility.yul\":1490:1512   */\n      add\n        /* \"#utility.yul\":1469:1522   */\n      tag_133\n      jump\t// in\n    tag_195:\n        /* \"#utility.yul\":1459:1522   */\n      swap3\n      pop\n        /* \"#utility.yul\":1415:1532   */\n      pop\n        /* \"#utility.yul\":1571:1573   */\n      0x20\n        /* \"#utility.yul\":1597:1650   */\n      tag_196\n        /* \"#utility.yul\":1642:1649   */\n      dup6\n        /* \"#utility.yul\":1633:1639   */\n      dup3\n        /* \"#utility.yul\":1622:1631   */\n      dup7\n        /* \"#utility.yul\":1618:1640   */\n      add\n        /* \"#utility.yul\":1597:1650   */\n      tag_133\n      jump\t// in\n    tag_196:\n        /* \"#utility.yul\":1587:1650   */\n      swap2\n      pop\n        /* \"#utility.yul\":1542:1660   */\n      pop\n        /* \"#utility.yul\":1193:1667   */\n      swap3\n      pop\n      swap3\n      swap1\n      pop\n      jump\t// out\n        /* \"#utility.yul\":1673:1750   */\n    tag_134:\n        /* \"#utility.yul\":1710:1717   */\n      0x00\n        /* \"#utility.yul\":1739:1744   */\n      dup2\n        /* \"#utility.yul\":1728:1744   */\n      swap1\n      pop\n        /* \"#utility.yul\":1673:1750   */\n      swap2\n      swap1\n      pop\n      jump\t// out\n        /* \"#utility.yul\":1756:1878   */\n    tag_135:\n        /* \"#utility.yul\":1829:1853   */\n      tag_199\n        /* \"#utility.yul\":1847:1852   */\n      dup2\n        /* \"#utility.yul\":1829:1853   */\n      tag_134\n      jump\t// in\n    tag_199:\n        /* \"#utility.yul\":1822:1827   */\n      dup2\n        /* \"#utility.yul\":1819:1854   */\n      eq\n        /* \"#utility.yul\":1809:1872   */\n      tag_200\n      jumpi\n        /* \"#utility.yul\":1868:1869   */\n      0x00\n        /* \"#utility.yul\":1865:1866   */\n      0x00\n        /* \"#utility.yul\":1858:1870   */\n      revert\n        /* \"#utility.yul\":1809:1872   */\n    tag_200:\n        /* \"#utility.yul\":1756:1878   */\n      pop\n      jump\t// out\n        /* \"#utility.yul\":1884:2023   */\n    tag_136:\n        /* \"#utility.yul\":1930:1935   */\n      0x00\n        /* \"#utility.yul\":1968:1974   */\n      dup2\n        /* \"#utility.yul\":1955:1975   */\n      calldataload\n        /* \"#utility.yul\":1946:1975   */\n      swap1\n      pop\n        /* \"#utility.yul\":1984:2017   */\n      tag_202\n        /* \"#utility.yul\":2011:2016   */\n      dup2\n        /* \"#utility.yul\":1984:2017   */\n      tag_135\n      jump\t// in\n    tag_202:\n        /* \"#utility.yul\":1884:2023   */\n      swap3\n      swap2\n      pop\n      pop\n      jump\t// out\n        /* \"#utility.yul\":2029:2358   */\n    tag_23:\n        /* \"#utility.yul\":2088:2094   */\n      0x00\n        /* \"#utility.yul\":2137:2139   */\n      0x20\n        /* \"#utility.yul\":2125:2134   */\n      dup3\n        /* \"#utility.yul\":2116:2123   */\n      dup5\n        /* \"#utility.yul\":2112:2135   */\n      sub\n        /* \"#utility.yul\":2108:2140   */\n      slt\n        /* \"#utility.yul\":2105:2224   */\n      iszero\n      tag_204\n      jumpi\n        /* \"#utility.yul\":2143:2222   */\n      tag_205\n      tag_130\n      jump\t// in\n    tag_205:\n        /* \"#utility.yul\":2105:2224   */\n    tag_204:\n        /* \"#utility.yul\":2263:2264   */\n      0x00\n        /* \"#utility.yul\":2288:2341   */\n      tag_206\n        /* \"#utility.yul\":2333:2340   */\n      dup5\n        /* \"#utility.yul\":2324:2330   */\n      dup3\n        /* \"#utility.yul\":2313:2322   */\n      dup6\n        /* \"#utility.yul\":2309:2331   */\n      add\n        /* \"#utility.yul\":2288:2341   */\n      tag_136\n      jump\t// in\n    tag_206:\n        /* \"#utility.yul\":2278:2341   */\n      swap2\n      pop\n        /* \"#utility.yul\":2234:2351   */\n      pop\n        /* \"#utility.yul\":2029:2358   */\n      swap3\n      swap2\n      pop\n      pop\n      jump\t// out\n        /* \"#utility.yul\":2364:2463   */\n    tag_137:\n        /* \"#utility.yul\":2416:2422   */\n      0x00\n        /* \"#utility.yul\":2450:2455   */\n      dup2\n        /* \"#utility.yul\":2444:2456   */\n      mload\n        /* \"#utility.yul\":2434:2456   */\n      swap1\n      pop\n        /* \"#utility.yul\":2364:2463   */\n      swap2\n      swap1\n      pop\n      jump\t// out\n        /* \"#utility.yul\":2469:2638   */\n    tag_138:\n        /* \"#utility.yul\":2553:2564   */\n      0x00\n        /* \"#utility.yul\":2587:2593   */\n      dup3\n        /* \"#utility.yul\":2582:2585   */\n      dup3\n        /* \"#utility.yul\":2575:2594   */\n      mstore\n        /* \"#utility.yul\":2627:2631   */\n      0x20\n        /* \"#utility.yul\":2622:2625   */\n      dup3\n        /* \"#utility.yul\":2618:2632   */\n      add\n        /* \"#utility.yul\":2603:2632   */\n      swap1\n      pop\n        /* \"#utility.yul\":2469:2638   */\n      swap3\n      swap2\n      pop\n      pop\n      jump\t// out\n        /* \"#utility.yul\":2644:2783   */\n    tag_139:\n        /* \"#utility.yul\":2733:2739   */\n      dup3\n        /* \"#utility.yul\":2728:2731   */\n      dup2\n        /* \"#utility.yul\":2723:2726   */\n      dup4\n        /* \"#utility.yul\":2717:2740   */\n      mcopy\n        /* \"#utility.yul\":2774:2775   */\n      0x00\n        /* \"#utility.yul\":2765:2771   */\n      dup4\n        /* \"#utility.yul\":2760:2763   */\n      dup4\n        /* \"#utility.yul\":2756:2772   */\n      add\n        /* \"#utility.yul\":2749:2776   */\n      mstore\n        /* \"#utility.yul\":2644:2783   */\n      pop\n      pop\n      pop\n      jump\t// out\n        /* \"#utility.yul\":2789:2891   */\n    tag_140:\n        /* \"#utility.yul\":2830:2836   */\n      0x00\n        /* \"#utility.yul\":2881:2883   */\n      0x1f\n        /* \"#utility.yul\":2877:2884   */\n      not\n        /* \"#utility.yul\":2872:2874   */\n      0x1f\n        /* \"#utility.yul\":2865:2870   */\n      dup4\n        /* \"#utility.yul\":2861:2875   */\n      add\n        /* \"#utility.yul\":2857:2885   */\n      and\n        /* \"#utility.yul\":2847:2885   */\n      swap1\n      pop\n        /* \"#utility.yul\":2789:2891   */\n      swap2\n      swap1\n      pop\n      jump\t// out\n        /* \"#utility.yul\":2897:3274   */\n    tag_141:\n        /* \"#utility.yul\":2985:2988   */\n      0x00\n        /* \"#utility.yul\":3013:3052   */\n      tag_212\n        /* \"#utility.yul\":3046:3051   */\n      dup3\n        /* \"#utility.yul\":3013:3052   */\n      tag_137\n      jump\t// in\n    tag_212:\n        /* \"#utility.yul\":3068:3139   */\n      tag_213\n        /* \"#utility.yul\":3132:3138   */\n      dup2\n        /* \"#utility.yul\":3127:3130   */\n      dup6\n        /* \"#utility.yul\":3068:3139   */\n      tag_138\n      jump\t// in\n    tag_213:\n        /* \"#utility.yul\":3061:3139   */\n      swap4\n      pop\n        /* \"#utility.yul\":3148:3213   */\n      tag_214\n        /* \"#utility.yul\":3206:3212   */\n      dup2\n        /* \"#utility.yul\":3201:3204   */\n      dup6\n        /* \"#utility.yul\":3194:3198   */\n      0x20\n        /* \"#utility.yul\":3187:3192   */\n      dup7\n        /* \"#utility.yul\":3183:3199   */\n      add\n        /* \"#utility.yul\":3148:3213   */\n      tag_139\n      jump\t// in\n    tag_214:\n        /* \"#utility.yul\":3238:3267   */\n      tag_215\n        /* \"#utility.yul\":3260:3266   */\n      dup2\n        /* \"#utility.yul\":3238:3267   */\n      tag_140\n      jump\t// in\n    tag_215:\n        /* \"#utility.yul\":3233:3236   */\n      dup5\n        /* \"#utility.yul\":3229:3268   */\n      add\n        /* \"#utility.yul\":3222:3268   */\n      swap2\n      pop\n        /* \"#utility.yul\":2989:3274   */\n      pop\n        /* \"#utility.yul\":2897:3274   */\n      swap3\n      swap2\n      pop\n      pop\n      jump\t// out\n        /* \"#utility.yul\":3280:3398   */\n    tag_142:\n        /* \"#utility.yul\":3367:3391   */\n      tag_217\n        /* \"#utility.yul\":3385:3390   */\n      dup2\n        /* \"#utility.yul\":3367:3391   */\n      tag_134\n      jump\t// in\n    tag_217:\n        /* \"#utility.yul\":3362:3365   */\n      dup3\n        /* \"#utility.yul\":3355:3392   */\n      mstore\n        /* \"#utility.yul\":3280:3398   */\n      pop\n      pop\n      jump\t// out\n        /* \"#utility.yul\":3404:3937   */\n    tag_26:\n        /* \"#utility.yul\":3573:3577   */\n      0x00\n        /* \"#utility.yul\":3611:3613   */\n      0x60\n        /* \"#utility.yul\":3600:3609   */\n      dup3\n        /* \"#utility.yul\":3596:3614   */\n      add\n        /* \"#utility.yul\":3588:3614   */\n      swap1\n      pop\n        /* \"#utility.yul\":3660:3669   */\n      dup2\n        /* \"#utility.yul\":3654:3658   */\n      dup2\n        /* \"#utility.yul\":3650:3670   */\n      sub\n        /* \"#utility.yul\":3646:3647   */\n      0x00\n        /* \"#utility.yul\":3635:3644   */\n      dup4\n        /* \"#utility.yul\":3631:3648   */\n      add\n        /* \"#utility.yul\":3624:3671   */\n      mstore\n        /* \"#utility.yul\":3688:3766   */\n      tag_219\n        /* \"#utility.yul\":3761:3765   */\n      dup2\n        /* \"#utility.yul\":3752:3758   */\n      dup7\n        /* \"#utility.yul\":3688:3766   */\n      tag_141\n      jump\t// in\n    tag_219:\n        /* \"#utility.yul\":3680:3766   */\n      swap1\n      pop\n        /* \"#utility.yul\":3776:3848   */\n      tag_220\n        /* \"#utility.yul\":3844:3846   */\n      0x20\n        /* \"#utility.yul\":3833:3842   */\n      dup4\n        /* \"#utility.yul\":3829:3847   */\n      add\n        /* \"#utility.yul\":3820:3826   */\n      dup6\n        /* \"#utility.yul\":3776:3848   */\n      tag_128\n      jump\t// in\n    tag_220:\n        /* \"#utility.yul\":3858:3930   */\n      tag_221\n        /* \"#utility.yul\":3926:3928   */\n      0x40\n        /* \"#utility.yul\":3915:3924   */\n      dup4\n        /* \"#utility.yul\":3911:3929   */\n      add\n        /* \"#utility.yul\":3902:3908   */\n      dup5\n        /* \"#utility.yul\":3858:3930   */\n      tag_142\n      jump\t// in\n    tag_221:\n        /* \"#utility.yul\":3404:3937   */\n      swap5\n      swap4\n      pop\n      pop\n      pop\n      pop\n      jump\t// out\n        /* \"#utility.yul\":3943:4060   */\n    tag_143:\n        /* \"#utility.yul\":4052:4053   */\n      0x00\n        /* \"#utility.yul\":4049:4050   */\n      0x00\n        /* \"#utility.yul\":4042:4054   */\n      revert\n        /* \"#utility.yul\":4066:4183   */\n    tag_144:\n        /* \"#utility.yul\":4175:4176   */\n      0x00\n        /* \"#utility.yul\":4172:4173   */\n      0x00\n        /* \"#utility.yul\":4165:4177   */\n      revert\n        /* \"#utility.yul\":4189:4369   */\n    tag_145:\n        /* \"#utility.yul\":4237:4314   */\n      0x4e487b7100000000000000000000000000000000000000000000000000000000\n        /* \"#utility.yul\":4234:4235   */\n      0x00\n        /* \"#utility.yul\":4227:4315   */\n      mstore\n        /* \"#utility.yul\":4334:4338   */\n      0x41\n        /* \"#utility.yul\":4331:4332   */\n      0x04\n        /* \"#utility.yul\":4324:4339   */\n      mstore\n        /* \"#utility.yul\":4358:4362   */\n      0x24\n        /* \"#utility.yul\":4355:4356   */\n      0x00\n        /* \"#utility.yul\":4348:4363   */\n      revert\n        /* \"#utility.yul\":4375:4656   */\n    tag_146:\n        /* \"#utility.yul\":4458:4485   */\n      tag_226\n        /* \"#utility.yul\":4480:4484   */\n      dup3\n        /* \"#utility.yul\":4458:4485   */\n      tag_140\n      jump\t// in\n    tag_226:\n        /* \"#utility.yul\":4450:4456   */\n      dup2\n        /* \"#utility.yul\":4446:4486   */\n      add\n        /* \"#utility.yul\":4588:4594   */\n      dup2\n        /* \"#utility.yul\":4576:4586   */\n      dup2\n        /* \"#utility.yul\":4573:4595   */\n      lt\n        /* \"#utility.yul\":4552:4570   */\n      0xffffffffffffffff\n        /* \"#utility.yul\":4540:4550   */\n      dup3\n        /* \"#utility.yul\":4537:4571   */\n      gt\n        /* \"#utility.yul\":4534:4596   */\n      or\n        /* \"#utility.yul\":4531:4619   */\n      iszero\n      tag_227\n      jumpi\n        /* \"#utility.yul\":4599:4617   */\n      tag_228\n      tag_145\n      jump\t// in\n    tag_228:\n        /* \"#utility.yul\":4531:4619   */\n    tag_227:\n        /* \"#utility.yul\":4639:4649   */\n      dup1\n        /* \"#utility.yul\":4635:4637   */\n      0x40\n        /* \"#utility.yul\":4628:4650   */\n      mstore\n        /* \"#utility.yul\":4418:4656   */\n      pop\n        /* \"#utility.yul\":4375:4656   */\n      pop\n      pop\n      jump\t// out\n        /* \"#utility.yul\":4662:4791   */\n    tag_147:\n        /* \"#utility.yul\":4696:4702   */\n      0x00\n        /* \"#utility.yul\":4723:4743   */\n      tag_230\n      tag_129\n      jump\t// in\n    tag_230:\n        /* \"#utility.yul\":4713:4743   */\n      swap1\n      pop\n        /* \"#utility.yul\":4752:4785   */\n      tag_231\n        /* \"#utility.yul\":4780:4784   */\n      dup3\n        /* \"#utility.yul\":4772:4778   */\n      dup3\n        /* \"#utility.yul\":4752:4785   */\n      tag_146\n      jump\t// in\n    tag_231:\n        /* \"#utility.yul\":4662:4791   */\n      swap2\n      swap1\n      pop\n      jump\t// out\n        /* \"#utility.yul\":4797:5105   */\n    tag_148:\n        /* \"#utility.yul\":4859:4863   */\n      0x00\n        /* \"#utility.yul\":4949:4967   */\n      0xffffffffffffffff\n        /* \"#utility.yul\":4941:4947   */\n      dup3\n        /* \"#utility.yul\":4938:4968   */\n      gt\n        /* \"#utility.yul\":4935:4991   */\n      iszero\n      tag_233\n      jumpi\n        /* \"#utility.yul\":4971:4989   */\n      tag_234\n      tag_145\n      jump\t// in\n    tag_234:\n        /* \"#utility.yul\":4935:4991   */\n    tag_233:\n        /* \"#utility.yul\":5009:5038   */\n      tag_235\n        /* \"#utility.yul\":5031:5037   */\n      dup3\n        /* \"#utility.yul\":5009:5038   */\n      tag_140\n      jump\t// in\n    tag_235:\n        /* \"#utility.yul\":5001:5038   */\n      swap1\n      pop\n        /* \"#utility.yul\":5093:5097   */\n      0x20\n        /* \"#utility.yul\":5087:5091   */\n      dup2\n        /* \"#utility.yul\":5083:5098   */\n      add\n        /* \"#utility.yul\":5075:5098   */\n      swap1\n      pop\n        /* \"#utility.yul\":4797:5105   */\n      swap2\n      swap1\n      pop\n      jump\t// out\n        /* \"#utility.yul\":5111:5259   */\n    tag_149:\n        /* \"#utility.yul\":5209:5215   */\n      dup3\n        /* \"#utility.yul\":5204:5207   */\n      dup2\n        /* \"#utility.yul\":5199:5202   */\n      dup4\n        /* \"#utility.yul\":5186:5216   */\n      calldatacopy\n        /* \"#utility.yul\":5250:5251   */\n      0x00\n        /* \"#utility.yul\":5241:5247   */\n      dup4\n        /* \"#utility.yul\":5236:5239   */\n      dup4\n        /* \"#utility.yul\":5232:5248   */\n      add\n        /* \"#utility.yul\":5225:5252   */\n      mstore\n        /* \"#utility.yul\":5111:5259   */\n      pop\n      pop\n      pop\n      jump\t// out\n        /* \"#utility.yul\":5265:5690   */\n    tag_150:\n        /* \"#utility.yul\":5343:5348   */\n      0x00\n        /* \"#utility.yul\":5368:5434   */\n      tag_238\n        /* \"#utility.yul\":5384:5433   */\n      tag_239\n        /* \"#utility.yul\":5426:5432   */\n      dup5\n        /* \"#utility.yul\":5384:5433   */\n      tag_148\n      jump\t// in\n    tag_239:\n        /* \"#utility.yul\":5368:5434   */\n      tag_147\n      jump\t// in\n    tag_238:\n        /* \"#utility.yul\":5359:5434   */\n      swap1\n      pop\n        /* \"#utility.yul\":5457:5463   */\n      dup3\n        /* \"#utility.yul\":5450:5455   */\n      dup2\n        /* \"#utility.yul\":5443:5464   */\n      mstore\n        /* \"#utility.yul\":5495:5499   */\n      0x20\n        /* \"#utility.yul\":5488:5493   */\n      dup2\n        /* \"#utility.yul\":5484:5500   */\n      add\n        /* \"#utility.yul\":5533:5536   */\n      dup5\n        /* \"#utility.yul\":5524:5530   */\n      dup5\n        /* \"#utility.yul\":5519:5522   */\n      dup5\n        /* \"#utility.yul\":5515:5531   */\n      add\n        /* \"#utility.yul\":5512:5537   */\n      gt\n        /* \"#utility.yul\":5509:5621   */\n      iszero\n      tag_240\n      jumpi\n        /* \"#utility.yul\":5540:5619   */\n      tag_241\n      tag_144\n      jump\t// in\n    tag_241:\n        /* \"#utility.yul\":5509:5621   */\n    tag_240:\n        /* \"#utility.yul\":5630:5684   */\n      tag_242\n        /* \"#utility.yul\":5677:5683   */\n      dup5\n        /* \"#utility.yul\":5672:5675   */\n      dup3\n        /* \"#utility.yul\":5667:5670   */\n      dup6\n        /* \"#utility.yul\":5630:5684   */\n      tag_149\n      jump\t// in\n    tag_242:\n        /* \"#utility.yul\":5349:5690   */\n      pop\n        /* \"#utility.yul\":5265:5690   */\n      swap4\n      swap3\n      pop\n      pop\n      pop\n      jump\t// out\n        /* \"#utility.yul\":5710:6050   */\n    tag_151:\n        /* \"#utility.yul\":5766:5771   */\n      0x00\n        /* \"#utility.yul\":5815:5818   */\n      dup3\n        /* \"#utility.yul\":5808:5812   */\n      0x1f\n        /* \"#utility.yul\":5800:5806   */\n      dup4\n        /* \"#utility.yul\":5796:5813   */\n      add\n        /* \"#utility.yul\":5792:5819   */\n      slt\n        /* \"#utility.yul\":5782:5904   */\n      tag_244\n      jumpi\n        /* \"#utility.yul\":5823:5902   */\n      tag_245\n      tag_143\n      jump\t// in\n    tag_245:\n        /* \"#utility.yul\":5782:5904   */\n    tag_244:\n        /* \"#utility.yul\":5940:5946   */\n      dup2\n        /* \"#utility.yul\":5927:5947   */\n      calldataload\n        /* \"#utility.yul\":5965:6044   */\n      tag_246\n        /* \"#utility.yul\":6040:6043   */\n      dup5\n        /* \"#utility.yul\":6032:6038   */\n      dup3\n        /* \"#utility.yul\":6025:6029   */\n      0x20\n        /* \"#utility.yul\":6017:6023   */\n      dup7\n        /* \"#utility.yul\":6013:6030   */\n      add\n        /* \"#utility.yul\":5965:6044   */\n      tag_150\n      jump\t// in\n    tag_246:\n        /* \"#utility.yul\":5956:6044   */\n      swap2\n      pop\n        /* \"#utility.yul\":5772:6050   */\n      pop\n        /* \"#utility.yul\":5710:6050   */\n      swap3\n      swap2\n      pop\n      pop\n      jump\t// out\n        /* \"#utility.yul\":6056:6890   */\n    tag_29:\n        /* \"#utility.yul\":6144:6150   */\n      0x00\n        /* \"#utility.yul\":6152:6158   */\n      0x00\n        /* \"#utility.yul\":6201:6203   */\n      0x40\n        /* \"#utility.yul\":6189:6198   */\n      dup4\n        /* \"#utility.yul\":6180:6187   */\n      dup6\n        /* \"#utility.yul\":6176:6199   */\n      sub\n        /* \"#utility.yul\":6172:6204   */\n      slt\n        /* \"#utility.yul\":6169:6288   */\n      iszero\n      tag_248\n      jumpi\n        /* \"#utility.yul\":6207:6286   */\n      tag_249\n      tag_130\n      jump\t// in\n    tag_249:\n        /* \"#utility.yul\":6169:6288   */\n    tag_248:\n        /* \"#utility.yul\":6355:6356   */\n      0x00\n        /* \"#utility.yul\":6344:6353   */\n      dup4\n        /* \"#utility.yul\":6340:6357   */\n      add\n        /* \"#utility.yul\":6327:6358   */\n      calldataload\n        /* \"#utility.yul\":6385:6403   */\n      0xffffffffffffffff\n        /* \"#utility.yul\":6377:6383   */\n      dup2\n        /* \"#utility.yul\":6374:6404   */\n      gt\n        /* \"#utility.yul\":6371:6488   */\n      iszero\n      tag_250\n      jumpi\n        /* \"#utility.yul\":6407:6486   */\n      tag_251\n      tag_131\n      jump\t// in\n    tag_251:\n        /* \"#utility.yul\":6371:6488   */\n    tag_250:\n        /* \"#utility.yul\":6512:6575   */\n      tag_252\n        /* \"#utility.yul\":6567:6574   */\n      dup6\n        /* \"#utility.yul\":6558:6564   */\n      dup3\n        /* \"#utility.yul\":6547:6556   */\n      dup7\n        /* \"#utility.yul\":6543:6565   */\n      add\n        /* \"#utility.yul\":6512:6575   */\n      tag_151\n      jump\t// in\n    tag_252:\n        /* \"#utility.yul\":6502:6575   */\n      swap3\n      pop\n        /* \"#utility.yul\":6298:6585   */\n      pop\n        /* \"#utility.yul\":6652:6654   */\n      0x20\n        /* \"#utility.yul\":6641:6650   */\n      dup4\n        /* \"#utility.yul\":6637:6655   */\n      add\n        /* \"#utility.yul\":6624:6656   */\n      calldataload\n        /* \"#utility.yul\":6683:6701   */\n      0xffffffffffffffff\n        /* \"#utility.yul\":6675:6681   */\n      dup2\n        /* \"#utility.yul\":6672:6702   */\n      gt\n        /* \"#utility.yul\":6669:6786   */\n      iszero\n      tag_253\n      jumpi\n        /* \"#utility.yul\":6705:6784   */\n      tag_254\n      tag_131\n      jump\t// in\n    tag_254:\n        /* \"#utility.yul\":6669:6786   */\n    tag_253:\n        /* \"#utility.yul\":6810:6873   */\n      tag_255\n        /* \"#utility.yul\":6865:6872   */\n      dup6\n        /* \"#utility.yul\":6856:6862   */\n      dup3\n        /* \"#utility.yul\":6845:6854   */\n      dup7\n        /* \"#utility.yul\":6841:6863   */\n      add\n        /* \"#utility.yul\":6810:6873   */\n      tag_151\n      jump\t// in\n    tag_255:\n        /* \"#utility.yul\":6800:6873   */\n      swap2\n      pop\n        /* \"#utility.yul\":6595:6883   */\n      pop\n        /* \"#utility.yul\":6056:6890   */\n      swap3\n      pop\n      swap3\n      swap1\n      pop\n      jump\t// out\n        /* \"#utility.yul\":6896:7875   */\n    tag_33:\n        /* \"#utility.yul\":6993:6999   */\n      0x00\n        /* \"#utility.yul\":7001:7007   */\n      0x00\n        /* \"#utility.yul\":7009:7015   */\n      0x00\n        /* \"#utility.yul\":7058:7060   */\n      0x60\n        /* \"#utility.yul\":7046:7055   */\n      dup5\n        /* \"#utility.yul\":7037:7044   */\n      dup7\n        /* \"#utility.yul\":7033:7056   */\n      sub\n        /* \"#utility.yul\":7029:7061   */\n      slt\n        /* \"#utility.yul\":7026:7145   */\n      iszero\n      tag_257\n      jumpi\n        /* \"#utility.yul\":7064:7143   */\n      tag_258\n      tag_130\n      jump\t// in\n    tag_258:\n        /* \"#utility.yul\":7026:7145   */\n    tag_257:\n        /* \"#utility.yul\":7212:7213   */\n      0x00\n        /* \"#utility.yul\":7201:7210   */\n      dup5\n        /* \"#utility.yul\":7197:7214   */\n      add\n        /* \"#utility.yul\":7184:7215   */\n      calldataload\n        /* \"#utility.yul\":7242:7260   */\n      0xffffffffffffffff\n        /* \"#utility.yul\":7234:7240   */\n      dup2\n        /* \"#utility.yul\":7231:7261   */\n      gt\n        /* \"#utility.yul\":7228:7345   */\n      iszero\n      tag_259\n      jumpi\n        /* \"#utility.yul\":7264:7343   */\n      tag_260\n      tag_131\n      jump\t// in\n    tag_260:\n        /* \"#utility.yul\":7228:7345   */\n    tag_259:\n        /* \"#utility.yul\":7369:7432   */\n      tag_261\n        /* \"#utility.yul\":7424:7431   */\n      dup7\n        /* \"#utility.yul\":7415:7421   */\n      dup3\n        /* \"#utility.yul\":7404:7413   */\n      dup8\n        /* \"#utility.yul\":7400:7422   */\n      add\n        /* \"#utility.yul\":7369:7432   */\n      tag_151\n      jump\t// in\n    tag_261:\n        /* \"#utility.yul\":7359:7432   */\n      swap4\n      pop\n        /* \"#utility.yul\":7155:7442   */\n      pop\n        /* \"#utility.yul\":7509:7511   */\n      0x20\n        /* \"#utility.yul\":7498:7507   */\n      dup5\n        /* \"#utility.yul\":7494:7512   */\n      add\n        /* \"#utility.yul\":7481:7513   */\n      calldataload\n        /* \"#utility.yul\":7540:7558   */\n      0xffffffffffffffff\n        /* \"#utility.yul\":7532:7538   */\n      dup2\n        /* \"#utility.yul\":7529:7559   */\n      gt\n        /* \"#utility.yul\":7526:7643   */\n      iszero\n      tag_262\n      jumpi\n        /* \"#utility.yul\":7562:7641   */\n      tag_263\n      tag_131\n      jump\t// in\n    tag_263:\n        /* \"#utility.yul\":7526:7643   */\n    tag_262:\n        /* \"#utility.yul\":7667:7730   */\n      tag_264\n        /* \"#utility.yul\":7722:7729   */\n      dup7\n        /* \"#utility.yul\":7713:7719   */\n      dup3\n        /* \"#utility.yul\":7702:7711   */\n      dup8\n        /* \"#utility.yul\":7698:7720   */\n      add\n        /* \"#utility.yul\":7667:7730   */\n      tag_151\n      jump\t// in\n    tag_264:\n        /* \"#utility.yul\":7657:7730   */\n      swap3\n      pop\n        /* \"#utility.yul\":7452:7740   */\n      pop\n        /* \"#utility.yul\":7779:7781   */\n      0x40\n        /* \"#utility.yul\":7805:7858   */\n      tag_265\n        /* \"#utility.yul\":7850:7857   */\n      dup7\n        /* \"#utility.yul\":7841:7847   */\n      dup3\n        /* \"#utility.yul\":7830:7839   */\n      dup8\n        /* \"#utility.yul\":7826:7848   */\n      add\n        /* \"#utility.yul\":7805:7858   */\n      tag_133\n      jump\t// in\n    tag_265:\n        /* \"#utility.yul\":7795:7858   */\n      swap2\n      pop\n        /* \"#utility.yul\":7750:7868   */\n      pop\n        /* \"#utility.yul\":6896:7875   */\n      swap3\n      pop\n      swap3\n      pop\n      swap3\n      jump\t// out\n        /* \"#utility.yul\":7881:8390   */\n    tag_37:\n        /* \"#utility.yul\":7950:7956   */\n      0x00\n        /* \"#utility.yul\":7999:8001   */\n      0x20\n        /* \"#utility.yul\":7987:7996   */\n      dup3\n        /* \"#utility.yul\":7978:7985   */\n      dup5\n        /* \"#utility.yul\":7974:7997   */\n      sub\n        /* \"#utility.yul\":7970:8002   */\n      slt\n        /* \"#utility.yul\":7967:8086   */\n      iszero\n      tag_267\n      jumpi\n        /* \"#utility.yul\":8005:8084   */\n      tag_268\n      tag_130\n      jump\t// in\n    tag_268:\n        /* \"#utility.yul\":7967:8086   */\n    tag_267:\n        /* \"#utility.yul\":8153:8154   */\n      0x00\n        /* \"#utility.yul\":8142:8151   */\n      dup3\n        /* \"#utility.yul\":8138:8155   */\n      add\n        /* \"#utility.yul\":8125:8156   */\n      calldataload\n        /* \"#utility.yul\":8183:8201   */\n      0xffffffffffffffff\n        /* \"#utility.yul\":8175:8181   */\n      dup2\n        /* \"#utility.yul\":8172:8202   */\n      gt\n        /* \"#utility.yul\":8169:8286   */\n      iszero\n      tag_269\n      jumpi\n        /* \"#utility.yul\":8205:8284   */\n      tag_270\n      tag_131\n      jump\t// in\n    tag_270:\n        /* \"#utility.yul\":8169:8286   */\n    tag_269:\n        /* \"#utility.yul\":8310:8373   */\n      tag_271\n        /* \"#utility.yul\":8365:8372   */\n      dup5\n        /* \"#utility.yul\":8356:8362   */\n      dup3\n        /* \"#utility.yul\":8345:8354   */\n      dup6\n        /* \"#utility.yul\":8341:8363   */\n      add\n        /* \"#utility.yul\":8310:8373   */\n      tag_151\n      jump\t// in\n    tag_271:\n        /* \"#utility.yul\":8300:8373   */\n      swap2\n      pop\n        /* \"#utility.yul\":8096:8383   */\n      pop\n        /* \"#utility.yul\":7881:8390   */\n      swap3\n      swap2\n      pop\n      pop\n      jump\t// out\n        /* \"#utility.yul\":8396:8709   */\n    tag_40:\n        /* \"#utility.yul\":8509:8513   */\n      0x00\n        /* \"#utility.yul\":8547:8549   */\n      0x20\n        /* \"#utility.yul\":8536:8545   */\n      dup3\n        /* \"#utility.yul\":8532:8550   */\n      add\n        /* \"#utility.yul\":8524:8550   */\n      swap1\n      pop\n        /* \"#utility.yul\":8596:8605   */\n      dup2\n        /* \"#utility.yul\":8590:8594   */\n      dup2\n        /* \"#utility.yul\":8586:8606   */\n      sub\n        /* \"#utility.yul\":8582:8583   */\n      0x00\n        /* \"#utility.yul\":8571:8580   */\n      dup4\n        /* \"#utility.yul\":8567:8584   */\n      add\n        /* \"#utility.yul\":8560:8607   */\n      mstore\n        /* \"#utility.yul\":8624:8702   */\n      tag_273\n        /* \"#utility.yul\":8697:8701   */\n      dup2\n        /* \"#utility.yul\":8688:8694   */\n      dup5\n        /* \"#utility.yul\":8624:8702   */\n      tag_141\n      jump\t// in\n    tag_273:\n        /* \"#utility.yul\":8616:8702   */\n      swap1\n      pop\n        /* \"#utility.yul\":8396:8709   */\n      swap3\n      swap2\n      pop\n      pop\n      jump\t// out\n        /* \"#utility.yul\":8715:9514   */\n    tag_43:\n        /* \"#utility.yul\":8802:8808   */\n      0x00\n        /* \"#utility.yul\":8810:8816   */\n      0x00\n        /* \"#utility.yul\":8818:8824   */\n      0x00\n        /* \"#utility.yul\":8867:8869   */\n      0x60\n        /* \"#utility.yul\":8855:8864   */\n      dup5\n        /* \"#utility.yul\":8846:8853   */\n      dup7\n        /* \"#utility.yul\":8842:8865   */\n      sub\n        /* \"#utility.yul\":8838:8870   */\n      slt\n        /* \"#utility.yul\":8835:8954   */\n      iszero\n      tag_275\n      jumpi\n        /* \"#utility.yul\":8873:8952   */\n      tag_276\n      tag_130\n      jump\t// in\n    tag_276:\n        /* \"#utility.yul\":8835:8954   */\n    tag_275:\n        /* \"#utility.yul\":9021:9022   */\n      0x00\n        /* \"#utility.yul\":9010:9019   */\n      dup5\n        /* \"#utility.yul\":9006:9023   */\n      add\n        /* \"#utility.yul\":8993:9024   */\n      calldataload\n        /* \"#utility.yul\":9051:9069   */\n      0xffffffffffffffff\n        /* \"#utility.yul\":9043:9049   */\n      dup2\n        /* \"#utility.yul\":9040:9070   */\n      gt\n        /* \"#utility.yul\":9037:9154   */\n      iszero\n      tag_277\n      jumpi\n        /* \"#utility.yul\":9073:9152   */\n      tag_278\n      tag_131\n      jump\t// in\n    tag_278:\n        /* \"#utility.yul\":9037:9154   */\n    tag_277:\n        /* \"#utility.yul\":9178:9241   */\n      tag_279\n        /* \"#utility.yul\":9233:9240   */\n      dup7\n        /* \"#utility.yul\":9224:9230   */\n      dup3\n        /* \"#utility.yul\":9213:9222   */\n      dup8\n        /* \"#utility.yul\":9209:9231   */\n      add\n        /* \"#utility.yul\":9178:9241   */\n      tag_151\n      jump\t// in\n    tag_279:\n        /* \"#utility.yul\":9168:9241   */\n      swap4\n      pop\n        /* \"#utility.yul\":8964:9251   */\n      pop\n        /* \"#utility.yul\":9290:9292   */\n      0x20\n        /* \"#utility.yul\":9316:9369   */\n      tag_280\n        /* \"#utility.yul\":9361:9368   */\n      dup7\n        /* \"#utility.yul\":9352:9358   */\n      dup3\n        /* \"#utility.yul\":9341:9350   */\n      dup8\n        /* \"#utility.yul\":9337:9359   */\n      add\n        /* \"#utility.yul\":9316:9369   */\n      tag_133\n      jump\t// in\n    tag_280:\n        /* \"#utility.yul\":9306:9369   */\n      swap3\n      pop\n        /* \"#utility.yul\":9261:9379   */\n      pop\n        /* \"#utility.yul\":9418:9420   */\n      0x40\n        /* \"#utility.yul\":9444:9497   */\n      tag_281\n        /* \"#utility.yul\":9489:9496   */\n      dup7\n        /* \"#utility.yul\":9480:9486   */\n      dup3\n        /* \"#utility.yul\":9469:9478   */\n      dup8\n        /* \"#utility.yul\":9465:9487   */\n      add\n        /* \"#utility.yul\":9444:9497   */\n      tag_133\n      jump\t// in\n    tag_281:\n        /* \"#utility.yul\":9434:9497   */\n      swap2\n      pop\n        /* \"#utility.yul\":9389:9507   */\n      pop\n        /* \"#utility.yul\":8715:9514   */\n      swap3\n      pop\n      swap3\n      pop\n      swap3\n      jump\t// out\n        /* \"#utility.yul\":9520:9962   */\n    tag_49:\n        /* \"#utility.yul\":9669:9673   */\n      0x00\n        /* \"#utility.yul\":9707:9709   */\n      0x60\n        /* \"#utility.yul\":9696:9705   */\n      dup3\n        /* \"#utility.yul\":9692:9710   */\n      add\n        /* \"#utility.yul\":9684:9710   */\n      swap1\n      pop\n        /* \"#utility.yul\":9720:9791   */\n      tag_283\n        /* \"#utility.yul\":9788:9789   */\n      0x00\n        /* \"#utility.yul\":9777:9786   */\n      dup4\n        /* \"#utility.yul\":9773:9790   */\n      add\n        /* \"#utility.yul\":9764:9770   */\n      dup7\n        /* \"#utility.yul\":9720:9791   */\n      tag_142\n      jump\t// in\n    tag_283:\n        /* \"#utility.yul\":9801:9873   */\n      tag_284\n        /* \"#utility.yul\":9869:9871   */\n      0x20\n        /* \"#utility.yul\":9858:9867   */\n      dup4\n        /* \"#utility.yul\":9854:9872   */\n      add\n        /* \"#utility.yul\":9845:9851   */\n      dup6\n        /* \"#utility.yul\":9801:9873   */\n      tag_142\n      jump\t// in\n    tag_284:\n        /* \"#utility.yul\":9883:9955   */\n      tag_285\n        /* \"#utility.yul\":9951:9953   */\n      0x40\n        /* \"#utility.yul\":9940:9949   */\n      dup4\n        /* \"#utility.yul\":9936:9954   */\n      add\n        /* \"#utility.yul\":9927:9933   */\n      dup5\n        /* \"#utility.yul\":9883:9955   */\n      tag_142\n      jump\t// in\n    tag_285:\n        /* \"#utility.yul\":9520:9962   */\n      swap5\n      swap4\n      pop\n      pop\n      pop\n      pop\n      jump\t// out\n        /* \"#utility.yul\":9968:10142   */\n    tag_152:\n        /* \"#utility.yul\":10108:10134   */\n      0x43616c6c6572206973206e6f7420636f6e74726f6c6c65720000000000000000\n        /* \"#utility.yul\":10104:10105   */\n      0x00\n        /* \"#utility.yul\":10096:10102   */\n      dup3\n        /* \"#utility.yul\":10092:10106   */\n      add\n        /* \"#utility.yul\":10085:10135   */\n      mstore\n        /* \"#utility.yul\":9968:10142   */\n      pop\n      jump\t// out\n        /* \"#utility.yul\":10148:10514   */\n    tag_153:\n        /* \"#utility.yul\":10290:10293   */\n      0x00\n        /* \"#utility.yul\":10311:10378   */\n      tag_288\n        /* \"#utility.yul\":10375:10377   */\n      0x18\n        /* \"#utility.yul\":10370:10373   */\n      dup4\n        /* \"#utility.yul\":10311:10378   */\n      tag_138\n      jump\t// in\n    tag_288:\n        /* \"#utility.yul\":10304:10378   */\n      swap2\n      pop\n        /* \"#utility.yul\":10387:10480   */\n      tag_289\n        /* \"#utility.yul\":10476:10479   */\n      dup3\n        /* \"#utility.yul\":10387:10480   */\n      tag_152\n      jump\t// in\n    tag_289:\n        /* \"#utility.yul\":10505:10507   */\n      0x20\n        /* \"#utility.yul\":10500:10503   */\n      dup3\n        /* \"#utility.yul\":10496:10508   */\n      add\n        /* \"#utility.yul\":10489:10508   */\n      swap1\n      pop\n        /* \"#utility.yul\":10148:10514   */\n      swap2\n      swap1\n      pop\n      jump\t// out\n        /* \"#utility.yul\":10520:10939   */\n    tag_57:\n        /* \"#utility.yul\":10686:10690   */\n      0x00\n        /* \"#utility.yul\":10724:10726   */\n      0x20\n        /* \"#utility.yul\":10713:10722   */\n      dup3\n        /* \"#utility.yul\":10709:10727   */\n      add\n        /* \"#utility.yul\":10701:10727   */\n      swap1\n      pop\n        /* \"#utility.yul\":10773:10782   */\n      dup2\n        /* \"#utility.yul\":10767:10771   */\n      dup2\n        /* \"#utility.yul\":10763:10783   */\n      sub\n        /* \"#utility.yul\":10759:10760   */\n      0x00\n        /* \"#utility.yul\":10748:10757   */\n      dup4\n        /* \"#utility.yul\":10744:10761   */\n      add\n        /* \"#utility.yul\":10737:10784   */\n      mstore\n        /* \"#utility.yul\":10801:10932   */\n      tag_291\n        /* \"#utility.yul\":10927:10931   */\n      dup2\n        /* \"#utility.yul\":10801:10932   */\n      tag_153\n      jump\t// in\n    tag_291:\n        /* \"#utility.yul\":10793:10932   */\n      swap1\n      pop\n        /* \"#utility.yul\":10520:10939   */\n      swap2\n      swap1\n      pop\n      jump\t// out\n        /* \"#utility.yul\":10945:11125   */\n    tag_154:\n        /* \"#utility.yul\":10993:11070   */\n      0x4e487b7100000000000000000000000000000000000000000000000000000000\n        /* \"#utility.yul\":10990:10991   */\n      0x00\n        /* \"#utility.yul\":10983:11071   */\n      mstore\n        /* \"#utility.yul\":11090:11094   */\n      0x22\n        /* \"#utility.yul\":11087:11088   */\n      0x04\n        /* \"#utility.yul\":11080:11095   */\n      mstore\n        /* \"#utility.yul\":11114:11118   */\n      0x24\n        /* \"#utility.yul\":11111:11112   */\n      0x00\n        /* \"#utility.yul\":11104:11119   */\n      revert\n        /* \"#utility.yul\":11131:11451   */\n    tag_62:\n        /* \"#utility.yul\":11175:11181   */\n      0x00\n        /* \"#utility.yul\":11212:11213   */\n      0x02\n        /* \"#utility.yul\":11206:11210   */\n      dup3\n        /* \"#utility.yul\":11202:11214   */\n      div\n        /* \"#utility.yul\":11192:11214   */\n      swap1\n      pop\n        /* \"#utility.yul\":11259:11260   */\n      0x01\n        /* \"#utility.yul\":11253:11257   */\n      dup3\n        /* \"#utility.yul\":11249:11261   */\n      and\n        /* \"#utility.yul\":11280:11298   */\n      dup1\n        /* \"#utility.yul\":11270:11351   */\n      tag_294\n      jumpi\n        /* \"#utility.yul\":11336:11340   */\n      0x7f\n        /* \"#utility.yul\":11328:11334   */\n      dup3\n        /* \"#utility.yul\":11324:11341   */\n      and\n        /* \"#utility.yul\":11314:11341   */\n      swap2\n      pop\n        /* \"#utility.yul\":11270:11351   */\n    tag_294:\n        /* \"#utility.yul\":11398:11400   */\n      0x20\n        /* \"#utility.yul\":11390:11396   */\n      dup3\n        /* \"#utility.yul\":11387:11401   */\n      lt\n        /* \"#utility.yul\":11367:11385   */\n      dup2\n        /* \"#utility.yul\":11364:11402   */\n      sub\n        /* \"#utility.yul\":11361:11445   */\n      tag_295\n      jumpi\n        /* \"#utility.yul\":11417:11435   */\n      tag_296\n      tag_154\n      jump\t// in\n    tag_296:\n        /* \"#utility.yul\":11361:11445   */\n    tag_295:\n        /* \"#utility.yul\":11182:11451   */\n      pop\n        /* \"#utility.yul\":11131:11451   */\n      swap2\n      swap1\n      pop\n      jump\t// out\n        /* \"#utility.yul\":11457:11632   */\n    tag_155:\n        /* \"#utility.yul\":11597:11624   */\n      0x43616c6c6572206973206e6f7420656772657373206564676500000000000000\n        /* \"#utility.yul\":11593:11594   */\n      0x00\n        /* \"#utility.yul\":11585:11591   */\n      dup3\n        /* \"#utility.yul\":11581:11595   */\n      add\n        /* \"#utility.yul\":11574:11625   */\n      mstore\n        /* \"#utility.yul\":11457:11632   */\n      pop\n      jump\t// out\n        /* \"#utility.yul\":11638:12004   */\n    tag_156:\n        /* \"#utility.yul\":11780:11783   */\n      0x00\n        /* \"#utility.yul\":11801:11868   */\n      tag_299\n        /* \"#utility.yul\":11865:11867   */\n      0x19\n        /* \"#utility.yul\":11860:11863   */\n      dup4\n        /* \"#utility.yul\":11801:11868   */\n      tag_138\n      jump\t// in\n    tag_299:\n        /* \"#utility.yul\":11794:11868   */\n      swap2\n      pop\n        /* \"#utility.yul\":11877:11970   */\n      tag_300\n        /* \"#utility.yul\":11966:11969   */\n      dup3\n        /* \"#utility.yul\":11877:11970   */\n      tag_155\n      jump\t// in\n    tag_300:\n        /* \"#utility.yul\":11995:11997   */\n      0x20\n        /* \"#utility.yul\":11990:11993   */\n      dup3\n        /* \"#utility.yul\":11986:11998   */\n      add\n        /* \"#utility.yul\":11979:11998   */\n      swap1\n      pop\n        /* \"#utility.yul\":11638:12004   */\n      swap2\n      swap1\n      pop\n      jump\t// out\n        /* \"#utility.yul\":12010:12429   */\n    tag_70:\n        /* \"#utility.yul\":12176:12180   */\n      0x00\n        /* \"#utility.yul\":12214:12216   */\n      0x20\n        /* \"#utility.yul\":12203:12212   */\n      dup3\n        /* \"#utility.yul\":12199:12217   */\n      add\n        /* \"#utility.yul\":12191:12217   */\n      swap1\n      pop\n        /* \"#utility.yul\":12263:12272   */\n      dup2\n        /* \"#utility.yul\":12257:12261   */\n      dup2\n        /* \"#utility.yul\":12253:12273   */\n      sub\n        /* \"#utility.yul\":12249:12250   */\n      0x00\n        /* \"#utility.yul\":12238:12247   */\n      dup4\n        /* \"#utility.yul\":12234:12251   */\n      add\n        /* \"#utility.yul\":12227:12274   */\n      mstore\n        /* \"#utility.yul\":12291:12422   */\n      tag_302\n        /* \"#utility.yul\":12417:12421   */\n      dup2\n        /* \"#utility.yul\":12291:12422   */\n      tag_156\n      jump\t// in\n    tag_302:\n        /* \"#utility.yul\":12283:12422   */\n      swap1\n      pop\n        /* \"#utility.yul\":12010:12429   */\n      swap2\n      swap1\n      pop\n      jump\t// out\n        /* \"#utility.yul\":12435:12583   */\n    tag_157:\n        /* \"#utility.yul\":12537:12548   */\n      0x00\n        /* \"#utility.yul\":12574:12577   */\n      dup2\n        /* \"#utility.yul\":12559:12577   */\n      swap1\n      pop\n        /* \"#utility.yul\":12435:12583   */\n      swap3\n      swap2\n      pop\n      pop\n      jump\t// out\n        /* \"#utility.yul\":12589:12979   */\n    tag_158:\n        /* \"#utility.yul\":12695:12698   */\n      0x00\n        /* \"#utility.yul\":12723:12762   */\n      tag_305\n        /* \"#utility.yul\":12756:12761   */\n      dup3\n        /* \"#utility.yul\":12723:12762   */\n      tag_137\n      jump\t// in\n    tag_305:\n        /* \"#utility.yul\":12778:12867   */\n      tag_306\n        /* \"#utility.yul\":12860:12866   */\n      dup2\n        /* \"#utility.yul\":12855:12858   */\n      dup6\n        /* \"#utility.yul\":12778:12867   */\n      tag_157\n      jump\t// in\n    tag_306:\n        /* \"#utility.yul\":12771:12867   */\n      swap4\n      pop\n        /* \"#utility.yul\":12876:12941   */\n      tag_307\n        /* \"#utility.yul\":12934:12940   */\n      dup2\n        /* \"#utility.yul\":12929:12932   */\n      dup6\n        /* \"#utility.yul\":12922:12926   */\n      0x20\n        /* \"#utility.yul\":12915:12920   */\n      dup7\n        /* \"#utility.yul\":12911:12927   */\n      add\n        /* \"#utility.yul\":12876:12941   */\n      tag_139\n      jump\t// in\n    tag_307:\n        /* \"#utility.yul\":12966:12972   */\n      dup1\n        /* \"#utility.yul\":12961:12964   */\n      dup5\n        /* \"#utility.yul\":12957:12973   */\n      add\n        /* \"#utility.yul\":12950:12973   */\n      swap2\n      pop\n        /* \"#utility.yul\":12699:12979   */\n      pop\n        /* \"#utility.yul\":12589:12979   */\n      swap3\n      swap2\n      pop\n      pop\n      jump\t// out\n        /* \"#utility.yul\":12985:13260   */\n    tag_74:\n        /* \"#utility.yul\":13117:13120   */\n      0x00\n        /* \"#utility.yul\":13139:13234   */\n      tag_309\n        /* \"#utility.yul\":13230:13233   */\n      dup3\n        /* \"#utility.yul\":13221:13227   */\n      dup5\n        /* \"#utility.yul\":13139:13234   */\n      tag_158\n      jump\t// in\n    tag_309:\n        /* \"#utility.yul\":13132:13234   */\n      swap2\n      pop\n        /* \"#utility.yul\":13251:13254   */\n      dup2\n        /* \"#utility.yul\":13244:13254   */\n      swap1\n      pop\n        /* \"#utility.yul\":12985:13260   */\n      swap3\n      swap2\n      pop\n      pop\n      jump\t// out\n        /* \"#utility.yul\":13266:13407   */\n    tag_159:\n        /* \"#utility.yul\":13315:13319   */\n      0x00\n        /* \"#utility.yul\":13338:13341   */\n      dup2\n        /* \"#utility.yul\":13330:13341   */\n      swap1\n      pop\n        /* \"#utility.yul\":13361:13364   */\n      dup2\n        /* \"#utility.yul\":13358:13359   */\n      0x00\n        /* \"#utility.yul\":13351:13365   */\n      mstore\n        /* \"#utility.yul\":13395:13399   */\n      0x20\n        /* \"#utility.yul\":13392:13393   */\n      0x00\n        /* \"#utility.yul\":13382:13400   */\n      keccak256\n        /* \"#utility.yul\":13374:13400   */\n      swap1\n      pop\n        /* \"#utility.yul\":13266:13407   */\n      swap2\n      swap1\n      pop\n      jump\t// out\n        /* \"#utility.yul\":13437:14311   */\n    tag_160:\n        /* \"#utility.yul\":13540:13543   */\n      0x00\n        /* \"#utility.yul\":13577:13582   */\n      dup2\n        /* \"#utility.yul\":13571:13583   */\n      sload\n        /* \"#utility.yul\":13606:13642   */\n      tag_312\n        /* \"#utility.yul\":13632:13641   */\n      dup2\n        /* \"#utility.yul\":13606:13642   */\n      tag_62\n      jump\t// in\n    tag_312:\n        /* \"#utility.yul\":13658:13747   */\n      tag_313\n        /* \"#utility.yul\":13740:13746   */\n      dup2\n        /* \"#utility.yul\":13735:13738   */\n      dup7\n        /* \"#utility.yul\":13658:13747   */\n      tag_157\n      jump\t// in\n    tag_313:\n        /* \"#utility.yul\":13651:13747   */\n      swap5\n      pop\n        /* \"#utility.yul\":13778:13779   */\n      0x01\n        /* \"#utility.yul\":13767:13776   */\n      dup3\n        /* \"#utility.yul\":13763:13780   */\n      and\n        /* \"#utility.yul\":13794:13795   */\n      0x00\n        /* \"#utility.yul\":13789:13955   */\n      dup2\n      eq\n      tag_315\n      jumpi\n        /* \"#utility.yul\":13969:13970   */\n      0x01\n        /* \"#utility.yul\":13964:14305   */\n      dup2\n      eq\n      tag_316\n      jumpi\n        /* \"#utility.yul\":13756:14305   */\n      jump(tag_314)\n        /* \"#utility.yul\":13789:13955   */\n    tag_315:\n        /* \"#utility.yul\":13873:13877   */\n      0xff\n        /* \"#utility.yul\":13869:13878   */\n      not\n        /* \"#utility.yul\":13858:13867   */\n      dup4\n        /* \"#utility.yul\":13854:13879   */\n      and\n        /* \"#utility.yul\":13849:13852   */\n      dup7\n        /* \"#utility.yul\":13842:13880   */\n      mstore\n        /* \"#utility.yul\":13935:13941   */\n      dup2\n        /* \"#utility.yul\":13928:13942   */\n      iszero\n        /* \"#utility.yul\":13921:13943   */\n      iszero\n        /* \"#utility.yul\":13913:13919   */\n      dup3\n        /* \"#utility.yul\":13909:13944   */\n      mul\n        /* \"#utility.yul\":13904:13907   */\n      dup7\n        /* \"#utility.yul\":13900:13945   */\n      add\n        /* \"#utility.yul\":13893:13945   */\n      swap4\n      pop\n        /* \"#utility.yul\":13789:13955   */\n      jump(tag_314)\n        /* \"#utility.yul\":13964:14305   */\n    tag_316:\n        /* \"#utility.yul\":14031:14069   */\n      tag_317\n        /* \"#utility.yul\":14063:14068   */\n      dup6\n        /* \"#utility.yul\":14031:14069   */\n      tag_159\n      jump\t// in\n    tag_317:\n        /* \"#utility.yul\":14091:14092   */\n      0x00\n        /* \"#utility.yul\":14105:14259   */\n    tag_318:\n        /* \"#utility.yul\":14119:14125   */\n      dup4\n        /* \"#utility.yul\":14116:14117   */\n      dup2\n        /* \"#utility.yul\":14113:14126   */\n      lt\n        /* \"#utility.yul\":14105:14259   */\n      iszero\n      tag_320\n      jumpi\n        /* \"#utility.yul\":14193:14200   */\n      dup2\n        /* \"#utility.yul\":14187:14201   */\n      sload\n        /* \"#utility.yul\":14183:14184   */\n      dup2\n        /* \"#utility.yul\":14178:14181   */\n      dup10\n        /* \"#utility.yul\":14174:14185   */\n      add\n        /* \"#utility.yul\":14167:14202   */\n      mstore\n        /* \"#utility.yul\":14243:14244   */\n      0x01\n        /* \"#utility.yul\":14234:14241   */\n      dup3\n        /* \"#utility.yul\":14230:14245   */\n      add\n        /* \"#utility.yul\":14219:14245   */\n      swap2\n      pop\n        /* \"#utility.yul\":14141:14145   */\n      0x20\n        /* \"#utility.yul\":14138:14139   */\n      dup2\n        /* \"#utility.yul\":14134:14146   */\n      add\n        /* \"#utility.yul\":14129:14146   */\n      swap1\n      pop\n        /* \"#utility.yul\":14105:14259   */\n      jump(tag_318)\n    tag_320:\n        /* \"#utility.yul\":14288:14294   */\n      dup4\n        /* \"#utility.yul\":14283:14286   */\n      dup9\n        /* \"#utility.yul\":14279:14295   */\n      add\n        /* \"#utility.yul\":14272:14295   */\n      swap6\n      pop\n        /* \"#utility.yul\":13971:14305   */\n      pop\n      pop\n        /* \"#utility.yul\":13756:14305   */\n    tag_314:\n      pop\n        /* \"#utility.yul\":13544:14311   */\n      pop\n      pop\n        /* \"#utility.yul\":13437:14311   */\n      swap3\n      swap2\n      pop\n      pop\n      jump\t// out\n        /* \"#utility.yul\":14317:14586   */\n    tag_83:\n        /* \"#utility.yul\":14446:14449   */\n      0x00\n        /* \"#utility.yul\":14468:14560   */\n      tag_322\n        /* \"#utility.yul\":14556:14559   */\n      dup3\n        /* \"#utility.yul\":14547:14553   */\n      dup5\n        /* \"#utility.yul\":14468:14560   */\n      tag_160\n      jump\t// in\n    tag_322:\n        /* \"#utility.yul\":14461:14560   */\n      swap2\n      pop\n        /* \"#utility.yul\":14577:14580   */\n      dup2\n        /* \"#utility.yul\":14570:14580   */\n      swap1\n      pop\n        /* \"#utility.yul\":14317:14586   */\n      swap3\n      swap2\n      pop\n      pop\n      jump\t// out\n        /* \"#utility.yul\":14592:14772   */\n    tag_161:\n        /* \"#utility.yul\":14640:14717   */\n      0x4e487b7100000000000000000000000000000000000000000000000000000000\n        /* \"#utility.yul\":14637:14638   */\n      0x00\n        /* \"#utility.yul\":14630:14718   */\n      mstore\n        /* \"#utility.yul\":14737:14741   */\n      0x11\n        /* \"#utility.yul\":14734:14735   */\n      0x04\n        /* \"#utility.yul\":14727:14742   */\n      mstore\n        /* \"#utility.yul\":14761:14765   */\n      0x24\n        /* \"#utility.yul\":14758:14759   */\n      0x00\n        /* \"#utility.yul\":14751:14766   */\n      revert\n        /* \"#utility.yul\":14778:14969   */\n    tag_85:\n        /* \"#utility.yul\":14818:14821   */\n      0x00\n        /* \"#utility.yul\":14837:14857   */\n      tag_325\n        /* \"#utility.yul\":14855:14856   */\n      dup3\n        /* \"#utility.yul\":14837:14857   */\n      tag_134\n      jump\t// in\n    tag_325:\n        /* \"#utility.yul\":14832:14857   */\n      swap2\n      pop\n        /* \"#utility.yul\":14871:14891   */\n      tag_326\n        /* \"#utility.yul\":14889:14890   */\n      dup4\n        /* \"#utility.yul\":14871:14891   */\n      tag_134\n      jump\t// in\n    tag_326:\n        /* \"#utility.yul\":14866:14891   */\n      swap3\n      pop\n        /* \"#utility.yul\":14914:14915   */\n      dup3\n        /* \"#utility.yul\":14911:14912   */\n      dup3\n        /* \"#utility.yul\":14907:14916   */\n      add\n        /* \"#utility.yul\":14900:14916   */\n      swap1\n      pop\n        /* \"#utility.yul\":14935:14938   */\n      dup1\n        /* \"#utility.yul\":14932:14933   */\n      dup3\n        /* \"#utility.yul\":14929:14939   */\n      gt\n        /* \"#utility.yul\":14926:14962   */\n      iszero\n      tag_327\n      jumpi\n        /* \"#utility.yul\":14942:14960   */\n      tag_328\n      tag_161\n      jump\t// in\n    tag_328:\n        /* \"#utility.yul\":14926:14962   */\n    tag_327:\n        /* \"#utility.yul\":14778:14969   */\n      swap3\n      swap2\n      pop\n      pop\n      jump\t// out\n        /* \"#utility.yul\":14975:15068   */\n    tag_162:\n        /* \"#utility.yul\":15012:15018   */\n      0x00\n        /* \"#utility.yul\":15059:15061   */\n      0x20\n        /* \"#utility.yul\":15054:15056   */\n      0x1f\n        /* \"#utility.yul\":15047:15052   */\n      dup4\n        /* \"#utility.yul\":15043:15057   */\n      add\n        /* \"#utility.yul\":15039:15062   */\n      div\n        /* \"#utility.yul\":15029:15062   */\n      swap1\n      pop\n        /* \"#utility.yul\":14975:15068   */\n      swap2\n      swap1\n      pop\n      jump\t// out\n        /* \"#utility.yul\":15074:15181   */\n    tag_163:\n        /* \"#utility.yul\":15118:15126   */\n      0x00\n        /* \"#utility.yul\":15168:15173   */\n      dup3\n        /* \"#utility.yul\":15162:15166   */\n      dup3\n        /* \"#utility.yul\":15158:15174   */\n      shl\n        /* \"#utility.yul\":15137:15174   */\n      swap1\n      pop\n        /* \"#utility.yul\":15074:15181   */\n      swap3\n      swap2\n      pop\n      pop\n      jump\t// out\n        /* \"#utility.yul\":15187:15580   */\n    tag_164:\n        /* \"#utility.yul\":15256:15262   */\n      0x00\n        /* \"#utility.yul\":15306:15307   */\n      0x08\n        /* \"#utility.yul\":15294:15304   */\n      dup4\n        /* \"#utility.yul\":15290:15308   */\n      mul\n        /* \"#utility.yul\":15329:15426   */\n      tag_332\n        /* \"#utility.yul\":15359:15425   */\n      0xffffffffffffffffffffffffffffffffffffffffffffffffffffffffffffffff\n        /* \"#utility.yul\":15348:15357   */\n      dup3\n        /* \"#utility.yul\":15329:15426   */\n      tag_163\n      jump\t// in\n    tag_332:\n        /* \"#utility.yul\":15447:15486   */\n      tag_333\n        /* \"#utility.yul\":15477:15485   */\n      dup7\n        /* \"#utility.yul\":15466:15475   */\n      dup4\n        /* \"#utility.yul\":15447:15486   */\n      tag_163\n      jump\t// in\n    tag_333:\n        /* \"#utility.yul\":15435:15486   */\n      swap6\n      pop\n        /* \"#utility.yul\":15519:15523   */\n      dup1\n        /* \"#utility.yul\":15515:15524   */\n      not\n        /* \"#utility.yul\":15508:15513   */\n      dup5\n        /* \"#utility.yul\":15504:15525   */\n      and\n        /* \"#utility.yul\":15495:15525   */\n      swap4\n      pop\n        /* \"#utility.yul\":15568:15572   */\n      dup1\n        /* \"#utility.yul\":15558:15566   */\n      dup7\n        /* \"#utility.yul\":15554:15573   */\n      and\n        /* \"#utility.yul\":15547:15552   */\n      dup5\n        /* \"#utility.yul\":15544:15574   */\n      or\n        /* \"#utility.yul\":15534:15574   */\n      swap3\n      pop\n        /* \"#utility.yul\":15263:15580   */\n      pop\n      pop\n        /* \"#utility.yul\":15187:15580   */\n      swap4\n      swap3\n      pop\n      pop\n      pop\n      jump\t// out\n        /* \"#utility.yul\":15586:15646   */\n    tag_165:\n        /* \"#utility.yul\":15614:15617   */\n      0x00\n        /* \"#utility.yul\":15635:15640   */\n      dup2\n        /* \"#utility.yul\":15628:15640   */\n      swap1\n      pop\n        /* \"#utility.yul\":15586:15646   */\n      swap2\n      swap1\n      pop\n      jump\t// out\n        /* \"#utility.yul\":15652:15794   */\n    tag_166:\n        /* \"#utility.yul\":15702:15711   */\n      0x00\n        /* \"#utility.yul\":15735:15788   */\n      tag_336\n        /* \"#utility.yul\":15753:15787   */\n      tag_337\n        /* \"#utility.yul\":15762:15786   */\n      tag_338\n        /* \"#utility.yul\":15780:15785   */\n      dup5\n        /* \"#utility.yul\":15762:15786   */\n      tag_134\n      jump\t// in\n    tag_338:\n        /* \"#utility.yul\":15753:15787   */\n      tag_165\n      jump\t// in\n    tag_337:\n        /* \"#utility.yul\":15735:15788   */\n      tag_134\n      jump\t// in\n    tag_336:\n        /* \"#utility.yul\":15722:15788   */\n      swap1\n      pop\n        /* \"#utility.yul\":15652:15794   */\n      swap2\n      swap1\n      pop\n      jump\t// out\n        /* \"#utility.yul\":15800:15875   */\n    tag_167:\n        /* \"#utility.yul\":15843:15846   */\n      0x00\n        /* \"#utility.yul\":15864:15869   */\n      dup2\n        /* \"#utility.yul\":15857:15869   */\n      swap1\n      pop\n        /* \"#utility.yul\":15800:15875   */\n      swap2\n      swap1\n      pop\n      jump\t// out\n        /* \"#utility.yul\":15881:16150   */\n    tag_168:\n        /* \"#utility.yul\":15991:16030   */\n      tag_341\n        /* \"#utility.yul\":16022:16029   */\n      dup4\n        /* \"#utility.yul\":15991:16030   */\n      tag_166\n      jump\t// in\n    tag_341:\n        /* \"#utility.yul\":16052:16143   */\n      tag_342\n        /* \"#utility.yul\":16101:16142   */\n      tag_343\n        /* \"#utility.yul\":16125:16141   */\n      dup3\n        /* \"#utility.yul\":16101:16142   */\n      tag_167\n      jump\t// in\n    tag_343:\n        /* \"#utility.yul\":16093:16099   */\n      dup5\n        /* \"#utility.yul\":16086:16090   */\n      dup5\n        /* \"#utility.yul\":16080:16091   */\n      sload\n        /* \"#utility.yul\":16052:16143   */\n      tag_164\n      jump\t// in\n    tag_342:\n        /* \"#utility.yul\":16046:16050   */\n      dup3\n        /* \"#utility.yul\":16039:16144   */\n      sstore\n        /* \"#utility.yul\":15957:16150   */\n      pop\n        /* \"#utility.yul\":15881:16150   */\n      pop\n      pop\n      pop\n      jump\t// out\n        /* \"#utility.yul\":16156:16229   */\n    tag_169:\n        /* \"#utility.yul\":16201:16204   */\n      0x00\n        /* \"#utility.yul\":16222:16223   */\n      0x00\n        /* \"#utility.yul\":16215:16223   */\n      swap1\n      pop\n        /* \"#utility.yul\":16156:16229   */\n      swap1\n      jump\t// out\n        /* \"#utility.yul\":16235:16424   */\n    tag_170:\n        /* \"#utility.yul\":16312:16344   */\n      tag_346\n      tag_169\n      jump\t// in\n    tag_346:\n        /* \"#utility.yul\":16353:16418   */\n      tag_347\n        /* \"#utility.yul\":16411:16417   */\n      dup2\n        /* \"#utility.yul\":16403:16409   */\n      dup5\n        /* \"#utility.yul\":16397:16401   */\n      dup5\n        /* \"#utility.yul\":16353:16418   */\n      tag_168\n      jump\t// in\n    tag_347:\n        /* \"#utility.yul\":16288:16424   */\n      pop\n        /* \"#utility.yul\":16235:16424   */\n      pop\n      pop\n      jump\t// out\n        /* \"#utility.yul\":16430:16616   */\n    tag_171:\n        /* \"#utility.yul\":16490:16610   */\n    tag_349:\n        /* \"#utility.yul\":16507:16510   */\n      dup2\n        /* \"#utility.yul\":16500:16505   */\n      dup2\n        /* \"#utility.yul\":16497:16511   */\n      lt\n        /* \"#utility.yul\":16490:16610   */\n      iszero\n      tag_351\n      jumpi\n        /* \"#utility.yul\":16561:16600   */\n      tag_352\n        /* \"#utility.yul\":16598:16599   */\n      0x00\n        /* \"#utility.yul\":16591:16596   */\n      dup3\n        /* \"#utility.yul\":16561:16600   */\n      tag_170\n      jump\t// in\n    tag_352:\n        /* \"#utility.yul\":16534:16535   */\n      0x01\n        /* \"#utility.yul\":16527:16532   */\n      dup2\n        /* \"#utility.yul\":16523:16536   */\n      add\n        /* \"#utility.yul\":16514:16536   */\n      swap1\n      pop\n        /* \"#utility.yul\":16490:16610   */\n      jump(tag_349)\n    tag_351:\n        /* \"#utility.yul\":16430:16616   */\n      pop\n      pop\n      jump\t// out\n        /* \"#utility.yul\":16622:17165   */\n    tag_172:\n        /* \"#utility.yul\":16723:16725   */\n      0x1f\n        /* \"#utility.yul\":16718:16721   */\n      dup3\n        /* \"#utility.yul\":16715:16726   */\n      gt\n        /* \"#utility.yul\":16712:17158   */\n      iszero\n      tag_354\n      jumpi\n        /* \"#utility.yul\":16757:16795   */\n      tag_355\n        /* \"#utility.yul\":16789:16794   */\n      dup2\n        /* \"#utility.yul\":16757:16795   */\n      tag_159\n      jump\t// in\n    tag_355:\n        /* \"#utility.yul\":16841:16870   */\n      tag_356\n        /* \"#utility.yul\":16859:16869   */\n      dup5\n        /* \"#utility.yul\":16841:16870   */\n      tag_162\n      jump\t// in\n    tag_356:\n        /* \"#utility.yul\":16831:16839   */\n      dup2\n        /* \"#utility.yul\":16827:16871   */\n      add\n        /* \"#utility.yul\":17024:17026   */\n      0x20\n        /* \"#utility.yul\":17012:17022   */\n      dup6\n        /* \"#utility.yul\":17009:17027   */\n      lt\n        /* \"#utility.yul\":17006:17055   */\n      iszero\n      tag_357\n      jumpi\n        /* \"#utility.yul\":17045:17053   */\n      dup2\n        /* \"#utility.yul\":17030:17053   */\n      swap1\n      pop\n        /* \"#utility.yul\":17006:17055   */\n    tag_357:\n        /* \"#utility.yul\":17068:17148   */\n      tag_358\n        /* \"#utility.yul\":17124:17146   */\n      tag_359\n        /* \"#utility.yul\":17142:17145   */\n      dup6\n        /* \"#utility.yul\":17124:17146   */\n      tag_162\n      jump\t// in\n    tag_359:\n        /* \"#utility.yul\":17114:17122   */\n      dup4\n        /* \"#utility.yul\":17110:17147   */\n      add\n        /* \"#utility.yul\":17097:17108   */\n      dup3\n        /* \"#utility.yul\":17068:17148   */\n      tag_171\n      jump\t// in\n    tag_358:\n        /* \"#utility.yul\":16727:17158   */\n      pop\n      pop\n        /* \"#utility.yul\":16712:17158   */\n    tag_354:\n        /* \"#utility.yul\":16622:17165   */\n      pop\n      pop\n      pop\n      jump\t// out\n        /* \"#utility.yul\":17171:17288   */\n    tag_173:\n        /* \"#utility.yul\":17225:17233   */\n      0x00\n        /* \"#utility.yul\":17275:17280   */\n      dup3\n        /* \"#utility.yul\":17269:17273   */\n      dup3\n        /* \"#utility.yul\":17265:17281   */\n      shr\n        /* \"#utility.yul\":17244:17281   */\n      swap1\n      pop\n        /* \"#utility.yul\":17171:17288   */\n      swap3\n      swap2\n      pop\n      pop\n      jump\t// out\n        /* \"#utility.yul\":17294:17463   */\n    tag_174:\n        /* \"#utility.yul\":17338:17344   */\n      0x00\n        /* \"#utility.yul\":17371:17422   */\n      tag_362\n        /* \"#utility.yul\":17419:17420   */\n      0x00\n        /* \"#utility.yul\":17415:17421   */\n      not\n        /* \"#utility.yul\":17407:17412   */\n      dup5\n        /* \"#utility.yul\":17404:17405   */\n      0x08\n        /* \"#utility.yul\":17400:17413   */\n      mul\n        /* \"#utility.yul\":17371:17422   */\n      tag_173\n      jump\t// in\n    tag_362:\n        /* \"#utility.yul\":17367:17423   */\n      not\n        /* \"#utility.yul\":17452:17456   */\n      dup1\n        /* \"#utility.yul\":17446:17450   */\n      dup4\n        /* \"#utility.yul\":17442:17457   */\n      and\n        /* \"#utility.yul\":17432:17457   */\n      swap2\n      pop\n        /* \"#utility.yul\":17345:17463   */\n      pop\n        /* \"#utility.yul\":17294:17463   */\n      swap3\n      swap2\n      pop\n      pop\n      jump\t// out\n        /* \"#utility.yul\":17468:17763   */\n    tag_175:\n        /* \"#utility.yul\":17544:17548   */\n      0x00\n        /* \"#utility.yul\":17690:17719   */\n      tag_364\n        /* \"#utility.yul\":17715:17718   */\n      dup4\n        /* \"#utility.yul\":17709:17713   */\n      dup4\n        /* \"#utility.yul\":17690:17719   */\n      tag_174\n      jump\t// in\n    tag_364:\n        /* \"#utility.yul\":17682:17719   */\n      swap2\n      pop\n        /* \"#utility.yul\":17752:17755   */\n      dup3\n        /* \"#utility.yul\":17749:17750   */\n      0x02\n        /* \"#utility.yul\":17745:17756   */\n      mul\n        /* \"#utility.yul\":17739:17743   */\n      dup3\n        /* \"#utility.yul\":17736:17757   */\n      or\n        /* \"#utility.yul\":17728:17757   */\n      swap1\n      pop\n        /* \"#utility.yul\":17468:17763   */\n      swap3\n      swap2\n      pop\n      pop\n      jump\t// out\n        /* \"#utility.yul\":17768:19163   */\n    tag_106:\n        /* \"#utility.yul\":17885:17922   */\n      tag_366\n        /* \"#utility.yul\":17918:17921   */\n      dup3\n        /* \"#utility.yul\":17885:17922   */\n      tag_137\n      jump\t// in\n    tag_366:\n        /* \"#utility.yul\":17987:18005   */\n      0xffffffffffffffff\n        /* \"#utility.yul\":17979:17985   */\n      dup2\n        /* \"#utility.yul\":17976:18006   */\n      gt\n        /* \"#utility.yul\":17973:18029   */\n      iszero\n      tag_367\n      jumpi\n        /* \"#utility.yul\":18009:18027   */\n      tag_368\n      tag_145\n      jump\t// in\n    tag_368:\n        /* \"#utility.yul\":17973:18029   */\n    tag_367:\n        /* \"#utility.yul\":18053:18091   */\n      tag_369\n        /* \"#utility.yul\":18085:18089   */\n      dup3\n        /* \"#utility.yul\":18079:18090   */\n      sload\n        /* \"#utility.yul\":18053:18091   */\n      tag_62\n      jump\t// in\n    tag_369:\n        /* \"#utility.yul\":18138:18205   */\n      tag_370\n        /* \"#utility.yul\":18198:18204   */\n      dup3\n        /* \"#utility.yul\":18190:18196   */\n      dup3\n        /* \"#utility.yul\":18184:18188   */\n      dup6\n        /* \"#utility.yul\":18138:18205   */\n      tag_172\n      jump\t// in\n    tag_370:\n        /* \"#utility.yul\":18232:18233   */\n      0x00\n        /* \"#utility.yul\":18256:18260   */\n      0x20\n        /* \"#utility.yul\":18243:18260   */\n      swap1\n      pop\n        /* \"#utility.yul\":18288:18290   */\n      0x1f\n        /* \"#utility.yul\":18280:18286   */\n      dup4\n        /* \"#utility.yul\":18277:18291   */\n      gt\n        /* \"#utility.yul\":18305:18306   */\n      0x01\n        /* \"#utility.yul\":18300:18918   */\n      dup2\n      eq\n      tag_372\n      jumpi\n        /* \"#utility.yul\":18962:18963   */\n      0x00\n        /* \"#utility.yul\":18979:18985   */\n      dup5\n        /* \"#utility.yul\":18976:19053   */\n      iszero\n      tag_373\n      jumpi\n        /* \"#utility.yul\":19028:19037   */\n      dup3\n        /* \"#utility.yul\":19023:19026   */\n      dup8\n        /* \"#utility.yul\":19019:19038   */\n      add\n        /* \"#utility.yul\":19013:19039   */\n      mload\n        /* \"#utility.yul\":19004:19039   */\n      swap1\n      pop\n        /* \"#utility.yul\":18976:19053   */\n    tag_373:\n        /* \"#utility.yul\":19079:19146   */\n      tag_374\n        /* \"#utility.yul\":19139:19145   */\n      dup6\n        /* \"#utility.yul\":19132:19137   */\n      dup3\n        /* \"#utility.yul\":19079:19146   */\n      tag_175\n      jump\t// in\n    tag_374:\n        /* \"#utility.yul\":19073:19077   */\n      dup7\n        /* \"#utility.yul\":19066:19147   */\n      sstore\n        /* \"#utility.yul\":18935:19157   */\n      pop\n        /* \"#utility.yul\":18270:19157   */\n      jump(tag_371)\n        /* \"#utility.yul\":18300:18918   */\n    tag_372:\n        /* \"#utility.yul\":18352:18356   */\n      0x1f\n        /* \"#utility.yul\":18348:18357   */\n      not\n        /* \"#utility.yul\":18340:18346   */\n      dup5\n        /* \"#utility.yul\":18336:18358   */\n      and\n        /* \"#utility.yul\":18386:18423   */\n      tag_375\n        /* \"#utility.yul\":18418:18422   */\n      dup7\n        /* \"#utility.yul\":18386:18423   */\n      tag_159\n      jump\t// in\n    tag_375:\n        /* \"#utility.yul\":18445:18446   */\n      0x00\n        /* \"#utility.yul\":18459:18667   */\n    tag_376:\n        /* \"#utility.yul\":18473:18480   */\n      dup3\n        /* \"#utility.yul\":18470:18471   */\n      dup2\n        /* \"#utility.yul\":18467:18481   */\n      lt\n        /* \"#utility.yul\":18459:18667   */\n      iszero\n      tag_378\n      jumpi\n        /* \"#utility.yul\":18552:18561   */\n      dup5\n        /* \"#utility.yul\":18547:18550   */\n      dup10\n        /* \"#utility.yul\":18543:18562   */\n      add\n        /* \"#utility.yul\":18537:18563   */\n      mload\n        /* \"#utility.yul\":18529:18535   */\n      dup3\n        /* \"#utility.yul\":18522:18564   */\n      sstore\n        /* \"#utility.yul\":18603:18604   */\n      0x01\n        /* \"#utility.yul\":18595:18601   */\n      dup3\n        /* \"#utility.yul\":18591:18605   */\n      add\n        /* \"#utility.yul\":18581:18605   */\n      swap2\n      pop\n        /* \"#utility.yul\":18650:18652   */\n      0x20\n        /* \"#utility.yul\":18639:18648   */\n      dup6\n        /* \"#utility.yul\":18635:18653   */\n      add\n        /* \"#utility.yul\":18622:18653   */\n      swap5\n      pop\n        /* \"#utility.yul\":18496:18500   */\n      0x20\n        /* \"#utility.yul\":18493:18494   */\n      dup2\n        /* \"#utility.yul\":18489:18501   */\n      add\n        /* \"#utility.yul\":18484:18501   */\n      swap1\n      pop\n        /* \"#utility.yul\":18459:18667   */\n      jump(tag_376)\n    tag_378:\n        /* \"#utility.yul\":18695:18701   */\n      dup7\n        /* \"#utility.yul\":18686:18693   */\n      dup4\n        /* \"#utility.yul\":18683:18702   */\n      lt\n        /* \"#utility.yul\":18680:18859   */\n      iszero\n      tag_379\n      jumpi\n        /* \"#utility.yul\":18753:18762   */\n      dup5\n        /* \"#utility.yul\":18748:18751   */\n      dup10\n        /* \"#utility.yul\":18744:18763   */\n      add\n        /* \"#utility.yul\":18738:18764   */\n      mload\n        /* \"#utility.yul\":18796:18844   */\n      tag_380\n        /* \"#utility.yul\":18838:18842   */\n      0x1f\n        /* \"#utility.yul\":18830:18836   */\n      dup10\n        /* \"#utility.yul\":18826:18843   */\n      and\n        /* \"#utility.yul\":18815:18824   */\n      dup3\n        /* \"#utility.yul\":18796:18844   */\n      tag_174\n      jump\t// in\n    tag_380:\n        /* \"#utility.yul\":18788:18794   */\n      dup4\n        /* \"#utility.yul\":18781:18845   */\n      sstore\n        /* \"#utility.yul\":18703:18859   */\n      pop\n        /* \"#utility.yul\":18680:18859   */\n    tag_379:\n        /* \"#utility.yul\":18905:18906   */\n      0x01\n        /* \"#utility.yul\":18901:18902   */\n      0x02\n        /* \"#utility.yul\":18893:18899   */\n      dup9\n        /* \"#utility.yul\":18889:18903   */\n      mul\n        /* \"#utility.yul\":18885:18907   */\n      add\n        /* \"#utility.yul\":18879:18883   */\n      dup9\n        /* \"#utility.yul\":18872:18908   */\n      sstore\n        /* \"#utility.yul\":18307:18918   */\n      pop\n      pop\n      pop\n        /* \"#utility.yul\":18270:19157   */\n    tag_371:\n      pop\n        /* \"#utility.yul\":17860:19163   */\n      pop\n      pop\n      pop\n        /* \"#utility.yul\":17768:19163   */\n      pop\n      pop\n      jump\t// out\n\n    auxdata: 0xa264697066735822122095c48f74e15a9a0d6b280b2a606b60f05552063e442096ee5e2678196d46186464736f6c634300081c0033\n}\n",
				"bytecode": {
					"linkReferences": {},
					"object": "608060405234801561000f575f5ffd5b50604051611d25380380611d2583398181016040528101906100319190610418565b5f60048260405161004291906104c8565b90815260200160405180910390205f01819055505f60048260405161006791906104c8565b9081526020016040518091039020600201819055505f60048260405161008d91906104c8565b908152602001604051809103902060010181905550825f5f6101000a81548173ffffffffffffffffffffffffffffffffffffffff021916908373ffffffffffffffffffffffffffffffffffffffff1602179055508160015f6101000a81548173ffffffffffffffffffffffffffffffffffffffff021916908373ffffffffffffffffffffffffffffffffffffffff160217905550806002908161013091906106e4565b50600560405180606001604052808381526020018473ffffffffffffffffffffffffffffffffffffffff16815260200142815250908060018154018082558091505060019003905f5260205f2090600302015f909190919091505f820151815f01908161019d91906106e4565b506020820151816001015f6101000a81548173ffffffffffffffffffffffffffffffffffffffff021916908373ffffffffffffffffffffffffffffffffffffffff1602179055506040820151816002015550505f5f9054906101000a900473ffffffffffffffffffffffffffffffffffffffff1673ffffffffffffffffffffffffffffffffffffffff165f73ffffffffffffffffffffffffffffffffffffffff167e7582b62407f53d49cfc72e7ddab574c06ef3b8aced104b54b7bed4681ee54a60405160405180910390a35050506107b3565b5f604051905090565b5f5ffd5b5f5ffd5b5f73ffffffffffffffffffffffffffffffffffffffff82169050919050565b5f6102ab82610282565b9050919050565b6102bb816102a1565b81146102c5575f5ffd5b50565b5f815190506102d6816102b2565b92915050565b5f5ffd5b5f5ffd5b5f601f19601f8301169050919050565b7f4e487b71000000000000000000000000000000000000000000000000000000005f52604160045260245ffd5b61032a826102e4565b810181811067ffffffffffffffff82111715610349576103486102f4565b5b80604052505050565b5f61035b610271565b90506103678282610321565b919050565b5f67ffffffffffffffff821115610386576103856102f4565b5b61038f826102e4565b9050602081019050919050565b8281835e5f83830152505050565b5f6103bc6103b78461036c565b610352565b9050828152602081018484840111156103d8576103d76102e0565b5b6103e384828561039c565b509392505050565b5f82601f8301126103ff576103fe6102dc565b5b815161040f8482602086016103aa565b91505092915050565b5f5f5f6060848603121561042f5761042e61027a565b5b5f61043c868287016102c8565b935050602061044d868287016102c8565b925050604084015167ffffffffffffffff81111561046e5761046d61027e565b5b61047a868287016103eb565b9150509250925092565b5f81519050919050565b5f81905092915050565b5f6104a282610484565b6104ac818561048e565b93506104bc81856020860161039c565b80840191505092915050565b5f6104d38284610498565b915081905092915050565b7f4e487b71000000000000000000000000000000000000000000000000000000005f52602260045260245ffd5b5f600282049050600182168061052257607f821691505b602082108103610535576105346104de565b5b50919050565b5f819050815f5260205f209050919050565b5f6020601f8301049050919050565b5f82821b905092915050565b5f600883026105977fffffffffffffffffffffffffffffffffffffffffffffffffffffffffffffffff8261055c565b6105a1868361055c565b95508019841693508086168417925050509392505050565b5f819050919050565b5f819050919050565b5f6105e56105e06105db846105b9565b6105c2565b6105b9565b9050919050565b5f819050919050565b6105fe836105cb565b61061261060a826105ec565b848454610568565b825550505050565b5f5f905090565b61062961061a565b6106348184846105f5565b505050565b5b818110156106575761064c5f82610621565b60018101905061063a565b5050565b601f82111561069c5761066d8161053b565b6106768461054d565b81016020851015610685578190505b6106996106918561054d565b830182610639565b50505b505050565b5f82821c905092915050565b5f6106bc5f19846008026106a1565b1980831691505092915050565b5f6106d483836106ad565b9150826002028217905092915050565b6106ed82610484565b67ffffffffffffffff811115610706576107056102f4565b5b610710825461050b565b61071b82828561065b565b5f60209050601f83116001811461074c575f841561073a578287015190505b61074485826106c9565b8655506107ab565b601f19841661075a8661053b565b5f5b828110156107815784890151825560018201915060208501945060208101905061075c565b8683101561079e578489015161079a601f8916826106ad565b8355505b6001600288020188555050505b505050505050565b611565806107c05f395ff3fe608060405234801561000f575f5ffd5b5060043610610091575f3560e01c8063b68cc79911610064578063b68cc7991461011d578063bb56d41214610139578063c543691a14610169578063eacad77414610185578063ef040bb1146101b757610091565b80633018205f146100955780633e11e378146100b35780636118b23c146100cf57806397c38cfc14610101575b5f5ffd5b61009d6101d7565b6040516100aa9190610b70565b60405180910390f35b6100cd60048036038101906100c89190610bc4565b6101fe565b005b6100e960048036038101906100e49190610c35565b61034a565b6040516100f893929190610cdf565b60405180910390f35b61011b60048036038101906101169190610e47565b610424565b005b61013760048036038101906101329190610ebd565b61070d565b005b610153600480360381019061014e9190610f45565b6107ce565b6040516101609190610f8c565b60405180910390f35b610183600480360381019061017e9190610fac565b610881565b005b61019f600480360381019061019a9190610f45565b610a25565b6040516101ae93929190611018565b60405180910390f35b6101bf610a63565b6040516101ce93929190611018565b60405180910390f35b5f5f5f9054906101000a900473ffffffffffffffffffffffffffffffffffffffff16905090565b805f5f9054906101000a900473ffffffffffffffffffffffffffffffffffffffff1673ffffffffffffffffffffffffffffffffffffffff168173ffffffffffffffffffffffffffffffffffffffff161461028d576040517f08c379a000000000000000000000000000000000000000000000000000000000815260040161028490611097565b60405180910390fd5b8273ffffffffffffffffffffffffffffffffffffffff165f5f9054906101000a900473ffffffffffffffffffffffffffffffffffffffff1673ffffffffffffffffffffffffffffffffffffffff167e7582b62407f53d49cfc72e7ddab574c06ef3b8aced104b54b7bed4681ee54a60405160405180910390a3825f5f6101000a81548173ffffffffffffffffffffffffffffffffffffffff021916908373ffffffffffffffffffffffffffffffffffffffff160217905550505050565b60058181548110610359575f80fd5b905f5260205f2090600302015f91509050805f018054610378906110e2565b80601f01602080910402602001604051908101604052809291908181526020018280546103a4906110e2565b80156103ef5780601f106103c6576101008083540402835291602001916103ef565b820191905f5260205f20905b8154815290600101906020018083116103d257829003601f168201915b505050505090806001015f9054906101000a900473ffffffffffffffffffffffffffffffffffffffff16908060020154905083565b60015f9054906101000a900473ffffffffffffffffffffffffffffffffffffffff1673ffffffffffffffffffffffffffffffffffffffff163373ffffffffffffffffffffffffffffffffffffffff16146104b3576040517f08c379a00000000000000000000000000000000000000000000000000000000081526004016104aa9061115c565b60405180910390fd5b61056f6003836040516104c691906111b4565b908152602001604051809103902080546104df906110e2565b80601f016020809104026020016040519081016040528092919081815260200182805461050b906110e2565b80156105565780601f1061052d57610100808354040283529160200191610556565b820191905f5260205f20905b81548152906001019060200180831161053957829003601f168201915b505050505060405180602001604052805f815250610ad9565b156105b257600160046002604051610587919061125c565b90815260200160405180910390206001015f8282546105a6919061129f565b92505081905550610709565b6106606003836040516105c591906111b4565b908152602001604051809103902080546105de906110e2565b80601f016020809104026020016040519081016040528092919081815260200182805461060a906110e2565b80156106555780601f1061062c57610100808354040283529160200191610655565b820191905f5260205f20905b81548152906001019060200180831161063857829003601f168201915b505050505082610ad9565b156106a357600160046002604051610678919061125c565b90815260200160405180910390206002015f828254610697919061129f565b92505081905550610708565b6001600460026040516106b6919061125c565b90815260200160405180910390205f015f8282546106d4919061129f565b925050819055507f9155208b51995e04c988eb045ef59af0f5f785f942cb81688516362b62d8fac060405160405180910390a15b5b5050565b805f5f9054906101000a900473ffffffffffffffffffffffffffffffffffffffff1673ffffffffffffffffffffffffffffffffffffffff168173ffffffffffffffffffffffffffffffffffffffff161461079c576040517f08c379a000000000000000000000000000000000000000000000000000000000815260040161079390611097565b60405180910390fd5b826003856040516107ad91906111b4565b908152602001604051809103902090816107c79190611460565b5050505050565b6003818051602081018201805184825260208301602085012081835280955050505050505f915090508054610802906110e2565b80601f016020809104026020016040519081016040528092919081815260200182805461082e906110e2565b80156108795780601f1061085057610100808354040283529160200191610879565b820191905f5260205f20905b81548152906001019060200180831161085c57829003601f168201915b505050505081565b805f5f9054906101000a900473ffffffffffffffffffffffffffffffffffffffff1673ffffffffffffffffffffffffffffffffffffffff168173ffffffffffffffffffffffffffffffffffffffff1614610910576040517f08c379a000000000000000000000000000000000000000000000000000000000815260040161090790611097565b60405180910390fd5b600560405180606001604052808681526020018573ffffffffffffffffffffffffffffffffffffffff16815260200142815250908060018154018082558091505060019003905f5260205f2090600302015f909190919091505f820151815f01908161097c9190611460565b506020820151816001015f6101000a81548173ffffffffffffffffffffffffffffffffffffffff021916908373ffffffffffffffffffffffffffffffffffffffff16021790555060408201518160020155505083600290816109de9190611460565b508260015f6101000a81548173ffffffffffffffffffffffffffffffffffffffff021916908373ffffffffffffffffffffffffffffffffffffffff16021790555050505050565b6004818051602081018201805184825260208301602085012081835280955050505050505f91509050805f0154908060010154908060020154905083565b5f5f5f60046002604051610a77919061125c565b90815260200160405180910390206002015460046002604051610a9a919061125c565b90815260200160405180910390205f015460046002604051610abc919061125c565b908152602001604051809103902060010154925092509250909192565b5f81604051602001610aeb91906111b4565b6040516020818303038152906040528051906020012083604051602001610b1291906111b4565b6040516020818303038152906040528051906020012014905092915050565b5f73ffffffffffffffffffffffffffffffffffffffff82169050919050565b5f610b5a82610b31565b9050919050565b610b6a81610b50565b82525050565b5f602082019050610b835f830184610b61565b92915050565b5f604051905090565b5f5ffd5b5f5ffd5b610ba381610b50565b8114610bad575f5ffd5b50565b5f81359050610bbe81610b9a565b92915050565b5f5f60408385031215610bda57610bd9610b92565b5b5f610be785828601610bb0565b9250506020610bf885828601610bb0565b9150509250929050565b5f819050919050565b610c1481610c02565b8114610c1e575f5ffd5b50565b5f81359050610c2f81610c0b565b92915050565b5f60208284031215610c4a57610c49610b92565b5b5f610c5784828501610c21565b91505092915050565b5f81519050919050565b5f82825260208201905092915050565b8281835e5f83830152505050565b5f601f19601f8301169050919050565b5f610ca282610c60565b610cac8185610c6a565b9350610cbc818560208601610c7a565b610cc581610c88565b840191505092915050565b610cd981610c02565b82525050565b5f6060820190508181035f830152610cf78186610c98565b9050610d066020830185610b61565b610d136040830184610cd0565b949350505050565b5f5ffd5b5f5ffd5b7f4e487b71000000000000000000000000000000000000000000000000000000005f52604160045260245ffd5b610d5982610c88565b810181811067ffffffffffffffff82111715610d7857610d77610d23565b5b80604052505050565b5f610d8a610b89565b9050610d968282610d50565b919050565b5f67ffffffffffffffff821115610db557610db4610d23565b5b610dbe82610c88565b9050602081019050919050565b828183375f83830152505050565b5f610deb610de684610d9b565b610d81565b905082815260208101848484011115610e0757610e06610d1f565b5b610e12848285610dcb565b509392505050565b5f82601f830112610e2e57610e2d610d1b565b5b8135610e3e848260208601610dd9565b91505092915050565b5f5f60408385031215610e5d57610e5c610b92565b5b5f83013567ffffffffffffffff811115610e7a57610e79610b96565b5b610e8685828601610e1a565b925050602083013567ffffffffffffffff811115610ea757610ea6610b96565b5b610eb385828601610e1a565b9150509250929050565b5f5f5f60608486031215610ed457610ed3610b92565b5b5f84013567ffffffffffffffff811115610ef157610ef0610b96565b5b610efd86828701610e1a565b935050602084013567ffffffffffffffff811115610f1e57610f1d610b96565b5b610f2a86828701610e1a565b9250506040610f3b86828701610bb0565b9150509250925092565b5f60208284031215610f5a57610f59610b92565b5b5f82013567ffffffffffffffff811115610f7757610f76610b96565b5b610f8384828501610e1a565b91505092915050565b5f6020820190508181035f830152610fa48184610c98565b905092915050565b5f5f5f60608486031215610fc357610fc2610b92565b5b5f84013567ffffffffffffffff811115610fe057610fdf610b96565b5b610fec86828701610e1a565b9350506020610ffd86828701610bb0565b925050604061100e86828701610bb0565b9150509250925092565b5f60608201905061102b5f830186610cd0565b6110386020830185610cd0565b6110456040830184610cd0565b949350505050565b7f43616c6c6572206973206e6f7420636f6e74726f6c6c657200000000000000005f82015250565b5f611081601883610c6a565b915061108c8261104d565b602082019050919050565b5f6020820190508181035f8301526110ae81611075565b9050919050565b7f4e487b71000000000000000000000000000000000000000000000000000000005f52602260045260245ffd5b5f60028204905060018216806110f957607f821691505b60208210810361110c5761110b6110b5565b5b50919050565b7f43616c6c6572206973206e6f74206567726573732065646765000000000000005f82015250565b5f611146601983610c6a565b915061115182611112565b602082019050919050565b5f6020820190508181035f8301526111738161113a565b9050919050565b5f81905092915050565b5f61118e82610c60565b611198818561117a565b93506111a8818560208601610c7a565b80840191505092915050565b5f6111bf8284611184565b915081905092915050565b5f819050815f5260205f209050919050565b5f81546111e8816110e2565b6111f2818661117a565b9450600182165f811461120c576001811461122157611253565b60ff1983168652811515820286019350611253565b61122a856111ca565b5f5b8381101561124b5781548189015260018201915060208101905061122c565b838801955050505b50505092915050565b5f61126782846111dc565b915081905092915050565b7f4e487b71000000000000000000000000000000000000000000000000000000005f52601160045260245ffd5b5f6112a982610c02565b91506112b483610c02565b92508282019050808211156112cc576112cb611272565b5b92915050565b5f6020601f8301049050919050565b5f82821b905092915050565b5f6008830261131c7fffffffffffffffffffffffffffffffffffffffffffffffffffffffffffffffff826112e1565b61132686836112e1565b95508019841693508086168417925050509392505050565b5f819050919050565b5f61136161135c61135784610c02565b61133e565b610c02565b9050919050565b5f819050919050565b61137a83611347565b61138e61138682611368565b8484546112ed565b825550505050565b5f5f905090565b6113a5611396565b6113b0818484611371565b505050565b5b818110156113d3576113c85f8261139d565b6001810190506113b6565b5050565b601f821115611418576113e9816111ca565b6113f2846112d2565b81016020851015611401578190505b61141561140d856112d2565b8301826113b5565b50505b505050565b5f82821c905092915050565b5f6114385f198460080261141d565b1980831691505092915050565b5f6114508383611429565b9150826002028217905092915050565b61146982610c60565b67ffffffffffffffff81111561148257611481610d23565b5b61148c82546110e2565b6114978282856113d7565b5f60209050601f8311600181146114c8575f84156114b6578287015190505b6114c08582611445565b865550611527565b601f1984166114d6866111ca565b5f5b828110156114fd578489015182556001820191506020850194506020810190506114d8565b8683101561151a5784890151611516601f891682611429565b8355505b6001600288020188555050505b50505050505056fea264697066735822122095c48f74e15a9a0d6b280b2a606b60f05552063e442096ee5e2678196d46186464736f6c634300081c0033",
					"opcodes": "PUSH1 0x80 PUSH1 0x40 MSTORE CALLVALUE DUP1 ISZERO PUSH2 0xF JUMPI PUSH0 PUSH0 REVERT JUMPDEST POP PUSH1 0x40 MLOAD PUSH2 0x1D25 CODESIZE SUB DUP1 PUSH2 0x1D25 DUP4 CODECOPY DUP2 DUP2 ADD PUSH1 0x40 MSTORE DUP2 ADD SWAP1 PUSH2 0x31 SWAP2 SWAP1 PUSH2 0x418 JUMP JUMPDEST PUSH0 PUSH1 0x4 DUP3 PUSH1 0x40 MLOAD PUSH2 0x42 SWAP2 SWAP1 PUSH2 0x4C8 JUMP JUMPDEST SWAP1 DUP2 MSTORE PUSH1 0x20 ADD PUSH1 0x40 MLOAD DUP1 SWAP2 SUB SWAP1 KECCAK256 PUSH0 ADD DUP2 SWAP1 SSTORE POP PUSH0 PUSH1 0x4 DUP3 PUSH1 0x40 MLOAD PUSH2 0x67 SWAP2 SWAP1 PUSH2 0x4C8 JUMP JUMPDEST SWAP1 DUP2 MSTORE PUSH1 0x20 ADD PUSH1 0x40 MLOAD DUP1 SWAP2 SUB SWAP1 KECCAK256 PUSH1 0x2 ADD DUP2 SWAP1 SSTORE POP PUSH0 PUSH1 0x4 DUP3 PUSH1 0x40 MLOAD PUSH2 0x8D SWAP2 SWAP1 PUSH2 0x4C8 JUMP JUMPDEST SWAP1 DUP2 MSTORE PUSH1 0x20 ADD PUSH1 0x40 MLOAD DUP1 SWAP2 SUB SWAP1 KECCAK256 PUSH1 0x1 ADD DUP2 SWAP1 SSTORE POP DUP3 PUSH0 PUSH0 PUSH2 0x100 EXP DUP2 SLOAD DUP2 PUSH20 0xFFFFFFFFFFFFFFFFFFFFFFFFFFFFFFFFFFFFFFFF MUL NOT AND SWAP1 DUP4 PUSH20 0xFFFFFFFFFFFFFFFFFFFFFFFFFFFFFFFFFFFFFFFF AND MUL OR SWAP1 SSTORE POP DUP2 PUSH1 0x1 PUSH0 PUSH2 0x100 EXP DUP2 SLOAD DUP2 PUSH20 0xFFFFFFFFFFFFFFFFFFFFFFFFFFFFFFFFFFFFFFFF MUL NOT AND SWAP1 DUP4 PUSH20 0xFFFFFFFFFFFFFFFFFFFFFFFFFFFFFFFFFFFFFFFF AND MUL OR SWAP1 SSTORE POP DUP1 PUSH1 0x2 SWAP1 DUP2 PUSH2 0x130 SWAP2 SWAP1 PUSH2 0x6E4 JUMP JUMPDEST POP PUSH1 0x5 PUSH1 0x40 MLOAD DUP1 PUSH1 0x60 ADD PUSH1 0x40 MSTORE DUP1 DUP4 DUP2 MSTORE PUSH1 0x20 ADD DUP5 PUSH20 0xFFFFFFFFFFFFFFFFFFFFFFFFFFFFFFFFFFFFFFFF AND DUP2 MSTORE PUSH1 0x20 ADD TIMESTAMP DUP2 MSTORE POP SWAP1 DUP1 PUSH1 0x1 DUP2 SLOAD ADD DUP1 DUP3 SSTORE DUP1 SWAP2 POP POP PUSH1 0x1 SWAP1 SUB SWAP1 PUSH0 MSTORE PUSH1 0x20 PUSH0 KECCAK256 SWAP1 PUSH1 0x3 MUL ADD PUSH0 SWAP1 SWAP2 SWAP1 SWAP2 SWAP1 SWAP2 POP PUSH0 DUP3 ADD MLOAD DUP2 PUSH0 ADD SWAP1 DUP2 PUSH2 0x19D SWAP2 SWAP1 PUSH2 0x6E4 JUMP JUMPDEST POP PUSH1 0x20 DUP3 ADD MLOAD DUP2 PUSH1 0x1 ADD PUSH0 PUSH2 0x100 EXP DUP2 SLOAD DUP2 PUSH20 0xFFFFFFFFFFFFFFFFFFFFFFFFFFFFFFFFFFFFFFFF MUL NOT AND SWAP1 DUP4 PUSH20 0xFFFFFFFFFFFFFFFFFFFFFFFFFFFFFFFFFFFFFFFF AND MUL OR SWAP1 SSTORE POP PUSH1 0x40 DUP3 ADD MLOAD DUP2 PUSH1 0x2 ADD SSTORE POP POP PUSH0 PUSH0 SWAP1 SLOAD SWAP1 PUSH2 0x100 EXP SWAP1 DIV PUSH20 0xFFFFFFFFFFFFFFFFFFFFFFFFFFFFFFFFFFFFFFFF AND PUSH20 0xFFFFFFFFFFFFFFFFFFFFFFFFFFFFFFFFFFFFFFFF AND PUSH0 PUSH20 0xFFFFFFFFFFFFFFFFFFFFFFFFFFFFFFFFFFFFFFFF AND PUSH31 0x7582B62407F53D49CFC72E7DDAB574C06EF3B8ACED104B54B7BED4681EE54A PUSH1 0x40 MLOAD PUSH1 0x40 MLOAD DUP1 SWAP2 SUB SWAP1 LOG3 POP POP POP PUSH2 0x7B3 JUMP JUMPDEST PUSH0 PUSH1 0x40 MLOAD SWAP1 POP SWAP1 JUMP JUMPDEST PUSH0 PUSH0 REVERT JUMPDEST PUSH0 PUSH0 REVERT JUMPDEST PUSH0 PUSH20 0xFFFFFFFFFFFFFFFFFFFFFFFFFFFFFFFFFFFFFFFF DUP3 AND SWAP1 POP SWAP2 SWAP1 POP JUMP JUMPDEST PUSH0 PUSH2 0x2AB DUP3 PUSH2 0x282 JUMP JUMPDEST SWAP1 POP SWAP2 SWAP1 POP JUMP JUMPDEST PUSH2 0x2BB DUP2 PUSH2 0x2A1 JUMP JUMPDEST DUP2 EQ PUSH2 0x2C5 JUMPI PUSH0 PUSH0 REVERT JUMPDEST POP JUMP JUMPDEST PUSH0 DUP2 MLOAD SWAP1 POP PUSH2 0x2D6 DUP2 PUSH2 0x2B2 JUMP JUMPDEST SWAP3 SWAP2 POP POP JUMP JUMPDEST PUSH0 PUSH0 REVERT JUMPDEST PUSH0 PUSH0 REVERT JUMPDEST PUSH0 PUSH1 0x1F NOT PUSH1 0x1F DUP4 ADD AND SWAP1 POP SWAP2 SWAP1 POP JUMP JUMPDEST PUSH32 0x4E487B7100000000000000000000000000000000000000000000000000000000 PUSH0 MSTORE PUSH1 0x41 PUSH1 0x4 MSTORE PUSH1 0x24 PUSH0 REVERT JUMPDEST PUSH2 0x32A DUP3 PUSH2 0x2E4 JUMP JUMPDEST DUP2 ADD DUP2 DUP2 LT PUSH8 0xFFFFFFFFFFFFFFFF DUP3 GT OR ISZERO PUSH2 0x349 JUMPI PUSH2 0x348 PUSH2 0x2F4 JUMP JUMPDEST JUMPDEST DUP1 PUSH1 0x40 MSTORE POP POP POP JUMP JUMPDEST PUSH0 PUSH2 0x35B PUSH2 0x271 JUMP JUMPDEST SWAP1 POP PUSH2 0x367 DUP3 DUP3 PUSH2 0x321 JUMP JUMPDEST SWAP2 SWAP1 POP JUMP JUMPDEST PUSH0 PUSH8 0xFFFFFFFFFFFFFFFF DUP3 GT ISZERO PUSH2 0x386 JUMPI PUSH2 0x385 PUSH2 0x2F4 JUMP JUMPDEST JUMPDEST PUSH2 0x38F DUP3 PUSH2 0x2E4 JUMP JUMPDEST SWAP1 POP PUSH1 0x20 DUP2 ADD SWAP1 POP SWAP2 SWAP1 POP JUMP JUMPDEST DUP3 DUP2 DUP4 MCOPY PUSH0 DUP4 DUP4 ADD MSTORE POP POP POP JUMP JUMPDEST PUSH0 PUSH2 0x3BC PUSH2 0x3B7 DUP5 PUSH2 0x36C JUMP JUMPDEST PUSH2 0x352 JUMP JUMPDEST SWAP1 POP DUP3 DUP2 MSTORE PUSH1 0x20 DUP2 ADD DUP5 DUP5 DUP5 ADD GT ISZERO PUSH2 0x3D8 JUMPI PUSH2 0x3D7 PUSH2 0x2E0 JUMP JUMPDEST JUMPDEST PUSH2 0x3E3 DUP5 DUP3 DUP6 PUSH2 0x39C JUMP JUMPDEST POP SWAP4 SWAP3 POP POP POP JUMP JUMPDEST PUSH0 DUP3 PUSH1 0x1F DUP4 ADD SLT PUSH2 0x3FF JUMPI PUSH2 0x3FE PUSH2 0x2DC JUMP JUMPDEST JUMPDEST DUP2 MLOAD PUSH2 0x40F DUP5 DUP3 PUSH1 0x20 DUP7 ADD PUSH2 0x3AA JUMP JUMPDEST SWAP2 POP POP SWAP3 SWAP2 POP POP JUMP JUMPDEST PUSH0 PUSH0 PUSH0 PUSH1 0x60 DUP5 DUP7 SUB SLT ISZERO PUSH2 0x42F JUMPI PUSH2 0x42E PUSH2 0x27A JUMP JUMPDEST JUMPDEST PUSH0 PUSH2 0x43C DUP7 DUP3 DUP8 ADD PUSH2 0x2C8 JUMP JUMPDEST SWAP4 POP POP PUSH1 0x20 PUSH2 0x44D DUP7 DUP3 DUP8 ADD PUSH2 0x2C8 JUMP JUMPDEST SWAP3 POP POP PUSH1 0x40 DUP5 ADD MLOAD PUSH8 0xFFFFFFFFFFFFFFFF DUP2 GT ISZERO PUSH2 0x46E JUMPI PUSH2 0x46D PUSH2 0x27E JUMP JUMPDEST JUMPDEST PUSH2 0x47A DUP7 DUP3 DUP8 ADD PUSH2 0x3EB JUMP JUMPDEST SWAP2 POP POP SWAP3 POP SWAP3 POP SWAP3 JUMP JUMPDEST PUSH0 DUP2 MLOAD SWAP1 POP SWAP2 SWAP1 POP JUMP JUMPDEST PUSH0 DUP2 SWAP1 POP SWAP3 SWAP2 POP POP JUMP JUMPDEST PUSH0 PUSH2 0x4A2 DUP3 PUSH2 0x484 JUMP JUMPDEST PUSH2 0x4AC DUP2 DUP6 PUSH2 0x48E JUMP JUMPDEST SWAP4 POP PUSH2 0x4BC DUP2 DUP6 PUSH1 0x20 DUP7 ADD PUSH2 0x39C JUMP JUMPDEST DUP1 DUP5 ADD SWAP2 POP POP SWAP3 SWAP2 POP POP JUMP JUMPDEST PUSH0 PUSH2 0x4D3 DUP3 DUP5 PUSH2 0x498 JUMP JUMPDEST SWAP2 POP DUP2 SWAP1 POP SWAP3 SWAP2 POP POP JUMP JUMPDEST PUSH32 0x4E487B7100000000000000000000000000000000000000000000000000000000 PUSH0 MSTORE PUSH1 0x22 PUSH1 0x4 MSTORE PUSH1 0x24 PUSH0 REVERT JUMPDEST PUSH0 PUSH1 0x2 DUP3 DIV SWAP1 POP PUSH1 0x1 DUP3 AND DUP1 PUSH2 0x522 JUMPI PUSH1 0x7F DUP3 AND SWAP2 POP JUMPDEST PUSH1 0x20 DUP3 LT DUP2 SUB PUSH2 0x535 JUMPI PUSH2 0x534 PUSH2 0x4DE JUMP JUMPDEST JUMPDEST POP SWAP2 SWAP1 POP JUMP JUMPDEST PUSH0 DUP2 SWAP1 POP DUP2 PUSH0 MSTORE PUSH1 0x20 PUSH0 KECCAK256 SWAP1 POP SWAP2 SWAP1 POP JUMP JUMPDEST PUSH0 PUSH1 0x20 PUSH1 0x1F DUP4 ADD DIV SWAP1 POP SWAP2 SWAP1 POP JUMP JUMPDEST PUSH0 DUP3 DUP3 SHL SWAP1 POP SWAP3 SWAP2 POP POP JUMP JUMPDEST PUSH0 PUSH1 0x8 DUP4 MUL PUSH2 0x597 PUSH32 0xFFFFFFFFFFFFFFFFFFFFFFFFFFFFFFFFFFFFFFFFFFFFFFFFFFFFFFFFFFFFFFFF DUP3 PUSH2 0x55C JUMP JUMPDEST PUSH2 0x5A1 DUP7 DUP4 PUSH2 0x55C JUMP JUMPDEST SWAP6 POP DUP1 NOT DUP5 AND SWAP4 POP DUP1 DUP7 AND DUP5 OR SWAP3 POP POP POP SWAP4 SWAP3 POP POP POP JUMP JUMPDEST PUSH0 DUP2 SWAP1 POP SWAP2 SWAP1 POP JUMP JUMPDEST PUSH0 DUP2 SWAP1 POP SWAP2 SWAP1 POP JUMP JUMPDEST PUSH0 PUSH2 0x5E5 PUSH2 0x5E0 PUSH2 0x5DB DUP5 PUSH2 0x5B9 JUMP JUMPDEST PUSH2 0x5C2 JUMP JUMPDEST PUSH2 0x5B9 JUMP JUMPDEST SWAP1 POP SWAP2 SWAP1 POP JUMP JUMPDEST PUSH0 DUP2 SWAP1 POP SWAP2 SWAP1 POP JUMP JUMPDEST PUSH2 0x5FE DUP4 PUSH2 0x5CB JUMP JUMPDEST PUSH2 0x612 PUSH2 0x60A DUP3 PUSH2 0x5EC JUMP JUMPDEST DUP5 DUP5 SLOAD PUSH2 0x568 JUMP JUMPDEST DUP3 SSTORE POP POP POP POP JUMP JUMPDEST PUSH0 PUSH0 SWAP1 POP SWAP1 JUMP JUMPDEST PUSH2 0x629 PUSH2 0x61A JUMP JUMPDEST PUSH2 0x634 DUP2 DUP5 DUP5 PUSH2 0x5F5 JUMP JUMPDEST POP POP POP JUMP JUMPDEST JUMPDEST DUP2 DUP2 LT ISZERO PUSH2 0x657 JUMPI PUSH2 0x64C PUSH0 DUP3 PUSH2 0x621 JUMP JUMPDEST PUSH1 0x1 DUP2 ADD SWAP1 POP PUSH2 0x63A JUMP JUMPDEST POP POP JUMP JUMPDEST PUSH1 0x1F DUP3 GT ISZERO PUSH2 0x69C JUMPI PUSH2 0x66D DUP2 PUSH2 0x53B JUMP JUMPDEST PUSH2 0x676 DUP5 PUSH2 0x54D JUMP JUMPDEST DUP2 ADD PUSH1 0x20 DUP6 LT ISZERO PUSH2 0x685 JUMPI DUP2 SWAP1 POP JUMPDEST PUSH2 0x699 PUSH2 0x691 DUP6 PUSH2 0x54D JUMP JUMPDEST DUP4 ADD DUP3 PUSH2 0x639 JUMP JUMPDEST POP POP JUMPDEST POP POP POP JUMP JUMPDEST PUSH0 DUP3 DUP3 SHR SWAP1 POP SWAP3 SWAP2 POP POP JUMP JUMPDEST PUSH0 PUSH2 0x6BC PUSH0 NOT DUP5 PUSH1 0x8 MUL PUSH2 0x6A1 JUMP JUMPDEST NOT DUP1 DUP4 AND SWAP2 POP POP SWAP3 SWAP2 POP POP JUMP JUMPDEST PUSH0 PUSH2 0x6D4 DUP4 DUP4 PUSH2 0x6AD JUMP JUMPDEST SWAP2 POP DUP3 PUSH1 0x2 MUL DUP3 OR SWAP1 POP SWAP3 SWAP2 POP POP JUMP JUMPDEST PUSH2 0x6ED DUP3 PUSH2 0x484 JUMP JUMPDEST PUSH8 0xFFFFFFFFFFFFFFFF DUP2 GT ISZERO PUSH2 0x706 JUMPI PUSH2 0x705 PUSH2 0x2F4 JUMP JUMPDEST JUMPDEST PUSH2 0x710 DUP3 SLOAD PUSH2 0x50B JUMP JUMPDEST PUSH2 0x71B DUP3 DUP3 DUP6 PUSH2 0x65B JUMP JUMPDEST PUSH0 PUSH1 0x20 SWAP1 POP PUSH1 0x1F DUP4 GT PUSH1 0x1 DUP2 EQ PUSH2 0x74C JUMPI PUSH0 DUP5 ISZERO PUSH2 0x73A JUMPI DUP3 DUP8 ADD MLOAD SWAP1 POP JUMPDEST PUSH2 0x744 DUP6 DUP3 PUSH2 0x6C9 JUMP JUMPDEST DUP7 SSTORE POP PUSH2 0x7AB JUMP JUMPDEST PUSH1 0x1F NOT DUP5 AND PUSH2 0x75A DUP7 PUSH2 0x53B JUMP JUMPDEST PUSH0 JUMPDEST DUP3 DUP2 LT ISZERO PUSH2 0x781 JUMPI DUP5 DUP10 ADD MLOAD DUP3 SSTORE PUSH1 0x1 DUP3 ADD SWAP2 POP PUSH1 0x20 DUP6 ADD SWAP5 POP PUSH1 0x20 DUP2 ADD SWAP1 POP PUSH2 0x75C JUMP JUMPDEST DUP7 DUP4 LT ISZERO PUSH2 0x79E JUMPI DUP5 DUP10 ADD MLOAD PUSH2 0x79A PUSH1 0x1F DUP10 AND DUP3 PUSH2 0x6AD JUMP JUMPDEST DUP4 SSTORE POP JUMPDEST PUSH1 0x1 PUSH1 0x2 DUP9 MUL ADD DUP9 SSTORE POP POP POP JUMPDEST POP POP POP POP POP POP JUMP JUMPDEST PUSH2 0x1565 DUP1 PUSH2 0x7C0 PUSH0 CODECOPY PUSH0 RETURN INVALID PUSH1 0x80 PUSH1 0x40 MSTORE CALLVALUE DUP1 ISZERO PUSH2 0xF JUMPI PUSH0 PUSH0 REVERT JUMPDEST POP PUSH1 0x4 CALLDATASIZE LT PUSH2 0x91 JUMPI PUSH0 CALLDATALOAD PUSH1 0xE0 SHR DUP1 PUSH4 0xB68CC799 GT PUSH2 0x64 JUMPI DUP1 PUSH4 0xB68CC799 EQ PUSH2 0x11D JUMPI DUP1 PUSH4 0xBB56D412 EQ PUSH2 0x139 JUMPI DUP1 PUSH4 0xC543691A EQ PUSH2 0x169 JUMPI DUP1 PUSH4 0xEACAD774 EQ PUSH2 0x185 JUMPI DUP1 PUSH4 0xEF040BB1 EQ PUSH2 0x1B7 JUMPI PUSH2 0x91 JUMP JUMPDEST DUP1 PUSH4 0x3018205F EQ PUSH2 0x95 JUMPI DUP1 PUSH4 0x3E11E378 EQ PUSH2 0xB3 JUMPI DUP1 PUSH4 0x6118B23C EQ PUSH2 0xCF JUMPI DUP1 PUSH4 0x97C38CFC EQ PUSH2 0x101 JUMPI JUMPDEST PUSH0 PUSH0 REVERT JUMPDEST PUSH2 0x9D PUSH2 0x1D7 JUMP JUMPDEST PUSH1 0x40 MLOAD PUSH2 0xAA SWAP2 SWAP1 PUSH2 0xB70 JUMP JUMPDEST PUSH1 0x40 MLOAD DUP1 SWAP2 SUB SWAP1 RETURN JUMPDEST PUSH2 0xCD PUSH1 0x4 DUP1 CALLDATASIZE SUB DUP2 ADD SWAP1 PUSH2 0xC8 SWAP2 SWAP1 PUSH2 0xBC4 JUMP JUMPDEST PUSH2 0x1FE JUMP JUMPDEST STOP JUMPDEST PUSH2 0xE9 PUSH1 0x4 DUP1 CALLDATASIZE SUB DUP2 ADD SWAP1 PUSH2 0xE4 SWAP2 SWAP1 PUSH2 0xC35 JUMP JUMPDEST PUSH2 0x34A JUMP JUMPDEST PUSH1 0x40 MLOAD PUSH2 0xF8 SWAP4 SWAP3 SWAP2 SWAP1 PUSH2 0xCDF JUMP JUMPDEST PUSH1 0x40 MLOAD DUP1 SWAP2 SUB SWAP1 RETURN JUMPDEST PUSH2 0x11B PUSH1 0x4 DUP1 CALLDATASIZE SUB DUP2 ADD SWAP1 PUSH2 0x116 SWAP2 SWAP1 PUSH2 0xE47 JUMP JUMPDEST PUSH2 0x424 JUMP JUMPDEST STOP JUMPDEST PUSH2 0x137 PUSH1 0x4 DUP1 CALLDATASIZE SUB DUP2 ADD SWAP1 PUSH2 0x132 SWAP2 SWAP1 PUSH2 0xEBD JUMP JUMPDEST PUSH2 0x70D JUMP JUMPDEST STOP JUMPDEST PUSH2 0x153 PUSH1 0x4 DUP1 CALLDATASIZE SUB DUP2 ADD SWAP1 PUSH2 0x14E SWAP2 SWAP1 PUSH2 0xF45 JUMP JUMPDEST PUSH2 0x7CE JUMP JUMPDEST PUSH1 0x40 MLOAD PUSH2 0x160 SWAP2 SWAP1 PUSH2 0xF8C JUMP JUMPDEST PUSH1 0x40 MLOAD DUP1 SWAP2 SUB SWAP1 RETURN JUMPDEST PUSH2 0x183 PUSH1 0x4 DUP1 CALLDATASIZE SUB DUP2 ADD SWAP1 PUSH2 0x17E SWAP2 SWAP1 PUSH2 0xFAC JUMP JUMPDEST PUSH2 0x881 JUMP JUMPDEST STOP JUMPDEST PUSH2 0x19F PUSH1 0x4 DUP1 CALLDATASIZE SUB DUP2 ADD SWAP1 PUSH2 0x19A SWAP2 SWAP1 PUSH2 0xF45 JUMP JUMPDEST PUSH2 0xA25 JUMP JUMPDEST PUSH1 0x40 MLOAD PUSH2 0x1AE SWAP4 SWAP3 SWAP2 SWAP1 PUSH2 0x1018 JUMP JUMPDEST PUSH1 0x40 MLOAD DUP1 SWAP2 SUB SWAP1 RETURN JUMPDEST PUSH2 0x1BF PUSH2 0xA63 JUMP JUMPDEST PUSH1 0x40 MLOAD PUSH2 0x1CE SWAP4 SWAP3 SWAP2 SWAP1 PUSH2 0x1018 JUMP JUMPDEST PUSH1 0x40 MLOAD DUP1 SWAP2 SUB SWAP1 RETURN JUMPDEST PUSH0 PUSH0 PUSH0 SWAP1 SLOAD SWAP1 PUSH2 0x100 EXP SWAP1 DIV PUSH20 0xFFFFFFFFFFFFFFFFFFFFFFFFFFFFFFFFFFFFFFFF AND SWAP1 POP SWAP1 JUMP JUMPDEST DUP1 PUSH0 PUSH0 SWAP1 SLOAD SWAP1 PUSH2 0x100 EXP SWAP1 DIV PUSH20 0xFFFFFFFFFFFFFFFFFFFFFFFFFFFFFFFFFFFFFFFF AND PUSH20 0xFFFFFFFFFFFFFFFFFFFFFFFFFFFFFFFFFFFFFFFF AND DUP2 PUSH20 0xFFFFFFFFFFFFFFFFFFFFFFFFFFFFFFFFFFFFFFFF AND EQ PUSH2 0x28D JUMPI PUSH1 0x40 MLOAD PUSH32 0x8C379A000000000000000000000000000000000000000000000000000000000 DUP2 MSTORE PUSH1 0x4 ADD PUSH2 0x284 SWAP1 PUSH2 0x1097 JUMP JUMPDEST PUSH1 0x40 MLOAD DUP1 SWAP2 SUB SWAP1 REVERT JUMPDEST DUP3 PUSH20 0xFFFFFFFFFFFFFFFFFFFFFFFFFFFFFFFFFFFFFFFF AND PUSH0 PUSH0 SWAP1 SLOAD SWAP1 PUSH2 0x100 EXP SWAP1 DIV PUSH20 0xFFFFFFFFFFFFFFFFFFFFFFFFFFFFFFFFFFFFFFFF AND PUSH20 0xFFFFFFFFFFFFFFFFFFFFFFFFFFFFFFFFFFFFFFFF AND PUSH31 0x7582B62407F53D49CFC72E7DDAB574C06EF3B8ACED104B54B7BED4681EE54A PUSH1 0x40 MLOAD PUSH1 0x40 MLOAD DUP1 SWAP2 SUB SWAP1 LOG3 DUP3 PUSH0 PUSH0 PUSH2 0x100 EXP DUP2 SLOAD DUP2 PUSH20 0xFFFFFFFFFFFFFFFFFFFFFFFFFFFFFFFFFFFFFFFF MUL NOT AND SWAP1 DUP4 PUSH20 0xFFFFFFFFFFFFFFFFFFFFFFFFFFFFFFFFFFFFFFFF AND MUL OR SWAP1 SSTORE POP POP POP POP JUMP JUMPDEST PUSH1 0x5 DUP2 DUP2 SLOAD DUP2 LT PUSH2 0x359 JUMPI PUSH0 DUP1 REVERT JUMPDEST SWAP1 PUSH0 MSTORE PUSH1 0x20 PUSH0 KECCAK256 SWAP1 PUSH1 0x3 MUL ADD PUSH0 SWAP2 POP SWAP1 POP DUP1 PUSH0 ADD DUP1 SLOAD PUSH2 0x378 SWAP1 PUSH2 0x10E2 JUMP JUMPDEST DUP1 PUSH1 0x1F ADD PUSH1 0x20 DUP1 SWAP2 DIV MUL PUSH1 0x20 ADD PUSH1 0x40 MLOAD SWAP1 DUP2 ADD PUSH1 0x40 MSTORE DUP1 SWAP3 SWAP2 SWAP1 DUP2 DUP2 MSTORE PUSH1 0x20 ADD DUP3 DUP1 SLOAD PUSH2 0x3A4 SWAP1 PUSH2 0x10E2 JUMP JUMPDEST DUP1 ISZERO PUSH2 0x3EF JUMPI DUP1 PUSH1 0x1F LT PUSH2 0x3C6 JUMPI PUSH2 0x100 DUP1 DUP4 SLOAD DIV MUL DUP4 MSTORE SWAP2 PUSH1 0x20 ADD SWAP2 PUSH2 0x3EF JUMP JUMPDEST DUP3 ADD SWAP2 SWAP1 PUSH0 MSTORE PUSH1 0x20 PUSH0 KECCAK256 SWAP1 JUMPDEST DUP2 SLOAD DUP2 MSTORE SWAP1 PUSH1 0x1 ADD SWAP1 PUSH1 0x20 ADD DUP1 DUP4 GT PUSH2 0x3D2 JUMPI DUP3 SWAP1 SUB PUSH1 0x1F AND DUP3 ADD SWAP2 JUMPDEST POP POP POP POP POP SWAP1 DUP1 PUSH1 0x1 ADD PUSH0 SWAP1 SLOAD SWAP1 PUSH2 0x100 EXP SWAP1 DIV PUSH20 0xFFFFFFFFFFFFFFFFFFFFFFFFFFFFFFFFFFFFFFFF AND SWAP1 DUP1 PUSH1 0x2 ADD SLOAD SWAP1 POP DUP4 JUMP JUMPDEST PUSH1 0x1 PUSH0 SWAP1 SLOAD SWAP1 PUSH2 0x100 EXP SWAP1 DIV PUSH20 0xFFFFFFFFFFFFFFFFFFFFFFFFFFFFFFFFFFFFFFFF AND PUSH20 0xFFFFFFFFFFFFFFFFFFFFFFFFFFFFFFFFFFFFFFFF AND CALLER PUSH20 0xFFFFFFFFFFFFFFFFFFFFFFFFFFFFFFFFFFFFFFFF AND EQ PUSH2 0x4B3 JUMPI PUSH1 0x40 MLOAD PUSH32 0x8C379A000000000000000000000000000000000000000000000000000000000 DUP2 MSTORE PUSH1 0x4 ADD PUSH2 0x4AA SWAP1 PUSH2 0x115C JUMP JUMPDEST PUSH1 0x40 MLOAD DUP1 SWAP2 SUB SWAP1 REVERT JUMPDEST PUSH2 0x56F PUSH1 0x3 DUP4 PUSH1 0x40 MLOAD PUSH2 0x4C6 SWAP2 SWAP1 PUSH2 0x11B4 JUMP JUMPDEST SWAP1 DUP2 MSTORE PUSH1 0x20 ADD PUSH1 0x40 MLOAD DUP1 SWAP2 SUB SWAP1 KECCAK256 DUP1 SLOAD PUSH2 0x4DF SWAP1 PUSH2 0x10E2 JUMP JUMPDEST DUP1 PUSH1 0x1F ADD PUSH1 0x20 DUP1 SWAP2 DIV MUL PUSH1 0x20 ADD PUSH1 0x40 MLOAD SWAP1 DUP2 ADD PUSH1 0x40 MSTORE DUP1 SWAP3 SWAP2 SWAP1 DUP2 DUP2 MSTORE PUSH1 0x20 ADD DUP3 DUP1 SLOAD PUSH2 0x50B SWAP1 PUSH2 0x10E2 JUMP JUMPDEST DUP1 ISZERO PUSH2 0x556 JUMPI DUP1 PUSH1 0x1F LT PUSH2 0x52D JUMPI PUSH2 0x100 DUP1 DUP4 SLOAD DIV MUL DUP4 MSTORE SWAP2 PUSH1 0x20 ADD SWAP2 PUSH2 0x556 JUMP JUMPDEST DUP3 ADD SWAP2 SWAP1 PUSH0 MSTORE PUSH1 0x20 PUSH0 KECCAK256 SWAP1 JUMPDEST DUP2 SLOAD DUP2 MSTORE SWAP1 PUSH1 0x1 ADD SWAP1 PUSH1 0x20 ADD DUP1 DUP4 GT PUSH2 0x539 JUMPI DUP3 SWAP1 SUB PUSH1 0x1F AND DUP3 ADD SWAP2 JUMPDEST POP POP POP POP POP PUSH1 0x40 MLOAD DUP1 PUSH1 0x20 ADD PUSH1 0x40 MSTORE DUP1 PUSH0 DUP2 MSTORE POP PUSH2 0xAD9 JUMP JUMPDEST ISZERO PUSH2 0x5B2 JUMPI PUSH1 0x1 PUSH1 0x4 PUSH1 0x2 PUSH1 0x40 MLOAD PUSH2 0x587 SWAP2 SWAP1 PUSH2 0x125C JUMP JUMPDEST SWAP1 DUP2 MSTORE PUSH1 0x20 ADD PUSH1 0x40 MLOAD DUP1 SWAP2 SUB SWAP1 KECCAK256 PUSH1 0x1 ADD PUSH0 DUP3 DUP3 SLOAD PUSH2 0x5A6 SWAP2 SWAP1 PUSH2 0x129F JUMP JUMPDEST SWAP3 POP POP DUP2 SWAP1 SSTORE POP PUSH2 0x709 JUMP JUMPDEST PUSH2 0x660 PUSH1 0x3 DUP4 PUSH1 0x40 MLOAD PUSH2 0x5C5 SWAP2 SWAP1 PUSH2 0x11B4 JUMP JUMPDEST SWAP1 DUP2 MSTORE PUSH1 0x20 ADD PUSH1 0x40 MLOAD DUP1 SWAP2 SUB SWAP1 KECCAK256 DUP1 SLOAD PUSH2 0x5DE SWAP1 PUSH2 0x10E2 JUMP JUMPDEST DUP1 PUSH1 0x1F ADD PUSH1 0x20 DUP1 SWAP2 DIV MUL PUSH1 0x20 ADD PUSH1 0x40 MLOAD SWAP1 DUP2 ADD PUSH1 0x40 MSTORE DUP1 SWAP3 SWAP2 SWAP1 DUP2 DUP2 MSTORE PUSH1 0x20 ADD DUP3 DUP1 SLOAD PUSH2 0x60A SWAP1 PUSH2 0x10E2 JUMP JUMPDEST DUP1 ISZERO PUSH2 0x655 JUMPI DUP1 PUSH1 0x1F LT PUSH2 0x62C JUMPI PUSH2 0x100 DUP1 DUP4 SLOAD DIV MUL DUP4 MSTORE SWAP2 PUSH1 0x20 ADD SWAP2 PUSH2 0x655 JUMP JUMPDEST DUP3 ADD SWAP2 SWAP1 PUSH0 MSTORE PUSH1 0x20 PUSH0 KECCAK256 SWAP1 JUMPDEST DUP2 SLOAD DUP2 MSTORE SWAP1 PUSH1 0x1 ADD SWAP1 PUSH1 0x20 ADD DUP1 DUP4 GT PUSH2 0x638 JUMPI DUP3 SWAP1 SUB PUSH1 0x1F AND DUP3 ADD SWAP2 JUMPDEST POP POP POP POP POP DUP3 PUSH2 0xAD9 JUMP JUMPDEST ISZERO PUSH2 0x6A3 JUMPI PUSH1 0x1 PUSH1 0x4 PUSH1 0x2 PUSH1 0x40 MLOAD PUSH2 0x678 SWAP2 SWAP1 PUSH2 0x125C JUMP JUMPDEST SWAP1 DUP2 MSTORE PUSH1 0x20 ADD PUSH1 0x40 MLOAD DUP1 SWAP2 SUB SWAP1 KECCAK256 PUSH1 0x2 ADD PUSH0 DUP3 DUP3 SLOAD PUSH2 0x697 SWAP2 SWAP1 PUSH2 0x129F JUMP JUMPDEST SWAP3 POP POP DUP2 SWAP1 SSTORE POP PUSH2 0x708 JUMP JUMPDEST PUSH1 0x1 PUSH1 0x4 PUSH1 0x2 PUSH1 0x40 MLOAD PUSH2 0x6B6 SWAP2 SWAP1 PUSH2 0x125C JUMP JUMPDEST SWAP1 DUP2 MSTORE PUSH1 0x20 ADD PUSH1 0x40 MLOAD DUP1 SWAP2 SUB SWAP1 KECCAK256 PUSH0 ADD PUSH0 DUP3 DUP3 SLOAD PUSH2 0x6D4 SWAP2 SWAP1 PUSH2 0x129F JUMP JUMPDEST SWAP3 POP POP DUP2 SWAP1 SSTORE POP PUSH32 0x9155208B51995E04C988EB045EF59AF0F5F785F942CB81688516362B62D8FAC0 PUSH1 0x40 MLOAD PUSH1 0x40 MLOAD DUP1 SWAP2 SUB SWAP1 LOG1 JUMPDEST JUMPDEST POP POP JUMP JUMPDEST DUP1 PUSH0 PUSH0 SWAP1 SLOAD SWAP1 PUSH2 0x100 EXP SWAP1 DIV PUSH20 0xFFFFFFFFFFFFFFFFFFFFFFFFFFFFFFFFFFFFFFFF AND PUSH20 0xFFFFFFFFFFFFFFFFFFFFFFFFFFFFFFFFFFFFFFFF AND DUP2 PUSH20 0xFFFFFFFFFFFFFFFFFFFFFFFFFFFFFFFFFFFFFFFF AND EQ PUSH2 0x79C JUMPI PUSH1 0x40 MLOAD PUSH32 0x8C379A000000000000000000000000000000000000000000000000000000000 DUP2 MSTORE PUSH1 0x4 ADD PUSH2 0x793 SWAP1 PUSH2 0x1097 JUMP JUMPDEST PUSH1 0x40 MLOAD DUP1 SWAP2 SUB SWAP1 REVERT JUMPDEST DUP3 PUSH1 0x3 DUP6 PUSH1 0x40 MLOAD PUSH2 0x7AD SWAP2 SWAP1 PUSH2 0x11B4 JUMP JUMPDEST SWAP1 DUP2 MSTORE PUSH1 0x20 ADD PUSH1 0x40 MLOAD DUP1 SWAP2 SUB SWAP1 KECCAK256 SWAP1 DUP2 PUSH2 0x7C7 SWAP2 SWAP1 PUSH2 0x1460 JUMP JUMPDEST POP POP POP POP POP JUMP JUMPDEST PUSH1 0x3 DUP2 DUP1 MLOAD PUSH1 0x20 DUP2 ADD DUP3 ADD DUP1 MLOAD DUP5 DUP3 MSTORE PUSH1 0x20 DUP4 ADD PUSH1 0x20 DUP6 ADD KECCAK256 DUP2 DUP4 MSTORE DUP1 SWAP6 POP POP POP POP POP POP PUSH0 SWAP2 POP SWAP1 POP DUP1 SLOAD PUSH2 0x802 SWAP1 PUSH2 0x10E2 JUMP JUMPDEST DUP1 PUSH1 0x1F ADD PUSH1 0x20 DUP1 SWAP2 DIV MUL PUSH1 0x20 ADD PUSH1 0x40 MLOAD SWAP1 DUP2 ADD PUSH1 0x40 MSTORE DUP1 SWAP3 SWAP2 SWAP1 DUP2 DUP2 MSTORE PUSH1 0x20 ADD DUP3 DUP1 SLOAD PUSH2 0x82E SWAP1 PUSH2 0x10E2 JUMP JUMPDEST DUP1 ISZERO PUSH2 0x879 JUMPI DUP1 PUSH1 0x1F LT PUSH2 0x850 JUMPI PUSH2 0x100 DUP1 DUP4 SLOAD DIV MUL DUP4 MSTORE SWAP2 PUSH1 0x20 ADD SWAP2 PUSH2 0x879 JUMP JUMPDEST DUP3 ADD SWAP2 SWAP1 PUSH0 MSTORE PUSH1 0x20 PUSH0 KECCAK256 SWAP1 JUMPDEST DUP2 SLOAD DUP2 MSTORE SWAP1 PUSH1 0x1 ADD SWAP1 PUSH1 0x20 ADD DUP1 DUP4 GT PUSH2 0x85C JUMPI DUP3 SWAP1 SUB PUSH1 0x1F AND DUP3 ADD SWAP2 JUMPDEST POP POP POP POP POP DUP2 JUMP JUMPDEST DUP1 PUSH0 PUSH0 SWAP1 SLOAD SWAP1 PUSH2 0x100 EXP SWAP1 DIV PUSH20 0xFFFFFFFFFFFFFFFFFFFFFFFFFFFFFFFFFFFFFFFF AND PUSH20 0xFFFFFFFFFFFFFFFFFFFFFFFFFFFFFFFFFFFFFFFF AND DUP2 PUSH20 0xFFFFFFFFFFFFFFFFFFFFFFFFFFFFFFFFFFFFFFFF AND EQ PUSH2 0x910 JUMPI PUSH1 0x40 MLOAD PUSH32 0x8C379A000000000000000000000000000000000000000000000000000000000 DUP2 MSTORE PUSH1 0x4 ADD PUSH2 0x907 SWAP1 PUSH2 0x1097 JUMP JUMPDEST PUSH1 0x40 MLOAD DUP1 SWAP2 SUB SWAP1 REVERT JUMPDEST PUSH1 0x5 PUSH1 0x40 MLOAD DUP1 PUSH1 0x60 ADD PUSH1 0x40 MSTORE DUP1 DUP7 DUP2 MSTORE PUSH1 0x20 ADD DUP6 PUSH20 0xFFFFFFFFFFFFFFFFFFFFFFFFFFFFFFFFFFFFFFFF AND DUP2 MSTORE PUSH1 0x20 ADD TIMESTAMP DUP2 MSTORE POP SWAP1 DUP1 PUSH1 0x1 DUP2 SLOAD ADD DUP1 DUP3 SSTORE DUP1 SWAP2 POP POP PUSH1 0x1 SWAP1 SUB SWAP1 PUSH0 MSTORE PUSH1 0x20 PUSH0 KECCAK256 SWAP1 PUSH1 0x3 MUL ADD PUSH0 SWAP1 SWAP2 SWAP1 SWAP2 SWAP1 SWAP2 POP PUSH0 DUP3 ADD MLOAD DUP2 PUSH0 ADD SWAP1 DUP2 PUSH2 0x97C SWAP2 SWAP1 PUSH2 0x1460 JUMP JUMPDEST POP PUSH1 0x20 DUP3 ADD MLOAD DUP2 PUSH1 0x1 ADD PUSH0 PUSH2 0x100 EXP DUP2 SLOAD DUP2 PUSH20 0xFFFFFFFFFFFFFFFFFFFFFFFFFFFFFFFFFFFFFFFF MUL NOT AND SWAP1 DUP4 PUSH20 0xFFFFFFFFFFFFFFFFFFFFFFFFFFFFFFFFFFFFFFFF AND MUL OR SWAP1 SSTORE POP PUSH1 0x40 DUP3 ADD MLOAD DUP2 PUSH1 0x2 ADD SSTORE POP POP DUP4 PUSH1 0x2 SWAP1 DUP2 PUSH2 0x9DE SWAP2 SWAP1 PUSH2 0x1460 JUMP JUMPDEST POP DUP3 PUSH1 0x1 PUSH0 PUSH2 0x100 EXP DUP2 SLOAD DUP2 PUSH20 0xFFFFFFFFFFFFFFFFFFFFFFFFFFFFFFFFFFFFFFFF MUL NOT AND SWAP1 DUP4 PUSH20 0xFFFFFFFFFFFFFFFFFFFFFFFFFFFFFFFFFFFFFFFF AND MUL OR SWAP1 SSTORE POP POP POP POP POP JUMP JUMPDEST PUSH1 0x4 DUP2 DUP1 MLOAD PUSH1 0x20 DUP2 ADD DUP3 ADD DUP1 MLOAD DUP5 DUP3 MSTORE PUSH1 0x20 DUP4 ADD PUSH1 0x20 DUP6 ADD KECCAK256 DUP2 DUP4 MSTORE DUP1 SWAP6 POP POP POP POP POP POP PUSH0 SWAP2 POP SWAP1 POP DUP1 PUSH0 ADD SLOAD SWAP1 DUP1 PUSH1 0x1 ADD SLOAD SWAP1 DUP1 PUSH1 0x2 ADD SLOAD SWAP1 POP DUP4 JUMP JUMPDEST PUSH0 PUSH0 PUSH0 PUSH1 0x4 PUSH1 0x2 PUSH1 0x40 MLOAD PUSH2 0xA77 SWAP2 SWAP1 PUSH2 0x125C JUMP JUMPDEST SWAP1 DUP2 MSTORE PUSH1 0x20 ADD PUSH1 0x40 MLOAD DUP1 SWAP2 SUB SWAP1 KECCAK256 PUSH1 0x2 ADD SLOAD PUSH1 0x4 PUSH1 0x2 PUSH1 0x40 MLOAD PUSH2 0xA9A SWAP2 SWAP1 PUSH2 0x125C JUMP JUMPDEST SWAP1 DUP2 MSTORE PUSH1 0x20 ADD PUSH1 0x40 MLOAD DUP1 SWAP2 SUB SWAP1 KECCAK256 PUSH0 ADD SLOAD PUSH1 0x4 PUSH1 0x2 PUSH1 0x40 MLOAD PUSH2 0xABC SWAP2 SWAP1 PUSH2 0x125C JUMP JUMPDEST SWAP1 DUP2 MSTORE PUSH1 0x20 ADD PUSH1 0x40 MLOAD DUP1 SWAP2 SUB SWAP1 KECCAK256 PUSH1 0x1 ADD SLOAD SWAP3 POP SWAP3 POP SWAP3 POP SWAP1 SWAP2 SWAP3 JUMP JUMPDEST PUSH0 DUP2 PUSH1 0x40 MLOAD PUSH1 0x20 ADD PUSH2 0xAEB SWAP2 SWAP1 PUSH2 0x11B4 JUMP JUMPDEST PUSH1 0x40 MLOAD PUSH1 0x20 DUP2 DUP4 SUB SUB DUP2 MSTORE SWAP1 PUSH1 0x40 MSTORE DUP1 MLOAD SWAP1 PUSH1 0x20 ADD KECCAK256 DUP4 PUSH1 0x40 MLOAD PUSH1 0x20 ADD PUSH2 0xB12 SWAP2 SWAP1 PUSH2 0x11B4 JUMP JUMPDEST PUSH1 0x40 MLOAD PUSH1 0x20 DUP2 DUP4 SUB SUB DUP2 MSTORE SWAP1 PUSH1 0x40 MSTORE DUP1 MLOAD SWAP1 PUSH1 0x20 ADD KECCAK256 EQ SWAP1 POP SWAP3 SWAP2 POP POP JUMP JUMPDEST PUSH0 PUSH20 0xFFFFFFFFFFFFFFFFFFFFFFFFFFFFFFFFFFFFFFFF DUP3 AND SWAP1 POP SWAP2 SWAP1 POP JUMP JUMPDEST PUSH0 PUSH2 0xB5A DUP3 PUSH2 0xB31 JUMP JUMPDEST SWAP1 POP SWAP2 SWAP1 POP JUMP JUMPDEST PUSH2 0xB6A DUP2 PUSH2 0xB50 JUMP JUMPDEST DUP3 MSTORE POP POP JUMP JUMPDEST PUSH0 PUSH1 0x20 DUP3 ADD SWAP1 POP PUSH2 0xB83 PUSH0 DUP4 ADD DUP5 PUSH2 0xB61 JUMP JUMPDEST SWAP3 SWAP2 POP POP JUMP JUMPDEST PUSH0 PUSH1 0x40 MLOAD SWAP1 POP SWAP1 JUMP JUMPDEST PUSH0 PUSH0 REVERT JUMPDEST PUSH0 PUSH0 REVERT JUMPDEST PUSH2 0xBA3 DUP2 PUSH2 0xB50 JUMP JUMPDEST DUP2 EQ PUSH2 0xBAD JUMPI PUSH0 PUSH0 REVERT JUMPDEST POP JUMP JUMPDEST PUSH0 DUP2 CALLDATALOAD SWAP1 POP PUSH2 0xBBE DUP2 PUSH2 0xB9A JUMP JUMPDEST SWAP3 SWAP2 POP POP JUMP JUMPDEST PUSH0 PUSH0 PUSH1 0x40 DUP4 DUP6 SUB SLT ISZERO PUSH2 0xBDA JUMPI PUSH2 0xBD9 PUSH2 0xB92 JUMP JUMPDEST JUMPDEST PUSH0 PUSH2 0xBE7 DUP6 DUP3 DUP7 ADD PUSH2 0xBB0 JUMP JUMPDEST SWAP3 POP POP PUSH1 0x20 PUSH2 0xBF8 DUP6 DUP3 DUP7 ADD PUSH2 0xBB0 JUMP JUMPDEST SWAP2 POP POP SWAP3 POP SWAP3 SWAP1 POP JUMP JUMPDEST PUSH0 DUP2 SWAP1 POP SWAP2 SWAP1 POP JUMP JUMPDEST PUSH2 0xC14 DUP2 PUSH2 0xC02 JUMP JUMPDEST DUP2 EQ PUSH2 0xC1E JUMPI PUSH0 PUSH0 REVERT JUMPDEST POP JUMP JUMPDEST PUSH0 DUP2 CALLDATALOAD SWAP1 POP PUSH2 0xC2F DUP2 PUSH2 0xC0B JUMP JUMPDEST SWAP3 SWAP2 POP POP JUMP JUMPDEST PUSH0 PUSH1 0x20 DUP3 DUP5 SUB SLT ISZERO PUSH2 0xC4A JUMPI PUSH2 0xC49 PUSH2 0xB92 JUMP JUMPDEST JUMPDEST PUSH0 PUSH2 0xC57 DUP5 DUP3 DUP6 ADD PUSH2 0xC21 JUMP JUMPDEST SWAP2 POP POP SWAP3 SWAP2 POP POP JUMP JUMPDEST PUSH0 DUP2 MLOAD SWAP1 POP SWAP2 SWAP1 POP JUMP JUMPDEST PUSH0 DUP3 DUP3 MSTORE PUSH1 0x20 DUP3 ADD SWAP1 POP SWAP3 SWAP2 POP POP JUMP JUMPDEST DUP3 DUP2 DUP4 MCOPY PUSH0 DUP4 DUP4 ADD MSTORE POP POP POP JUMP JUMPDEST PUSH0 PUSH1 0x1F NOT PUSH1 0x1F DUP4 ADD AND SWAP1 POP SWAP2 SWAP1 POP JUMP JUMPDEST PUSH0 PUSH2 0xCA2 DUP3 PUSH2 0xC60 JUMP JUMPDEST PUSH2 0xCAC DUP2 DUP6 PUSH2 0xC6A JUMP JUMPDEST SWAP4 POP PUSH2 0xCBC DUP2 DUP6 PUSH1 0x20 DUP7 ADD PUSH2 0xC7A JUMP JUMPDEST PUSH2 0xCC5 DUP2 PUSH2 0xC88 JUMP JUMPDEST DUP5 ADD SWAP2 POP POP SWAP3 SWAP2 POP POP JUMP JUMPDEST PUSH2 0xCD9 DUP2 PUSH2 0xC02 JUMP JUMPDEST DUP3 MSTORE POP POP JUMP JUMPDEST PUSH0 PUSH1 0x60 DUP3 ADD SWAP1 POP DUP2 DUP2 SUB PUSH0 DUP4 ADD MSTORE PUSH2 0xCF7 DUP2 DUP7 PUSH2 0xC98 JUMP JUMPDEST SWAP1 POP PUSH2 0xD06 PUSH1 0x20 DUP4 ADD DUP6 PUSH2 0xB61 JUMP JUMPDEST PUSH2 0xD13 PUSH1 0x40 DUP4 ADD DUP5 PUSH2 0xCD0 JUMP JUMPDEST SWAP5 SWAP4 POP POP POP POP JUMP JUMPDEST PUSH0 PUSH0 REVERT JUMPDEST PUSH0 PUSH0 REVERT JUMPDEST PUSH32 0x4E487B7100000000000000000000000000000000000000000000000000000000 PUSH0 MSTORE PUSH1 0x41 PUSH1 0x4 MSTORE PUSH1 0x24 PUSH0 REVERT JUMPDEST PUSH2 0xD59 DUP3 PUSH2 0xC88 JUMP JUMPDEST DUP2 ADD DUP2 DUP2 LT PUSH8 0xFFFFFFFFFFFFFFFF DUP3 GT OR ISZERO PUSH2 0xD78 JUMPI PUSH2 0xD77 PUSH2 0xD23 JUMP JUMPDEST JUMPDEST DUP1 PUSH1 0x40 MSTORE POP POP POP JUMP JUMPDEST PUSH0 PUSH2 0xD8A PUSH2 0xB89 JUMP JUMPDEST SWAP1 POP PUSH2 0xD96 DUP3 DUP3 PUSH2 0xD50 JUMP JUMPDEST SWAP2 SWAP1 POP JUMP JUMPDEST PUSH0 PUSH8 0xFFFFFFFFFFFFFFFF DUP3 GT ISZERO PUSH2 0xDB5 JUMPI PUSH2 0xDB4 PUSH2 0xD23 JUMP JUMPDEST JUMPDEST PUSH2 0xDBE DUP3 PUSH2 0xC88 JUMP JUMPDEST SWAP1 POP PUSH1 0x20 DUP2 ADD SWAP1 POP SWAP2 SWAP1 POP JUMP JUMPDEST DUP3 DUP2 DUP4 CALLDATACOPY PUSH0 DUP4 DUP4 ADD MSTORE POP POP POP JUMP JUMPDEST PUSH0 PUSH2 0xDEB PUSH2 0xDE6 DUP5 PUSH2 0xD9B JUMP JUMPDEST PUSH2 0xD81 JUMP JUMPDEST SWAP1 POP DUP3 DUP2 MSTORE PUSH1 0x20 DUP2 ADD DUP5 DUP5 DUP5 ADD GT ISZERO PUSH2 0xE07 JUMPI PUSH2 0xE06 PUSH2 0xD1F JUMP JUMPDEST JUMPDEST PUSH2 0xE12 DUP5 DUP3 DUP6 PUSH2 0xDCB JUMP JUMPDEST POP SWAP4 SWAP3 POP POP POP JUMP JUMPDEST PUSH0 DUP3 PUSH1 0x1F DUP4 ADD SLT PUSH2 0xE2E JUMPI PUSH2 0xE2D PUSH2 0xD1B JUMP JUMPDEST JUMPDEST DUP2 CALLDATALOAD PUSH2 0xE3E DUP5 DUP3 PUSH1 0x20 DUP7 ADD PUSH2 0xDD9 JUMP JUMPDEST SWAP2 POP POP SWAP3 SWAP2 POP POP JUMP JUMPDEST PUSH0 PUSH0 PUSH1 0x40 DUP4 DUP6 SUB SLT ISZERO PUSH2 0xE5D JUMPI PUSH2 0xE5C PUSH2 0xB92 JUMP JUMPDEST JUMPDEST PUSH0 DUP4 ADD CALLDATALOAD PUSH8 0xFFFFFFFFFFFFFFFF DUP2 GT ISZERO PUSH2 0xE7A JUMPI PUSH2 0xE79 PUSH2 0xB96 JUMP JUMPDEST JUMPDEST PUSH2 0xE86 DUP6 DUP3 DUP7 ADD PUSH2 0xE1A JUMP JUMPDEST SWAP3 POP POP PUSH1 0x20 DUP4 ADD CALLDATALOAD PUSH8 0xFFFFFFFFFFFFFFFF DUP2 GT ISZERO PUSH2 0xEA7 JUMPI PUSH2 0xEA6 PUSH2 0xB96 JUMP JUMPDEST JUMPDEST PUSH2 0xEB3 DUP6 DUP3 DUP7 ADD PUSH2 0xE1A JUMP JUMPDEST SWAP2 POP POP SWAP3 POP SWAP3 SWAP1 POP JUMP JUMPDEST PUSH0 PUSH0 PUSH0 PUSH1 0x60 DUP5 DUP7 SUB SLT ISZERO PUSH2 0xED4 JUMPI PUSH2 0xED3 PUSH2 0xB92 JUMP JUMPDEST JUMPDEST PUSH0 DUP5 ADD CALLDATALOAD PUSH8 0xFFFFFFFFFFFFFFFF DUP2 GT ISZERO PUSH2 0xEF1 JUMPI PUSH2 0xEF0 PUSH2 0xB96 JUMP JUMPDEST JUMPDEST PUSH2 0xEFD DUP7 DUP3 DUP8 ADD PUSH2 0xE1A JUMP JUMPDEST SWAP4 POP POP PUSH1 0x20 DUP5 ADD CALLDATALOAD PUSH8 0xFFFFFFFFFFFFFFFF DUP2 GT ISZERO PUSH2 0xF1E JUMPI PUSH2 0xF1D PUSH2 0xB96 JUMP JUMPDEST JUMPDEST PUSH2 0xF2A DUP7 DUP3 DUP8 ADD PUSH2 0xE1A JUMP JUMPDEST SWAP3 POP POP PUSH1 0x40 PUSH2 0xF3B DUP7 DUP3 DUP8 ADD PUSH2 0xBB0 JUMP JUMPDEST SWAP2 POP POP SWAP3 POP SWAP3 POP SWAP3 JUMP JUMPDEST PUSH0 PUSH1 0x20 DUP3 DUP5 SUB SLT ISZERO PUSH2 0xF5A JUMPI PUSH2 0xF59 PUSH2 0xB92 JUMP JUMPDEST JUMPDEST PUSH0 DUP3 ADD CALLDATALOAD PUSH8 0xFFFFFFFFFFFFFFFF DUP2 GT ISZERO PUSH2 0xF77 JUMPI PUSH2 0xF76 PUSH2 0xB96 JUMP JUMPDEST JUMPDEST PUSH2 0xF83 DUP5 DUP3 DUP6 ADD PUSH2 0xE1A JUMP JUMPDEST SWAP2 POP POP SWAP3 SWAP2 POP POP JUMP JUMPDEST PUSH0 PUSH1 0x20 DUP3 ADD SWAP1 POP DUP2 DUP2 SUB PUSH0 DUP4 ADD MSTORE PUSH2 0xFA4 DUP2 DUP5 PUSH2 0xC98 JUMP JUMPDEST SWAP1 POP SWAP3 SWAP2 POP POP JUMP JUMPDEST PUSH0 PUSH0 PUSH0 PUSH1 0x60 DUP5 DUP7 SUB SLT ISZERO PUSH2 0xFC3 JUMPI PUSH2 0xFC2 PUSH2 0xB92 JUMP JUMPDEST JUMPDEST PUSH0 DUP5 ADD CALLDATALOAD PUSH8 0xFFFFFFFFFFFFFFFF DUP2 GT ISZERO PUSH2 0xFE0 JUMPI PUSH2 0xFDF PUSH2 0xB96 JUMP JUMPDEST JUMPDEST PUSH2 0xFEC DUP7 DUP3 DUP8 ADD PUSH2 0xE1A JUMP JUMPDEST SWAP4 POP POP PUSH1 0x20 PUSH2 0xFFD DUP7 DUP3 DUP8 ADD PUSH2 0xBB0 JUMP JUMPDEST SWAP3 POP POP PUSH1 0x40 PUSH2 0x100E DUP7 DUP3 DUP8 ADD PUSH2 0xBB0 JUMP JUMPDEST SWAP2 POP POP SWAP3 POP SWAP3 POP SWAP3 JUMP JUMPDEST PUSH0 PUSH1 0x60 DUP3 ADD SWAP1 POP PUSH2 0x102B PUSH0 DUP4 ADD DUP7 PUSH2 0xCD0 JUMP JUMPDEST PUSH2 0x1038 PUSH1 0x20 DUP4 ADD DUP6 PUSH2 0xCD0 JUMP JUMPDEST PUSH2 0x1045 PUSH1 0x40 DUP4 ADD DUP5 PUSH2 0xCD0 JUMP JUMPDEST SWAP5 SWAP4 POP POP POP POP JUMP JUMPDEST PUSH32 0x43616C6C6572206973206E6F7420636F6E74726F6C6C65720000000000000000 PUSH0 DUP3 ADD MSTORE POP JUMP JUMPDEST PUSH0 PUSH2 0x1081 PUSH1 0x18 DUP4 PUSH2 0xC6A JUMP JUMPDEST SWAP2 POP PUSH2 0x108C DUP3 PUSH2 0x104D JUMP JUMPDEST PUSH1 0x20 DUP3 ADD SWAP1 POP SWAP2 SWAP1 POP JUMP JUMPDEST PUSH0 PUSH1 0x20 DUP3 ADD SWAP1 POP DUP2 DUP2 SUB PUSH0 DUP4 ADD MSTORE PUSH2 0x10AE DUP2 PUSH2 0x1075 JUMP JUMPDEST SWAP1 POP SWAP2 SWAP1 POP JUMP JUMPDEST PUSH32 0x4E487B7100000000000000000000000000000000000000000000000000000000 PUSH0 MSTORE PUSH1 0x22 PUSH1 0x4 MSTORE PUSH1 0x24 PUSH0 REVERT JUMPDEST PUSH0 PUSH1 0x2 DUP3 DIV SWAP1 POP PUSH1 0x1 DUP3 AND DUP1 PUSH2 0x10F9 JUMPI PUSH1 0x7F DUP3 AND SWAP2 POP JUMPDEST PUSH1 0x20 DUP3 LT DUP2 SUB PUSH2 0x110C JUMPI PUSH2 0x110B PUSH2 0x10B5 JUMP JUMPDEST JUMPDEST POP SWAP2 SWAP1 POP JUMP JUMPDEST PUSH32 0x43616C6C6572206973206E6F7420656772657373206564676500000000000000 PUSH0 DUP3 ADD MSTORE POP JUMP JUMPDEST PUSH0 PUSH2 0x1146 PUSH1 0x19 DUP4 PUSH2 0xC6A JUMP JUMPDEST SWAP2 POP PUSH2 0x1151 DUP3 PUSH2 0x1112 JUMP JUMPDEST PUSH1 0x20 DUP3 ADD SWAP1 POP SWAP2 SWAP1 POP JUMP JUMPDEST PUSH0 PUSH1 0x20 DUP3 ADD SWAP1 POP DUP2 DUP2 SUB PUSH0 DUP4 ADD MSTORE PUSH2 0x1173 DUP2 PUSH2 0x113A JUMP JUMPDEST SWAP1 POP SWAP2 SWAP1 POP JUMP JUMPDEST PUSH0 DUP2 SWAP1 POP SWAP3 SWAP2 POP POP JUMP JUMPDEST PUSH0 PUSH2 0x118E DUP3 PUSH2 0xC60 JUMP JUMPDEST PUSH2 0x1198 DUP2 DUP6 PUSH2 0x117A JUMP JUMPDEST SWAP4 POP PUSH2 0x11A8 DUP2 DUP6 PUSH1 0x20 DUP7 ADD PUSH2 0xC7A JUMP JUMPDEST DUP1 DUP5 ADD SWAP2 POP POP SWAP3 SWAP2 POP POP JUMP JUMPDEST PUSH0 PUSH2 0x11BF DUP3 DUP5 PUSH2 0x1184 JUMP JUMPDEST SWAP2 POP DUP2 SWAP1 POP SWAP3 SWAP2 POP POP JUMP JUMPDEST PUSH0 DUP2 SWAP1 POP DUP2 PUSH0 MSTORE PUSH1 0x20 PUSH0 KECCAK256 SWAP1 POP SWAP2 SWAP1 POP JUMP JUMPDEST PUSH0 DUP2 SLOAD PUSH2 0x11E8 DUP2 PUSH2 0x10E2 JUMP JUMPDEST PUSH2 0x11F2 DUP2 DUP7 PUSH2 0x117A JUMP JUMPDEST SWAP5 POP PUSH1 0x1 DUP3 AND PUSH0 DUP2 EQ PUSH2 0x120C JUMPI PUSH1 0x1 DUP2 EQ PUSH2 0x1221 JUMPI PUSH2 0x1253 JUMP JUMPDEST PUSH1 0xFF NOT DUP4 AND DUP7 MSTORE DUP2 ISZERO ISZERO DUP3 MUL DUP7 ADD SWAP4 POP PUSH2 0x1253 JUMP JUMPDEST PUSH2 0x122A DUP6 PUSH2 0x11CA JUMP JUMPDEST PUSH0 JUMPDEST DUP4 DUP2 LT ISZERO PUSH2 0x124B JUMPI DUP2 SLOAD DUP2 DUP10 ADD MSTORE PUSH1 0x1 DUP3 ADD SWAP2 POP PUSH1 0x20 DUP2 ADD SWAP1 POP PUSH2 0x122C JUMP JUMPDEST DUP4 DUP9 ADD SWAP6 POP POP POP JUMPDEST POP POP POP SWAP3 SWAP2 POP POP JUMP JUMPDEST PUSH0 PUSH2 0x1267 DUP3 DUP5 PUSH2 0x11DC JUMP JUMPDEST SWAP2 POP DUP2 SWAP1 POP SWAP3 SWAP2 POP POP JUMP JUMPDEST PUSH32 0x4E487B7100000000000000000000000000000000000000000000000000000000 PUSH0 MSTORE PUSH1 0x11 PUSH1 0x4 MSTORE PUSH1 0x24 PUSH0 REVERT JUMPDEST PUSH0 PUSH2 0x12A9 DUP3 PUSH2 0xC02 JUMP JUMPDEST SWAP2 POP PUSH2 0x12B4 DUP4 PUSH2 0xC02 JUMP JUMPDEST SWAP3 POP DUP3 DUP3 ADD SWAP1 POP DUP1 DUP3 GT ISZERO PUSH2 0x12CC JUMPI PUSH2 0x12CB PUSH2 0x1272 JUMP JUMPDEST JUMPDEST SWAP3 SWAP2 POP POP JUMP JUMPDEST PUSH0 PUSH1 0x20 PUSH1 0x1F DUP4 ADD DIV SWAP1 POP SWAP2 SWAP1 POP JUMP JUMPDEST PUSH0 DUP3 DUP3 SHL SWAP1 POP SWAP3 SWAP2 POP POP JUMP JUMPDEST PUSH0 PUSH1 0x8 DUP4 MUL PUSH2 0x131C PUSH32 0xFFFFFFFFFFFFFFFFFFFFFFFFFFFFFFFFFFFFFFFFFFFFFFFFFFFFFFFFFFFFFFFF DUP3 PUSH2 0x12E1 JUMP JUMPDEST PUSH2 0x1326 DUP7 DUP4 PUSH2 0x12E1 JUMP JUMPDEST SWAP6 POP DUP1 NOT DUP5 AND SWAP4 POP DUP1 DUP7 AND DUP5 OR SWAP3 POP POP POP SWAP4 SWAP3 POP POP POP JUMP JUMPDEST PUSH0 DUP2 SWAP1 POP SWAP2 SWAP1 POP JUMP JUMPDEST PUSH0 PUSH2 0x1361 PUSH2 0x135C PUSH2 0x1357 DUP5 PUSH2 0xC02 JUMP JUMPDEST PUSH2 0x133E JUMP JUMPDEST PUSH2 0xC02 JUMP JUMPDEST SWAP1 POP SWAP2 SWAP1 POP JUMP JUMPDEST PUSH0 DUP2 SWAP1 POP SWAP2 SWAP1 POP JUMP JUMPDEST PUSH2 0x137A DUP4 PUSH2 0x1347 JUMP JUMPDEST PUSH2 0x138E PUSH2 0x1386 DUP3 PUSH2 0x1368 JUMP JUMPDEST DUP5 DUP5 SLOAD PUSH2 0x12ED JUMP JUMPDEST DUP3 SSTORE POP POP POP POP JUMP JUMPDEST PUSH0 PUSH0 SWAP1 POP SWAP1 JUMP JUMPDEST PUSH2 0x13A5 PUSH2 0x1396 JUMP JUMPDEST PUSH2 0x13B0 DUP2 DUP5 DUP5 PUSH2 0x1371 JUMP JUMPDEST POP POP POP JUMP JUMPDEST JUMPDEST DUP2 DUP2 LT ISZERO PUSH2 0x13D3 JUMPI PUSH2 0x13C8 PUSH0 DUP3 PUSH2 0x139D JUMP JUMPDEST PUSH1 0x1 DUP2 ADD SWAP1 POP PUSH2 0x13B6 JUMP JUMPDEST POP POP JUMP JUMPDEST PUSH1 0x1F DUP3 GT ISZERO PUSH2 0x1418 JUMPI PUSH2 0x13E9 DUP2 PUSH2 0x11CA JUMP JUMPDEST PUSH2 0x13F2 DUP5 PUSH2 0x12D2 JUMP JUMPDEST DUP2 ADD PUSH1 0x20 DUP6 LT ISZERO PUSH2 0x1401 JUMPI DUP2 SWAP1 POP JUMPDEST PUSH2 0x1415 PUSH2 0x140D DUP6 PUSH2 0x12D2 JUMP JUMPDEST DUP4 ADD DUP3 PUSH2 0x13B5 JUMP JUMPDEST POP POP JUMPDEST POP POP POP JUMP JUMPDEST PUSH0 DUP3 DUP3 SHR SWAP1 POP SWAP3 SWAP2 POP POP JUMP JUMPDEST PUSH0 PUSH2 0x1438 PUSH0 NOT DUP5 PUSH1 0x8 MUL PUSH2 0x141D JUMP JUMPDEST NOT DUP1 DUP4 AND SWAP2 POP POP SWAP3 SWAP2 POP POP JUMP JUMPDEST PUSH0 PUSH2 0x1450 DUP4 DUP4 PUSH2 0x1429 JUMP JUMPDEST SWAP2 POP DUP3 PUSH1 0x2 MUL DUP3 OR SWAP1 POP SWAP3 SWAP2 POP POP JUMP JUMPDEST PUSH2 0x1469 DUP3 PUSH2 0xC60 JUMP JUMPDEST PUSH8 0xFFFFFFFFFFFFFFFF DUP2 GT ISZERO PUSH2 0x1482 JUMPI PUSH2 0x1481 PUSH2 0xD23 JUMP JUMPDEST JUMPDEST PUSH2 0x148C DUP3 SLOAD PUSH2 0x10E2 JUMP JUMPDEST PUSH2 0x1497 DUP3 DUP3 DUP6 PUSH2 0x13D7 JUMP JUMPDEST PUSH0 PUSH1 0x20 SWAP1 POP PUSH1 0x1F DUP4 GT PUSH1 0x1 DUP2 EQ PUSH2 0x14C8 JUMPI PUSH0 DUP5 ISZERO PUSH2 0x14B6 JUMPI DUP3 DUP8 ADD MLOAD SWAP1 POP JUMPDEST PUSH2 0x14C0 DUP6 DUP3 PUSH2 0x1445 JUMP JUMPDEST DUP7 SSTORE POP PUSH2 0x1527 JUMP JUMPDEST PUSH1 0x1F NOT DUP5 AND PUSH2 0x14D6 DUP7 PUSH2 0x11CA JUMP JUMPDEST PUSH0 JUMPDEST DUP3 DUP2 LT ISZERO PUSH2 0x14FD JUMPI DUP5 DUP10 ADD MLOAD DUP3 SSTORE PUSH1 0x1 DUP3 ADD SWAP2 POP PUSH1 0x20 DUP6 ADD SWAP5 POP PUSH1 0x20 DUP2 ADD SWAP1 POP PUSH2 0x14D8 JUMP JUMPDEST DUP7 DUP4 LT ISZERO PUSH2 0x151A JUMPI DUP5 DUP10 ADD MLOAD PUSH2 0x1516 PUSH1 0x1F DUP10 AND DUP3 PUSH2 0x1429 JUMP JUMPDEST DUP4 SSTORE POP JUMPDEST PUSH1 0x1 PUSH1 0x2 DUP9 MUL ADD DUP9 SSTORE POP POP POP JUMPDEST POP POP POP POP POP POP JUMP INVALID LOG2 PUSH5 0x6970667358 0x22 SLT KECCAK256 SWAP6 0xC4 DUP16 PUSH21 0xE15A9A0D6B280B2A606B60F05552063E442096EE5E 0x26 PUSH25 0x196D46186464736F6C634300081C0033000000000000000000 "
				},
				"gasEstimates": {
					"creation": {
						"codeDepositCost": "1095400",
						"executionCost": "infinite",
						"totalCost": "infinite"
					},
					"external": {
						"changeController(address,address)": "infinite",
						"changeRouteIdAndEgressEdge(string,address,address)": "infinite",
						"getCompliance()": "infinite",
						"getController()": "2515",
						"logProbe(string,string)": "infinite",
						"probHash(string)": "infinite",
						"routeIdHistory(uint256)": "infinite",
						"route_id_audit(string)": "infinite",
						"setProbeHash(string,string,address)": "infinite"
					},
					"internal": {
						"compareStrings(string memory,string memory)": "infinite"
					}
				},
				"methodIdentifiers": {
					"changeController(address,address)": "3e11e378",
					"changeRouteIdAndEgressEdge(string,address,address)": "c543691a",
					"getCompliance()": "ef040bb1",
					"getController()": "3018205f",
					"logProbe(string,string)": "97c38cfc",
					"probHash(string)": "bb56d412",
					"routeIdHistory(uint256)": "6118b23c",
					"route_id_audit(string)": "eacad774",
					"setProbeHash(string,string,address)": "b68cc799"
				}
			},
			"storageLayout": {
				"storage": [
					{
						"astId": 3,
						"contract": "PoT.sol:ProofOfTransit",
						"label": "controller",
						"offset": 0,
						"slot": "0",
						"type": "t_address"
					},
					{
						"astId": 5,
						"contract": "PoT.sol:ProofOfTransit",
						"label": "egress_edge",
						"offset": 0,
						"slot": "1",
						"type": "t_address"
					},
					{
						"astId": 7,
						"contract": "PoT.sol:ProofOfTransit",
						"label": "current_routeID",
						"offset": 0,
						"slot": "2",
						"type": "t_string_storage"
					},
					{
						"astId": 11,
						"contract": "PoT.sol:ProofOfTransit",
						"label": "probHash",
						"offset": 0,
						"slot": "3",
						"type": "t_mapping(t_string_memory_ptr,t_string_storage)"
					},
					{
						"astId": 16,
						"contract": "PoT.sol:ProofOfTransit",
						"label": "route_id_audit",
						"offset": 0,
						"slot": "4",
						"type": "t_mapping(t_string_memory_ptr,t_struct(logStructure)23_storage)"
					},
					{
						"astId": 34,
						"contract": "PoT.sol:ProofOfTransit",
						"label": "routeIdHistory",
						"offset": 0,
						"slot": "5",
						"type": "t_array(t_struct(pastRouteConfig)30_storage)dyn_storage"
					}
				],
				"types": {
					"t_address": {
						"encoding": "inplace",
						"label": "address",
						"numberOfBytes": "20"
					},
					"t_array(t_struct(pastRouteConfig)30_storage)dyn_storage": {
						"base": "t_struct(pastRouteConfig)30_storage",
						"encoding": "dynamic_array",
						"label": "struct ProofOfTransit.pastRouteConfig[]",
						"numberOfBytes": "32"
					},
					"t_mapping(t_string_memory_ptr,t_string_storage)": {
						"encoding": "mapping",
						"key": "t_string_memory_ptr",
						"label": "mapping(string => string)",
						"numberOfBytes": "32",
						"value": "t_string_storage"
					},
					"t_mapping(t_string_memory_ptr,t_struct(logStructure)23_storage)": {
						"encoding": "mapping",
						"key": "t_string_memory_ptr",
						"label": "mapping(string => struct ProofOfTransit.logStructure)",
						"numberOfBytes": "32",
						"value": "t_struct(logStructure)23_storage"
					},
					"t_string_memory_ptr": {
						"encoding": "bytes",
						"label": "string",
						"numberOfBytes": "32"
					},
					"t_string_storage": {
						"encoding": "bytes",
						"label": "string",
						"numberOfBytes": "32"
					},
					"t_struct(logStructure)23_storage": {
						"encoding": "inplace",
						"label": "struct ProofOfTransit.logStructure",
						"members": [
							{
								"astId": 18,
								"contract": "PoT.sol:ProofOfTransit",
								"label": "probeFailAmount",
								"offset": 0,
								"slot": "0",
								"type": "t_uint256"
							},
							{
								"astId": 20,
								"contract": "PoT.sol:ProofOfTransit",
								"label": "probeNullAmount",
								"offset": 0,
								"slot": "1",
								"type": "t_uint256"
							},
							{
								"astId": 22,
								"contract": "PoT.sol:ProofOfTransit",
								"label": "probeSuccessAmount",
								"offset": 0,
								"slot": "2",
								"type": "t_uint256"
							}
						],
						"numberOfBytes": "96"
					},
					"t_struct(pastRouteConfig)30_storage": {
						"encoding": "inplace",
						"label": "struct ProofOfTransit.pastRouteConfig",
						"members": [
							{
								"astId": 25,
								"contract": "PoT.sol:ProofOfTransit",
								"label": "route_id",
								"offset": 0,
								"slot": "0",
								"type": "t_string_storage"
							},
							{
								"astId": 27,
								"contract": "PoT.sol:ProofOfTransit",
								"label": "egress_edge",
								"offset": 0,
								"slot": "1",
								"type": "t_address"
							},
							{
								"astId": 29,
								"contract": "PoT.sol:ProofOfTransit",
								"label": "last_timestamp",
								"offset": 0,
								"slot": "2",
								"type": "t_uint256"
							}
						],
						"numberOfBytes": "96"
					},
					"t_uint256": {
						"encoding": "inplace",
						"label": "uint256",
						"numberOfBytes": "32"
					}
				}
			},
			"userdoc": {
				"kind": "user",
				"methods": {},
				"version": 1
			}
		}
	}
}